{
	"contracts/Multisig.sol": {
		"MultiiSig": {
			"abi": [
				{
					"inputs": [],
					"stateMutability": "nonpayable",
					"type": "constructor"
				},
				{
					"anonymous": false,
					"inputs": [
						{
							"indexed": false,
							"internalType": "address",
							"name": "sender",
							"type": "address"
						},
						{
							"indexed": false,
							"internalType": "uint256",
							"name": "amount",
							"type": "uint256"
						},
						{
							"indexed": false,
							"internalType": "uint256",
							"name": "depositId",
							"type": "uint256"
						},
						{
							"indexed": false,
							"internalType": "uint256",
							"name": "timeOfTransaction",
							"type": "uint256"
						}
					],
					"name": "fundsDeposited",
					"type": "event"
				},
				{
					"anonymous": false,
					"inputs": [
						{
							"indexed": false,
							"internalType": "address",
							"name": "sender",
							"type": "address"
						},
						{
							"indexed": false,
							"internalType": "address",
							"name": "receiver",
							"type": "address"
						},
						{
							"indexed": false,
							"internalType": "uint256",
							"name": "amount",
							"type": "uint256"
						},
						{
							"indexed": false,
							"internalType": "uint256",
							"name": "id",
							"type": "uint256"
						},
						{
							"indexed": false,
							"internalType": "uint256",
							"name": "approvals",
							"type": "uint256"
						},
						{
							"indexed": false,
							"internalType": "uint256",
							"name": "timeOfTransaction",
							"type": "uint256"
						}
					],
					"name": "fundsTransfered",
					"type": "event"
				},
				{
					"anonymous": false,
					"inputs": [
						{
							"indexed": false,
							"internalType": "address",
							"name": "sender",
							"type": "address"
						},
						{
							"indexed": false,
							"internalType": "uint256",
							"name": "amount",
							"type": "uint256"
						},
						{
							"indexed": false,
							"internalType": "uint256",
							"name": "withdrawalId",
							"type": "uint256"
						},
						{
							"indexed": false,
							"internalType": "uint256",
							"name": "timeOfTransaction",
							"type": "uint256"
						}
					],
					"name": "fundsWithdrawed",
					"type": "event"
				},
				{
					"anonymous": false,
					"inputs": [
						{
							"indexed": false,
							"internalType": "address",
							"name": "sender",
							"type": "address"
						},
						{
							"indexed": false,
							"internalType": "address",
							"name": "receiver",
							"type": "address"
						},
						{
							"indexed": false,
							"internalType": "uint256",
							"name": "amount",
							"type": "uint256"
						},
						{
							"indexed": false,
							"internalType": "uint256",
							"name": "id",
							"type": "uint256"
						},
						{
							"indexed": false,
							"internalType": "uint256",
							"name": "approvals",
							"type": "uint256"
						},
						{
							"indexed": false,
							"internalType": "uint256",
							"name": "timeOfTransaction",
							"type": "uint256"
						}
					],
					"name": "transferApproved",
					"type": "event"
				},
				{
					"anonymous": false,
					"inputs": [
						{
							"indexed": false,
							"internalType": "address",
							"name": "sender",
							"type": "address"
						},
						{
							"indexed": false,
							"internalType": "address",
							"name": "receiver",
							"type": "address"
						},
						{
							"indexed": false,
							"internalType": "uint256",
							"name": "amount",
							"type": "uint256"
						},
						{
							"indexed": false,
							"internalType": "uint256",
							"name": "id",
							"type": "uint256"
						},
						{
							"indexed": false,
							"internalType": "uint256",
							"name": "approvals",
							"type": "uint256"
						},
						{
							"indexed": false,
							"internalType": "uint256",
							"name": "timeOfTransaction",
							"type": "uint256"
						}
					],
					"name": "transferCancelled",
					"type": "event"
				},
				{
					"anonymous": false,
					"inputs": [
						{
							"indexed": false,
							"internalType": "address",
							"name": "sender",
							"type": "address"
						},
						{
							"indexed": false,
							"internalType": "address",
							"name": "receiver",
							"type": "address"
						},
						{
							"indexed": false,
							"internalType": "uint256",
							"name": "amount",
							"type": "uint256"
						},
						{
							"indexed": false,
							"internalType": "uint256",
							"name": "id",
							"type": "uint256"
						},
						{
							"indexed": false,
							"internalType": "uint256",
							"name": "approvals",
							"type": "uint256"
						},
						{
							"indexed": false,
							"internalType": "uint256",
							"name": "timeOfTransaction",
							"type": "uint256"
						}
					],
					"name": "transferCreated",
					"type": "event"
				},
				{
					"anonymous": false,
					"inputs": [
						{
							"indexed": false,
							"internalType": "address",
							"name": "addedBy",
							"type": "address"
						},
						{
							"indexed": false,
							"internalType": "address",
							"name": "ownerAdded",
							"type": "address"
						},
						{
							"indexed": false,
							"internalType": "uint256",
							"name": "timeOfTransaction",
							"type": "uint256"
						}
					],
					"name": "walletOwnerAdded",
					"type": "event"
				},
				{
					"anonymous": false,
					"inputs": [
						{
							"indexed": false,
							"internalType": "address",
							"name": "removedBy",
							"type": "address"
						},
						{
							"indexed": false,
							"internalType": "address",
							"name": "ownerRemoved",
							"type": "address"
						},
						{
							"indexed": false,
							"internalType": "uint256",
							"name": "timeOfTransaction",
							"type": "uint256"
						}
					],
					"name": "walletOwnerRemoved",
					"type": "event"
				},
				{
					"inputs": [
						{
							"internalType": "address",
							"name": "owner",
							"type": "address"
						}
					],
					"name": "addWalletOwner",
					"outputs": [],
					"stateMutability": "nonpayable",
					"type": "function"
				},
				{
					"inputs": [
						{
							"internalType": "uint256",
							"name": "id",
							"type": "uint256"
						}
					],
					"name": "approveTransferRequest",
					"outputs": [],
					"stateMutability": "nonpayable",
					"type": "function"
				},
				{
					"inputs": [
						{
							"internalType": "uint256",
							"name": "id",
							"type": "uint256"
						}
					],
					"name": "cancelTransferRequest",
					"outputs": [],
					"stateMutability": "nonpayable",
					"type": "function"
				},
				{
					"inputs": [
						{
							"internalType": "address payable",
							"name": "receiver",
							"type": "address"
						},
						{
							"internalType": "uint256",
							"name": "amount",
							"type": "uint256"
						}
					],
					"name": "createTrnasferRequest",
					"outputs": [],
					"stateMutability": "nonpayable",
					"type": "function"
				},
				{
					"inputs": [],
					"name": "deposit",
					"outputs": [],
					"stateMutability": "payable",
					"type": "function"
				},
				{
					"inputs": [],
					"name": "getApprovalLimit",
					"outputs": [
						{
							"internalType": "uint256",
							"name": "",
							"type": "uint256"
						}
					],
					"stateMutability": "view",
					"type": "function"
				},
				{
					"inputs": [
						{
							"internalType": "uint256",
							"name": "id",
							"type": "uint256"
						}
					],
					"name": "getApprovals",
					"outputs": [
						{
							"internalType": "bool",
							"name": "",
							"type": "bool"
						}
					],
					"stateMutability": "view",
					"type": "function"
				},
				{
					"inputs": [],
					"name": "getBalance",
					"outputs": [
						{
							"internalType": "uint256",
							"name": "",
							"type": "uint256"
						}
					],
					"stateMutability": "view",
					"type": "function"
				},
				{
					"inputs": [],
					"name": "getContractBalance",
					"outputs": [
						{
							"internalType": "uint256",
							"name": "",
							"type": "uint256"
						}
					],
					"stateMutability": "view",
					"type": "function"
				},
				{
					"inputs": [],
					"name": "getTransferRequests",
					"outputs": [
						{
							"components": [
								{
									"internalType": "address",
									"name": "sender",
									"type": "address"
								},
								{
									"internalType": "address payable",
									"name": "receiver",
									"type": "address"
								},
								{
									"internalType": "uint256",
									"name": "amount",
									"type": "uint256"
								},
								{
									"internalType": "uint256",
									"name": "id",
									"type": "uint256"
								},
								{
									"internalType": "uint256",
									"name": "approvals",
									"type": "uint256"
								},
								{
									"internalType": "uint256",
									"name": "timeOfTransaction",
									"type": "uint256"
								}
							],
							"internalType": "struct MultiiSig.Transfer[]",
							"name": "",
							"type": "tuple[]"
						}
					],
					"stateMutability": "view",
					"type": "function"
				},
				{
					"inputs": [],
					"name": "getWalletOners",
					"outputs": [
						{
							"internalType": "address[]",
							"name": "",
							"type": "address[]"
						}
					],
					"stateMutability": "view",
					"type": "function"
				},
				{
					"inputs": [
						{
							"internalType": "address",
							"name": "owner",
							"type": "address"
						}
					],
					"name": "removeWalletOwner",
					"outputs": [],
					"stateMutability": "nonpayable",
					"type": "function"
				},
				{
					"inputs": [
						{
							"internalType": "uint256",
							"name": "amount",
							"type": "uint256"
						}
					],
					"name": "withdraw",
					"outputs": [],
					"stateMutability": "nonpayable",
					"type": "function"
				}
			],
			"devdoc": {
				"kind": "dev",
				"methods": {},
				"version": 1
			},
			"evm": {
				"assembly": "    /* \"contracts/Multisig.sol\":65:8452  contract MultiiSig {\r... */\n  mstore(0x40, 0x80)\n    /* \"contracts/Multisig.sol\":184:185  0 */\n  0x00\n    /* \"contracts/Multisig.sol\":167:185  uint depositId = 0 */\n  0x03\n  sstore\n    /* \"contracts/Multisig.sol\":212:213  0 */\n  0x00\n    /* \"contracts/Multisig.sol\":192:213  uint withdrawalId = 0 */\n  0x04\n  sstore\n    /* \"contracts/Multisig.sol\":238:239  0 */\n  0x00\n    /* \"contracts/Multisig.sol\":220:239  uint transferId = 0 */\n  0x05\n  sstore\n    /* \"contracts/Multisig.sol\":277:455  constructor() {\r... */\n  callvalue\n  dup1\n  iszero\n  tag_1\n  jumpi\n  0x00\n  dup1\n  revert\ntag_1:\n  pop\n    /* \"contracts/Multisig.sol\":324:334  msg.sender */\n  caller\n    /* \"contracts/Multisig.sol\":312:321  mainOwner */\n  0x00\n  dup1\n    /* \"contracts/Multisig.sol\":312:334  mainOwner = msg.sender */\n  0x0100\n  exp\n  dup2\n  sload\n  dup2\n  0xffffffffffffffffffffffffffffffffffffffff\n  mul\n  not\n  and\n  swap1\n  dup4\n  0xffffffffffffffffffffffffffffffffffffffff\n  and\n  mul\n  or\n  swap1\n  sstore\n  pop\n    /* \"contracts/Multisig.sol\":345:357  walletowners */\n  0x01\n    /* \"contracts/Multisig.sol\":363:372  mainOwner */\n  0x00\n  dup1\n  sload\n  swap1\n  0x0100\n  exp\n  swap1\n  div\n  0xffffffffffffffffffffffffffffffffffffffff\n  and\n    /* \"contracts/Multisig.sol\":345:373  walletowners.push(mainOwner) */\n  swap1\n  dup1\n  0x01\n  dup2\n  sload\n  add\n  dup1\n  dup3\n  sstore\n  dup1\n  swap2\n  pop\n  pop\n  0x01\n  swap1\n  sub\n  swap1\n  0x00\n  mstore\n  keccak256(0x00, 0x20)\n  add\n  0x00\n  swap1\n  swap2\n  swap1\n  swap2\n  swap1\n  swap2\n  0x0100\n  exp\n  dup2\n  sload\n  dup2\n  0xffffffffffffffffffffffffffffffffffffffff\n  mul\n  not\n  and\n  swap1\n  dup4\n  0xffffffffffffffffffffffffffffffffffffffff\n  and\n  mul\n  or\n  swap1\n  sstore\n  pop\n    /* \"contracts/Multisig.sol\":414:415  1 */\n  0x01\n    /* \"contracts/Multisig.sol\":392:404  walletowners */\n  dup1\n    /* \"contracts/Multisig.sol\":392:411  walletowners.length */\n  dup1\n  sload\n  swap1\n  pop\n    /* \"contracts/Multisig.sol\":392:415  walletowners.length - 1 */\n  tag_5\n  swap2\n  swap1\n  tag_6\n  jump\t// in\ntag_5:\n    /* \"contracts/Multisig.sol\":384:389  limit */\n  0x02\n    /* \"contracts/Multisig.sol\":384:415  limit = walletowners.length - 1 */\n  dup2\n  swap1\n  sstore\n  pop\n    /* \"contracts/Multisig.sol\":426:435  tokenList */\n  0x06\n    /* \"contracts/Multisig.sol\":426:447  tokenList.push('ETH') */\n  dup1\n  0x01\n  dup2\n  sload\n  add\n  dup1\n  dup3\n  sstore\n  dup1\n  swap2\n  pop\n  pop\n  0x01\n  swap1\n  sub\n  swap1\n  0x00\n  mstore\n  keccak256(0x00, 0x20)\n  add\n  0x00\n  mload(0x40)\n  dup1\n  0x40\n  add\n  0x40\n  mstore\n  dup1\n  0x03\n  dup2\n  mstore\n  0x20\n  add\n  0x4554480000000000000000000000000000000000000000000000000000000000\n  dup2\n  mstore\n  pop\n  swap1\n  swap2\n  swap1\n  swap2\n  pop\n  swap1\n  dup1\n  mload\n  swap1\n  0x20\n  add\n  swap1\n  tag_8\n  swap3\n  swap2\n  swap1\n  tag_9\n  jump\t// in\ntag_8:\n  pop\n    /* \"contracts/Multisig.sol\":65:8452  contract MultiiSig {\r... */\n  jump(tag_10)\ntag_9:\n  dup3\n  dup1\n  sload\n  tag_11\n  swap1\n  tag_12\n  jump\t// in\ntag_11:\n  swap1\n  0x00\n  mstore\n  keccak256(0x00, 0x20)\n  swap1\n  0x1f\n  add\n  0x20\n  swap1\n  div\n  dup2\n  add\n  swap3\n  dup3\n  tag_14\n  jumpi\n  0x00\n  dup6\n  sstore\n  jump(tag_13)\ntag_14:\n  dup3\n  0x1f\n  lt\n  tag_15\n  jumpi\n  dup1\n  mload\n  not(0xff)\n  and\n  dup4\n  dup1\n  add\n  or\n  dup6\n  sstore\n  jump(tag_13)\ntag_15:\n  dup3\n  dup1\n  add\n  0x01\n  add\n  dup6\n  sstore\n  dup3\n  iszero\n  tag_13\n  jumpi\n  swap2\n  dup3\n  add\ntag_16:\n  dup3\n  dup2\n  gt\n  iszero\n  tag_17\n  jumpi\n  dup3\n  mload\n  dup3\n  sstore\n  swap2\n  0x20\n  add\n  swap2\n  swap1\n  0x01\n  add\n  swap1\n  jump(tag_16)\ntag_17:\ntag_13:\n  pop\n  swap1\n  pop\n  tag_18\n  swap2\n  swap1\n  tag_19\n  jump\t// in\ntag_18:\n  pop\n  swap1\n  jump\t// out\ntag_19:\ntag_20:\n  dup1\n  dup3\n  gt\n  iszero\n  tag_21\n  jumpi\n  0x00\n  dup2\n  0x00\n  swap1\n  sstore\n  pop\n  0x01\n  add\n  jump(tag_20)\ntag_21:\n  pop\n  swap1\n  jump\t// out\n    /* \"#utility.yul\":7:198   */\ntag_6:\n    /* \"#utility.yul\":47:51   */\n  0x00\n    /* \"#utility.yul\":67:87   */\n  tag_24\n    /* \"#utility.yul\":85:86   */\n  dup3\n    /* \"#utility.yul\":67:87   */\n  tag_25\n  jump\t// in\ntag_24:\n    /* \"#utility.yul\":62:87   */\n  swap2\n  pop\n    /* \"#utility.yul\":101:121   */\n  tag_26\n    /* \"#utility.yul\":119:120   */\n  dup4\n    /* \"#utility.yul\":101:121   */\n  tag_25\n  jump\t// in\ntag_26:\n    /* \"#utility.yul\":96:121   */\n  swap3\n  pop\n    /* \"#utility.yul\":140:141   */\n  dup3\n    /* \"#utility.yul\":137:138   */\n  dup3\n    /* \"#utility.yul\":134:142   */\n  lt\n    /* \"#utility.yul\":131:165   */\n  iszero\n  tag_27\n  jumpi\n    /* \"#utility.yul\":145:163   */\n  tag_28\n  tag_29\n  jump\t// in\ntag_28:\n    /* \"#utility.yul\":131:165   */\ntag_27:\n    /* \"#utility.yul\":190:191   */\n  dup3\n    /* \"#utility.yul\":187:188   */\n  dup3\n    /* \"#utility.yul\":183:192   */\n  sub\n    /* \"#utility.yul\":175:192   */\n  swap1\n  pop\n    /* \"#utility.yul\":7:198   */\n  swap3\n  swap2\n  pop\n  pop\n  jump\t// out\n    /* \"#utility.yul\":204:281   */\ntag_25:\n    /* \"#utility.yul\":241:248   */\n  0x00\n    /* \"#utility.yul\":270:275   */\n  dup2\n    /* \"#utility.yul\":259:275   */\n  swap1\n  pop\n    /* \"#utility.yul\":204:281   */\n  swap2\n  swap1\n  pop\n  jump\t// out\n    /* \"#utility.yul\":287:607   */\ntag_12:\n    /* \"#utility.yul\":331:337   */\n  0x00\n    /* \"#utility.yul\":368:369   */\n  0x02\n    /* \"#utility.yul\":362:366   */\n  dup3\n    /* \"#utility.yul\":358:370   */\n  div\n    /* \"#utility.yul\":348:370   */\n  swap1\n  pop\n    /* \"#utility.yul\":415:416   */\n  0x01\n    /* \"#utility.yul\":409:413   */\n  dup3\n    /* \"#utility.yul\":405:417   */\n  and\n    /* \"#utility.yul\":436:454   */\n  dup1\n    /* \"#utility.yul\":426:507   */\n  tag_32\n  jumpi\n    /* \"#utility.yul\":492:496   */\n  0x7f\n    /* \"#utility.yul\":484:490   */\n  dup3\n    /* \"#utility.yul\":480:497   */\n  and\n    /* \"#utility.yul\":470:497   */\n  swap2\n  pop\n    /* \"#utility.yul\":426:507   */\ntag_32:\n    /* \"#utility.yul\":554:556   */\n  0x20\n    /* \"#utility.yul\":546:552   */\n  dup3\n    /* \"#utility.yul\":543:557   */\n  lt\n    /* \"#utility.yul\":523:541   */\n  dup2\n    /* \"#utility.yul\":520:558   */\n  eq\n    /* \"#utility.yul\":517:601   */\n  iszero\n  tag_33\n  jumpi\n    /* \"#utility.yul\":573:591   */\n  tag_34\n  tag_35\n  jump\t// in\ntag_34:\n    /* \"#utility.yul\":517:601   */\ntag_33:\n    /* \"#utility.yul\":338:607   */\n  pop\n    /* \"#utility.yul\":287:607   */\n  swap2\n  swap1\n  pop\n  jump\t// out\n    /* \"#utility.yul\":613:793   */\ntag_29:\n    /* \"#utility.yul\":661:738   */\n  0x4e487b7100000000000000000000000000000000000000000000000000000000\n    /* \"#utility.yul\":658:659   */\n  0x00\n    /* \"#utility.yul\":651:739   */\n  mstore\n    /* \"#utility.yul\":758:762   */\n  0x11\n    /* \"#utility.yul\":755:756   */\n  0x04\n    /* \"#utility.yul\":748:763   */\n  mstore\n    /* \"#utility.yul\":782:786   */\n  0x24\n    /* \"#utility.yul\":779:780   */\n  0x00\n    /* \"#utility.yul\":772:787   */\n  revert\n    /* \"#utility.yul\":799:979   */\ntag_35:\n    /* \"#utility.yul\":847:924   */\n  0x4e487b7100000000000000000000000000000000000000000000000000000000\n    /* \"#utility.yul\":844:845   */\n  0x00\n    /* \"#utility.yul\":837:925   */\n  mstore\n    /* \"#utility.yul\":944:948   */\n  0x22\n    /* \"#utility.yul\":941:942   */\n  0x04\n    /* \"#utility.yul\":934:949   */\n  mstore\n    /* \"#utility.yul\":968:972   */\n  0x24\n    /* \"#utility.yul\":965:966   */\n  0x00\n    /* \"#utility.yul\":958:973   */\n  revert\n    /* \"contracts/Multisig.sol\":65:8452  contract MultiiSig {\r... */\ntag_10:\n  dataSize(sub_0)\n  dup1\n  dataOffset(sub_0)\n  0x00\n  codecopy\n  0x00\n  return\nstop\n\nsub_0: assembly {\n        /* \"contracts/Multisig.sol\":65:8452  contract MultiiSig {\r... */\n      mstore(0x40, 0x80)\n      jumpi(tag_1, lt(calldatasize, 0x04))\n      shr(0xe0, calldataload(0x00))\n      dup1\n      0x93dfbd9e\n      gt\n      tag_15\n      jumpi\n      dup1\n      0xaabdc71a\n      gt\n      tag_16\n      jumpi\n      dup1\n      0xaabdc71a\n      eq\n      tag_11\n      jumpi\n      dup1\n      0xce993c77\n      eq\n      tag_12\n      jumpi\n      dup1\n      0xd0e30db0\n      eq\n      tag_13\n      jumpi\n      dup1\n      0xdec3eea5\n      eq\n      tag_14\n      jumpi\n      jump(tag_1)\n    tag_16:\n      dup1\n      0x93dfbd9e\n      eq\n      tag_8\n      jumpi\n      dup1\n      0xa04ef145\n      eq\n      tag_9\n      jumpi\n      dup1\n      0xa4e360c8\n      eq\n      tag_10\n      jumpi\n      jump(tag_1)\n    tag_15:\n      dup1\n      0x12065fe0\n      eq\n      tag_2\n      jumpi\n      dup1\n      0x2e1a7d4d\n      eq\n      tag_3\n      jumpi\n      dup1\n      0x3cc61ea7\n      eq\n      tag_4\n      jumpi\n      dup1\n      0x5f89aacb\n      eq\n      tag_5\n      jumpi\n      dup1\n      0x6f9fb98a\n      eq\n      tag_6\n      jumpi\n      dup1\n      0x7278a1fa\n      eq\n      tag_7\n      jumpi\n    tag_1:\n      0x00\n      dup1\n      revert\n        /* \"contracts/Multisig.sol\":8089:8192  function getBalance() public view returns(uint) {\r... */\n    tag_2:\n      callvalue\n      dup1\n      iszero\n      tag_17\n      jumpi\n      0x00\n      dup1\n      revert\n    tag_17:\n      pop\n      tag_18\n      tag_19\n      jump\t// in\n    tag_18:\n      mload(0x40)\n      tag_20\n      swap2\n      swap1\n      tag_21\n      jump\t// in\n    tag_20:\n      mload(0x40)\n      dup1\n      swap2\n      sub\n      swap1\n      return\n        /* \"contracts/Multisig.sol\":3896:4247  function withdraw(uint amount) public onlyowners {\r... */\n    tag_3:\n      callvalue\n      dup1\n      iszero\n      tag_22\n      jumpi\n      0x00\n      dup1\n      revert\n    tag_22:\n      pop\n      tag_23\n      0x04\n      dup1\n      calldatasize\n      sub\n      dup2\n      add\n      swap1\n      tag_24\n      swap2\n      swap1\n      tag_25\n      jump\t// in\n    tag_24:\n      tag_26\n      jump\t// in\n    tag_23:\n      stop\n        /* \"contracts/Multisig.sol\":4259:4914  function createTrnasferRequest(address payable receiver, uint amount) public onlyowners {\r... */\n    tag_4:\n      callvalue\n      dup1\n      iszero\n      tag_27\n      jumpi\n      0x00\n      dup1\n      revert\n    tag_27:\n      pop\n      tag_28\n      0x04\n      dup1\n      calldatasize\n      sub\n      dup2\n      add\n      swap1\n      tag_29\n      swap2\n      swap1\n      tag_30\n      jump\t// in\n    tag_29:\n      tag_31\n      jump\t// in\n    tag_28:\n      stop\n        /* \"contracts/Multisig.sol\":4926:6034  function cancelTransferRequest(uint id) public onlyowners {\r... */\n    tag_5:\n      callvalue\n      dup1\n      iszero\n      tag_32\n      jumpi\n      0x00\n      dup1\n      revert\n    tag_32:\n      pop\n      tag_33\n      0x04\n      dup1\n      calldatasize\n      sub\n      dup2\n      add\n      swap1\n      tag_34\n      swap2\n      swap1\n      tag_25\n      jump\t// in\n    tag_34:\n      tag_35\n      jump\t// in\n    tag_33:\n      stop\n        /* \"contracts/Multisig.sol\":8313:8426  function getContractBalance() public view returns(uint) {\r... */\n    tag_6:\n      callvalue\n      dup1\n      iszero\n      tag_36\n      jumpi\n      0x00\n      dup1\n      revert\n    tag_36:\n      pop\n      tag_37\n      tag_38\n      jump\t// in\n    tag_37:\n      mload(0x40)\n      tag_39\n      swap2\n      swap1\n      tag_21\n      jump\t// in\n    tag_39:\n      mload(0x40)\n      dup1\n      swap2\n      sub\n      swap1\n      return\n        /* \"contracts/Multisig.sol\":8204:8300  function getApprovalLimit() public view returns (uint) {\r... */\n    tag_7:\n      callvalue\n      dup1\n      iszero\n      tag_40\n      jumpi\n      0x00\n      dup1\n      revert\n    tag_40:\n      pop\n      tag_41\n      tag_42\n      jump\t// in\n    tag_41:\n      mload(0x40)\n      tag_43\n      swap2\n      swap1\n      tag_21\n      jump\t// in\n    tag_43:\n      mload(0x40)\n      dup1\n      swap2\n      sub\n      swap1\n      return\n        /* \"contracts/Multisig.sol\":2360:2819  function addWalletOwner(address owner) public onlyowners {\r... */\n    tag_8:\n      callvalue\n      dup1\n      iszero\n      tag_44\n      jumpi\n      0x00\n      dup1\n      revert\n    tag_44:\n      pop\n      tag_45\n      0x04\n      dup1\n      calldatasize\n      sub\n      dup2\n      add\n      swap1\n      tag_46\n      swap2\n      swap1\n      tag_47\n      jump\t// in\n    tag_46:\n      tag_48\n      jump\t// in\n    tag_45:\n      stop\n        /* \"contracts/Multisig.sol\":7955:8077  function getTransferRequests() public view returns(Transfer[] memory) {\r... */\n    tag_9:\n      callvalue\n      dup1\n      iszero\n      tag_49\n      jumpi\n      0x00\n      dup1\n      revert\n    tag_49:\n      pop\n      tag_50\n      tag_51\n      jump\t// in\n    tag_50:\n      mload(0x40)\n      tag_52\n      swap2\n      swap1\n      tag_53\n      jump\t// in\n    tag_52:\n      mload(0x40)\n      dup1\n      swap2\n      sub\n      swap1\n      return\n        /* \"contracts/Multisig.sol\":7825:7943  function getApprovals(uint id) public view returns(bool) {\r... */\n    tag_10:\n      callvalue\n      dup1\n      iszero\n      tag_54\n      jumpi\n      0x00\n      dup1\n      revert\n    tag_54:\n      pop\n      tag_55\n      0x04\n      dup1\n      calldatasize\n      sub\n      dup2\n      add\n      swap1\n      tag_56\n      swap2\n      swap1\n      tag_25\n      jump\t// in\n    tag_56:\n      tag_57\n      jump\t// in\n    tag_55:\n      mload(0x40)\n      tag_58\n      swap2\n      swap1\n      tag_59\n      jump\t// in\n    tag_58:\n      mload(0x40)\n      dup1\n      swap2\n      sub\n      swap1\n      return\n        /* \"contracts/Multisig.sol\":2837:3557  function removeWalletOwner(address owner) public onlyowners {\r... */\n    tag_11:\n      callvalue\n      dup1\n      iszero\n      tag_60\n      jumpi\n      0x00\n      dup1\n      revert\n    tag_60:\n      pop\n      tag_61\n      0x04\n      dup1\n      calldatasize\n      sub\n      dup2\n      add\n      swap1\n      tag_62\n      swap2\n      swap1\n      tag_47\n      jump\t// in\n    tag_62:\n      tag_63\n      jump\t// in\n    tag_61:\n      stop\n        /* \"contracts/Multisig.sol\":2236:2348  function getWalletOners() public view returns(address[] memory) {\r... */\n    tag_12:\n      callvalue\n      dup1\n      iszero\n      tag_64\n      jumpi\n      0x00\n      dup1\n      revert\n    tag_64:\n      pop\n      tag_65\n      tag_66\n      jump\t// in\n    tag_65:\n      mload(0x40)\n      tag_67\n      swap2\n      swap1\n      tag_68\n      jump\t// in\n    tag_67:\n      mload(0x40)\n      dup1\n      swap2\n      sub\n      swap1\n      return\n        /* \"contracts/Multisig.sol\":3569:3883  function deposit() public payable onlyowners {\r... */\n    tag_13:\n      tag_69\n      tag_70\n      jump\t// in\n    tag_69:\n      stop\n        /* \"contracts/Multisig.sol\":6046:7253  function approveTransferRequest(uint id) public onlyowners {\r... */\n    tag_14:\n      callvalue\n      dup1\n      iszero\n      tag_71\n      jumpi\n      0x00\n      dup1\n      revert\n    tag_71:\n      pop\n      tag_72\n      0x04\n      dup1\n      calldatasize\n      sub\n      dup2\n      add\n      swap1\n      tag_73\n      swap2\n      swap1\n      tag_25\n      jump\t// in\n    tag_73:\n      tag_74\n      jump\t// in\n    tag_72:\n      stop\n        /* \"contracts/Multisig.sol\":8089:8192  function getBalance() public view returns(uint) {\r... */\n    tag_19:\n        /* \"contracts/Multisig.sol\":8131:8135  uint */\n      0x00\n        /* \"contracts/Multisig.sol\":8165:8172  balance */\n      0x07\n        /* \"contracts/Multisig.sol\":8165:8184  balance[msg.sender] */\n      0x00\n        /* \"contracts/Multisig.sol\":8173:8183  msg.sender */\n      caller\n        /* \"contracts/Multisig.sol\":8165:8184  balance[msg.sender] */\n      0xffffffffffffffffffffffffffffffffffffffff\n      and\n      0xffffffffffffffffffffffffffffffffffffffff\n      and\n      dup2\n      mstore\n      0x20\n      add\n      swap1\n      dup2\n      mstore\n      0x20\n      add\n      0x00\n      keccak256\n      sload\n        /* \"contracts/Multisig.sol\":8158:8184  return balance[msg.sender] */\n      swap1\n      pop\n        /* \"contracts/Multisig.sol\":8089:8192  function getBalance() public view returns(uint) {\r... */\n      swap1\n      jump\t// out\n        /* \"contracts/Multisig.sol\":3896:4247  function withdraw(uint amount) public onlyowners {\r... */\n    tag_26:\n        /* \"contracts/Multisig.sol\":1868:1880  bool isOwner */\n      0x00\n        /* \"contracts/Multisig.sol\":1903:1909  uint i */\n      dup1\n        /* \"contracts/Multisig.sol\":1898:2103  for (uint i = 0; i< walletowners.length; i++) {\r... */\n    tag_77:\n        /* \"contracts/Multisig.sol\":1918:1930  walletowners */\n      0x01\n        /* \"contracts/Multisig.sol\":1918:1937  walletowners.length */\n      dup1\n      sload\n      swap1\n      pop\n        /* \"contracts/Multisig.sol\":1915:1916  i */\n      dup2\n        /* \"contracts/Multisig.sol\":1915:1937  i< walletowners.length */\n      lt\n        /* \"contracts/Multisig.sol\":1898:2103  for (uint i = 0; i< walletowners.length; i++) {\r... */\n      iszero\n      tag_78\n      jumpi\n        /* \"contracts/Multisig.sol\":1994:2004  msg.sender */\n      caller\n        /* \"contracts/Multisig.sol\":1975:2004  walletowners[i] == msg.sender */\n      0xffffffffffffffffffffffffffffffffffffffff\n      and\n        /* \"contracts/Multisig.sol\":1975:1987  walletowners */\n      0x01\n        /* \"contracts/Multisig.sol\":1988:1989  i */\n      dup3\n        /* \"contracts/Multisig.sol\":1975:1990  walletowners[i] */\n      dup2\n      sload\n      dup2\n      lt\n      tag_80\n      jumpi\n      tag_81\n      tag_82\n      jump\t// in\n    tag_81:\n    tag_80:\n      swap1\n      0x00\n      mstore\n      keccak256(0x00, 0x20)\n      add\n      0x00\n      swap1\n      sload\n      swap1\n      0x0100\n      exp\n      swap1\n      div\n      0xffffffffffffffffffffffffffffffffffffffff\n      and\n        /* \"contracts/Multisig.sol\":1975:2004  walletowners[i] == msg.sender */\n      0xffffffffffffffffffffffffffffffffffffffff\n      and\n      eq\n        /* \"contracts/Multisig.sol\":1971:2093  if (walletowners[i] == msg.sender) {\r... */\n      iszero\n      tag_84\n      jumpi\n        /* \"contracts/Multisig.sol\":2051:2055  true */\n      0x01\n        /* \"contracts/Multisig.sol\":2041:2055  isOwner = true */\n      swap2\n      pop\n        /* \"contracts/Multisig.sol\":2073:2078  break */\n      jump(tag_78)\n        /* \"contracts/Multisig.sol\":1971:2093  if (walletowners[i] == msg.sender) {\r... */\n    tag_84:\n        /* \"contracts/Multisig.sol\":1939:1942  i++ */\n      dup1\n      dup1\n      tag_85\n      swap1\n      tag_86\n      jump\t// in\n    tag_85:\n      swap2\n      pop\n      pop\n        /* \"contracts/Multisig.sol\":1898:2103  for (uint i = 0; i< walletowners.length; i++) {\r... */\n      jump(tag_77)\n    tag_78:\n      pop\n        /* \"contracts/Multisig.sol\":2140:2144  true */\n      0x01\n        /* \"contracts/Multisig.sol\":2129:2144  isOwner == true */\n      iszero\n      iszero\n        /* \"contracts/Multisig.sol\":2129:2136  isOwner */\n      dup2\n        /* \"contracts/Multisig.sol\":2129:2144  isOwner == true */\n      iszero\n      iszero\n      eq\n        /* \"contracts/Multisig.sol\":2121:2190  require(isOwner == true, \"only wallet owners can call this function\") */\n      tag_87\n      jumpi\n      mload(0x40)\n      0x08c379a000000000000000000000000000000000000000000000000000000000\n      dup2\n      mstore\n      0x04\n      add\n      tag_88\n      swap1\n      tag_89\n      jump\t// in\n    tag_88:\n      mload(0x40)\n      dup1\n      swap2\n      sub\n      swap1\n      revert\n    tag_87:\n        /* \"contracts/Multisig.sol\":3997:4003  amount */\n      dup2\n        /* \"contracts/Multisig.sol\":3974:3981  balance */\n      0x07\n        /* \"contracts/Multisig.sol\":3974:3993  balance[msg.sender] */\n      0x00\n        /* \"contracts/Multisig.sol\":3982:3992  msg.sender */\n      caller\n        /* \"contracts/Multisig.sol\":3974:3993  balance[msg.sender] */\n      0xffffffffffffffffffffffffffffffffffffffff\n      and\n      0xffffffffffffffffffffffffffffffffffffffff\n      and\n      dup2\n      mstore\n      0x20\n      add\n      swap1\n      dup2\n      mstore\n      0x20\n      add\n      0x00\n      keccak256\n      sload\n        /* \"contracts/Multisig.sol\":3974:4003  balance[msg.sender] >= amount */\n      lt\n      iszero\n        /* \"contracts/Multisig.sol\":3966:4004  require(balance[msg.sender] >= amount) */\n      tag_91\n      jumpi\n      0x00\n      dup1\n      revert\n    tag_91:\n        /* \"contracts/Multisig.sol\":4048:4054  amount */\n      dup2\n        /* \"contracts/Multisig.sol\":4025:4032  balance */\n      0x07\n        /* \"contracts/Multisig.sol\":4025:4044  balance[msg.sender] */\n      0x00\n        /* \"contracts/Multisig.sol\":4033:4043  msg.sender */\n      caller\n        /* \"contracts/Multisig.sol\":4025:4044  balance[msg.sender] */\n      0xffffffffffffffffffffffffffffffffffffffff\n      and\n      0xffffffffffffffffffffffffffffffffffffffff\n      and\n      dup2\n      mstore\n      0x20\n      add\n      swap1\n      dup2\n      mstore\n      0x20\n      add\n      0x00\n      keccak256\n      0x00\n        /* \"contracts/Multisig.sol\":4025:4054  balance[msg.sender] -= amount */\n      dup3\n      dup3\n      sload\n      tag_92\n      swap2\n      swap1\n      tag_93\n      jump\t// in\n    tag_92:\n      swap3\n      pop\n      pop\n      dup2\n      swap1\n      sstore\n      pop\n        /* \"contracts/Multisig.sol\":4083:4093  msg.sender */\n      caller\n        /* \"contracts/Multisig.sol\":4075:4103  payable(msg.sender).transfer */\n      0xffffffffffffffffffffffffffffffffffffffff\n      and\n        /* \"contracts/Multisig.sol\":4075:4111  payable(msg.sender).transfer(amount) */\n      0x08fc\n        /* \"contracts/Multisig.sol\":4104:4110  amount */\n      dup4\n        /* \"contracts/Multisig.sol\":4075:4111  payable(msg.sender).transfer(amount) */\n      swap1\n      dup2\n      iszero\n      mul\n      swap1\n      mload(0x40)\n      0x00\n      mload(0x40)\n      dup1\n      dup4\n      sub\n      dup2\n      dup6\n      dup9\n      dup9\n      call\n      swap4\n      pop\n      pop\n      pop\n      pop\n      iszero\n      dup1\n      iszero\n      tag_95\n      jumpi\n      returndatasize\n      0x00\n      dup1\n      returndatacopy\n      revert(0x00, returndatasize)\n    tag_95:\n      pop\n        /* \"contracts/Multisig.sol\":4137:4203  fundsWithdrawed(msg.sender, amount, withdrawalId, block.timestamp) */\n      0x911e5a424cda0aa25334a5bc6c8794ecafee939faa8aa2766de433541fdd840b\n        /* \"contracts/Multisig.sol\":4153:4163  msg.sender */\n      caller\n        /* \"contracts/Multisig.sol\":4165:4171  amount */\n      dup4\n        /* \"contracts/Multisig.sol\":4173:4185  withdrawalId */\n      sload(0x04)\n        /* \"contracts/Multisig.sol\":4187:4202  block.timestamp */\n      timestamp\n        /* \"contracts/Multisig.sol\":4137:4203  fundsWithdrawed(msg.sender, amount, withdrawalId, block.timestamp) */\n      mload(0x40)\n      tag_96\n      swap5\n      swap4\n      swap3\n      swap2\n      swap1\n      tag_97\n      jump\t// in\n    tag_96:\n      mload(0x40)\n      dup1\n      swap2\n      sub\n      swap1\n      log1\n        /* \"contracts/Multisig.sol\":4215:4227  withdrawalId */\n      0x04\n      0x00\n        /* \"contracts/Multisig.sol\":4215:4229  withdrawalId++ */\n      dup2\n      sload\n      dup1\n      swap3\n      swap2\n      swap1\n      tag_98\n      swap1\n      tag_86\n      jump\t// in\n    tag_98:\n      swap2\n      swap1\n      pop\n      sstore\n      pop\n        /* \"contracts/Multisig.sol\":1848:2219  {\r... */\n      pop\n        /* \"contracts/Multisig.sol\":3896:4247  function withdraw(uint amount) public onlyowners {\r... */\n      pop\n      jump\t// out\n        /* \"contracts/Multisig.sol\":4259:4914  function createTrnasferRequest(address payable receiver, uint amount) public onlyowners {\r... */\n    tag_31:\n        /* \"contracts/Multisig.sol\":1868:1880  bool isOwner */\n      0x00\n        /* \"contracts/Multisig.sol\":1903:1909  uint i */\n      dup1\n        /* \"contracts/Multisig.sol\":1898:2103  for (uint i = 0; i< walletowners.length; i++) {\r... */\n    tag_100:\n        /* \"contracts/Multisig.sol\":1918:1930  walletowners */\n      0x01\n        /* \"contracts/Multisig.sol\":1918:1937  walletowners.length */\n      dup1\n      sload\n      swap1\n      pop\n        /* \"contracts/Multisig.sol\":1915:1916  i */\n      dup2\n        /* \"contracts/Multisig.sol\":1915:1937  i< walletowners.length */\n      lt\n        /* \"contracts/Multisig.sol\":1898:2103  for (uint i = 0; i< walletowners.length; i++) {\r... */\n      iszero\n      tag_101\n      jumpi\n        /* \"contracts/Multisig.sol\":1994:2004  msg.sender */\n      caller\n        /* \"contracts/Multisig.sol\":1975:2004  walletowners[i] == msg.sender */\n      0xffffffffffffffffffffffffffffffffffffffff\n      and\n        /* \"contracts/Multisig.sol\":1975:1987  walletowners */\n      0x01\n        /* \"contracts/Multisig.sol\":1988:1989  i */\n      dup3\n        /* \"contracts/Multisig.sol\":1975:1990  walletowners[i] */\n      dup2\n      sload\n      dup2\n      lt\n      tag_103\n      jumpi\n      tag_104\n      tag_82\n      jump\t// in\n    tag_104:\n    tag_103:\n      swap1\n      0x00\n      mstore\n      keccak256(0x00, 0x20)\n      add\n      0x00\n      swap1\n      sload\n      swap1\n      0x0100\n      exp\n      swap1\n      div\n      0xffffffffffffffffffffffffffffffffffffffff\n      and\n        /* \"contracts/Multisig.sol\":1975:2004  walletowners[i] == msg.sender */\n      0xffffffffffffffffffffffffffffffffffffffff\n      and\n      eq\n        /* \"contracts/Multisig.sol\":1971:2093  if (walletowners[i] == msg.sender) {\r... */\n      iszero\n      tag_106\n      jumpi\n        /* \"contracts/Multisig.sol\":2051:2055  true */\n      0x01\n        /* \"contracts/Multisig.sol\":2041:2055  isOwner = true */\n      swap2\n      pop\n        /* \"contracts/Multisig.sol\":2073:2078  break */\n      jump(tag_101)\n        /* \"contracts/Multisig.sol\":1971:2093  if (walletowners[i] == msg.sender) {\r... */\n    tag_106:\n        /* \"contracts/Multisig.sol\":1939:1942  i++ */\n      dup1\n      dup1\n      tag_107\n      swap1\n      tag_86\n      jump\t// in\n    tag_107:\n      swap2\n      pop\n      pop\n        /* \"contracts/Multisig.sol\":1898:2103  for (uint i = 0; i< walletowners.length; i++) {\r... */\n      jump(tag_100)\n    tag_101:\n      pop\n        /* \"contracts/Multisig.sol\":2140:2144  true */\n      0x01\n        /* \"contracts/Multisig.sol\":2129:2144  isOwner == true */\n      iszero\n      iszero\n        /* \"contracts/Multisig.sol\":2129:2136  isOwner */\n      dup2\n        /* \"contracts/Multisig.sol\":2129:2144  isOwner == true */\n      iszero\n      iszero\n      eq\n        /* \"contracts/Multisig.sol\":2121:2190  require(isOwner == true, \"only wallet owners can call this function\") */\n      tag_108\n      jumpi\n      mload(0x40)\n      0x08c379a000000000000000000000000000000000000000000000000000000000\n      dup2\n      mstore\n      0x04\n      add\n      tag_109\n      swap1\n      tag_89\n      jump\t// in\n    tag_109:\n      mload(0x40)\n      dup1\n      swap2\n      sub\n      swap1\n      revert\n    tag_108:\n        /* \"contracts/Multisig.sol\":4399:4405  amount */\n      dup2\n        /* \"contracts/Multisig.sol\":4376:4383  balance */\n      0x07\n        /* \"contracts/Multisig.sol\":4376:4395  balance[msg.sender] */\n      0x00\n        /* \"contracts/Multisig.sol\":4384:4394  msg.sender */\n      caller\n        /* \"contracts/Multisig.sol\":4376:4395  balance[msg.sender] */\n      0xffffffffffffffffffffffffffffffffffffffff\n      and\n      0xffffffffffffffffffffffffffffffffffffffff\n      and\n      dup2\n      mstore\n      0x20\n      add\n      swap1\n      dup2\n      mstore\n      0x20\n      add\n      0x00\n      keccak256\n      sload\n        /* \"contracts/Multisig.sol\":4376:4405  balance[msg.sender] >= amount */\n      lt\n      iszero\n        /* \"contracts/Multisig.sol\":4368:4448  require(balance[msg.sender] >= amount, \"insufficent funds to create a transfer\") */\n      tag_111\n      jumpi\n      mload(0x40)\n      0x08c379a000000000000000000000000000000000000000000000000000000000\n      dup2\n      mstore\n      0x04\n      add\n      tag_112\n      swap1\n      tag_113\n      jump\t// in\n    tag_112:\n      mload(0x40)\n      dup1\n      swap2\n      sub\n      swap1\n      revert\n    tag_111:\n        /* \"contracts/Multisig.sol\":4474:4480  uint i */\n      0x00\n        /* \"contracts/Multisig.sol\":4469:4637  for (uint i = 0; i < walletowners.length; i++) {\r... */\n    tag_114:\n        /* \"contracts/Multisig.sol\":4490:4502  walletowners */\n      0x01\n        /* \"contracts/Multisig.sol\":4490:4509  walletowners.length */\n      dup1\n      sload\n      swap1\n      pop\n        /* \"contracts/Multisig.sol\":4486:4487  i */\n      dup2\n        /* \"contracts/Multisig.sol\":4486:4509  i < walletowners.length */\n      lt\n        /* \"contracts/Multisig.sol\":4469:4637  for (uint i = 0; i < walletowners.length; i++) {\r... */\n      iszero\n      tag_115\n      jumpi\n        /* \"contracts/Multisig.sol\":4572:4580  receiver */\n      dup4\n        /* \"contracts/Multisig.sol\":4553:4580  walletowners[i] != receiver */\n      0xffffffffffffffffffffffffffffffffffffffff\n      and\n        /* \"contracts/Multisig.sol\":4553:4565  walletowners */\n      0x01\n        /* \"contracts/Multisig.sol\":4566:4567  i */\n      dup3\n        /* \"contracts/Multisig.sol\":4553:4568  walletowners[i] */\n      dup2\n      sload\n      dup2\n      lt\n      tag_117\n      jumpi\n      tag_118\n      tag_82\n      jump\t// in\n    tag_118:\n    tag_117:\n      swap1\n      0x00\n      mstore\n      keccak256(0x00, 0x20)\n      add\n      0x00\n      swap1\n      sload\n      swap1\n      0x0100\n      exp\n      swap1\n      div\n      0xffffffffffffffffffffffffffffffffffffffff\n      and\n        /* \"contracts/Multisig.sol\":4553:4580  walletowners[i] != receiver */\n      0xffffffffffffffffffffffffffffffffffffffff\n      and\n      eq\n      iszero\n        /* \"contracts/Multisig.sol\":4545:4625  require(walletowners[i] != receiver, \"cannot transfer funds withiwn the wallet\") */\n      tag_120\n      jumpi\n      mload(0x40)\n      0x08c379a000000000000000000000000000000000000000000000000000000000\n      dup2\n      mstore\n      0x04\n      add\n      tag_121\n      swap1\n      tag_122\n      jump\t// in\n    tag_121:\n      mload(0x40)\n      dup1\n      swap2\n      sub\n      swap1\n      revert\n    tag_120:\n        /* \"contracts/Multisig.sol\":4511:4514  i++ */\n      dup1\n      dup1\n      tag_123\n      swap1\n      tag_86\n      jump\t// in\n    tag_123:\n      swap2\n      pop\n      pop\n        /* \"contracts/Multisig.sol\":4469:4637  for (uint i = 0; i < walletowners.length; i++) {\r... */\n      jump(tag_114)\n    tag_115:\n      pop\n        /* \"contracts/Multisig.sol\":4680:4686  amount */\n      dup2\n        /* \"contracts/Multisig.sol\":4657:4664  balance */\n      0x07\n        /* \"contracts/Multisig.sol\":4657:4676  balance[msg.sender] */\n      0x00\n        /* \"contracts/Multisig.sol\":4665:4675  msg.sender */\n      caller\n        /* \"contracts/Multisig.sol\":4657:4676  balance[msg.sender] */\n      0xffffffffffffffffffffffffffffffffffffffff\n      and\n      0xffffffffffffffffffffffffffffffffffffffff\n      and\n      dup2\n      mstore\n      0x20\n      add\n      swap1\n      dup2\n      mstore\n      0x20\n      add\n      0x00\n      keccak256\n      0x00\n        /* \"contracts/Multisig.sol\":4657:4686  balance[msg.sender] -= amount */\n      dup3\n      dup3\n      sload\n      tag_124\n      swap2\n      swap1\n      tag_93\n      jump\t// in\n    tag_124:\n      swap3\n      pop\n      pop\n      dup2\n      swap1\n      sstore\n      pop\n        /* \"contracts/Multisig.sol\":4697:4713  transferRequests */\n      0x0a\n        /* \"contracts/Multisig.sol\":4719:4789  Transfer(msg.sender, receiver, amount, transferId, 0, block.timestamp) */\n      mload(0x40)\n      dup1\n      0xc0\n      add\n      0x40\n      mstore\n      dup1\n        /* \"contracts/Multisig.sol\":4728:4738  msg.sender */\n      caller\n        /* \"contracts/Multisig.sol\":4719:4789  Transfer(msg.sender, receiver, amount, transferId, 0, block.timestamp) */\n      0xffffffffffffffffffffffffffffffffffffffff\n      and\n      dup2\n      mstore\n      0x20\n      add\n        /* \"contracts/Multisig.sol\":4740:4748  receiver */\n      dup6\n        /* \"contracts/Multisig.sol\":4719:4789  Transfer(msg.sender, receiver, amount, transferId, 0, block.timestamp) */\n      0xffffffffffffffffffffffffffffffffffffffff\n      and\n      dup2\n      mstore\n      0x20\n      add\n        /* \"contracts/Multisig.sol\":4750:4756  amount */\n      dup5\n        /* \"contracts/Multisig.sol\":4719:4789  Transfer(msg.sender, receiver, amount, transferId, 0, block.timestamp) */\n      dup2\n      mstore\n      0x20\n      add\n        /* \"contracts/Multisig.sol\":4758:4768  transferId */\n      sload(0x05)\n        /* \"contracts/Multisig.sol\":4719:4789  Transfer(msg.sender, receiver, amount, transferId, 0, block.timestamp) */\n      dup2\n      mstore\n      0x20\n      add\n        /* \"contracts/Multisig.sol\":4770:4771  0 */\n      0x00\n        /* \"contracts/Multisig.sol\":4719:4789  Transfer(msg.sender, receiver, amount, transferId, 0, block.timestamp) */\n      dup2\n      mstore\n      0x20\n      add\n        /* \"contracts/Multisig.sol\":4773:4788  block.timestamp */\n      timestamp\n        /* \"contracts/Multisig.sol\":4719:4789  Transfer(msg.sender, receiver, amount, transferId, 0, block.timestamp) */\n      dup2\n      mstore\n      pop\n        /* \"contracts/Multisig.sol\":4697:4790  transferRequests.push(Transfer(msg.sender, receiver, amount, transferId, 0, block.timestamp)) */\n      swap1\n      dup1\n      0x01\n      dup2\n      sload\n      add\n      dup1\n      dup3\n      sstore\n      dup1\n      swap2\n      pop\n      pop\n      0x01\n      swap1\n      sub\n      swap1\n      0x00\n      mstore\n      keccak256(0x00, 0x20)\n      swap1\n      0x06\n      mul\n      add\n      0x00\n      swap1\n      swap2\n      swap1\n      swap2\n      swap1\n      swap2\n      pop\n      0x00\n      dup3\n      add\n      mload\n      dup2\n      0x00\n      add\n      exp(0x0100, 0x00)\n      dup2\n      sload\n      dup2\n      0xffffffffffffffffffffffffffffffffffffffff\n      mul\n      not\n      and\n      swap1\n      dup4\n      0xffffffffffffffffffffffffffffffffffffffff\n      and\n      mul\n      or\n      swap1\n      sstore\n      pop\n      0x20\n      dup3\n      add\n      mload\n      dup2\n      0x01\n      add\n      exp(0x0100, 0x00)\n      dup2\n      sload\n      dup2\n      0xffffffffffffffffffffffffffffffffffffffff\n      mul\n      not\n      and\n      swap1\n      dup4\n      0xffffffffffffffffffffffffffffffffffffffff\n      and\n      mul\n      or\n      swap1\n      sstore\n      pop\n      0x40\n      dup3\n      add\n      mload\n      dup2\n      0x02\n      add\n      sstore\n      0x60\n      dup3\n      add\n      mload\n      dup2\n      0x03\n      add\n      sstore\n      0x80\n      dup3\n      add\n      mload\n      dup2\n      0x04\n      add\n      sstore\n      0xa0\n      dup3\n      add\n      mload\n      dup2\n      0x05\n      add\n      sstore\n      pop\n      pop\n        /* \"contracts/Multisig.sol\":4801:4811  transferId */\n      0x05\n      0x00\n        /* \"contracts/Multisig.sol\":4801:4813  transferId++ */\n      dup2\n      sload\n      dup1\n      swap3\n      swap2\n      swap1\n      tag_126\n      swap1\n      tag_86\n      jump\t// in\n    tag_126:\n      swap2\n      swap1\n      pop\n      sstore\n      pop\n        /* \"contracts/Multisig.sol\":4829:4906  transferCreated(msg.sender, receiver, amount, transferId, 0, block.timestamp) */\n      0x218d714c553080abb0dbc7fc5f603d19d591d24c58a81c89983579c96b55a3de\n        /* \"contracts/Multisig.sol\":4845:4855  msg.sender */\n      caller\n        /* \"contracts/Multisig.sol\":4857:4865  receiver */\n      dup5\n        /* \"contracts/Multisig.sol\":4867:4873  amount */\n      dup5\n        /* \"contracts/Multisig.sol\":4875:4885  transferId */\n      sload(0x05)\n        /* \"contracts/Multisig.sol\":4887:4888  0 */\n      0x00\n        /* \"contracts/Multisig.sol\":4890:4905  block.timestamp */\n      timestamp\n        /* \"contracts/Multisig.sol\":4829:4906  transferCreated(msg.sender, receiver, amount, transferId, 0, block.timestamp) */\n      mload(0x40)\n      tag_127\n      swap7\n      swap6\n      swap5\n      swap4\n      swap3\n      swap2\n      swap1\n      tag_128\n      jump\t// in\n    tag_127:\n      mload(0x40)\n      dup1\n      swap2\n      sub\n      swap1\n      log1\n        /* \"contracts/Multisig.sol\":1848:2219  {\r... */\n      pop\n        /* \"contracts/Multisig.sol\":4259:4914  function createTrnasferRequest(address payable receiver, uint amount) public onlyowners {\r... */\n      pop\n      pop\n      jump\t// out\n        /* \"contracts/Multisig.sol\":4926:6034  function cancelTransferRequest(uint id) public onlyowners {\r... */\n    tag_35:\n        /* \"contracts/Multisig.sol\":1868:1880  bool isOwner */\n      0x00\n        /* \"contracts/Multisig.sol\":1903:1909  uint i */\n      dup1\n        /* \"contracts/Multisig.sol\":1898:2103  for (uint i = 0; i< walletowners.length; i++) {\r... */\n    tag_130:\n        /* \"contracts/Multisig.sol\":1918:1930  walletowners */\n      0x01\n        /* \"contracts/Multisig.sol\":1918:1937  walletowners.length */\n      dup1\n      sload\n      swap1\n      pop\n        /* \"contracts/Multisig.sol\":1915:1916  i */\n      dup2\n        /* \"contracts/Multisig.sol\":1915:1937  i< walletowners.length */\n      lt\n        /* \"contracts/Multisig.sol\":1898:2103  for (uint i = 0; i< walletowners.length; i++) {\r... */\n      iszero\n      tag_131\n      jumpi\n        /* \"contracts/Multisig.sol\":1994:2004  msg.sender */\n      caller\n        /* \"contracts/Multisig.sol\":1975:2004  walletowners[i] == msg.sender */\n      0xffffffffffffffffffffffffffffffffffffffff\n      and\n        /* \"contracts/Multisig.sol\":1975:1987  walletowners */\n      0x01\n        /* \"contracts/Multisig.sol\":1988:1989  i */\n      dup3\n        /* \"contracts/Multisig.sol\":1975:1990  walletowners[i] */\n      dup2\n      sload\n      dup2\n      lt\n      tag_133\n      jumpi\n      tag_134\n      tag_82\n      jump\t// in\n    tag_134:\n    tag_133:\n      swap1\n      0x00\n      mstore\n      keccak256(0x00, 0x20)\n      add\n      0x00\n      swap1\n      sload\n      swap1\n      0x0100\n      exp\n      swap1\n      div\n      0xffffffffffffffffffffffffffffffffffffffff\n      and\n        /* \"contracts/Multisig.sol\":1975:2004  walletowners[i] == msg.sender */\n      0xffffffffffffffffffffffffffffffffffffffff\n      and\n      eq\n        /* \"contracts/Multisig.sol\":1971:2093  if (walletowners[i] == msg.sender) {\r... */\n      iszero\n      tag_136\n      jumpi\n        /* \"contracts/Multisig.sol\":2051:2055  true */\n      0x01\n        /* \"contracts/Multisig.sol\":2041:2055  isOwner = true */\n      swap2\n      pop\n        /* \"contracts/Multisig.sol\":2073:2078  break */\n      jump(tag_131)\n        /* \"contracts/Multisig.sol\":1971:2093  if (walletowners[i] == msg.sender) {\r... */\n    tag_136:\n        /* \"contracts/Multisig.sol\":1939:1942  i++ */\n      dup1\n      dup1\n      tag_137\n      swap1\n      tag_86\n      jump\t// in\n    tag_137:\n      swap2\n      pop\n      pop\n        /* \"contracts/Multisig.sol\":1898:2103  for (uint i = 0; i< walletowners.length; i++) {\r... */\n      jump(tag_130)\n    tag_131:\n      pop\n        /* \"contracts/Multisig.sol\":2140:2144  true */\n      0x01\n        /* \"contracts/Multisig.sol\":2129:2144  isOwner == true */\n      iszero\n      iszero\n        /* \"contracts/Multisig.sol\":2129:2136  isOwner */\n      dup2\n        /* \"contracts/Multisig.sol\":2129:2144  isOwner == true */\n      iszero\n      iszero\n      eq\n        /* \"contracts/Multisig.sol\":2121:2190  require(isOwner == true, \"only wallet owners can call this function\") */\n      tag_138\n      jumpi\n      mload(0x40)\n      0x08c379a000000000000000000000000000000000000000000000000000000000\n      dup2\n      mstore\n      0x04\n      add\n      tag_139\n      swap1\n      tag_89\n      jump\t// in\n    tag_139:\n      mload(0x40)\n      dup1\n      swap2\n      sub\n      swap1\n      revert\n    tag_138:\n        /* \"contracts/Multisig.sol\":5005:5022  bool hasBeenFound */\n      0x00\n        /* \"contracts/Multisig.sol\":5041:5059  uint transferIndex */\n      dup1\n        /* \"contracts/Multisig.sol\":5079:5085  uint i */\n      0x00\n        /* \"contracts/Multisig.sol\":5074:5356  for (uint i = 0; i < transferRequests.length; i++) {\r... */\n    tag_141:\n        /* \"contracts/Multisig.sol\":5095:5111  transferRequests */\n      0x0a\n        /* \"contracts/Multisig.sol\":5095:5118  transferRequests.length */\n      dup1\n      sload\n      swap1\n      pop\n        /* \"contracts/Multisig.sol\":5091:5092  i */\n      dup2\n        /* \"contracts/Multisig.sol\":5091:5118  i < transferRequests.length */\n      lt\n        /* \"contracts/Multisig.sol\":5074:5356  for (uint i = 0; i < transferRequests.length; i++) {\r... */\n      iszero\n      tag_142\n      jumpi\n        /* \"contracts/Multisig.sol\":5183:5185  id */\n      dup5\n        /* \"contracts/Multisig.sol\":5157:5173  transferRequests */\n      0x0a\n        /* \"contracts/Multisig.sol\":5174:5175  i */\n      dup3\n        /* \"contracts/Multisig.sol\":5157:5176  transferRequests[i] */\n      dup2\n      sload\n      dup2\n      lt\n      tag_144\n      jumpi\n      tag_145\n      tag_82\n      jump\t// in\n    tag_145:\n    tag_144:\n      swap1\n      0x00\n      mstore\n      keccak256(0x00, 0x20)\n      swap1\n      0x06\n      mul\n      add\n        /* \"contracts/Multisig.sol\":5157:5179  transferRequests[i].id */\n      0x03\n      add\n      sload\n        /* \"contracts/Multisig.sol\":5157:5185  transferRequests[i].id == id */\n      eq\n        /* \"contracts/Multisig.sol\":5154:5300  if(transferRequests[i].id == id) {\r... */\n      iszero\n      tag_147\n      jumpi\n        /* \"contracts/Multisig.sol\":5239:5243  true */\n      0x01\n        /* \"contracts/Multisig.sol\":5224:5243  hasBeenFound = true */\n      swap3\n      pop\n        /* \"contracts/Multisig.sol\":5262:5267  break */\n      jump(tag_142)\n        /* \"contracts/Multisig.sol\":5154:5300  if(transferRequests[i].id == id) {\r... */\n    tag_147:\n        /* \"contracts/Multisig.sol\":5329:5344  transferIndex++ */\n      dup2\n      dup1\n      tag_148\n      swap1\n      tag_86\n      jump\t// in\n    tag_148:\n      swap3\n      pop\n      pop\n        /* \"contracts/Multisig.sol\":5120:5123  i++ */\n      dup1\n      dup1\n      tag_149\n      swap1\n      tag_86\n      jump\t// in\n    tag_149:\n      swap2\n      pop\n      pop\n        /* \"contracts/Multisig.sol\":5074:5356  for (uint i = 0; i < transferRequests.length; i++) {\r... */\n      jump(tag_141)\n    tag_142:\n      pop\n        /* \"contracts/Multisig.sol\":5426:5436  msg.sender */\n      caller\n        /* \"contracts/Multisig.sol\":5384:5436  transferRequests[transferIndex].sender == msg.sender */\n      0xffffffffffffffffffffffffffffffffffffffff\n      and\n        /* \"contracts/Multisig.sol\":5384:5400  transferRequests */\n      0x0a\n        /* \"contracts/Multisig.sol\":5401:5414  transferIndex */\n      dup3\n        /* \"contracts/Multisig.sol\":5384:5415  transferRequests[transferIndex] */\n      dup2\n      sload\n      dup2\n      lt\n      tag_150\n      jumpi\n      tag_151\n      tag_82\n      jump\t// in\n    tag_151:\n    tag_150:\n      swap1\n      0x00\n      mstore\n      keccak256(0x00, 0x20)\n      swap1\n      0x06\n      mul\n      add\n        /* \"contracts/Multisig.sol\":5384:5422  transferRequests[transferIndex].sender */\n      0x00\n      add\n      0x00\n      swap1\n      sload\n      swap1\n      0x0100\n      exp\n      swap1\n      div\n      0xffffffffffffffffffffffffffffffffffffffff\n      and\n        /* \"contracts/Multisig.sol\":5384:5436  transferRequests[transferIndex].sender == msg.sender */\n      0xffffffffffffffffffffffffffffffffffffffff\n      and\n      eq\n        /* \"contracts/Multisig.sol\":5376:5477  require(transferRequests[transferIndex].sender == msg.sender, \"only the transfer creator can cancel\") */\n      tag_153\n      jumpi\n      mload(0x40)\n      0x08c379a000000000000000000000000000000000000000000000000000000000\n      dup2\n      mstore\n      0x04\n      add\n      tag_154\n      swap1\n      tag_155\n      jump\t// in\n    tag_154:\n      mload(0x40)\n      dup1\n      swap2\n      sub\n      swap1\n      revert\n    tag_153:\n        /* \"contracts/Multisig.sol\":5496:5508  hasBeenFound */\n      dup2\n        /* \"contracts/Multisig.sol\":5488:5544  require(hasBeenFound, \"transfer request does not exist\") */\n      tag_156\n      jumpi\n      mload(0x40)\n      0x08c379a000000000000000000000000000000000000000000000000000000000\n      dup2\n      mstore\n      0x04\n      add\n      tag_157\n      swap1\n      tag_158\n      jump\t// in\n    tag_157:\n      mload(0x40)\n      dup1\n      swap2\n      sub\n      swap1\n      revert\n    tag_156:\n        /* \"contracts/Multisig.sol\":5588:5604  transferRequests */\n      0x0a\n        /* \"contracts/Multisig.sol\":5605:5618  transferIndex */\n      dup2\n        /* \"contracts/Multisig.sol\":5588:5619  transferRequests[transferIndex] */\n      dup2\n      sload\n      dup2\n      lt\n      tag_159\n      jumpi\n      tag_160\n      tag_82\n      jump\t// in\n    tag_160:\n    tag_159:\n      swap1\n      0x00\n      mstore\n      keccak256(0x00, 0x20)\n      swap1\n      0x06\n      mul\n      add\n        /* \"contracts/Multisig.sol\":5588:5626  transferRequests[transferIndex].amount */\n      0x02\n      add\n      sload\n        /* \"contracts/Multisig.sol\":5565:5572  balance */\n      0x07\n        /* \"contracts/Multisig.sol\":5565:5584  balance[msg.sender] */\n      0x00\n        /* \"contracts/Multisig.sol\":5573:5583  msg.sender */\n      caller\n        /* \"contracts/Multisig.sol\":5565:5584  balance[msg.sender] */\n      0xffffffffffffffffffffffffffffffffffffffff\n      and\n      0xffffffffffffffffffffffffffffffffffffffff\n      and\n      dup2\n      mstore\n      0x20\n      add\n      swap1\n      dup2\n      mstore\n      0x20\n      add\n      0x00\n      keccak256\n      0x00\n        /* \"contracts/Multisig.sol\":5565:5626  balance[msg.sender] += transferRequests[transferIndex].amount */\n      dup3\n      dup3\n      sload\n      tag_162\n      swap2\n      swap1\n      tag_163\n      jump\t// in\n    tag_162:\n      swap3\n      pop\n      pop\n      dup2\n      swap1\n      sstore\n      pop\n        /* \"contracts/Multisig.sol\":5681:5697  transferRequests */\n      0x0a\n        /* \"contracts/Multisig.sol\":5724:5725  1 */\n      0x01\n        /* \"contracts/Multisig.sol\":5698:5714  transferRequests */\n      0x0a\n        /* \"contracts/Multisig.sol\":5698:5721  transferRequests.length */\n      dup1\n      sload\n      swap1\n      pop\n        /* \"contracts/Multisig.sol\":5698:5725  transferRequests.length - 1 */\n      tag_164\n      swap2\n      swap1\n      tag_93\n      jump\t// in\n    tag_164:\n        /* \"contracts/Multisig.sol\":5681:5726  transferRequests[transferRequests.length - 1] */\n      dup2\n      sload\n      dup2\n      lt\n      tag_165\n      jumpi\n      tag_166\n      tag_82\n      jump\t// in\n    tag_166:\n    tag_165:\n      swap1\n      0x00\n      mstore\n      keccak256(0x00, 0x20)\n      swap1\n      0x06\n      mul\n      add\n        /* \"contracts/Multisig.sol\":5647:5663  transferRequests */\n      0x0a\n        /* \"contracts/Multisig.sol\":5664:5677  transferIndex */\n      dup3\n        /* \"contracts/Multisig.sol\":5647:5678  transferRequests[transferIndex] */\n      dup2\n      sload\n      dup2\n      lt\n      tag_168\n      jumpi\n      tag_169\n      tag_82\n      jump\t// in\n    tag_169:\n    tag_168:\n      swap1\n      0x00\n      mstore\n      keccak256(0x00, 0x20)\n      swap1\n      0x06\n      mul\n      add\n        /* \"contracts/Multisig.sol\":5647:5726  transferRequests[transferIndex] = transferRequests[transferRequests.length - 1] */\n      0x00\n      dup3\n      add\n      0x00\n      swap1\n      sload\n      swap1\n      0x0100\n      exp\n      swap1\n      div\n      0xffffffffffffffffffffffffffffffffffffffff\n      and\n      dup2\n      0x00\n      add\n      exp(0x0100, 0x00)\n      dup2\n      sload\n      dup2\n      0xffffffffffffffffffffffffffffffffffffffff\n      mul\n      not\n      and\n      swap1\n      dup4\n      0xffffffffffffffffffffffffffffffffffffffff\n      and\n      mul\n      or\n      swap1\n      sstore\n      pop\n      0x01\n      dup3\n      add\n      0x00\n      swap1\n      sload\n      swap1\n      0x0100\n      exp\n      swap1\n      div\n      0xffffffffffffffffffffffffffffffffffffffff\n      and\n      dup2\n      0x01\n      add\n      exp(0x0100, 0x00)\n      dup2\n      sload\n      dup2\n      0xffffffffffffffffffffffffffffffffffffffff\n      mul\n      not\n      and\n      swap1\n      dup4\n      0xffffffffffffffffffffffffffffffffffffffff\n      and\n      mul\n      or\n      swap1\n      sstore\n      pop\n      0x02\n      dup3\n      add\n      sload\n      dup2\n      0x02\n      add\n      sstore\n      0x03\n      dup3\n      add\n      sload\n      dup2\n      0x03\n      add\n      sstore\n      0x04\n      dup3\n      add\n      sload\n      dup2\n      0x04\n      add\n      sstore\n      0x05\n      dup3\n      add\n      sload\n      dup2\n      0x05\n      add\n      sstore\n      swap1\n      pop\n      pop\n        /* \"contracts/Multisig.sol\":5752:5993  transferCancelled(msg.sender, transferRequests[transferIndex].receiver, transferRequests[transferIndex].amount, transferRequests[transferIndex].id, transferRequests[transferIndex].approvals, transferRequests[transferIndex].timeOfTransaction) */\n      0x0c18a6fb463175a9fbb1a466faa776412540ffaed30fc734fd994d34e550eaa2\n        /* \"contracts/Multisig.sol\":5770:5780  msg.sender */\n      caller\n        /* \"contracts/Multisig.sol\":5782:5798  transferRequests */\n      0x0a\n        /* \"contracts/Multisig.sol\":5799:5812  transferIndex */\n      dup4\n        /* \"contracts/Multisig.sol\":5782:5813  transferRequests[transferIndex] */\n      dup2\n      sload\n      dup2\n      lt\n      tag_171\n      jumpi\n      tag_172\n      tag_82\n      jump\t// in\n    tag_172:\n    tag_171:\n      swap1\n      0x00\n      mstore\n      keccak256(0x00, 0x20)\n      swap1\n      0x06\n      mul\n      add\n        /* \"contracts/Multisig.sol\":5782:5822  transferRequests[transferIndex].receiver */\n      0x01\n      add\n      0x00\n      swap1\n      sload\n      swap1\n      0x0100\n      exp\n      swap1\n      div\n      0xffffffffffffffffffffffffffffffffffffffff\n      and\n        /* \"contracts/Multisig.sol\":5824:5840  transferRequests */\n      0x0a\n        /* \"contracts/Multisig.sol\":5841:5854  transferIndex */\n      dup5\n        /* \"contracts/Multisig.sol\":5824:5855  transferRequests[transferIndex] */\n      dup2\n      sload\n      dup2\n      lt\n      tag_174\n      jumpi\n      tag_175\n      tag_82\n      jump\t// in\n    tag_175:\n    tag_174:\n      swap1\n      0x00\n      mstore\n      keccak256(0x00, 0x20)\n      swap1\n      0x06\n      mul\n      add\n        /* \"contracts/Multisig.sol\":5824:5862  transferRequests[transferIndex].amount */\n      0x02\n      add\n      sload\n        /* \"contracts/Multisig.sol\":5864:5880  transferRequests */\n      0x0a\n        /* \"contracts/Multisig.sol\":5881:5894  transferIndex */\n      dup6\n        /* \"contracts/Multisig.sol\":5864:5895  transferRequests[transferIndex] */\n      dup2\n      sload\n      dup2\n      lt\n      tag_177\n      jumpi\n      tag_178\n      tag_82\n      jump\t// in\n    tag_178:\n    tag_177:\n      swap1\n      0x00\n      mstore\n      keccak256(0x00, 0x20)\n      swap1\n      0x06\n      mul\n      add\n        /* \"contracts/Multisig.sol\":5864:5898  transferRequests[transferIndex].id */\n      0x03\n      add\n      sload\n        /* \"contracts/Multisig.sol\":5900:5916  transferRequests */\n      0x0a\n        /* \"contracts/Multisig.sol\":5917:5930  transferIndex */\n      dup7\n        /* \"contracts/Multisig.sol\":5900:5931  transferRequests[transferIndex] */\n      dup2\n      sload\n      dup2\n      lt\n      tag_180\n      jumpi\n      tag_181\n      tag_82\n      jump\t// in\n    tag_181:\n    tag_180:\n      swap1\n      0x00\n      mstore\n      keccak256(0x00, 0x20)\n      swap1\n      0x06\n      mul\n      add\n        /* \"contracts/Multisig.sol\":5900:5941  transferRequests[transferIndex].approvals */\n      0x04\n      add\n      sload\n        /* \"contracts/Multisig.sol\":5943:5959  transferRequests */\n      0x0a\n        /* \"contracts/Multisig.sol\":5960:5973  transferIndex */\n      dup8\n        /* \"contracts/Multisig.sol\":5943:5974  transferRequests[transferIndex] */\n      dup2\n      sload\n      dup2\n      lt\n      tag_183\n      jumpi\n      tag_184\n      tag_82\n      jump\t// in\n    tag_184:\n    tag_183:\n      swap1\n      0x00\n      mstore\n      keccak256(0x00, 0x20)\n      swap1\n      0x06\n      mul\n      add\n        /* \"contracts/Multisig.sol\":5943:5992  transferRequests[transferIndex].timeOfTransaction */\n      0x05\n      add\n      sload\n        /* \"contracts/Multisig.sol\":5752:5993  transferCancelled(msg.sender, transferRequests[transferIndex].receiver, transferRequests[transferIndex].amount, transferRequests[transferIndex].id, transferRequests[transferIndex].approvals, transferRequests[transferIndex].timeOfTransaction) */\n      mload(0x40)\n      tag_186\n      swap7\n      swap6\n      swap5\n      swap4\n      swap3\n      swap2\n      swap1\n      tag_187\n      jump\t// in\n    tag_186:\n      mload(0x40)\n      dup1\n      swap2\n      sub\n      swap1\n      log1\n        /* \"contracts/Multisig.sol\":6004:6020  transferRequests */\n      0x0a\n        /* \"contracts/Multisig.sol\":6004:6026  transferRequests.pop() */\n      dup1\n      sload\n      dup1\n      tag_188\n      jumpi\n      tag_189\n      tag_190\n      jump\t// in\n    tag_189:\n    tag_188:\n      0x01\n      swap1\n      sub\n      dup2\n      dup2\n      swap1\n      0x00\n      mstore\n      keccak256(0x00, 0x20)\n      swap1\n      0x06\n      mul\n      add\n      0x00\n      dup1\n      dup3\n      add\n      exp(0x0100, 0x00)\n      dup2\n      sload\n      swap1\n      0xffffffffffffffffffffffffffffffffffffffff\n      mul\n      not\n      and\n      swap1\n      sstore\n      0x01\n      dup3\n      add\n      exp(0x0100, 0x00)\n      dup2\n      sload\n      swap1\n      0xffffffffffffffffffffffffffffffffffffffff\n      mul\n      not\n      and\n      swap1\n      sstore\n      0x02\n      dup3\n      add\n      0x00\n      swap1\n      sstore\n      0x03\n      dup3\n      add\n      0x00\n      swap1\n      sstore\n      0x04\n      dup3\n      add\n      0x00\n      swap1\n      sstore\n      0x05\n      dup3\n      add\n      0x00\n      swap1\n      sstore\n      pop\n      pop\n      swap1\n      sstore\n        /* \"contracts/Multisig.sol\":4984:6034  {\r... */\n      pop\n      pop\n        /* \"contracts/Multisig.sol\":1848:2219  {\r... */\n      pop\n        /* \"contracts/Multisig.sol\":4926:6034  function cancelTransferRequest(uint id) public onlyowners {\r... */\n      pop\n      jump\t// out\n        /* \"contracts/Multisig.sol\":8313:8426  function getContractBalance() public view returns(uint) {\r... */\n    tag_38:\n        /* \"contracts/Multisig.sol\":8363:8367  uint */\n      0x00\n        /* \"contracts/Multisig.sol\":8397:8418  address(this).balance */\n      selfbalance\n        /* \"contracts/Multisig.sol\":8390:8418  return address(this).balance */\n      swap1\n      pop\n        /* \"contracts/Multisig.sol\":8313:8426  function getContractBalance() public view returns(uint) {\r... */\n      swap1\n      jump\t// out\n        /* \"contracts/Multisig.sol\":8204:8300  function getApprovalLimit() public view returns (uint) {\r... */\n    tag_42:\n        /* \"contracts/Multisig.sol\":8253:8257  uint */\n      0x00\n        /* \"contracts/Multisig.sol\":8287:8292  limit */\n      sload(0x02)\n        /* \"contracts/Multisig.sol\":8280:8292  return limit */\n      swap1\n      pop\n        /* \"contracts/Multisig.sol\":8204:8300  function getApprovalLimit() public view returns (uint) {\r... */\n      swap1\n      jump\t// out\n        /* \"contracts/Multisig.sol\":2360:2819  function addWalletOwner(address owner) public onlyowners {\r... */\n    tag_48:\n        /* \"contracts/Multisig.sol\":1868:1880  bool isOwner */\n      0x00\n        /* \"contracts/Multisig.sol\":1903:1909  uint i */\n      dup1\n        /* \"contracts/Multisig.sol\":1898:2103  for (uint i = 0; i< walletowners.length; i++) {\r... */\n    tag_195:\n        /* \"contracts/Multisig.sol\":1918:1930  walletowners */\n      0x01\n        /* \"contracts/Multisig.sol\":1918:1937  walletowners.length */\n      dup1\n      sload\n      swap1\n      pop\n        /* \"contracts/Multisig.sol\":1915:1916  i */\n      dup2\n        /* \"contracts/Multisig.sol\":1915:1937  i< walletowners.length */\n      lt\n        /* \"contracts/Multisig.sol\":1898:2103  for (uint i = 0; i< walletowners.length; i++) {\r... */\n      iszero\n      tag_196\n      jumpi\n        /* \"contracts/Multisig.sol\":1994:2004  msg.sender */\n      caller\n        /* \"contracts/Multisig.sol\":1975:2004  walletowners[i] == msg.sender */\n      0xffffffffffffffffffffffffffffffffffffffff\n      and\n        /* \"contracts/Multisig.sol\":1975:1987  walletowners */\n      0x01\n        /* \"contracts/Multisig.sol\":1988:1989  i */\n      dup3\n        /* \"contracts/Multisig.sol\":1975:1990  walletowners[i] */\n      dup2\n      sload\n      dup2\n      lt\n      tag_198\n      jumpi\n      tag_199\n      tag_82\n      jump\t// in\n    tag_199:\n    tag_198:\n      swap1\n      0x00\n      mstore\n      keccak256(0x00, 0x20)\n      add\n      0x00\n      swap1\n      sload\n      swap1\n      0x0100\n      exp\n      swap1\n      div\n      0xffffffffffffffffffffffffffffffffffffffff\n      and\n        /* \"contracts/Multisig.sol\":1975:2004  walletowners[i] == msg.sender */\n      0xffffffffffffffffffffffffffffffffffffffff\n      and\n      eq\n        /* \"contracts/Multisig.sol\":1971:2093  if (walletowners[i] == msg.sender) {\r... */\n      iszero\n      tag_201\n      jumpi\n        /* \"contracts/Multisig.sol\":2051:2055  true */\n      0x01\n        /* \"contracts/Multisig.sol\":2041:2055  isOwner = true */\n      swap2\n      pop\n        /* \"contracts/Multisig.sol\":2073:2078  break */\n      jump(tag_196)\n        /* \"contracts/Multisig.sol\":1971:2093  if (walletowners[i] == msg.sender) {\r... */\n    tag_201:\n        /* \"contracts/Multisig.sol\":1939:1942  i++ */\n      dup1\n      dup1\n      tag_202\n      swap1\n      tag_86\n      jump\t// in\n    tag_202:\n      swap2\n      pop\n      pop\n        /* \"contracts/Multisig.sol\":1898:2103  for (uint i = 0; i< walletowners.length; i++) {\r... */\n      jump(tag_195)\n    tag_196:\n      pop\n        /* \"contracts/Multisig.sol\":2140:2144  true */\n      0x01\n        /* \"contracts/Multisig.sol\":2129:2144  isOwner == true */\n      iszero\n      iszero\n        /* \"contracts/Multisig.sol\":2129:2136  isOwner */\n      dup2\n        /* \"contracts/Multisig.sol\":2129:2144  isOwner == true */\n      iszero\n      iszero\n      eq\n        /* \"contracts/Multisig.sol\":2121:2190  require(isOwner == true, \"only wallet owners can call this function\") */\n      tag_203\n      jumpi\n      mload(0x40)\n      0x08c379a000000000000000000000000000000000000000000000000000000000\n      dup2\n      mstore\n      0x04\n      add\n      tag_204\n      swap1\n      tag_89\n      jump\t// in\n    tag_204:\n      mload(0x40)\n      dup1\n      swap2\n      sub\n      swap1\n      revert\n    tag_203:\n        /* \"contracts/Multisig.sol\":2452:2458  uint i */\n      0x00\n        /* \"contracts/Multisig.sol\":2447:2647  for (uint i = 0; i < walletowners.length; i++) {\r... */\n    tag_206:\n        /* \"contracts/Multisig.sol\":2468:2480  walletowners */\n      0x01\n        /* \"contracts/Multisig.sol\":2468:2487  walletowners.length */\n      dup1\n      sload\n      swap1\n      pop\n        /* \"contracts/Multisig.sol\":2464:2465  i */\n      dup2\n        /* \"contracts/Multisig.sol\":2464:2487  i < walletowners.length */\n      lt\n        /* \"contracts/Multisig.sol\":2447:2647  for (uint i = 0; i < walletowners.length; i++) {\r... */\n      iszero\n      tag_207\n      jumpi\n        /* \"contracts/Multisig.sol\":2543:2548  owner */\n      dup3\n        /* \"contracts/Multisig.sol\":2524:2548  walletowners[i] == owner */\n      0xffffffffffffffffffffffffffffffffffffffff\n      and\n        /* \"contracts/Multisig.sol\":2524:2536  walletowners */\n      0x01\n        /* \"contracts/Multisig.sol\":2537:2538  i */\n      dup3\n        /* \"contracts/Multisig.sol\":2524:2539  walletowners[i] */\n      dup2\n      sload\n      dup2\n      lt\n      tag_209\n      jumpi\n      tag_210\n      tag_82\n      jump\t// in\n    tag_210:\n    tag_209:\n      swap1\n      0x00\n      mstore\n      keccak256(0x00, 0x20)\n      add\n      0x00\n      swap1\n      sload\n      swap1\n      0x0100\n      exp\n      swap1\n      div\n      0xffffffffffffffffffffffffffffffffffffffff\n      and\n        /* \"contracts/Multisig.sol\":2524:2548  walletowners[i] == owner */\n      0xffffffffffffffffffffffffffffffffffffffff\n      and\n      eq\n        /* \"contracts/Multisig.sol\":2521:2637  if(walletowners[i] == owner) {\r... */\n      iszero\n      tag_212\n      jumpi\n        /* \"contracts/Multisig.sol\":2585:2622  revert(\"cannot add duplicate owners\") */\n      mload(0x40)\n      0x08c379a000000000000000000000000000000000000000000000000000000000\n      dup2\n      mstore\n      0x04\n      add\n      tag_213\n      swap1\n      tag_214\n      jump\t// in\n    tag_213:\n      mload(0x40)\n      dup1\n      swap2\n      sub\n      swap1\n      revert\n        /* \"contracts/Multisig.sol\":2521:2637  if(walletowners[i] == owner) {\r... */\n    tag_212:\n        /* \"contracts/Multisig.sol\":2489:2492  i++ */\n      dup1\n      dup1\n      tag_215\n      swap1\n      tag_86\n      jump\t// in\n    tag_215:\n      swap2\n      pop\n      pop\n        /* \"contracts/Multisig.sol\":2447:2647  for (uint i = 0; i < walletowners.length; i++) {\r... */\n      jump(tag_206)\n    tag_207:\n      pop\n        /* \"contracts/Multisig.sol\":2667:2679  walletowners */\n      0x01\n        /* \"contracts/Multisig.sol\":2685:2690  owner */\n      dup3\n        /* \"contracts/Multisig.sol\":2667:2691  walletowners.push(owner) */\n      swap1\n      dup1\n      0x01\n      dup2\n      sload\n      add\n      dup1\n      dup3\n      sstore\n      dup1\n      swap2\n      pop\n      pop\n      0x01\n      swap1\n      sub\n      swap1\n      0x00\n      mstore\n      keccak256(0x00, 0x20)\n      add\n      0x00\n      swap1\n      swap2\n      swap1\n      swap2\n      swap1\n      swap2\n      0x0100\n      exp\n      dup2\n      sload\n      dup2\n      0xffffffffffffffffffffffffffffffffffffffff\n      mul\n      not\n      and\n      swap1\n      dup4\n      0xffffffffffffffffffffffffffffffffffffffff\n      and\n      mul\n      or\n      swap1\n      sstore\n      pop\n        /* \"contracts/Multisig.sol\":2732:2733  1 */\n      0x01\n        /* \"contracts/Multisig.sol\":2710:2722  walletowners */\n      dup1\n        /* \"contracts/Multisig.sol\":2710:2729  walletowners.length */\n      dup1\n      sload\n      swap1\n      pop\n        /* \"contracts/Multisig.sol\":2710:2733  walletowners.length - 1 */\n      tag_217\n      swap2\n      swap1\n      tag_93\n      jump\t// in\n    tag_217:\n        /* \"contracts/Multisig.sol\":2702:2707  limit */\n      0x02\n        /* \"contracts/Multisig.sol\":2702:2733  limit = walletowners.length - 1 */\n      dup2\n      swap1\n      sstore\n      pop\n        /* \"contracts/Multisig.sol\":2759:2811  walletOwnerAdded(msg.sender, owner, block.timestamp) */\n      0x43abcff3409244ec1056224394af5f818e9a74866f0a11bfee2ad52f68ad6fb9\n        /* \"contracts/Multisig.sol\":2776:2786  msg.sender */\n      caller\n        /* \"contracts/Multisig.sol\":2788:2793  owner */\n      dup4\n        /* \"contracts/Multisig.sol\":2795:2810  block.timestamp */\n      timestamp\n        /* \"contracts/Multisig.sol\":2759:2811  walletOwnerAdded(msg.sender, owner, block.timestamp) */\n      mload(0x40)\n      tag_218\n      swap4\n      swap3\n      swap2\n      swap1\n      tag_219\n      jump\t// in\n    tag_218:\n      mload(0x40)\n      dup1\n      swap2\n      sub\n      swap1\n      log1\n        /* \"contracts/Multisig.sol\":1848:2219  {\r... */\n      pop\n        /* \"contracts/Multisig.sol\":2360:2819  function addWalletOwner(address owner) public onlyowners {\r... */\n      pop\n      jump\t// out\n        /* \"contracts/Multisig.sol\":7955:8077  function getTransferRequests() public view returns(Transfer[] memory) {\r... */\n    tag_51:\n        /* \"contracts/Multisig.sol\":8006:8023  Transfer[] memory */\n      0x60\n        /* \"contracts/Multisig.sol\":8053:8069  transferRequests */\n      0x0a\n        /* \"contracts/Multisig.sol\":8046:8069  return transferRequests */\n      dup1\n      sload\n      dup1\n      0x20\n      mul\n      0x20\n      add\n      mload(0x40)\n      swap1\n      dup2\n      add\n      0x40\n      mstore\n      dup1\n      swap3\n      swap2\n      swap1\n      dup2\n      dup2\n      mstore\n      0x20\n      add\n      0x00\n      swap1\n    tag_221:\n      dup3\n      dup3\n      lt\n      iszero\n      tag_222\n      jumpi\n      dup4\n      dup3\n      swap1\n      0x00\n      mstore\n      keccak256(0x00, 0x20)\n      swap1\n      0x06\n      mul\n      add\n      mload(0x40)\n      dup1\n      0xc0\n      add\n      0x40\n      mstore\n      swap1\n      dup2\n      0x00\n      dup3\n      add\n      0x00\n      swap1\n      sload\n      swap1\n      0x0100\n      exp\n      swap1\n      div\n      0xffffffffffffffffffffffffffffffffffffffff\n      and\n      0xffffffffffffffffffffffffffffffffffffffff\n      and\n      0xffffffffffffffffffffffffffffffffffffffff\n      and\n      dup2\n      mstore\n      0x20\n      add\n      0x01\n      dup3\n      add\n      0x00\n      swap1\n      sload\n      swap1\n      0x0100\n      exp\n      swap1\n      div\n      0xffffffffffffffffffffffffffffffffffffffff\n      and\n      0xffffffffffffffffffffffffffffffffffffffff\n      and\n      0xffffffffffffffffffffffffffffffffffffffff\n      and\n      dup2\n      mstore\n      0x20\n      add\n      0x02\n      dup3\n      add\n      sload\n      dup2\n      mstore\n      0x20\n      add\n      0x03\n      dup3\n      add\n      sload\n      dup2\n      mstore\n      0x20\n      add\n      0x04\n      dup3\n      add\n      sload\n      dup2\n      mstore\n      0x20\n      add\n      0x05\n      dup3\n      add\n      sload\n      dup2\n      mstore\n      pop\n      pop\n      dup2\n      mstore\n      0x20\n      add\n      swap1\n      0x01\n      add\n      swap1\n      jump(tag_221)\n    tag_222:\n      pop\n      pop\n      pop\n      pop\n      swap1\n      pop\n        /* \"contracts/Multisig.sol\":7955:8077  function getTransferRequests() public view returns(Transfer[] memory) {\r... */\n      swap1\n      jump\t// out\n        /* \"contracts/Multisig.sol\":7825:7943  function getApprovals(uint id) public view returns(bool) {\r... */\n    tag_57:\n        /* \"contracts/Multisig.sol\":7876:7880  bool */\n      0x00\n        /* \"contracts/Multisig.sol\":7910:7919  approvals */\n      0x08\n        /* \"contracts/Multisig.sol\":7910:7931  approvals[msg.sender] */\n      0x00\n        /* \"contracts/Multisig.sol\":7920:7930  msg.sender */\n      caller\n        /* \"contracts/Multisig.sol\":7910:7931  approvals[msg.sender] */\n      0xffffffffffffffffffffffffffffffffffffffff\n      and\n      0xffffffffffffffffffffffffffffffffffffffff\n      and\n      dup2\n      mstore\n      0x20\n      add\n      swap1\n      dup2\n      mstore\n      0x20\n      add\n      0x00\n      keccak256\n        /* \"contracts/Multisig.sol\":7910:7935  approvals[msg.sender][id] */\n      0x00\n        /* \"contracts/Multisig.sol\":7932:7934  id */\n      dup4\n        /* \"contracts/Multisig.sol\":7910:7935  approvals[msg.sender][id] */\n      dup2\n      mstore\n      0x20\n      add\n      swap1\n      dup2\n      mstore\n      0x20\n      add\n      0x00\n      keccak256\n      0x00\n      swap1\n      sload\n      swap1\n      0x0100\n      exp\n      swap1\n      div\n      0xff\n      and\n        /* \"contracts/Multisig.sol\":7903:7935  return approvals[msg.sender][id] */\n      swap1\n      pop\n        /* \"contracts/Multisig.sol\":7825:7943  function getApprovals(uint id) public view returns(bool) {\r... */\n      swap2\n      swap1\n      pop\n      jump\t// out\n        /* \"contracts/Multisig.sol\":2837:3557  function removeWalletOwner(address owner) public onlyowners {\r... */\n    tag_63:\n        /* \"contracts/Multisig.sol\":1868:1880  bool isOwner */\n      0x00\n        /* \"contracts/Multisig.sol\":1903:1909  uint i */\n      dup1\n        /* \"contracts/Multisig.sol\":1898:2103  for (uint i = 0; i< walletowners.length; i++) {\r... */\n    tag_226:\n        /* \"contracts/Multisig.sol\":1918:1930  walletowners */\n      0x01\n        /* \"contracts/Multisig.sol\":1918:1937  walletowners.length */\n      dup1\n      sload\n      swap1\n      pop\n        /* \"contracts/Multisig.sol\":1915:1916  i */\n      dup2\n        /* \"contracts/Multisig.sol\":1915:1937  i< walletowners.length */\n      lt\n        /* \"contracts/Multisig.sol\":1898:2103  for (uint i = 0; i< walletowners.length; i++) {\r... */\n      iszero\n      tag_227\n      jumpi\n        /* \"contracts/Multisig.sol\":1994:2004  msg.sender */\n      caller\n        /* \"contracts/Multisig.sol\":1975:2004  walletowners[i] == msg.sender */\n      0xffffffffffffffffffffffffffffffffffffffff\n      and\n        /* \"contracts/Multisig.sol\":1975:1987  walletowners */\n      0x01\n        /* \"contracts/Multisig.sol\":1988:1989  i */\n      dup3\n        /* \"contracts/Multisig.sol\":1975:1990  walletowners[i] */\n      dup2\n      sload\n      dup2\n      lt\n      tag_229\n      jumpi\n      tag_230\n      tag_82\n      jump\t// in\n    tag_230:\n    tag_229:\n      swap1\n      0x00\n      mstore\n      keccak256(0x00, 0x20)\n      add\n      0x00\n      swap1\n      sload\n      swap1\n      0x0100\n      exp\n      swap1\n      div\n      0xffffffffffffffffffffffffffffffffffffffff\n      and\n        /* \"contracts/Multisig.sol\":1975:2004  walletowners[i] == msg.sender */\n      0xffffffffffffffffffffffffffffffffffffffff\n      and\n      eq\n        /* \"contracts/Multisig.sol\":1971:2093  if (walletowners[i] == msg.sender) {\r... */\n      iszero\n      tag_232\n      jumpi\n        /* \"contracts/Multisig.sol\":2051:2055  true */\n      0x01\n        /* \"contracts/Multisig.sol\":2041:2055  isOwner = true */\n      swap2\n      pop\n        /* \"contracts/Multisig.sol\":2073:2078  break */\n      jump(tag_227)\n        /* \"contracts/Multisig.sol\":1971:2093  if (walletowners[i] == msg.sender) {\r... */\n    tag_232:\n        /* \"contracts/Multisig.sol\":1939:1942  i++ */\n      dup1\n      dup1\n      tag_233\n      swap1\n      tag_86\n      jump\t// in\n    tag_233:\n      swap2\n      pop\n      pop\n        /* \"contracts/Multisig.sol\":1898:2103  for (uint i = 0; i< walletowners.length; i++) {\r... */\n      jump(tag_226)\n    tag_227:\n      pop\n        /* \"contracts/Multisig.sol\":2140:2144  true */\n      0x01\n        /* \"contracts/Multisig.sol\":2129:2144  isOwner == true */\n      iszero\n      iszero\n        /* \"contracts/Multisig.sol\":2129:2136  isOwner */\n      dup2\n        /* \"contracts/Multisig.sol\":2129:2144  isOwner == true */\n      iszero\n      iszero\n      eq\n        /* \"contracts/Multisig.sol\":2121:2190  require(isOwner == true, \"only wallet owners can call this function\") */\n      tag_234\n      jumpi\n      mload(0x40)\n      0x08c379a000000000000000000000000000000000000000000000000000000000\n      dup2\n      mstore\n      0x04\n      add\n      tag_235\n      swap1\n      tag_89\n      jump\t// in\n    tag_235:\n      mload(0x40)\n      dup1\n      swap2\n      sub\n      swap1\n      revert\n    tag_234:\n        /* \"contracts/Multisig.sol\":2918:2935  bool hasBeenFound */\n      0x00\n        /* \"contracts/Multisig.sol\":2954:2969  uint ownerIndex */\n      dup1\n        /* \"contracts/Multisig.sol\":2985:2991  uint i */\n      dup1\n        /* \"contracts/Multisig.sol\":2994:2995  0 */\n      0x00\n        /* \"contracts/Multisig.sol\":2985:2995  uint i = 0 */\n      swap1\n      pop\n        /* \"contracts/Multisig.sol\":2980:3225  for (uint i = 0; i < walletowners.length; i++) {\r... */\n    tag_237:\n        /* \"contracts/Multisig.sol\":3001:3013  walletowners */\n      0x01\n        /* \"contracts/Multisig.sol\":3001:3020  walletowners.length */\n      dup1\n      sload\n      swap1\n      pop\n        /* \"contracts/Multisig.sol\":2997:2998  i */\n      dup2\n        /* \"contracts/Multisig.sol\":2997:3020  i < walletowners.length */\n      lt\n        /* \"contracts/Multisig.sol\":2980:3225  for (uint i = 0; i < walletowners.length; i++) {\r... */\n      iszero\n      tag_238\n      jumpi\n        /* \"contracts/Multisig.sol\":3078:3083  owner */\n      dup5\n        /* \"contracts/Multisig.sol\":3059:3083  walletowners[i] == owner */\n      0xffffffffffffffffffffffffffffffffffffffff\n      and\n        /* \"contracts/Multisig.sol\":3059:3071  walletowners */\n      0x01\n        /* \"contracts/Multisig.sol\":3072:3073  i */\n      dup3\n        /* \"contracts/Multisig.sol\":3059:3074  walletowners[i] */\n      dup2\n      sload\n      dup2\n      lt\n      tag_240\n      jumpi\n      tag_241\n      tag_82\n      jump\t// in\n    tag_241:\n    tag_240:\n      swap1\n      0x00\n      mstore\n      keccak256(0x00, 0x20)\n      add\n      0x00\n      swap1\n      sload\n      swap1\n      0x0100\n      exp\n      swap1\n      div\n      0xffffffffffffffffffffffffffffffffffffffff\n      and\n        /* \"contracts/Multisig.sol\":3059:3083  walletowners[i] == owner */\n      0xffffffffffffffffffffffffffffffffffffffff\n      and\n      eq\n        /* \"contracts/Multisig.sol\":3056:3214  if(walletowners[i] == owner) {\r... */\n      iszero\n      tag_243\n      jumpi\n        /* \"contracts/Multisig.sol\":3137:3141  true */\n      0x01\n        /* \"contracts/Multisig.sol\":3122:3141  hasBeenFound = true */\n      swap3\n      pop\n        /* \"contracts/Multisig.sol\":3173:3174  i */\n      dup1\n        /* \"contracts/Multisig.sol\":3160:3174  ownerIndex = i */\n      swap2\n      pop\n        /* \"contracts/Multisig.sol\":3193:3198  break */\n      jump(tag_238)\n        /* \"contracts/Multisig.sol\":3056:3214  if(walletowners[i] == owner) {\r... */\n    tag_243:\n        /* \"contracts/Multisig.sol\":3022:3025  i++ */\n      dup1\n      dup1\n      tag_244\n      swap1\n      tag_86\n      jump\t// in\n    tag_244:\n      swap2\n      pop\n      pop\n        /* \"contracts/Multisig.sol\":2980:3225  for (uint i = 0; i < walletowners.length; i++) {\r... */\n      jump(tag_237)\n    tag_238:\n      pop\n        /* \"contracts/Multisig.sol\":3269:3273  true */\n      0x01\n        /* \"contracts/Multisig.sol\":3253:3273  hasBeenFound == true */\n      iszero\n      iszero\n        /* \"contracts/Multisig.sol\":3253:3265  hasBeenFound */\n      dup3\n        /* \"contracts/Multisig.sol\":3253:3273  hasBeenFound == true */\n      iszero\n      iszero\n      eq\n        /* \"contracts/Multisig.sol\":3245:3303  require(hasBeenFound == true, \"wallet owner not detected\") */\n      tag_245\n      jumpi\n      mload(0x40)\n      0x08c379a000000000000000000000000000000000000000000000000000000000\n      dup2\n      mstore\n      0x04\n      add\n      tag_246\n      swap1\n      tag_247\n      jump\t// in\n    tag_246:\n      mload(0x40)\n      dup1\n      swap2\n      sub\n      swap1\n      revert\n    tag_245:\n        /* \"contracts/Multisig.sol\":3351:3363  walletowners */\n      0x01\n        /* \"contracts/Multisig.sol\":3386:3387  1 */\n      dup1\n        /* \"contracts/Multisig.sol\":3364:3376  walletowners */\n      dup1\n        /* \"contracts/Multisig.sol\":3364:3383  walletowners.length */\n      dup1\n      sload\n      swap1\n      pop\n        /* \"contracts/Multisig.sol\":3364:3387  walletowners.length - 1 */\n      tag_248\n      swap2\n      swap1\n      tag_93\n      jump\t// in\n    tag_248:\n        /* \"contracts/Multisig.sol\":3351:3388  walletowners[walletowners.length - 1] */\n      dup2\n      sload\n      dup2\n      lt\n      tag_249\n      jumpi\n      tag_250\n      tag_82\n      jump\t// in\n    tag_250:\n    tag_249:\n      swap1\n      0x00\n      mstore\n      keccak256(0x00, 0x20)\n      add\n      0x00\n      swap1\n      sload\n      swap1\n      0x0100\n      exp\n      swap1\n      div\n      0xffffffffffffffffffffffffffffffffffffffff\n      and\n        /* \"contracts/Multisig.sol\":3324:3336  walletowners */\n      0x01\n        /* \"contracts/Multisig.sol\":3337:3347  ownerIndex */\n      dup3\n        /* \"contracts/Multisig.sol\":3324:3348  walletowners[ownerIndex] */\n      dup2\n      sload\n      dup2\n      lt\n      tag_252\n      jumpi\n      tag_253\n      tag_82\n      jump\t// in\n    tag_253:\n    tag_252:\n      swap1\n      0x00\n      mstore\n      keccak256(0x00, 0x20)\n      add\n      0x00\n        /* \"contracts/Multisig.sol\":3324:3388  walletowners[ownerIndex] = walletowners[walletowners.length - 1] */\n      0x0100\n      exp\n      dup2\n      sload\n      dup2\n      0xffffffffffffffffffffffffffffffffffffffff\n      mul\n      not\n      and\n      swap1\n      dup4\n      0xffffffffffffffffffffffffffffffffffffffff\n      and\n      mul\n      or\n      swap1\n      sstore\n      pop\n        /* \"contracts/Multisig.sol\":3399:3411  walletowners */\n      0x01\n        /* \"contracts/Multisig.sol\":3399:3417  walletowners.pop() */\n      dup1\n      sload\n      dup1\n      tag_255\n      jumpi\n      tag_256\n      tag_190\n      jump\t// in\n    tag_256:\n    tag_255:\n      0x01\n      swap1\n      sub\n      dup2\n      dup2\n      swap1\n      0x00\n      mstore\n      keccak256(0x00, 0x20)\n      add\n      exp(0x0100, 0x00)\n      dup2\n      sload\n      swap1\n      0xffffffffffffffffffffffffffffffffffffffff\n      mul\n      not\n      and\n      swap1\n      sstore\n      swap1\n      sstore\n        /* \"contracts/Multisig.sol\":3458:3459  1 */\n      0x01\n        /* \"contracts/Multisig.sol\":3436:3448  walletowners */\n      dup1\n        /* \"contracts/Multisig.sol\":3436:3455  walletowners.length */\n      dup1\n      sload\n      swap1\n      pop\n        /* \"contracts/Multisig.sol\":3436:3459  walletowners.length - 1 */\n      tag_258\n      swap2\n      swap1\n      tag_93\n      jump\t// in\n    tag_258:\n        /* \"contracts/Multisig.sol\":3428:3433  limit */\n      0x02\n        /* \"contracts/Multisig.sol\":3428:3459  limit = walletowners.length - 1 */\n      dup2\n      swap1\n      sstore\n      pop\n        /* \"contracts/Multisig.sol\":3486:3540  walletOwnerRemoved(msg.sender, owner, block.timestamp) */\n      0xd1f329271e4a98b0181a7d91618a0a5de6f42a1aaf4c1362493d829eaf405a8a\n        /* \"contracts/Multisig.sol\":3505:3515  msg.sender */\n      caller\n        /* \"contracts/Multisig.sol\":3517:3522  owner */\n      dup6\n        /* \"contracts/Multisig.sol\":3524:3539  block.timestamp */\n      timestamp\n        /* \"contracts/Multisig.sol\":3486:3540  walletOwnerRemoved(msg.sender, owner, block.timestamp) */\n      mload(0x40)\n      tag_259\n      swap4\n      swap3\n      swap2\n      swap1\n      tag_219\n      jump\t// in\n    tag_259:\n      mload(0x40)\n      dup1\n      swap2\n      sub\n      swap1\n      log1\n        /* \"contracts/Multisig.sol\":2897:3557  {\r... */\n      pop\n      pop\n        /* \"contracts/Multisig.sol\":1848:2219  {\r... */\n      pop\n        /* \"contracts/Multisig.sol\":2837:3557  function removeWalletOwner(address owner) public onlyowners {\r... */\n      pop\n      jump\t// out\n        /* \"contracts/Multisig.sol\":2236:2348  function getWalletOners() public view returns(address[] memory) {\r... */\n    tag_66:\n        /* \"contracts/Multisig.sol\":2282:2298  address[] memory */\n      0x60\n        /* \"contracts/Multisig.sol\":2328:2340  walletowners */\n      0x01\n        /* \"contracts/Multisig.sol\":2321:2340  return walletowners */\n      dup1\n      sload\n      dup1\n      0x20\n      mul\n      0x20\n      add\n      mload(0x40)\n      swap1\n      dup2\n      add\n      0x40\n      mstore\n      dup1\n      swap3\n      swap2\n      swap1\n      dup2\n      dup2\n      mstore\n      0x20\n      add\n      dup3\n      dup1\n      sload\n      dup1\n      iszero\n      tag_261\n      jumpi\n      0x20\n      mul\n      dup3\n      add\n      swap2\n      swap1\n      0x00\n      mstore\n      keccak256(0x00, 0x20)\n      swap1\n    tag_262:\n      dup2\n      0x00\n      swap1\n      sload\n      swap1\n      0x0100\n      exp\n      swap1\n      div\n      0xffffffffffffffffffffffffffffffffffffffff\n      and\n      0xffffffffffffffffffffffffffffffffffffffff\n      and\n      dup2\n      mstore\n      0x20\n      add\n      swap1\n      0x01\n      add\n      swap1\n      dup1\n      dup4\n      gt\n      tag_262\n      jumpi\n    tag_261:\n      pop\n      pop\n      pop\n      pop\n      pop\n      swap1\n      pop\n        /* \"contracts/Multisig.sol\":2236:2348  function getWalletOners() public view returns(address[] memory) {\r... */\n      swap1\n      jump\t// out\n        /* \"contracts/Multisig.sol\":3569:3883  function deposit() public payable onlyowners {\r... */\n    tag_70:\n        /* \"contracts/Multisig.sol\":1868:1880  bool isOwner */\n      0x00\n        /* \"contracts/Multisig.sol\":1903:1909  uint i */\n      dup1\n        /* \"contracts/Multisig.sol\":1898:2103  for (uint i = 0; i< walletowners.length; i++) {\r... */\n    tag_264:\n        /* \"contracts/Multisig.sol\":1918:1930  walletowners */\n      0x01\n        /* \"contracts/Multisig.sol\":1918:1937  walletowners.length */\n      dup1\n      sload\n      swap1\n      pop\n        /* \"contracts/Multisig.sol\":1915:1916  i */\n      dup2\n        /* \"contracts/Multisig.sol\":1915:1937  i< walletowners.length */\n      lt\n        /* \"contracts/Multisig.sol\":1898:2103  for (uint i = 0; i< walletowners.length; i++) {\r... */\n      iszero\n      tag_265\n      jumpi\n        /* \"contracts/Multisig.sol\":1994:2004  msg.sender */\n      caller\n        /* \"contracts/Multisig.sol\":1975:2004  walletowners[i] == msg.sender */\n      0xffffffffffffffffffffffffffffffffffffffff\n      and\n        /* \"contracts/Multisig.sol\":1975:1987  walletowners */\n      0x01\n        /* \"contracts/Multisig.sol\":1988:1989  i */\n      dup3\n        /* \"contracts/Multisig.sol\":1975:1990  walletowners[i] */\n      dup2\n      sload\n      dup2\n      lt\n      tag_267\n      jumpi\n      tag_268\n      tag_82\n      jump\t// in\n    tag_268:\n    tag_267:\n      swap1\n      0x00\n      mstore\n      keccak256(0x00, 0x20)\n      add\n      0x00\n      swap1\n      sload\n      swap1\n      0x0100\n      exp\n      swap1\n      div\n      0xffffffffffffffffffffffffffffffffffffffff\n      and\n        /* \"contracts/Multisig.sol\":1975:2004  walletowners[i] == msg.sender */\n      0xffffffffffffffffffffffffffffffffffffffff\n      and\n      eq\n        /* \"contracts/Multisig.sol\":1971:2093  if (walletowners[i] == msg.sender) {\r... */\n      iszero\n      tag_270\n      jumpi\n        /* \"contracts/Multisig.sol\":2051:2055  true */\n      0x01\n        /* \"contracts/Multisig.sol\":2041:2055  isOwner = true */\n      swap2\n      pop\n        /* \"contracts/Multisig.sol\":2073:2078  break */\n      jump(tag_265)\n        /* \"contracts/Multisig.sol\":1971:2093  if (walletowners[i] == msg.sender) {\r... */\n    tag_270:\n        /* \"contracts/Multisig.sol\":1939:1942  i++ */\n      dup1\n      dup1\n      tag_271\n      swap1\n      tag_86\n      jump\t// in\n    tag_271:\n      swap2\n      pop\n      pop\n        /* \"contracts/Multisig.sol\":1898:2103  for (uint i = 0; i< walletowners.length; i++) {\r... */\n      jump(tag_264)\n    tag_265:\n      pop\n        /* \"contracts/Multisig.sol\":2140:2144  true */\n      0x01\n        /* \"contracts/Multisig.sol\":2129:2144  isOwner == true */\n      iszero\n      iszero\n        /* \"contracts/Multisig.sol\":2129:2136  isOwner */\n      dup2\n        /* \"contracts/Multisig.sol\":2129:2144  isOwner == true */\n      iszero\n      iszero\n      eq\n        /* \"contracts/Multisig.sol\":2121:2190  require(isOwner == true, \"only wallet owners can call this function\") */\n      tag_272\n      jumpi\n      mload(0x40)\n      0x08c379a000000000000000000000000000000000000000000000000000000000\n      dup2\n      mstore\n      0x04\n      add\n      tag_273\n      swap1\n      tag_89\n      jump\t// in\n    tag_273:\n      mload(0x40)\n      dup1\n      swap2\n      sub\n      swap1\n      revert\n    tag_272:\n        /* \"contracts/Multisig.sol\":3666:3667  0 */\n      0x00\n        /* \"contracts/Multisig.sol\":3643:3650  balance */\n      0x07\n        /* \"contracts/Multisig.sol\":3643:3662  balance[msg.sender] */\n      0x00\n        /* \"contracts/Multisig.sol\":3651:3661  msg.sender */\n      caller\n        /* \"contracts/Multisig.sol\":3643:3662  balance[msg.sender] */\n      0xffffffffffffffffffffffffffffffffffffffff\n      and\n      0xffffffffffffffffffffffffffffffffffffffff\n      and\n      dup2\n      mstore\n      0x20\n      add\n      swap1\n      dup2\n      mstore\n      0x20\n      add\n      0x00\n      keccak256\n      sload\n        /* \"contracts/Multisig.sol\":3643:3667  balance[msg.sender] >= 0 */\n      lt\n      iszero\n        /* \"contracts/Multisig.sol\":3635:3700  require(balance[msg.sender] >= 0, \"cannot deposiit a calue of 0\") */\n      tag_275\n      jumpi\n      mload(0x40)\n      0x08c379a000000000000000000000000000000000000000000000000000000000\n      dup2\n      mstore\n      0x04\n      add\n      tag_276\n      swap1\n      tag_277\n      jump\t// in\n    tag_276:\n      mload(0x40)\n      dup1\n      swap2\n      sub\n      swap1\n      revert\n    tag_275:\n        /* \"contracts/Multisig.sol\":3743:3752  msg.value */\n      callvalue\n        /* \"contracts/Multisig.sol\":3721:3728  balance */\n      0x07\n        /* \"contracts/Multisig.sol\":3721:3740  balance[msg.sender] */\n      0x00\n        /* \"contracts/Multisig.sol\":3729:3739  msg.sender */\n      caller\n        /* \"contracts/Multisig.sol\":3721:3740  balance[msg.sender] */\n      0xffffffffffffffffffffffffffffffffffffffff\n      and\n      0xffffffffffffffffffffffffffffffffffffffff\n      and\n      dup2\n      mstore\n      0x20\n      add\n      swap1\n      dup2\n      mstore\n      0x20\n      add\n      0x00\n      keccak256\n        /* \"contracts/Multisig.sol\":3721:3752  balance[msg.sender] = msg.value */\n      dup2\n      swap1\n      sstore\n      pop\n        /* \"contracts/Multisig.sol\":3778:3843  fundsDeposited(msg.sender, msg.value, depositId, block.timestamp) */\n      0x2e0c7c0c884d7be5e05e90478e8e5e8e89b7fccac8131a5107aa200f79203f25\n        /* \"contracts/Multisig.sol\":3793:3803  msg.sender */\n      caller\n        /* \"contracts/Multisig.sol\":3805:3814  msg.value */\n      callvalue\n        /* \"contracts/Multisig.sol\":3816:3825  depositId */\n      sload(0x03)\n        /* \"contracts/Multisig.sol\":3827:3842  block.timestamp */\n      timestamp\n        /* \"contracts/Multisig.sol\":3778:3843  fundsDeposited(msg.sender, msg.value, depositId, block.timestamp) */\n      mload(0x40)\n      tag_278\n      swap5\n      swap4\n      swap3\n      swap2\n      swap1\n      tag_97\n      jump\t// in\n    tag_278:\n      mload(0x40)\n      dup1\n      swap2\n      sub\n      swap1\n      log1\n        /* \"contracts/Multisig.sol\":3854:3863  depositId */\n      0x03\n      0x00\n        /* \"contracts/Multisig.sol\":3854:3865  depositId++ */\n      dup2\n      sload\n      dup1\n      swap3\n      swap2\n      swap1\n      tag_279\n      swap1\n      tag_86\n      jump\t// in\n    tag_279:\n      swap2\n      swap1\n      pop\n      sstore\n      pop\n        /* \"contracts/Multisig.sol\":1848:2219  {\r... */\n      pop\n        /* \"contracts/Multisig.sol\":3569:3883  function deposit() public payable onlyowners {\r... */\n      jump\t// out\n        /* \"contracts/Multisig.sol\":6046:7253  function approveTransferRequest(uint id) public onlyowners {\r... */\n    tag_74:\n        /* \"contracts/Multisig.sol\":1868:1880  bool isOwner */\n      0x00\n        /* \"contracts/Multisig.sol\":1903:1909  uint i */\n      dup1\n        /* \"contracts/Multisig.sol\":1898:2103  for (uint i = 0; i< walletowners.length; i++) {\r... */\n    tag_281:\n        /* \"contracts/Multisig.sol\":1918:1930  walletowners */\n      0x01\n        /* \"contracts/Multisig.sol\":1918:1937  walletowners.length */\n      dup1\n      sload\n      swap1\n      pop\n        /* \"contracts/Multisig.sol\":1915:1916  i */\n      dup2\n        /* \"contracts/Multisig.sol\":1915:1937  i< walletowners.length */\n      lt\n        /* \"contracts/Multisig.sol\":1898:2103  for (uint i = 0; i< walletowners.length; i++) {\r... */\n      iszero\n      tag_282\n      jumpi\n        /* \"contracts/Multisig.sol\":1994:2004  msg.sender */\n      caller\n        /* \"contracts/Multisig.sol\":1975:2004  walletowners[i] == msg.sender */\n      0xffffffffffffffffffffffffffffffffffffffff\n      and\n        /* \"contracts/Multisig.sol\":1975:1987  walletowners */\n      0x01\n        /* \"contracts/Multisig.sol\":1988:1989  i */\n      dup3\n        /* \"contracts/Multisig.sol\":1975:1990  walletowners[i] */\n      dup2\n      sload\n      dup2\n      lt\n      tag_284\n      jumpi\n      tag_285\n      tag_82\n      jump\t// in\n    tag_285:\n    tag_284:\n      swap1\n      0x00\n      mstore\n      keccak256(0x00, 0x20)\n      add\n      0x00\n      swap1\n      sload\n      swap1\n      0x0100\n      exp\n      swap1\n      div\n      0xffffffffffffffffffffffffffffffffffffffff\n      and\n        /* \"contracts/Multisig.sol\":1975:2004  walletowners[i] == msg.sender */\n      0xffffffffffffffffffffffffffffffffffffffff\n      and\n      eq\n        /* \"contracts/Multisig.sol\":1971:2093  if (walletowners[i] == msg.sender) {\r... */\n      iszero\n      tag_287\n      jumpi\n        /* \"contracts/Multisig.sol\":2051:2055  true */\n      0x01\n        /* \"contracts/Multisig.sol\":2041:2055  isOwner = true */\n      swap2\n      pop\n        /* \"contracts/Multisig.sol\":2073:2078  break */\n      jump(tag_282)\n        /* \"contracts/Multisig.sol\":1971:2093  if (walletowners[i] == msg.sender) {\r... */\n    tag_287:\n        /* \"contracts/Multisig.sol\":1939:1942  i++ */\n      dup1\n      dup1\n      tag_288\n      swap1\n      tag_86\n      jump\t// in\n    tag_288:\n      swap2\n      pop\n      pop\n        /* \"contracts/Multisig.sol\":1898:2103  for (uint i = 0; i< walletowners.length; i++) {\r... */\n      jump(tag_281)\n    tag_282:\n      pop\n        /* \"contracts/Multisig.sol\":2140:2144  true */\n      0x01\n        /* \"contracts/Multisig.sol\":2129:2144  isOwner == true */\n      iszero\n      iszero\n        /* \"contracts/Multisig.sol\":2129:2136  isOwner */\n      dup2\n        /* \"contracts/Multisig.sol\":2129:2144  isOwner == true */\n      iszero\n      iszero\n      eq\n        /* \"contracts/Multisig.sol\":2121:2190  require(isOwner == true, \"only wallet owners can call this function\") */\n      tag_289\n      jumpi\n      mload(0x40)\n      0x08c379a000000000000000000000000000000000000000000000000000000000\n      dup2\n      mstore\n      0x04\n      add\n      tag_290\n      swap1\n      tag_89\n      jump\t// in\n    tag_290:\n      mload(0x40)\n      dup1\n      swap2\n      sub\n      swap1\n      revert\n    tag_289:\n        /* \"contracts/Multisig.sol\":6126:6143  bool hasBeenFound */\n      0x00\n        /* \"contracts/Multisig.sol\":6162:6180  uint transferIndex */\n      dup1\n        /* \"contracts/Multisig.sol\":6200:6206  uint i */\n      0x00\n        /* \"contracts/Multisig.sol\":6195:6478  for (uint i = 0; i < transferRequests.length; i++) {\r... */\n    tag_292:\n        /* \"contracts/Multisig.sol\":6216:6232  transferRequests */\n      0x0a\n        /* \"contracts/Multisig.sol\":6216:6239  transferRequests.length */\n      dup1\n      sload\n      swap1\n      pop\n        /* \"contracts/Multisig.sol\":6212:6213  i */\n      dup2\n        /* \"contracts/Multisig.sol\":6212:6239  i < transferRequests.length */\n      lt\n        /* \"contracts/Multisig.sol\":6195:6478  for (uint i = 0; i < transferRequests.length; i++) {\r... */\n      iszero\n      tag_293\n      jumpi\n        /* \"contracts/Multisig.sol\":6304:6306  id */\n      dup5\n        /* \"contracts/Multisig.sol\":6278:6294  transferRequests */\n      0x0a\n        /* \"contracts/Multisig.sol\":6295:6296  i */\n      dup3\n        /* \"contracts/Multisig.sol\":6278:6297  transferRequests[i] */\n      dup2\n      sload\n      dup2\n      lt\n      tag_295\n      jumpi\n      tag_296\n      tag_82\n      jump\t// in\n    tag_296:\n    tag_295:\n      swap1\n      0x00\n      mstore\n      keccak256(0x00, 0x20)\n      swap1\n      0x06\n      mul\n      add\n        /* \"contracts/Multisig.sol\":6278:6300  transferRequests[i].id */\n      0x03\n      add\n      sload\n        /* \"contracts/Multisig.sol\":6278:6306  transferRequests[i].id == id */\n      eq\n        /* \"contracts/Multisig.sol\":6275:6422  if(transferRequests[i].id == id) {\r... */\n      iszero\n      tag_298\n      jumpi\n        /* \"contracts/Multisig.sol\":6360:6364  true */\n      0x01\n        /* \"contracts/Multisig.sol\":6345:6364  hasBeenFound = true */\n      swap3\n      pop\n        /* \"contracts/Multisig.sol\":6383:6388  break */\n      jump(tag_293)\n        /* \"contracts/Multisig.sol\":6275:6422  if(transferRequests[i].id == id) {\r... */\n    tag_298:\n        /* \"contracts/Multisig.sol\":6451:6466  transferIndex++ */\n      dup2\n      dup1\n      tag_299\n      swap1\n      tag_86\n      jump\t// in\n    tag_299:\n      swap3\n      pop\n      pop\n        /* \"contracts/Multisig.sol\":6241:6244  i++ */\n      dup1\n      dup1\n      tag_300\n      swap1\n      tag_86\n      jump\t// in\n    tag_300:\n      swap2\n      pop\n      pop\n        /* \"contracts/Multisig.sol\":6195:6478  for (uint i = 0; i < transferRequests.length; i++) {\r... */\n      jump(tag_292)\n    tag_293:\n      pop\n        /* \"contracts/Multisig.sol\":6506:6518  hasBeenFound */\n      dup2\n        /* \"contracts/Multisig.sol\":6498:6559  require(hasBeenFound, \"only the transfer creator can cancel\") */\n      tag_301\n      jumpi\n      mload(0x40)\n      0x08c379a000000000000000000000000000000000000000000000000000000000\n      dup2\n      mstore\n      0x04\n      add\n      tag_302\n      swap1\n      tag_155\n      jump\t// in\n    tag_302:\n      mload(0x40)\n      dup1\n      swap2\n      sub\n      swap1\n      revert\n    tag_301:\n        /* \"contracts/Multisig.sol\":6607:6612  false */\n      0x00\n        /* \"contracts/Multisig.sol\":6578:6612  approvals[msg.sender][id] == false */\n      iszero\n      iszero\n        /* \"contracts/Multisig.sol\":6578:6587  approvals */\n      0x08\n        /* \"contracts/Multisig.sol\":6578:6599  approvals[msg.sender] */\n      0x00\n        /* \"contracts/Multisig.sol\":6588:6598  msg.sender */\n      caller\n        /* \"contracts/Multisig.sol\":6578:6599  approvals[msg.sender] */\n      0xffffffffffffffffffffffffffffffffffffffff\n      and\n      0xffffffffffffffffffffffffffffffffffffffff\n      and\n      dup2\n      mstore\n      0x20\n      add\n      swap1\n      dup2\n      mstore\n      0x20\n      add\n      0x00\n      keccak256\n        /* \"contracts/Multisig.sol\":6578:6603  approvals[msg.sender][id] */\n      0x00\n        /* \"contracts/Multisig.sol\":6600:6602  id */\n      dup7\n        /* \"contracts/Multisig.sol\":6578:6603  approvals[msg.sender][id] */\n      dup2\n      mstore\n      0x20\n      add\n      swap1\n      dup2\n      mstore\n      0x20\n      add\n      0x00\n      keccak256\n      0x00\n      swap1\n      sload\n      swap1\n      0x0100\n      exp\n      swap1\n      div\n      0xff\n      and\n        /* \"contracts/Multisig.sol\":6578:6612  approvals[msg.sender][id] == false */\n      iszero\n      iszero\n      eq\n        /* \"contracts/Multisig.sol\":6570:6655  require(approvals[msg.sender][id] == false, \"cannot approve the same transfer twice\") */\n      tag_303\n      jumpi\n      mload(0x40)\n      0x08c379a000000000000000000000000000000000000000000000000000000000\n      dup2\n      mstore\n      0x04\n      add\n      tag_304\n      swap1\n      tag_305\n      jump\t// in\n    tag_304:\n      mload(0x40)\n      dup1\n      swap2\n      sub\n      swap1\n      revert\n    tag_303:\n        /* \"contracts/Multisig.sol\":6716:6726  msg.sender */\n      caller\n        /* \"contracts/Multisig.sol\":6674:6726  transferRequests[transferIndex].sender != msg.sender */\n      0xffffffffffffffffffffffffffffffffffffffff\n      and\n        /* \"contracts/Multisig.sol\":6674:6690  transferRequests */\n      0x0a\n        /* \"contracts/Multisig.sol\":6691:6704  transferIndex */\n      dup3\n        /* \"contracts/Multisig.sol\":6674:6705  transferRequests[transferIndex] */\n      dup2\n      sload\n      dup2\n      lt\n      tag_306\n      jumpi\n      tag_307\n      tag_82\n      jump\t// in\n    tag_307:\n    tag_306:\n      swap1\n      0x00\n      mstore\n      keccak256(0x00, 0x20)\n      swap1\n      0x06\n      mul\n      add\n        /* \"contracts/Multisig.sol\":6674:6712  transferRequests[transferIndex].sender */\n      0x00\n      add\n      0x00\n      swap1\n      sload\n      swap1\n      0x0100\n      exp\n      swap1\n      div\n      0xffffffffffffffffffffffffffffffffffffffff\n      and\n        /* \"contracts/Multisig.sol\":6674:6726  transferRequests[transferIndex].sender != msg.sender */\n      0xffffffffffffffffffffffffffffffffffffffff\n      and\n      eq\n      iszero\n        /* \"contracts/Multisig.sol\":6666:6727  require(transferRequests[transferIndex].sender != msg.sender) */\n      tag_309\n      jumpi\n      0x00\n      dup1\n      revert\n    tag_309:\n        /* \"contracts/Multisig.sol\":6776:6780  true */\n      0x01\n        /* \"contracts/Multisig.sol\":6748:6757  approvals */\n      0x08\n        /* \"contracts/Multisig.sol\":6748:6769  approvals[msg.sender] */\n      0x00\n        /* \"contracts/Multisig.sol\":6758:6768  msg.sender */\n      caller\n        /* \"contracts/Multisig.sol\":6748:6769  approvals[msg.sender] */\n      0xffffffffffffffffffffffffffffffffffffffff\n      and\n      0xffffffffffffffffffffffffffffffffffffffff\n      and\n      dup2\n      mstore\n      0x20\n      add\n      swap1\n      dup2\n      mstore\n      0x20\n      add\n      0x00\n      keccak256\n        /* \"contracts/Multisig.sol\":6748:6773  approvals[msg.sender][id] */\n      0x00\n        /* \"contracts/Multisig.sol\":6770:6772  id */\n      dup7\n        /* \"contracts/Multisig.sol\":6748:6773  approvals[msg.sender][id] */\n      dup2\n      mstore\n      0x20\n      add\n      swap1\n      dup2\n      mstore\n      0x20\n      add\n      0x00\n      keccak256\n      0x00\n        /* \"contracts/Multisig.sol\":6748:6780  approvals[msg.sender][id] = true */\n      0x0100\n      exp\n      dup2\n      sload\n      dup2\n      0xff\n      mul\n      not\n      and\n      swap1\n      dup4\n      iszero\n      iszero\n      mul\n      or\n      swap1\n      sstore\n      pop\n        /* \"contracts/Multisig.sol\":6791:6807  transferRequests */\n      0x0a\n        /* \"contracts/Multisig.sol\":6808:6821  transferIndex */\n      dup2\n        /* \"contracts/Multisig.sol\":6791:6822  transferRequests[transferIndex] */\n      dup2\n      sload\n      dup2\n      lt\n      tag_310\n      jumpi\n      tag_311\n      tag_82\n      jump\t// in\n    tag_311:\n    tag_310:\n      swap1\n      0x00\n      mstore\n      keccak256(0x00, 0x20)\n      swap1\n      0x06\n      mul\n      add\n        /* \"contracts/Multisig.sol\":6791:6832  transferRequests[transferIndex].approvals */\n      0x04\n      add\n      0x00\n        /* \"contracts/Multisig.sol\":6791:6834  transferRequests[transferIndex].approvals++ */\n      dup2\n      sload\n      dup1\n      swap3\n      swap2\n      swap1\n      tag_313\n      swap1\n      tag_86\n      jump\t// in\n    tag_313:\n      swap2\n      swap1\n      pop\n      sstore\n      pop\n        /* \"contracts/Multisig.sol\":6860:7100  transferApproved(msg.sender, transferRequests[transferIndex].receiver, transferRequests[transferIndex].amount, transferRequests[transferIndex].id, transferRequests[transferIndex].approvals, transferRequests[transferIndex].timeOfTransaction) */\n      0xef752aa31d5fb48a280f9de059968813bb02bd5685abdc4bcad829a70525a419\n        /* \"contracts/Multisig.sol\":6877:6887  msg.sender */\n      caller\n        /* \"contracts/Multisig.sol\":6889:6905  transferRequests */\n      0x0a\n        /* \"contracts/Multisig.sol\":6906:6919  transferIndex */\n      dup4\n        /* \"contracts/Multisig.sol\":6889:6920  transferRequests[transferIndex] */\n      dup2\n      sload\n      dup2\n      lt\n      tag_314\n      jumpi\n      tag_315\n      tag_82\n      jump\t// in\n    tag_315:\n    tag_314:\n      swap1\n      0x00\n      mstore\n      keccak256(0x00, 0x20)\n      swap1\n      0x06\n      mul\n      add\n        /* \"contracts/Multisig.sol\":6889:6929  transferRequests[transferIndex].receiver */\n      0x01\n      add\n      0x00\n      swap1\n      sload\n      swap1\n      0x0100\n      exp\n      swap1\n      div\n      0xffffffffffffffffffffffffffffffffffffffff\n      and\n        /* \"contracts/Multisig.sol\":6931:6947  transferRequests */\n      0x0a\n        /* \"contracts/Multisig.sol\":6948:6961  transferIndex */\n      dup5\n        /* \"contracts/Multisig.sol\":6931:6962  transferRequests[transferIndex] */\n      dup2\n      sload\n      dup2\n      lt\n      tag_317\n      jumpi\n      tag_318\n      tag_82\n      jump\t// in\n    tag_318:\n    tag_317:\n      swap1\n      0x00\n      mstore\n      keccak256(0x00, 0x20)\n      swap1\n      0x06\n      mul\n      add\n        /* \"contracts/Multisig.sol\":6931:6969  transferRequests[transferIndex].amount */\n      0x02\n      add\n      sload\n        /* \"contracts/Multisig.sol\":6971:6987  transferRequests */\n      0x0a\n        /* \"contracts/Multisig.sol\":6988:7001  transferIndex */\n      dup6\n        /* \"contracts/Multisig.sol\":6971:7002  transferRequests[transferIndex] */\n      dup2\n      sload\n      dup2\n      lt\n      tag_320\n      jumpi\n      tag_321\n      tag_82\n      jump\t// in\n    tag_321:\n    tag_320:\n      swap1\n      0x00\n      mstore\n      keccak256(0x00, 0x20)\n      swap1\n      0x06\n      mul\n      add\n        /* \"contracts/Multisig.sol\":6971:7005  transferRequests[transferIndex].id */\n      0x03\n      add\n      sload\n        /* \"contracts/Multisig.sol\":7007:7023  transferRequests */\n      0x0a\n        /* \"contracts/Multisig.sol\":7024:7037  transferIndex */\n      dup7\n        /* \"contracts/Multisig.sol\":7007:7038  transferRequests[transferIndex] */\n      dup2\n      sload\n      dup2\n      lt\n      tag_323\n      jumpi\n      tag_324\n      tag_82\n      jump\t// in\n    tag_324:\n    tag_323:\n      swap1\n      0x00\n      mstore\n      keccak256(0x00, 0x20)\n      swap1\n      0x06\n      mul\n      add\n        /* \"contracts/Multisig.sol\":7007:7048  transferRequests[transferIndex].approvals */\n      0x04\n      add\n      sload\n        /* \"contracts/Multisig.sol\":7050:7066  transferRequests */\n      0x0a\n        /* \"contracts/Multisig.sol\":7067:7080  transferIndex */\n      dup8\n        /* \"contracts/Multisig.sol\":7050:7081  transferRequests[transferIndex] */\n      dup2\n      sload\n      dup2\n      lt\n      tag_326\n      jumpi\n      tag_327\n      tag_82\n      jump\t// in\n    tag_327:\n    tag_326:\n      swap1\n      0x00\n      mstore\n      keccak256(0x00, 0x20)\n      swap1\n      0x06\n      mul\n      add\n        /* \"contracts/Multisig.sol\":7050:7099  transferRequests[transferIndex].timeOfTransaction */\n      0x05\n      add\n      sload\n        /* \"contracts/Multisig.sol\":6860:7100  transferApproved(msg.sender, transferRequests[transferIndex].receiver, transferRequests[transferIndex].amount, transferRequests[transferIndex].id, transferRequests[transferIndex].approvals, transferRequests[transferIndex].timeOfTransaction) */\n      mload(0x40)\n      tag_329\n      swap7\n      swap6\n      swap5\n      swap4\n      swap3\n      swap2\n      swap1\n      tag_187\n      jump\t// in\n    tag_329:\n      mload(0x40)\n      dup1\n      swap2\n      sub\n      swap1\n      log1\n        /* \"contracts/Multisig.sol\":7170:7175  limit */\n      sload(0x02)\n        /* \"contracts/Multisig.sol\":7125:7141  transferRequests */\n      0x0a\n        /* \"contracts/Multisig.sol\":7142:7155  transferIndex */\n      dup3\n        /* \"contracts/Multisig.sol\":7125:7156  transferRequests[transferIndex] */\n      dup2\n      sload\n      dup2\n      lt\n      tag_330\n      jumpi\n      tag_331\n      tag_82\n      jump\t// in\n    tag_331:\n    tag_330:\n      swap1\n      0x00\n      mstore\n      keccak256(0x00, 0x20)\n      swap1\n      0x06\n      mul\n      add\n        /* \"contracts/Multisig.sol\":7125:7166  transferRequests[transferIndex].approvals */\n      0x04\n      add\n      sload\n        /* \"contracts/Multisig.sol\":7125:7175  transferRequests[transferIndex].approvals == limit */\n      eq\n        /* \"contracts/Multisig.sol\":7121:7246  if (transferRequests[transferIndex].approvals == limit) {\r... */\n      iszero\n      tag_333\n      jumpi\n        /* \"contracts/Multisig.sol\":7206:7234  transferFunds(transferIndex) */\n      tag_334\n        /* \"contracts/Multisig.sol\":7220:7233  transferIndex */\n      dup2\n        /* \"contracts/Multisig.sol\":7206:7219  transferFunds */\n      tag_335\n        /* \"contracts/Multisig.sol\":7206:7234  transferFunds(transferIndex) */\n      jump\t// in\n    tag_334:\n        /* \"contracts/Multisig.sol\":7121:7246  if (transferRequests[transferIndex].approvals == limit) {\r... */\n    tag_333:\n        /* \"contracts/Multisig.sol\":6105:7253  {\r... */\n      pop\n      pop\n        /* \"contracts/Multisig.sol\":1848:2219  {\r... */\n      pop\n        /* \"contracts/Multisig.sol\":6046:7253  function approveTransferRequest(uint id) public onlyowners {\r... */\n      pop\n      jump\t// out\n        /* \"contracts/Multisig.sol\":7265:7813  function transferFunds(uint id) private {\r... */\n    tag_335:\n        /* \"contracts/Multisig.sol\":7368:7384  transferRequests */\n      0x0a\n        /* \"contracts/Multisig.sol\":7385:7387  id */\n      dup2\n        /* \"contracts/Multisig.sol\":7368:7388  transferRequests[id] */\n      dup2\n      sload\n      dup2\n      lt\n      tag_337\n      jumpi\n      tag_338\n      tag_82\n      jump\t// in\n    tag_338:\n    tag_337:\n      swap1\n      0x00\n      mstore\n      keccak256(0x00, 0x20)\n      swap1\n      0x06\n      mul\n      add\n        /* \"contracts/Multisig.sol\":7368:7395  transferRequests[id].amount */\n      0x02\n      add\n      sload\n        /* \"contracts/Multisig.sol\":7326:7333  balance */\n      0x07\n        /* \"contracts/Multisig.sol\":7326:7364  balance[transferRequests[id].receiver] */\n      0x00\n        /* \"contracts/Multisig.sol\":7334:7350  transferRequests */\n      0x0a\n        /* \"contracts/Multisig.sol\":7351:7353  id */\n      dup5\n        /* \"contracts/Multisig.sol\":7334:7354  transferRequests[id] */\n      dup2\n      sload\n      dup2\n      lt\n      tag_340\n      jumpi\n      tag_341\n      tag_82\n      jump\t// in\n    tag_341:\n    tag_340:\n      swap1\n      0x00\n      mstore\n      keccak256(0x00, 0x20)\n      swap1\n      0x06\n      mul\n      add\n        /* \"contracts/Multisig.sol\":7334:7363  transferRequests[id].receiver */\n      0x01\n      add\n      0x00\n      swap1\n      sload\n      swap1\n      0x0100\n      exp\n      swap1\n      div\n      0xffffffffffffffffffffffffffffffffffffffff\n      and\n        /* \"contracts/Multisig.sol\":7326:7364  balance[transferRequests[id].receiver] */\n      0xffffffffffffffffffffffffffffffffffffffff\n      and\n      0xffffffffffffffffffffffffffffffffffffffff\n      and\n      dup2\n      mstore\n      0x20\n      add\n      swap1\n      dup2\n      mstore\n      0x20\n      add\n      0x00\n      keccak256\n      0x00\n        /* \"contracts/Multisig.sol\":7326:7395  balance[transferRequests[id].receiver] += transferRequests[id].amount */\n      dup3\n      dup3\n      sload\n      tag_343\n      swap2\n      swap1\n      tag_163\n      jump\t// in\n    tag_343:\n      swap3\n      pop\n      pop\n      dup2\n      swap1\n      sstore\n      pop\n        /* \"contracts/Multisig.sol\":7406:7422  transferRequests */\n      0x0a\n        /* \"contracts/Multisig.sol\":7423:7425  id */\n      dup2\n        /* \"contracts/Multisig.sol\":7406:7426  transferRequests[id] */\n      dup2\n      sload\n      dup2\n      lt\n      tag_344\n      jumpi\n      tag_345\n      tag_82\n      jump\t// in\n    tag_345:\n    tag_344:\n      swap1\n      0x00\n      mstore\n      keccak256(0x00, 0x20)\n      swap1\n      0x06\n      mul\n      add\n        /* \"contracts/Multisig.sol\":7406:7435  transferRequests[id].receiver */\n      0x01\n      add\n      0x00\n      swap1\n      sload\n      swap1\n      0x0100\n      exp\n      swap1\n      div\n      0xffffffffffffffffffffffffffffffffffffffff\n      and\n        /* \"contracts/Multisig.sol\":7406:7444  transferRequests[id].receiver.transfer */\n      0xffffffffffffffffffffffffffffffffffffffff\n      and\n        /* \"contracts/Multisig.sol\":7406:7473  transferRequests[id].receiver.transfer(transferRequests[id].amount) */\n      0x08fc\n        /* \"contracts/Multisig.sol\":7445:7461  transferRequests */\n      0x0a\n        /* \"contracts/Multisig.sol\":7462:7464  id */\n      dup4\n        /* \"contracts/Multisig.sol\":7445:7465  transferRequests[id] */\n      dup2\n      sload\n      dup2\n      lt\n      tag_347\n      jumpi\n      tag_348\n      tag_82\n      jump\t// in\n    tag_348:\n    tag_347:\n      swap1\n      0x00\n      mstore\n      keccak256(0x00, 0x20)\n      swap1\n      0x06\n      mul\n      add\n        /* \"contracts/Multisig.sol\":7445:7472  transferRequests[id].amount */\n      0x02\n      add\n      sload\n        /* \"contracts/Multisig.sol\":7406:7473  transferRequests[id].receiver.transfer(transferRequests[id].amount) */\n      swap1\n      dup2\n      iszero\n      mul\n      swap1\n      mload(0x40)\n      0x00\n      mload(0x40)\n      dup1\n      dup4\n      sub\n      dup2\n      dup6\n      dup9\n      dup9\n      call\n      swap4\n      pop\n      pop\n      pop\n      pop\n      iszero\n      dup1\n      iszero\n      tag_351\n      jumpi\n      returndatasize\n      0x00\n      dup1\n      returndatacopy\n      revert(0x00, returndatasize)\n    tag_351:\n      pop\n        /* \"contracts/Multisig.sol\":7499:7683  fundsTransfered(msg.sender, transferRequests[id].receiver, transferRequests[id].amount, transferRequests[id].id, transferRequests[id].approvals, transferRequests[id].timeOfTransaction) */\n      0x43fb677394050c8f05d75aa529267f5152e1ee4fc70f26c77d3b9a8e03ca17fb\n        /* \"contracts/Multisig.sol\":7515:7525  msg.sender */\n      caller\n        /* \"contracts/Multisig.sol\":7527:7543  transferRequests */\n      0x0a\n        /* \"contracts/Multisig.sol\":7544:7546  id */\n      dup4\n        /* \"contracts/Multisig.sol\":7527:7547  transferRequests[id] */\n      dup2\n      sload\n      dup2\n      lt\n      tag_352\n      jumpi\n      tag_353\n      tag_82\n      jump\t// in\n    tag_353:\n    tag_352:\n      swap1\n      0x00\n      mstore\n      keccak256(0x00, 0x20)\n      swap1\n      0x06\n      mul\n      add\n        /* \"contracts/Multisig.sol\":7527:7556  transferRequests[id].receiver */\n      0x01\n      add\n      0x00\n      swap1\n      sload\n      swap1\n      0x0100\n      exp\n      swap1\n      div\n      0xffffffffffffffffffffffffffffffffffffffff\n      and\n        /* \"contracts/Multisig.sol\":7558:7574  transferRequests */\n      0x0a\n        /* \"contracts/Multisig.sol\":7575:7577  id */\n      dup5\n        /* \"contracts/Multisig.sol\":7558:7578  transferRequests[id] */\n      dup2\n      sload\n      dup2\n      lt\n      tag_355\n      jumpi\n      tag_356\n      tag_82\n      jump\t// in\n    tag_356:\n    tag_355:\n      swap1\n      0x00\n      mstore\n      keccak256(0x00, 0x20)\n      swap1\n      0x06\n      mul\n      add\n        /* \"contracts/Multisig.sol\":7558:7585  transferRequests[id].amount */\n      0x02\n      add\n      sload\n        /* \"contracts/Multisig.sol\":7587:7603  transferRequests */\n      0x0a\n        /* \"contracts/Multisig.sol\":7604:7606  id */\n      dup6\n        /* \"contracts/Multisig.sol\":7587:7607  transferRequests[id] */\n      dup2\n      sload\n      dup2\n      lt\n      tag_358\n      jumpi\n      tag_359\n      tag_82\n      jump\t// in\n    tag_359:\n    tag_358:\n      swap1\n      0x00\n      mstore\n      keccak256(0x00, 0x20)\n      swap1\n      0x06\n      mul\n      add\n        /* \"contracts/Multisig.sol\":7587:7610  transferRequests[id].id */\n      0x03\n      add\n      sload\n        /* \"contracts/Multisig.sol\":7612:7628  transferRequests */\n      0x0a\n        /* \"contracts/Multisig.sol\":7629:7631  id */\n      dup7\n        /* \"contracts/Multisig.sol\":7612:7632  transferRequests[id] */\n      dup2\n      sload\n      dup2\n      lt\n      tag_361\n      jumpi\n      tag_362\n      tag_82\n      jump\t// in\n    tag_362:\n    tag_361:\n      swap1\n      0x00\n      mstore\n      keccak256(0x00, 0x20)\n      swap1\n      0x06\n      mul\n      add\n        /* \"contracts/Multisig.sol\":7612:7642  transferRequests[id].approvals */\n      0x04\n      add\n      sload\n        /* \"contracts/Multisig.sol\":7644:7660  transferRequests */\n      0x0a\n        /* \"contracts/Multisig.sol\":7661:7663  id */\n      dup8\n        /* \"contracts/Multisig.sol\":7644:7664  transferRequests[id] */\n      dup2\n      sload\n      dup2\n      lt\n      tag_364\n      jumpi\n      tag_365\n      tag_82\n      jump\t// in\n    tag_365:\n    tag_364:\n      swap1\n      0x00\n      mstore\n      keccak256(0x00, 0x20)\n      swap1\n      0x06\n      mul\n      add\n        /* \"contracts/Multisig.sol\":7644:7682  transferRequests[id].timeOfTransaction */\n      0x05\n      add\n      sload\n        /* \"contracts/Multisig.sol\":7499:7683  fundsTransfered(msg.sender, transferRequests[id].receiver, transferRequests[id].amount, transferRequests[id].id, transferRequests[id].approvals, transferRequests[id].timeOfTransaction) */\n      mload(0x40)\n      tag_367\n      swap7\n      swap6\n      swap5\n      swap4\n      swap3\n      swap2\n      swap1\n      tag_187\n      jump\t// in\n    tag_367:\n      mload(0x40)\n      dup1\n      swap2\n      sub\n      swap1\n      log1\n        /* \"contracts/Multisig.sol\":7727:7743  transferRequests */\n      0x0a\n        /* \"contracts/Multisig.sol\":7770:7771  1 */\n      0x01\n        /* \"contracts/Multisig.sol\":7744:7760  transferRequests */\n      0x0a\n        /* \"contracts/Multisig.sol\":7744:7767  transferRequests.length */\n      dup1\n      sload\n      swap1\n      pop\n        /* \"contracts/Multisig.sol\":7744:7771  transferRequests.length - 1 */\n      tag_368\n      swap2\n      swap1\n      tag_93\n      jump\t// in\n    tag_368:\n        /* \"contracts/Multisig.sol\":7727:7772  transferRequests[transferRequests.length - 1] */\n      dup2\n      sload\n      dup2\n      lt\n      tag_369\n      jumpi\n      tag_370\n      tag_82\n      jump\t// in\n    tag_370:\n    tag_369:\n      swap1\n      0x00\n      mstore\n      keccak256(0x00, 0x20)\n      swap1\n      0x06\n      mul\n      add\n        /* \"contracts/Multisig.sol\":7704:7720  transferRequests */\n      0x0a\n        /* \"contracts/Multisig.sol\":7721:7723  id */\n      dup3\n        /* \"contracts/Multisig.sol\":7704:7724  transferRequests[id] */\n      dup2\n      sload\n      dup2\n      lt\n      tag_372\n      jumpi\n      tag_373\n      tag_82\n      jump\t// in\n    tag_373:\n    tag_372:\n      swap1\n      0x00\n      mstore\n      keccak256(0x00, 0x20)\n      swap1\n      0x06\n      mul\n      add\n        /* \"contracts/Multisig.sol\":7704:7772  transferRequests[id] = transferRequests[transferRequests.length - 1] */\n      0x00\n      dup3\n      add\n      0x00\n      swap1\n      sload\n      swap1\n      0x0100\n      exp\n      swap1\n      div\n      0xffffffffffffffffffffffffffffffffffffffff\n      and\n      dup2\n      0x00\n      add\n      exp(0x0100, 0x00)\n      dup2\n      sload\n      dup2\n      0xffffffffffffffffffffffffffffffffffffffff\n      mul\n      not\n      and\n      swap1\n      dup4\n      0xffffffffffffffffffffffffffffffffffffffff\n      and\n      mul\n      or\n      swap1\n      sstore\n      pop\n      0x01\n      dup3\n      add\n      0x00\n      swap1\n      sload\n      swap1\n      0x0100\n      exp\n      swap1\n      div\n      0xffffffffffffffffffffffffffffffffffffffff\n      and\n      dup2\n      0x01\n      add\n      exp(0x0100, 0x00)\n      dup2\n      sload\n      dup2\n      0xffffffffffffffffffffffffffffffffffffffff\n      mul\n      not\n      and\n      swap1\n      dup4\n      0xffffffffffffffffffffffffffffffffffffffff\n      and\n      mul\n      or\n      swap1\n      sstore\n      pop\n      0x02\n      dup3\n      add\n      sload\n      dup2\n      0x02\n      add\n      sstore\n      0x03\n      dup3\n      add\n      sload\n      dup2\n      0x03\n      add\n      sstore\n      0x04\n      dup3\n      add\n      sload\n      dup2\n      0x04\n      add\n      sstore\n      0x05\n      dup3\n      add\n      sload\n      dup2\n      0x05\n      add\n      sstore\n      swap1\n      pop\n      pop\n        /* \"contracts/Multisig.sol\":7783:7799  transferRequests */\n      0x0a\n        /* \"contracts/Multisig.sol\":7783:7805  transferRequests.pop() */\n      dup1\n      sload\n      dup1\n      tag_375\n      jumpi\n      tag_376\n      tag_190\n      jump\t// in\n    tag_376:\n    tag_375:\n      0x01\n      swap1\n      sub\n      dup2\n      dup2\n      swap1\n      0x00\n      mstore\n      keccak256(0x00, 0x20)\n      swap1\n      0x06\n      mul\n      add\n      0x00\n      dup1\n      dup3\n      add\n      exp(0x0100, 0x00)\n      dup2\n      sload\n      swap1\n      0xffffffffffffffffffffffffffffffffffffffff\n      mul\n      not\n      and\n      swap1\n      sstore\n      0x01\n      dup3\n      add\n      exp(0x0100, 0x00)\n      dup2\n      sload\n      swap1\n      0xffffffffffffffffffffffffffffffffffffffff\n      mul\n      not\n      and\n      swap1\n      sstore\n      0x02\n      dup3\n      add\n      0x00\n      swap1\n      sstore\n      0x03\n      dup3\n      add\n      0x00\n      swap1\n      sstore\n      0x04\n      dup3\n      add\n      0x00\n      swap1\n      sstore\n      0x05\n      dup3\n      add\n      0x00\n      swap1\n      sstore\n      pop\n      pop\n      swap1\n      sstore\n        /* \"contracts/Multisig.sol\":7265:7813  function transferFunds(uint id) private {\r... */\n      pop\n      jump\t// out\n        /* \"#utility.yul\":7:146   */\n    tag_379:\n        /* \"#utility.yul\":53:58   */\n      0x00\n        /* \"#utility.yul\":91:97   */\n      dup2\n        /* \"#utility.yul\":78:98   */\n      calldataload\n        /* \"#utility.yul\":69:98   */\n      swap1\n      pop\n        /* \"#utility.yul\":107:140   */\n      tag_381\n        /* \"#utility.yul\":134:139   */\n      dup2\n        /* \"#utility.yul\":107:140   */\n      tag_382\n      jump\t// in\n    tag_381:\n        /* \"#utility.yul\":7:146   */\n      swap3\n      swap2\n      pop\n      pop\n      jump\t// out\n        /* \"#utility.yul\":152:307   */\n    tag_383:\n        /* \"#utility.yul\":206:211   */\n      0x00\n        /* \"#utility.yul\":244:250   */\n      dup2\n        /* \"#utility.yul\":231:251   */\n      calldataload\n        /* \"#utility.yul\":222:251   */\n      swap1\n      pop\n        /* \"#utility.yul\":260:301   */\n      tag_385\n        /* \"#utility.yul\":295:300   */\n      dup2\n        /* \"#utility.yul\":260:301   */\n      tag_386\n      jump\t// in\n    tag_385:\n        /* \"#utility.yul\":152:307   */\n      swap3\n      swap2\n      pop\n      pop\n      jump\t// out\n        /* \"#utility.yul\":313:452   */\n    tag_387:\n        /* \"#utility.yul\":359:364   */\n      0x00\n        /* \"#utility.yul\":397:403   */\n      dup2\n        /* \"#utility.yul\":384:404   */\n      calldataload\n        /* \"#utility.yul\":375:404   */\n      swap1\n      pop\n        /* \"#utility.yul\":413:446   */\n      tag_389\n        /* \"#utility.yul\":440:445   */\n      dup2\n        /* \"#utility.yul\":413:446   */\n      tag_390\n      jump\t// in\n    tag_389:\n        /* \"#utility.yul\":313:452   */\n      swap3\n      swap2\n      pop\n      pop\n      jump\t// out\n        /* \"#utility.yul\":458:787   */\n    tag_47:\n        /* \"#utility.yul\":517:523   */\n      0x00\n        /* \"#utility.yul\":566:568   */\n      0x20\n        /* \"#utility.yul\":554:563   */\n      dup3\n        /* \"#utility.yul\":545:552   */\n      dup5\n        /* \"#utility.yul\":541:564   */\n      sub\n        /* \"#utility.yul\":537:569   */\n      slt\n        /* \"#utility.yul\":534:653   */\n      iszero\n      tag_392\n      jumpi\n        /* \"#utility.yul\":572:651   */\n      tag_393\n      tag_394\n      jump\t// in\n    tag_393:\n        /* \"#utility.yul\":534:653   */\n    tag_392:\n        /* \"#utility.yul\":692:693   */\n      0x00\n        /* \"#utility.yul\":717:770   */\n      tag_395\n        /* \"#utility.yul\":762:769   */\n      dup5\n        /* \"#utility.yul\":753:759   */\n      dup3\n        /* \"#utility.yul\":742:751   */\n      dup6\n        /* \"#utility.yul\":738:760   */\n      add\n        /* \"#utility.yul\":717:770   */\n      tag_379\n      jump\t// in\n    tag_395:\n        /* \"#utility.yul\":707:770   */\n      swap2\n      pop\n        /* \"#utility.yul\":663:780   */\n      pop\n        /* \"#utility.yul\":458:787   */\n      swap3\n      swap2\n      pop\n      pop\n      jump\t// out\n        /* \"#utility.yul\":793:1283   */\n    tag_30:\n        /* \"#utility.yul\":869:875   */\n      0x00\n        /* \"#utility.yul\":877:883   */\n      dup1\n        /* \"#utility.yul\":926:928   */\n      0x40\n        /* \"#utility.yul\":914:923   */\n      dup4\n        /* \"#utility.yul\":905:912   */\n      dup6\n        /* \"#utility.yul\":901:924   */\n      sub\n        /* \"#utility.yul\":897:929   */\n      slt\n        /* \"#utility.yul\":894:1013   */\n      iszero\n      tag_397\n      jumpi\n        /* \"#utility.yul\":932:1011   */\n      tag_398\n      tag_394\n      jump\t// in\n    tag_398:\n        /* \"#utility.yul\":894:1013   */\n    tag_397:\n        /* \"#utility.yul\":1052:1053   */\n      0x00\n        /* \"#utility.yul\":1077:1138   */\n      tag_399\n        /* \"#utility.yul\":1130:1137   */\n      dup6\n        /* \"#utility.yul\":1121:1127   */\n      dup3\n        /* \"#utility.yul\":1110:1119   */\n      dup7\n        /* \"#utility.yul\":1106:1128   */\n      add\n        /* \"#utility.yul\":1077:1138   */\n      tag_383\n      jump\t// in\n    tag_399:\n        /* \"#utility.yul\":1067:1138   */\n      swap3\n      pop\n        /* \"#utility.yul\":1023:1148   */\n      pop\n        /* \"#utility.yul\":1187:1189   */\n      0x20\n        /* \"#utility.yul\":1213:1266   */\n      tag_400\n        /* \"#utility.yul\":1258:1265   */\n      dup6\n        /* \"#utility.yul\":1249:1255   */\n      dup3\n        /* \"#utility.yul\":1238:1247   */\n      dup7\n        /* \"#utility.yul\":1234:1256   */\n      add\n        /* \"#utility.yul\":1213:1266   */\n      tag_387\n      jump\t// in\n    tag_400:\n        /* \"#utility.yul\":1203:1266   */\n      swap2\n      pop\n        /* \"#utility.yul\":1158:1276   */\n      pop\n        /* \"#utility.yul\":793:1283   */\n      swap3\n      pop\n      swap3\n      swap1\n      pop\n      jump\t// out\n        /* \"#utility.yul\":1289:1618   */\n    tag_25:\n        /* \"#utility.yul\":1348:1354   */\n      0x00\n        /* \"#utility.yul\":1397:1399   */\n      0x20\n        /* \"#utility.yul\":1385:1394   */\n      dup3\n        /* \"#utility.yul\":1376:1383   */\n      dup5\n        /* \"#utility.yul\":1372:1395   */\n      sub\n        /* \"#utility.yul\":1368:1400   */\n      slt\n        /* \"#utility.yul\":1365:1484   */\n      iszero\n      tag_402\n      jumpi\n        /* \"#utility.yul\":1403:1482   */\n      tag_403\n      tag_394\n      jump\t// in\n    tag_403:\n        /* \"#utility.yul\":1365:1484   */\n    tag_402:\n        /* \"#utility.yul\":1523:1524   */\n      0x00\n        /* \"#utility.yul\":1548:1601   */\n      tag_404\n        /* \"#utility.yul\":1593:1600   */\n      dup5\n        /* \"#utility.yul\":1584:1590   */\n      dup3\n        /* \"#utility.yul\":1573:1582   */\n      dup6\n        /* \"#utility.yul\":1569:1591   */\n      add\n        /* \"#utility.yul\":1548:1601   */\n      tag_387\n      jump\t// in\n    tag_404:\n        /* \"#utility.yul\":1538:1601   */\n      swap2\n      pop\n        /* \"#utility.yul\":1494:1611   */\n      pop\n        /* \"#utility.yul\":1289:1618   */\n      swap3\n      swap2\n      pop\n      pop\n      jump\t// out\n        /* \"#utility.yul\":1624:1803   */\n    tag_405:\n        /* \"#utility.yul\":1693:1703   */\n      0x00\n        /* \"#utility.yul\":1714:1760   */\n      tag_407\n        /* \"#utility.yul\":1756:1759   */\n      dup4\n        /* \"#utility.yul\":1748:1754   */\n      dup4\n        /* \"#utility.yul\":1714:1760   */\n      tag_408\n      jump\t// in\n    tag_407:\n        /* \"#utility.yul\":1792:1796   */\n      0x20\n        /* \"#utility.yul\":1787:1790   */\n      dup4\n        /* \"#utility.yul\":1783:1797   */\n      add\n        /* \"#utility.yul\":1769:1797   */\n      swap1\n      pop\n        /* \"#utility.yul\":1624:1803   */\n      swap3\n      swap2\n      pop\n      pop\n      jump\t// out\n        /* \"#utility.yul\":1809:2084   */\n    tag_409:\n        /* \"#utility.yul\":1926:1936   */\n      0x00\n        /* \"#utility.yul\":1947:2041   */\n      tag_411\n        /* \"#utility.yul\":2037:2040   */\n      dup4\n        /* \"#utility.yul\":2029:2035   */\n      dup4\n        /* \"#utility.yul\":1947:2041   */\n      tag_412\n      jump\t// in\n    tag_411:\n        /* \"#utility.yul\":2073:2077   */\n      0xc0\n        /* \"#utility.yul\":2068:2071   */\n      dup4\n        /* \"#utility.yul\":2064:2078   */\n      add\n        /* \"#utility.yul\":2050:2078   */\n      swap1\n      pop\n        /* \"#utility.yul\":1809:2084   */\n      swap3\n      swap2\n      pop\n      pop\n      jump\t// out\n        /* \"#utility.yul\":2090:2237   */\n    tag_413:\n        /* \"#utility.yul\":2185:2230   */\n      tag_415\n        /* \"#utility.yul\":2224:2229   */\n      dup2\n        /* \"#utility.yul\":2185:2230   */\n      tag_416\n      jump\t// in\n    tag_415:\n        /* \"#utility.yul\":2180:2183   */\n      dup3\n        /* \"#utility.yul\":2173:2231   */\n      mstore\n        /* \"#utility.yul\":2090:2237   */\n      pop\n      pop\n      jump\t// out\n        /* \"#utility.yul\":2243:2375   */\n    tag_417:\n        /* \"#utility.yul\":2336:2368   */\n      tag_419\n        /* \"#utility.yul\":2362:2367   */\n      dup2\n        /* \"#utility.yul\":2336:2368   */\n      tag_420\n      jump\t// in\n    tag_419:\n        /* \"#utility.yul\":2331:2334   */\n      dup3\n        /* \"#utility.yul\":2324:2369   */\n      mstore\n        /* \"#utility.yul\":2243:2375   */\n      pop\n      pop\n      jump\t// out\n        /* \"#utility.yul\":2381:2489   */\n    tag_408:\n        /* \"#utility.yul\":2458:2482   */\n      tag_422\n        /* \"#utility.yul\":2476:2481   */\n      dup2\n        /* \"#utility.yul\":2458:2482   */\n      tag_423\n      jump\t// in\n    tag_422:\n        /* \"#utility.yul\":2453:2456   */\n      dup3\n        /* \"#utility.yul\":2446:2483   */\n      mstore\n        /* \"#utility.yul\":2381:2489   */\n      pop\n      pop\n      jump\t// out\n        /* \"#utility.yul\":2495:2613   */\n    tag_424:\n        /* \"#utility.yul\":2582:2606   */\n      tag_426\n        /* \"#utility.yul\":2600:2605   */\n      dup2\n        /* \"#utility.yul\":2582:2606   */\n      tag_423\n      jump\t// in\n    tag_426:\n        /* \"#utility.yul\":2577:2580   */\n      dup3\n        /* \"#utility.yul\":2570:2607   */\n      mstore\n        /* \"#utility.yul\":2495:2613   */\n      pop\n      pop\n      jump\t// out\n        /* \"#utility.yul\":2649:3381   */\n    tag_427:\n        /* \"#utility.yul\":2768:2771   */\n      0x00\n        /* \"#utility.yul\":2797:2851   */\n      tag_429\n        /* \"#utility.yul\":2845:2850   */\n      dup3\n        /* \"#utility.yul\":2797:2851   */\n      tag_430\n      jump\t// in\n    tag_429:\n        /* \"#utility.yul\":2867:2953   */\n      tag_431\n        /* \"#utility.yul\":2946:2952   */\n      dup2\n        /* \"#utility.yul\":2941:2944   */\n      dup6\n        /* \"#utility.yul\":2867:2953   */\n      tag_432\n      jump\t// in\n    tag_431:\n        /* \"#utility.yul\":2860:2953   */\n      swap4\n      pop\n        /* \"#utility.yul\":2977:3033   */\n      tag_433\n        /* \"#utility.yul\":3027:3032   */\n      dup4\n        /* \"#utility.yul\":2977:3033   */\n      tag_434\n      jump\t// in\n    tag_433:\n        /* \"#utility.yul\":3056:3063   */\n      dup1\n        /* \"#utility.yul\":3087:3088   */\n      0x00\n        /* \"#utility.yul\":3072:3356   */\n    tag_435:\n        /* \"#utility.yul\":3097:3103   */\n      dup4\n        /* \"#utility.yul\":3094:3095   */\n      dup2\n        /* \"#utility.yul\":3091:3104   */\n      lt\n        /* \"#utility.yul\":3072:3356   */\n      iszero\n      tag_437\n      jumpi\n        /* \"#utility.yul\":3173:3179   */\n      dup2\n        /* \"#utility.yul\":3167:3180   */\n      mload\n        /* \"#utility.yul\":3200:3263   */\n      tag_438\n        /* \"#utility.yul\":3259:3262   */\n      dup9\n        /* \"#utility.yul\":3244:3257   */\n      dup3\n        /* \"#utility.yul\":3200:3263   */\n      tag_405\n      jump\t// in\n    tag_438:\n        /* \"#utility.yul\":3193:3263   */\n      swap8\n      pop\n        /* \"#utility.yul\":3286:3346   */\n      tag_439\n        /* \"#utility.yul\":3339:3345   */\n      dup4\n        /* \"#utility.yul\":3286:3346   */\n      tag_440\n      jump\t// in\n    tag_439:\n        /* \"#utility.yul\":3276:3346   */\n      swap3\n      pop\n        /* \"#utility.yul\":3132:3356   */\n      pop\n        /* \"#utility.yul\":3119:3120   */\n      0x01\n        /* \"#utility.yul\":3116:3117   */\n      dup2\n        /* \"#utility.yul\":3112:3121   */\n      add\n        /* \"#utility.yul\":3107:3121   */\n      swap1\n      pop\n        /* \"#utility.yul\":3072:3356   */\n      jump(tag_435)\n    tag_437:\n        /* \"#utility.yul\":3076:3090   */\n      pop\n        /* \"#utility.yul\":3372:3375   */\n      dup6\n        /* \"#utility.yul\":3365:3375   */\n      swap4\n      pop\n        /* \"#utility.yul\":2773:3381   */\n      pop\n      pop\n      pop\n        /* \"#utility.yul\":2649:3381   */\n      swap3\n      swap2\n      pop\n      pop\n      jump\t// out\n        /* \"#utility.yul\":3453:4377   */\n    tag_441:\n        /* \"#utility.yul\":3620:3623   */\n      0x00\n        /* \"#utility.yul\":3649:3727   */\n      tag_443\n        /* \"#utility.yul\":3721:3726   */\n      dup3\n        /* \"#utility.yul\":3649:3727   */\n      tag_444\n      jump\t// in\n    tag_443:\n        /* \"#utility.yul\":3743:3853   */\n      tag_445\n        /* \"#utility.yul\":3846:3852   */\n      dup2\n        /* \"#utility.yul\":3841:3844   */\n      dup6\n        /* \"#utility.yul\":3743:3853   */\n      tag_446\n      jump\t// in\n    tag_445:\n        /* \"#utility.yul\":3736:3853   */\n      swap4\n      pop\n        /* \"#utility.yul\":3877:3957   */\n      tag_447\n        /* \"#utility.yul\":3951:3956   */\n      dup4\n        /* \"#utility.yul\":3877:3957   */\n      tag_448\n      jump\t// in\n    tag_447:\n        /* \"#utility.yul\":3980:3987   */\n      dup1\n        /* \"#utility.yul\":4011:4012   */\n      0x00\n        /* \"#utility.yul\":3996:4352   */\n    tag_449:\n        /* \"#utility.yul\":4021:4027   */\n      dup4\n        /* \"#utility.yul\":4018:4019   */\n      dup2\n        /* \"#utility.yul\":4015:4028   */\n      lt\n        /* \"#utility.yul\":3996:4352   */\n      iszero\n      tag_451\n      jumpi\n        /* \"#utility.yul\":4097:4103   */\n      dup2\n        /* \"#utility.yul\":4091:4104   */\n      mload\n        /* \"#utility.yul\":4124:4235   */\n      tag_452\n        /* \"#utility.yul\":4231:4234   */\n      dup9\n        /* \"#utility.yul\":4216:4229   */\n      dup3\n        /* \"#utility.yul\":4124:4235   */\n      tag_409\n      jump\t// in\n    tag_452:\n        /* \"#utility.yul\":4117:4235   */\n      swap8\n      pop\n        /* \"#utility.yul\":4258:4342   */\n      tag_453\n        /* \"#utility.yul\":4335:4341   */\n      dup4\n        /* \"#utility.yul\":4258:4342   */\n      tag_454\n      jump\t// in\n    tag_453:\n        /* \"#utility.yul\":4248:4342   */\n      swap3\n      pop\n        /* \"#utility.yul\":4056:4352   */\n      pop\n        /* \"#utility.yul\":4043:4044   */\n      0x01\n        /* \"#utility.yul\":4040:4041   */\n      dup2\n        /* \"#utility.yul\":4036:4045   */\n      add\n        /* \"#utility.yul\":4031:4045   */\n      swap1\n      pop\n        /* \"#utility.yul\":3996:4352   */\n      jump(tag_449)\n    tag_451:\n        /* \"#utility.yul\":4000:4014   */\n      pop\n        /* \"#utility.yul\":4368:4371   */\n      dup6\n        /* \"#utility.yul\":4361:4371   */\n      swap4\n      pop\n        /* \"#utility.yul\":3625:4377   */\n      pop\n      pop\n      pop\n        /* \"#utility.yul\":3453:4377   */\n      swap3\n      swap2\n      pop\n      pop\n      jump\t// out\n        /* \"#utility.yul\":4383:4492   */\n    tag_455:\n        /* \"#utility.yul\":4464:4485   */\n      tag_457\n        /* \"#utility.yul\":4479:4484   */\n      dup2\n        /* \"#utility.yul\":4464:4485   */\n      tag_458\n      jump\t// in\n    tag_457:\n        /* \"#utility.yul\":4459:4462   */\n      dup3\n        /* \"#utility.yul\":4452:4486   */\n      mstore\n        /* \"#utility.yul\":4383:4492   */\n      pop\n      pop\n      jump\t// out\n        /* \"#utility.yul\":4498:4645   */\n    tag_459:\n        /* \"#utility.yul\":4593:4638   */\n      tag_461\n        /* \"#utility.yul\":4632:4637   */\n      dup2\n        /* \"#utility.yul\":4593:4638   */\n      tag_462\n      jump\t// in\n    tag_461:\n        /* \"#utility.yul\":4588:4591   */\n      dup3\n        /* \"#utility.yul\":4581:4639   */\n      mstore\n        /* \"#utility.yul\":4498:4645   */\n      pop\n      pop\n      jump\t// out\n        /* \"#utility.yul\":4651:5017   */\n    tag_463:\n        /* \"#utility.yul\":4793:4796   */\n      0x00\n        /* \"#utility.yul\":4814:4881   */\n      tag_465\n        /* \"#utility.yul\":4878:4880   */\n      0x1c\n        /* \"#utility.yul\":4873:4876   */\n      dup4\n        /* \"#utility.yul\":4814:4881   */\n      tag_466\n      jump\t// in\n    tag_465:\n        /* \"#utility.yul\":4807:4881   */\n      swap2\n      pop\n        /* \"#utility.yul\":4890:4983   */\n      tag_467\n        /* \"#utility.yul\":4979:4982   */\n      dup3\n        /* \"#utility.yul\":4890:4983   */\n      tag_468\n      jump\t// in\n    tag_467:\n        /* \"#utility.yul\":5008:5010   */\n      0x20\n        /* \"#utility.yul\":5003:5006   */\n      dup3\n        /* \"#utility.yul\":4999:5011   */\n      add\n        /* \"#utility.yul\":4992:5011   */\n      swap1\n      pop\n        /* \"#utility.yul\":4651:5017   */\n      swap2\n      swap1\n      pop\n      jump\t// out\n        /* \"#utility.yul\":5023:5389   */\n    tag_469:\n        /* \"#utility.yul\":5165:5168   */\n      0x00\n        /* \"#utility.yul\":5186:5253   */\n      tag_471\n        /* \"#utility.yul\":5250:5252   */\n      0x26\n        /* \"#utility.yul\":5245:5248   */\n      dup4\n        /* \"#utility.yul\":5186:5253   */\n      tag_466\n      jump\t// in\n    tag_471:\n        /* \"#utility.yul\":5179:5253   */\n      swap2\n      pop\n        /* \"#utility.yul\":5262:5355   */\n      tag_472\n        /* \"#utility.yul\":5351:5354   */\n      dup3\n        /* \"#utility.yul\":5262:5355   */\n      tag_473\n      jump\t// in\n    tag_472:\n        /* \"#utility.yul\":5380:5382   */\n      0x40\n        /* \"#utility.yul\":5375:5378   */\n      dup3\n        /* \"#utility.yul\":5371:5383   */\n      add\n        /* \"#utility.yul\":5364:5383   */\n      swap1\n      pop\n        /* \"#utility.yul\":5023:5389   */\n      swap2\n      swap1\n      pop\n      jump\t// out\n        /* \"#utility.yul\":5395:5761   */\n    tag_474:\n        /* \"#utility.yul\":5537:5540   */\n      0x00\n        /* \"#utility.yul\":5558:5625   */\n      tag_476\n        /* \"#utility.yul\":5622:5624   */\n      0x26\n        /* \"#utility.yul\":5617:5620   */\n      dup4\n        /* \"#utility.yul\":5558:5625   */\n      tag_466\n      jump\t// in\n    tag_476:\n        /* \"#utility.yul\":5551:5625   */\n      swap2\n      pop\n        /* \"#utility.yul\":5634:5727   */\n      tag_477\n        /* \"#utility.yul\":5723:5726   */\n      dup3\n        /* \"#utility.yul\":5634:5727   */\n      tag_478\n      jump\t// in\n    tag_477:\n        /* \"#utility.yul\":5752:5754   */\n      0x40\n        /* \"#utility.yul\":5747:5750   */\n      dup3\n        /* \"#utility.yul\":5743:5755   */\n      add\n        /* \"#utility.yul\":5736:5755   */\n      swap1\n      pop\n        /* \"#utility.yul\":5395:5761   */\n      swap2\n      swap1\n      pop\n      jump\t// out\n        /* \"#utility.yul\":5767:6133   */\n    tag_479:\n        /* \"#utility.yul\":5909:5912   */\n      0x00\n        /* \"#utility.yul\":5930:5997   */\n      tag_481\n        /* \"#utility.yul\":5994:5996   */\n      0x19\n        /* \"#utility.yul\":5989:5992   */\n      dup4\n        /* \"#utility.yul\":5930:5997   */\n      tag_466\n      jump\t// in\n    tag_481:\n        /* \"#utility.yul\":5923:5997   */\n      swap2\n      pop\n        /* \"#utility.yul\":6006:6099   */\n      tag_482\n        /* \"#utility.yul\":6095:6098   */\n      dup3\n        /* \"#utility.yul\":6006:6099   */\n      tag_483\n      jump\t// in\n    tag_482:\n        /* \"#utility.yul\":6124:6126   */\n      0x20\n        /* \"#utility.yul\":6119:6122   */\n      dup3\n        /* \"#utility.yul\":6115:6127   */\n      add\n        /* \"#utility.yul\":6108:6127   */\n      swap1\n      pop\n        /* \"#utility.yul\":5767:6133   */\n      swap2\n      swap1\n      pop\n      jump\t// out\n        /* \"#utility.yul\":6139:6505   */\n    tag_484:\n        /* \"#utility.yul\":6281:6284   */\n      0x00\n        /* \"#utility.yul\":6302:6369   */\n      tag_486\n        /* \"#utility.yul\":6366:6368   */\n      0x1b\n        /* \"#utility.yul\":6361:6364   */\n      dup4\n        /* \"#utility.yul\":6302:6369   */\n      tag_466\n      jump\t// in\n    tag_486:\n        /* \"#utility.yul\":6295:6369   */\n      swap2\n      pop\n        /* \"#utility.yul\":6378:6471   */\n      tag_487\n        /* \"#utility.yul\":6467:6470   */\n      dup3\n        /* \"#utility.yul\":6378:6471   */\n      tag_488\n      jump\t// in\n    tag_487:\n        /* \"#utility.yul\":6496:6498   */\n      0x20\n        /* \"#utility.yul\":6491:6494   */\n      dup3\n        /* \"#utility.yul\":6487:6499   */\n      add\n        /* \"#utility.yul\":6480:6499   */\n      swap1\n      pop\n        /* \"#utility.yul\":6139:6505   */\n      swap2\n      swap1\n      pop\n      jump\t// out\n        /* \"#utility.yul\":6511:6877   */\n    tag_489:\n        /* \"#utility.yul\":6653:6656   */\n      0x00\n        /* \"#utility.yul\":6674:6741   */\n      tag_491\n        /* \"#utility.yul\":6738:6740   */\n      0x24\n        /* \"#utility.yul\":6733:6736   */\n      dup4\n        /* \"#utility.yul\":6674:6741   */\n      tag_466\n      jump\t// in\n    tag_491:\n        /* \"#utility.yul\":6667:6741   */\n      swap2\n      pop\n        /* \"#utility.yul\":6750:6843   */\n      tag_492\n        /* \"#utility.yul\":6839:6842   */\n      dup3\n        /* \"#utility.yul\":6750:6843   */\n      tag_493\n      jump\t// in\n    tag_492:\n        /* \"#utility.yul\":6868:6870   */\n      0x40\n        /* \"#utility.yul\":6863:6866   */\n      dup3\n        /* \"#utility.yul\":6859:6871   */\n      add\n        /* \"#utility.yul\":6852:6871   */\n      swap1\n      pop\n        /* \"#utility.yul\":6511:6877   */\n      swap2\n      swap1\n      pop\n      jump\t// out\n        /* \"#utility.yul\":6883:7249   */\n    tag_494:\n        /* \"#utility.yul\":7025:7028   */\n      0x00\n        /* \"#utility.yul\":7046:7113   */\n      tag_496\n        /* \"#utility.yul\":7110:7112   */\n      0x28\n        /* \"#utility.yul\":7105:7108   */\n      dup4\n        /* \"#utility.yul\":7046:7113   */\n      tag_466\n      jump\t// in\n    tag_496:\n        /* \"#utility.yul\":7039:7113   */\n      swap2\n      pop\n        /* \"#utility.yul\":7122:7215   */\n      tag_497\n        /* \"#utility.yul\":7211:7214   */\n      dup3\n        /* \"#utility.yul\":7122:7215   */\n      tag_498\n      jump\t// in\n    tag_497:\n        /* \"#utility.yul\":7240:7242   */\n      0x40\n        /* \"#utility.yul\":7235:7238   */\n      dup3\n        /* \"#utility.yul\":7231:7243   */\n      add\n        /* \"#utility.yul\":7224:7243   */\n      swap1\n      pop\n        /* \"#utility.yul\":6883:7249   */\n      swap2\n      swap1\n      pop\n      jump\t// out\n        /* \"#utility.yul\":7255:7621   */\n    tag_499:\n        /* \"#utility.yul\":7397:7400   */\n      0x00\n        /* \"#utility.yul\":7418:7485   */\n      tag_501\n        /* \"#utility.yul\":7482:7484   */\n      0x1f\n        /* \"#utility.yul\":7477:7480   */\n      dup4\n        /* \"#utility.yul\":7418:7485   */\n      tag_466\n      jump\t// in\n    tag_501:\n        /* \"#utility.yul\":7411:7485   */\n      swap2\n      pop\n        /* \"#utility.yul\":7494:7587   */\n      tag_502\n        /* \"#utility.yul\":7583:7586   */\n      dup3\n        /* \"#utility.yul\":7494:7587   */\n      tag_503\n      jump\t// in\n    tag_502:\n        /* \"#utility.yul\":7612:7614   */\n      0x20\n        /* \"#utility.yul\":7607:7610   */\n      dup3\n        /* \"#utility.yul\":7603:7615   */\n      add\n        /* \"#utility.yul\":7596:7615   */\n      swap1\n      pop\n        /* \"#utility.yul\":7255:7621   */\n      swap2\n      swap1\n      pop\n      jump\t// out\n        /* \"#utility.yul\":7627:7993   */\n    tag_504:\n        /* \"#utility.yul\":7769:7772   */\n      0x00\n        /* \"#utility.yul\":7790:7857   */\n      tag_506\n        /* \"#utility.yul\":7854:7856   */\n      0x29\n        /* \"#utility.yul\":7849:7852   */\n      dup4\n        /* \"#utility.yul\":7790:7857   */\n      tag_466\n      jump\t// in\n    tag_506:\n        /* \"#utility.yul\":7783:7857   */\n      swap2\n      pop\n        /* \"#utility.yul\":7866:7959   */\n      tag_507\n        /* \"#utility.yul\":7955:7958   */\n      dup3\n        /* \"#utility.yul\":7866:7959   */\n      tag_508\n      jump\t// in\n    tag_507:\n        /* \"#utility.yul\":7984:7986   */\n      0x40\n        /* \"#utility.yul\":7979:7982   */\n      dup3\n        /* \"#utility.yul\":7975:7987   */\n      add\n        /* \"#utility.yul\":7968:7987   */\n      swap1\n      pop\n        /* \"#utility.yul\":7627:7993   */\n      swap2\n      swap1\n      pop\n      jump\t// out\n        /* \"#utility.yul\":8061:9292   */\n    tag_412:\n        /* \"#utility.yul\":8196:8200   */\n      0xc0\n        /* \"#utility.yul\":8191:8194   */\n      dup3\n        /* \"#utility.yul\":8187:8201   */\n      add\n        /* \"#utility.yul\":8285:8289   */\n      0x00\n        /* \"#utility.yul\":8278:8283   */\n      dup3\n        /* \"#utility.yul\":8274:8290   */\n      add\n        /* \"#utility.yul\":8268:8291   */\n      mload\n        /* \"#utility.yul\":8304:8367   */\n      tag_510\n        /* \"#utility.yul\":8361:8365   */\n      0x00\n        /* \"#utility.yul\":8356:8359   */\n      dup6\n        /* \"#utility.yul\":8352:8366   */\n      add\n        /* \"#utility.yul\":8338:8350   */\n      dup3\n        /* \"#utility.yul\":8304:8367   */\n      tag_408\n      jump\t// in\n    tag_510:\n        /* \"#utility.yul\":8211:8377   */\n      pop\n        /* \"#utility.yul\":8463:8467   */\n      0x20\n        /* \"#utility.yul\":8456:8461   */\n      dup3\n        /* \"#utility.yul\":8452:8468   */\n      add\n        /* \"#utility.yul\":8446:8469   */\n      mload\n        /* \"#utility.yul\":8482:8561   */\n      tag_511\n        /* \"#utility.yul\":8555:8559   */\n      0x20\n        /* \"#utility.yul\":8550:8553   */\n      dup6\n        /* \"#utility.yul\":8546:8560   */\n      add\n        /* \"#utility.yul\":8532:8544   */\n      dup3\n        /* \"#utility.yul\":8482:8561   */\n      tag_417\n      jump\t// in\n    tag_511:\n        /* \"#utility.yul\":8387:8571   */\n      pop\n        /* \"#utility.yul\":8655:8659   */\n      0x40\n        /* \"#utility.yul\":8648:8653   */\n      dup3\n        /* \"#utility.yul\":8644:8660   */\n      add\n        /* \"#utility.yul\":8638:8661   */\n      mload\n        /* \"#utility.yul\":8674:8737   */\n      tag_512\n        /* \"#utility.yul\":8731:8735   */\n      0x40\n        /* \"#utility.yul\":8726:8729   */\n      dup6\n        /* \"#utility.yul\":8722:8736   */\n      add\n        /* \"#utility.yul\":8708:8720   */\n      dup3\n        /* \"#utility.yul\":8674:8737   */\n      tag_513\n      jump\t// in\n    tag_512:\n        /* \"#utility.yul\":8581:8747   */\n      pop\n        /* \"#utility.yul\":8827:8831   */\n      0x60\n        /* \"#utility.yul\":8820:8825   */\n      dup3\n        /* \"#utility.yul\":8816:8832   */\n      add\n        /* \"#utility.yul\":8810:8833   */\n      mload\n        /* \"#utility.yul\":8846:8909   */\n      tag_514\n        /* \"#utility.yul\":8903:8907   */\n      0x60\n        /* \"#utility.yul\":8898:8901   */\n      dup6\n        /* \"#utility.yul\":8894:8908   */\n      add\n        /* \"#utility.yul\":8880:8892   */\n      dup3\n        /* \"#utility.yul\":8846:8909   */\n      tag_513\n      jump\t// in\n    tag_514:\n        /* \"#utility.yul\":8757:8919   */\n      pop\n        /* \"#utility.yul\":9006:9010   */\n      0x80\n        /* \"#utility.yul\":8999:9004   */\n      dup3\n        /* \"#utility.yul\":8995:9011   */\n      add\n        /* \"#utility.yul\":8989:9012   */\n      mload\n        /* \"#utility.yul\":9025:9088   */\n      tag_515\n        /* \"#utility.yul\":9082:9086   */\n      0x80\n        /* \"#utility.yul\":9077:9080   */\n      dup6\n        /* \"#utility.yul\":9073:9087   */\n      add\n        /* \"#utility.yul\":9059:9071   */\n      dup3\n        /* \"#utility.yul\":9025:9088   */\n      tag_513\n      jump\t// in\n    tag_515:\n        /* \"#utility.yul\":8929:9098   */\n      pop\n        /* \"#utility.yul\":9193:9197   */\n      0xa0\n        /* \"#utility.yul\":9186:9191   */\n      dup3\n        /* \"#utility.yul\":9182:9198   */\n      add\n        /* \"#utility.yul\":9176:9199   */\n      mload\n        /* \"#utility.yul\":9212:9275   */\n      tag_516\n        /* \"#utility.yul\":9269:9273   */\n      0xa0\n        /* \"#utility.yul\":9264:9267   */\n      dup6\n        /* \"#utility.yul\":9260:9274   */\n      add\n        /* \"#utility.yul\":9246:9258   */\n      dup3\n        /* \"#utility.yul\":9212:9275   */\n      tag_513\n      jump\t// in\n    tag_516:\n        /* \"#utility.yul\":9108:9285   */\n      pop\n        /* \"#utility.yul\":8165:9292   */\n      pop\n        /* \"#utility.yul\":8061:9292   */\n      pop\n      pop\n      jump\t// out\n        /* \"#utility.yul\":9298:9406   */\n    tag_513:\n        /* \"#utility.yul\":9375:9399   */\n      tag_518\n        /* \"#utility.yul\":9393:9398   */\n      dup2\n        /* \"#utility.yul\":9375:9399   */\n      tag_519\n      jump\t// in\n    tag_518:\n        /* \"#utility.yul\":9370:9373   */\n      dup3\n        /* \"#utility.yul\":9363:9400   */\n      mstore\n        /* \"#utility.yul\":9298:9406   */\n      pop\n      pop\n      jump\t// out\n        /* \"#utility.yul\":9412:9530   */\n    tag_520:\n        /* \"#utility.yul\":9499:9523   */\n      tag_522\n        /* \"#utility.yul\":9517:9522   */\n      dup2\n        /* \"#utility.yul\":9499:9523   */\n      tag_519\n      jump\t// in\n    tag_522:\n        /* \"#utility.yul\":9494:9497   */\n      dup3\n        /* \"#utility.yul\":9487:9524   */\n      mstore\n        /* \"#utility.yul\":9412:9530   */\n      pop\n      pop\n      jump\t// out\n        /* \"#utility.yul\":9536:10343   */\n    tag_128:\n        /* \"#utility.yul\":9785:9789   */\n      0x00\n        /* \"#utility.yul\":9823:9826   */\n      0xc0\n        /* \"#utility.yul\":9812:9821   */\n      dup3\n        /* \"#utility.yul\":9808:9827   */\n      add\n        /* \"#utility.yul\":9800:9827   */\n      swap1\n      pop\n        /* \"#utility.yul\":9837:9908   */\n      tag_524\n        /* \"#utility.yul\":9905:9906   */\n      0x00\n        /* \"#utility.yul\":9894:9903   */\n      dup4\n        /* \"#utility.yul\":9890:9907   */\n      add\n        /* \"#utility.yul\":9881:9887   */\n      dup10\n        /* \"#utility.yul\":9837:9908   */\n      tag_424\n      jump\t// in\n    tag_524:\n        /* \"#utility.yul\":9918:9998   */\n      tag_525\n        /* \"#utility.yul\":9994:9996   */\n      0x20\n        /* \"#utility.yul\":9983:9992   */\n      dup4\n        /* \"#utility.yul\":9979:9997   */\n      add\n        /* \"#utility.yul\":9970:9976   */\n      dup9\n        /* \"#utility.yul\":9918:9998   */\n      tag_413\n      jump\t// in\n    tag_525:\n        /* \"#utility.yul\":10008:10080   */\n      tag_526\n        /* \"#utility.yul\":10076:10078   */\n      0x40\n        /* \"#utility.yul\":10065:10074   */\n      dup4\n        /* \"#utility.yul\":10061:10079   */\n      add\n        /* \"#utility.yul\":10052:10058   */\n      dup8\n        /* \"#utility.yul\":10008:10080   */\n      tag_520\n      jump\t// in\n    tag_526:\n        /* \"#utility.yul\":10090:10162   */\n      tag_527\n        /* \"#utility.yul\":10158:10160   */\n      0x60\n        /* \"#utility.yul\":10147:10156   */\n      dup4\n        /* \"#utility.yul\":10143:10161   */\n      add\n        /* \"#utility.yul\":10134:10140   */\n      dup7\n        /* \"#utility.yul\":10090:10162   */\n      tag_520\n      jump\t// in\n    tag_527:\n        /* \"#utility.yul\":10172:10253   */\n      tag_528\n        /* \"#utility.yul\":10248:10251   */\n      0x80\n        /* \"#utility.yul\":10237:10246   */\n      dup4\n        /* \"#utility.yul\":10233:10252   */\n      add\n        /* \"#utility.yul\":10224:10230   */\n      dup6\n        /* \"#utility.yul\":10172:10253   */\n      tag_459\n      jump\t// in\n    tag_528:\n        /* \"#utility.yul\":10263:10336   */\n      tag_529\n        /* \"#utility.yul\":10331:10334   */\n      0xa0\n        /* \"#utility.yul\":10320:10329   */\n      dup4\n        /* \"#utility.yul\":10316:10335   */\n      add\n        /* \"#utility.yul\":10307:10313   */\n      dup5\n        /* \"#utility.yul\":10263:10336   */\n      tag_520\n      jump\t// in\n    tag_529:\n        /* \"#utility.yul\":9536:10343   */\n      swap8\n      swap7\n      pop\n      pop\n      pop\n      pop\n      pop\n      pop\n      pop\n      jump\t// out\n        /* \"#utility.yul\":10349:11140   */\n    tag_187:\n        /* \"#utility.yul\":10590:10594   */\n      0x00\n        /* \"#utility.yul\":10628:10631   */\n      0xc0\n        /* \"#utility.yul\":10617:10626   */\n      dup3\n        /* \"#utility.yul\":10613:10632   */\n      add\n        /* \"#utility.yul\":10605:10632   */\n      swap1\n      pop\n        /* \"#utility.yul\":10642:10713   */\n      tag_531\n        /* \"#utility.yul\":10710:10711   */\n      0x00\n        /* \"#utility.yul\":10699:10708   */\n      dup4\n        /* \"#utility.yul\":10695:10712   */\n      add\n        /* \"#utility.yul\":10686:10692   */\n      dup10\n        /* \"#utility.yul\":10642:10713   */\n      tag_424\n      jump\t// in\n    tag_531:\n        /* \"#utility.yul\":10723:10803   */\n      tag_532\n        /* \"#utility.yul\":10799:10801   */\n      0x20\n        /* \"#utility.yul\":10788:10797   */\n      dup4\n        /* \"#utility.yul\":10784:10802   */\n      add\n        /* \"#utility.yul\":10775:10781   */\n      dup9\n        /* \"#utility.yul\":10723:10803   */\n      tag_413\n      jump\t// in\n    tag_532:\n        /* \"#utility.yul\":10813:10885   */\n      tag_533\n        /* \"#utility.yul\":10881:10883   */\n      0x40\n        /* \"#utility.yul\":10870:10879   */\n      dup4\n        /* \"#utility.yul\":10866:10884   */\n      add\n        /* \"#utility.yul\":10857:10863   */\n      dup8\n        /* \"#utility.yul\":10813:10885   */\n      tag_520\n      jump\t// in\n    tag_533:\n        /* \"#utility.yul\":10895:10967   */\n      tag_534\n        /* \"#utility.yul\":10963:10965   */\n      0x60\n        /* \"#utility.yul\":10952:10961   */\n      dup4\n        /* \"#utility.yul\":10948:10966   */\n      add\n        /* \"#utility.yul\":10939:10945   */\n      dup7\n        /* \"#utility.yul\":10895:10967   */\n      tag_520\n      jump\t// in\n    tag_534:\n        /* \"#utility.yul\":10977:11050   */\n      tag_535\n        /* \"#utility.yul\":11045:11048   */\n      0x80\n        /* \"#utility.yul\":11034:11043   */\n      dup4\n        /* \"#utility.yul\":11030:11049   */\n      add\n        /* \"#utility.yul\":11021:11027   */\n      dup6\n        /* \"#utility.yul\":10977:11050   */\n      tag_520\n      jump\t// in\n    tag_535:\n        /* \"#utility.yul\":11060:11133   */\n      tag_536\n        /* \"#utility.yul\":11128:11131   */\n      0xa0\n        /* \"#utility.yul\":11117:11126   */\n      dup4\n        /* \"#utility.yul\":11113:11132   */\n      add\n        /* \"#utility.yul\":11104:11110   */\n      dup5\n        /* \"#utility.yul\":11060:11133   */\n      tag_520\n      jump\t// in\n    tag_536:\n        /* \"#utility.yul\":10349:11140   */\n      swap8\n      swap7\n      pop\n      pop\n      pop\n      pop\n      pop\n      pop\n      pop\n      jump\t// out\n        /* \"#utility.yul\":11146:11588   */\n    tag_219:\n        /* \"#utility.yul\":11295:11299   */\n      0x00\n        /* \"#utility.yul\":11333:11335   */\n      0x60\n        /* \"#utility.yul\":11322:11331   */\n      dup3\n        /* \"#utility.yul\":11318:11336   */\n      add\n        /* \"#utility.yul\":11310:11336   */\n      swap1\n      pop\n        /* \"#utility.yul\":11346:11417   */\n      tag_538\n        /* \"#utility.yul\":11414:11415   */\n      0x00\n        /* \"#utility.yul\":11403:11412   */\n      dup4\n        /* \"#utility.yul\":11399:11416   */\n      add\n        /* \"#utility.yul\":11390:11396   */\n      dup7\n        /* \"#utility.yul\":11346:11417   */\n      tag_424\n      jump\t// in\n    tag_538:\n        /* \"#utility.yul\":11427:11499   */\n      tag_539\n        /* \"#utility.yul\":11495:11497   */\n      0x20\n        /* \"#utility.yul\":11484:11493   */\n      dup4\n        /* \"#utility.yul\":11480:11498   */\n      add\n        /* \"#utility.yul\":11471:11477   */\n      dup6\n        /* \"#utility.yul\":11427:11499   */\n      tag_424\n      jump\t// in\n    tag_539:\n        /* \"#utility.yul\":11509:11581   */\n      tag_540\n        /* \"#utility.yul\":11577:11579   */\n      0x40\n        /* \"#utility.yul\":11566:11575   */\n      dup4\n        /* \"#utility.yul\":11562:11580   */\n      add\n        /* \"#utility.yul\":11553:11559   */\n      dup5\n        /* \"#utility.yul\":11509:11581   */\n      tag_520\n      jump\t// in\n    tag_540:\n        /* \"#utility.yul\":11146:11588   */\n      swap5\n      swap4\n      pop\n      pop\n      pop\n      pop\n      jump\t// out\n        /* \"#utility.yul\":11594:12147   */\n    tag_97:\n        /* \"#utility.yul\":11771:11775   */\n      0x00\n        /* \"#utility.yul\":11809:11812   */\n      0x80\n        /* \"#utility.yul\":11798:11807   */\n      dup3\n        /* \"#utility.yul\":11794:11813   */\n      add\n        /* \"#utility.yul\":11786:11813   */\n      swap1\n      pop\n        /* \"#utility.yul\":11823:11894   */\n      tag_542\n        /* \"#utility.yul\":11891:11892   */\n      0x00\n        /* \"#utility.yul\":11880:11889   */\n      dup4\n        /* \"#utility.yul\":11876:11893   */\n      add\n        /* \"#utility.yul\":11867:11873   */\n      dup8\n        /* \"#utility.yul\":11823:11894   */\n      tag_424\n      jump\t// in\n    tag_542:\n        /* \"#utility.yul\":11904:11976   */\n      tag_543\n        /* \"#utility.yul\":11972:11974   */\n      0x20\n        /* \"#utility.yul\":11961:11970   */\n      dup4\n        /* \"#utility.yul\":11957:11975   */\n      add\n        /* \"#utility.yul\":11948:11954   */\n      dup7\n        /* \"#utility.yul\":11904:11976   */\n      tag_520\n      jump\t// in\n    tag_543:\n        /* \"#utility.yul\":11986:12058   */\n      tag_544\n        /* \"#utility.yul\":12054:12056   */\n      0x40\n        /* \"#utility.yul\":12043:12052   */\n      dup4\n        /* \"#utility.yul\":12039:12057   */\n      add\n        /* \"#utility.yul\":12030:12036   */\n      dup6\n        /* \"#utility.yul\":11986:12058   */\n      tag_520\n      jump\t// in\n    tag_544:\n        /* \"#utility.yul\":12068:12140   */\n      tag_545\n        /* \"#utility.yul\":12136:12138   */\n      0x60\n        /* \"#utility.yul\":12125:12134   */\n      dup4\n        /* \"#utility.yul\":12121:12139   */\n      add\n        /* \"#utility.yul\":12112:12118   */\n      dup5\n        /* \"#utility.yul\":12068:12140   */\n      tag_520\n      jump\t// in\n    tag_545:\n        /* \"#utility.yul\":11594:12147   */\n      swap6\n      swap5\n      pop\n      pop\n      pop\n      pop\n      pop\n      jump\t// out\n        /* \"#utility.yul\":12153:12526   */\n    tag_68:\n        /* \"#utility.yul\":12296:12300   */\n      0x00\n        /* \"#utility.yul\":12334:12336   */\n      0x20\n        /* \"#utility.yul\":12323:12332   */\n      dup3\n        /* \"#utility.yul\":12319:12337   */\n      add\n        /* \"#utility.yul\":12311:12337   */\n      swap1\n      pop\n        /* \"#utility.yul\":12383:12392   */\n      dup2\n        /* \"#utility.yul\":12377:12381   */\n      dup2\n        /* \"#utility.yul\":12373:12393   */\n      sub\n        /* \"#utility.yul\":12369:12370   */\n      0x00\n        /* \"#utility.yul\":12358:12367   */\n      dup4\n        /* \"#utility.yul\":12354:12371   */\n      add\n        /* \"#utility.yul\":12347:12394   */\n      mstore\n        /* \"#utility.yul\":12411:12519   */\n      tag_547\n        /* \"#utility.yul\":12514:12518   */\n      dup2\n        /* \"#utility.yul\":12505:12511   */\n      dup5\n        /* \"#utility.yul\":12411:12519   */\n      tag_427\n      jump\t// in\n    tag_547:\n        /* \"#utility.yul\":12403:12519   */\n      swap1\n      pop\n        /* \"#utility.yul\":12153:12526   */\n      swap3\n      swap2\n      pop\n      pop\n      jump\t// out\n        /* \"#utility.yul\":12532:13001   */\n    tag_53:\n        /* \"#utility.yul\":12723:12727   */\n      0x00\n        /* \"#utility.yul\":12761:12763   */\n      0x20\n        /* \"#utility.yul\":12750:12759   */\n      dup3\n        /* \"#utility.yul\":12746:12764   */\n      add\n        /* \"#utility.yul\":12738:12764   */\n      swap1\n      pop\n        /* \"#utility.yul\":12810:12819   */\n      dup2\n        /* \"#utility.yul\":12804:12808   */\n      dup2\n        /* \"#utility.yul\":12800:12820   */\n      sub\n        /* \"#utility.yul\":12796:12797   */\n      0x00\n        /* \"#utility.yul\":12785:12794   */\n      dup4\n        /* \"#utility.yul\":12781:12798   */\n      add\n        /* \"#utility.yul\":12774:12821   */\n      mstore\n        /* \"#utility.yul\":12838:12994   */\n      tag_549\n        /* \"#utility.yul\":12989:12993   */\n      dup2\n        /* \"#utility.yul\":12980:12986   */\n      dup5\n        /* \"#utility.yul\":12838:12994   */\n      tag_441\n      jump\t// in\n    tag_549:\n        /* \"#utility.yul\":12830:12994   */\n      swap1\n      pop\n        /* \"#utility.yul\":12532:13001   */\n      swap3\n      swap2\n      pop\n      pop\n      jump\t// out\n        /* \"#utility.yul\":13007:13217   */\n    tag_59:\n        /* \"#utility.yul\":13094:13098   */\n      0x00\n        /* \"#utility.yul\":13132:13134   */\n      0x20\n        /* \"#utility.yul\":13121:13130   */\n      dup3\n        /* \"#utility.yul\":13117:13135   */\n      add\n        /* \"#utility.yul\":13109:13135   */\n      swap1\n      pop\n        /* \"#utility.yul\":13145:13210   */\n      tag_551\n        /* \"#utility.yul\":13207:13208   */\n      0x00\n        /* \"#utility.yul\":13196:13205   */\n      dup4\n        /* \"#utility.yul\":13192:13209   */\n      add\n        /* \"#utility.yul\":13183:13189   */\n      dup5\n        /* \"#utility.yul\":13145:13210   */\n      tag_455\n      jump\t// in\n    tag_551:\n        /* \"#utility.yul\":13007:13217   */\n      swap3\n      swap2\n      pop\n      pop\n      jump\t// out\n        /* \"#utility.yul\":13223:13642   */\n    tag_277:\n        /* \"#utility.yul\":13389:13393   */\n      0x00\n        /* \"#utility.yul\":13427:13429   */\n      0x20\n        /* \"#utility.yul\":13416:13425   */\n      dup3\n        /* \"#utility.yul\":13412:13430   */\n      add\n        /* \"#utility.yul\":13404:13430   */\n      swap1\n      pop\n        /* \"#utility.yul\":13476:13485   */\n      dup2\n        /* \"#utility.yul\":13470:13474   */\n      dup2\n        /* \"#utility.yul\":13466:13486   */\n      sub\n        /* \"#utility.yul\":13462:13463   */\n      0x00\n        /* \"#utility.yul\":13451:13460   */\n      dup4\n        /* \"#utility.yul\":13447:13464   */\n      add\n        /* \"#utility.yul\":13440:13487   */\n      mstore\n        /* \"#utility.yul\":13504:13635   */\n      tag_553\n        /* \"#utility.yul\":13630:13634   */\n      dup2\n        /* \"#utility.yul\":13504:13635   */\n      tag_463\n      jump\t// in\n    tag_553:\n        /* \"#utility.yul\":13496:13635   */\n      swap1\n      pop\n        /* \"#utility.yul\":13223:13642   */\n      swap2\n      swap1\n      pop\n      jump\t// out\n        /* \"#utility.yul\":13648:14067   */\n    tag_113:\n        /* \"#utility.yul\":13814:13818   */\n      0x00\n        /* \"#utility.yul\":13852:13854   */\n      0x20\n        /* \"#utility.yul\":13841:13850   */\n      dup3\n        /* \"#utility.yul\":13837:13855   */\n      add\n        /* \"#utility.yul\":13829:13855   */\n      swap1\n      pop\n        /* \"#utility.yul\":13901:13910   */\n      dup2\n        /* \"#utility.yul\":13895:13899   */\n      dup2\n        /* \"#utility.yul\":13891:13911   */\n      sub\n        /* \"#utility.yul\":13887:13888   */\n      0x00\n        /* \"#utility.yul\":13876:13885   */\n      dup4\n        /* \"#utility.yul\":13872:13889   */\n      add\n        /* \"#utility.yul\":13865:13912   */\n      mstore\n        /* \"#utility.yul\":13929:14060   */\n      tag_555\n        /* \"#utility.yul\":14055:14059   */\n      dup2\n        /* \"#utility.yul\":13929:14060   */\n      tag_469\n      jump\t// in\n    tag_555:\n        /* \"#utility.yul\":13921:14060   */\n      swap1\n      pop\n        /* \"#utility.yul\":13648:14067   */\n      swap2\n      swap1\n      pop\n      jump\t// out\n        /* \"#utility.yul\":14073:14492   */\n    tag_305:\n        /* \"#utility.yul\":14239:14243   */\n      0x00\n        /* \"#utility.yul\":14277:14279   */\n      0x20\n        /* \"#utility.yul\":14266:14275   */\n      dup3\n        /* \"#utility.yul\":14262:14280   */\n      add\n        /* \"#utility.yul\":14254:14280   */\n      swap1\n      pop\n        /* \"#utility.yul\":14326:14335   */\n      dup2\n        /* \"#utility.yul\":14320:14324   */\n      dup2\n        /* \"#utility.yul\":14316:14336   */\n      sub\n        /* \"#utility.yul\":14312:14313   */\n      0x00\n        /* \"#utility.yul\":14301:14310   */\n      dup4\n        /* \"#utility.yul\":14297:14314   */\n      add\n        /* \"#utility.yul\":14290:14337   */\n      mstore\n        /* \"#utility.yul\":14354:14485   */\n      tag_557\n        /* \"#utility.yul\":14480:14484   */\n      dup2\n        /* \"#utility.yul\":14354:14485   */\n      tag_474\n      jump\t// in\n    tag_557:\n        /* \"#utility.yul\":14346:14485   */\n      swap1\n      pop\n        /* \"#utility.yul\":14073:14492   */\n      swap2\n      swap1\n      pop\n      jump\t// out\n        /* \"#utility.yul\":14498:14917   */\n    tag_247:\n        /* \"#utility.yul\":14664:14668   */\n      0x00\n        /* \"#utility.yul\":14702:14704   */\n      0x20\n        /* \"#utility.yul\":14691:14700   */\n      dup3\n        /* \"#utility.yul\":14687:14705   */\n      add\n        /* \"#utility.yul\":14679:14705   */\n      swap1\n      pop\n        /* \"#utility.yul\":14751:14760   */\n      dup2\n        /* \"#utility.yul\":14745:14749   */\n      dup2\n        /* \"#utility.yul\":14741:14761   */\n      sub\n        /* \"#utility.yul\":14737:14738   */\n      0x00\n        /* \"#utility.yul\":14726:14735   */\n      dup4\n        /* \"#utility.yul\":14722:14739   */\n      add\n        /* \"#utility.yul\":14715:14762   */\n      mstore\n        /* \"#utility.yul\":14779:14910   */\n      tag_559\n        /* \"#utility.yul\":14905:14909   */\n      dup2\n        /* \"#utility.yul\":14779:14910   */\n      tag_479\n      jump\t// in\n    tag_559:\n        /* \"#utility.yul\":14771:14910   */\n      swap1\n      pop\n        /* \"#utility.yul\":14498:14917   */\n      swap2\n      swap1\n      pop\n      jump\t// out\n        /* \"#utility.yul\":14923:15342   */\n    tag_214:\n        /* \"#utility.yul\":15089:15093   */\n      0x00\n        /* \"#utility.yul\":15127:15129   */\n      0x20\n        /* \"#utility.yul\":15116:15125   */\n      dup3\n        /* \"#utility.yul\":15112:15130   */\n      add\n        /* \"#utility.yul\":15104:15130   */\n      swap1\n      pop\n        /* \"#utility.yul\":15176:15185   */\n      dup2\n        /* \"#utility.yul\":15170:15174   */\n      dup2\n        /* \"#utility.yul\":15166:15186   */\n      sub\n        /* \"#utility.yul\":15162:15163   */\n      0x00\n        /* \"#utility.yul\":15151:15160   */\n      dup4\n        /* \"#utility.yul\":15147:15164   */\n      add\n        /* \"#utility.yul\":15140:15187   */\n      mstore\n        /* \"#utility.yul\":15204:15335   */\n      tag_561\n        /* \"#utility.yul\":15330:15334   */\n      dup2\n        /* \"#utility.yul\":15204:15335   */\n      tag_484\n      jump\t// in\n    tag_561:\n        /* \"#utility.yul\":15196:15335   */\n      swap1\n      pop\n        /* \"#utility.yul\":14923:15342   */\n      swap2\n      swap1\n      pop\n      jump\t// out\n        /* \"#utility.yul\":15348:15767   */\n    tag_155:\n        /* \"#utility.yul\":15514:15518   */\n      0x00\n        /* \"#utility.yul\":15552:15554   */\n      0x20\n        /* \"#utility.yul\":15541:15550   */\n      dup3\n        /* \"#utility.yul\":15537:15555   */\n      add\n        /* \"#utility.yul\":15529:15555   */\n      swap1\n      pop\n        /* \"#utility.yul\":15601:15610   */\n      dup2\n        /* \"#utility.yul\":15595:15599   */\n      dup2\n        /* \"#utility.yul\":15591:15611   */\n      sub\n        /* \"#utility.yul\":15587:15588   */\n      0x00\n        /* \"#utility.yul\":15576:15585   */\n      dup4\n        /* \"#utility.yul\":15572:15589   */\n      add\n        /* \"#utility.yul\":15565:15612   */\n      mstore\n        /* \"#utility.yul\":15629:15760   */\n      tag_563\n        /* \"#utility.yul\":15755:15759   */\n      dup2\n        /* \"#utility.yul\":15629:15760   */\n      tag_489\n      jump\t// in\n    tag_563:\n        /* \"#utility.yul\":15621:15760   */\n      swap1\n      pop\n        /* \"#utility.yul\":15348:15767   */\n      swap2\n      swap1\n      pop\n      jump\t// out\n        /* \"#utility.yul\":15773:16192   */\n    tag_122:\n        /* \"#utility.yul\":15939:15943   */\n      0x00\n        /* \"#utility.yul\":15977:15979   */\n      0x20\n        /* \"#utility.yul\":15966:15975   */\n      dup3\n        /* \"#utility.yul\":15962:15980   */\n      add\n        /* \"#utility.yul\":15954:15980   */\n      swap1\n      pop\n        /* \"#utility.yul\":16026:16035   */\n      dup2\n        /* \"#utility.yul\":16020:16024   */\n      dup2\n        /* \"#utility.yul\":16016:16036   */\n      sub\n        /* \"#utility.yul\":16012:16013   */\n      0x00\n        /* \"#utility.yul\":16001:16010   */\n      dup4\n        /* \"#utility.yul\":15997:16014   */\n      add\n        /* \"#utility.yul\":15990:16037   */\n      mstore\n        /* \"#utility.yul\":16054:16185   */\n      tag_565\n        /* \"#utility.yul\":16180:16184   */\n      dup2\n        /* \"#utility.yul\":16054:16185   */\n      tag_494\n      jump\t// in\n    tag_565:\n        /* \"#utility.yul\":16046:16185   */\n      swap1\n      pop\n        /* \"#utility.yul\":15773:16192   */\n      swap2\n      swap1\n      pop\n      jump\t// out\n        /* \"#utility.yul\":16198:16617   */\n    tag_158:\n        /* \"#utility.yul\":16364:16368   */\n      0x00\n        /* \"#utility.yul\":16402:16404   */\n      0x20\n        /* \"#utility.yul\":16391:16400   */\n      dup3\n        /* \"#utility.yul\":16387:16405   */\n      add\n        /* \"#utility.yul\":16379:16405   */\n      swap1\n      pop\n        /* \"#utility.yul\":16451:16460   */\n      dup2\n        /* \"#utility.yul\":16445:16449   */\n      dup2\n        /* \"#utility.yul\":16441:16461   */\n      sub\n        /* \"#utility.yul\":16437:16438   */\n      0x00\n        /* \"#utility.yul\":16426:16435   */\n      dup4\n        /* \"#utility.yul\":16422:16439   */\n      add\n        /* \"#utility.yul\":16415:16462   */\n      mstore\n        /* \"#utility.yul\":16479:16610   */\n      tag_567\n        /* \"#utility.yul\":16605:16609   */\n      dup2\n        /* \"#utility.yul\":16479:16610   */\n      tag_499\n      jump\t// in\n    tag_567:\n        /* \"#utility.yul\":16471:16610   */\n      swap1\n      pop\n        /* \"#utility.yul\":16198:16617   */\n      swap2\n      swap1\n      pop\n      jump\t// out\n        /* \"#utility.yul\":16623:17042   */\n    tag_89:\n        /* \"#utility.yul\":16789:16793   */\n      0x00\n        /* \"#utility.yul\":16827:16829   */\n      0x20\n        /* \"#utility.yul\":16816:16825   */\n      dup3\n        /* \"#utility.yul\":16812:16830   */\n      add\n        /* \"#utility.yul\":16804:16830   */\n      swap1\n      pop\n        /* \"#utility.yul\":16876:16885   */\n      dup2\n        /* \"#utility.yul\":16870:16874   */\n      dup2\n        /* \"#utility.yul\":16866:16886   */\n      sub\n        /* \"#utility.yul\":16862:16863   */\n      0x00\n        /* \"#utility.yul\":16851:16860   */\n      dup4\n        /* \"#utility.yul\":16847:16864   */\n      add\n        /* \"#utility.yul\":16840:16887   */\n      mstore\n        /* \"#utility.yul\":16904:17035   */\n      tag_569\n        /* \"#utility.yul\":17030:17034   */\n      dup2\n        /* \"#utility.yul\":16904:17035   */\n      tag_504\n      jump\t// in\n    tag_569:\n        /* \"#utility.yul\":16896:17035   */\n      swap1\n      pop\n        /* \"#utility.yul\":16623:17042   */\n      swap2\n      swap1\n      pop\n      jump\t// out\n        /* \"#utility.yul\":17048:17270   */\n    tag_21:\n        /* \"#utility.yul\":17141:17145   */\n      0x00\n        /* \"#utility.yul\":17179:17181   */\n      0x20\n        /* \"#utility.yul\":17168:17177   */\n      dup3\n        /* \"#utility.yul\":17164:17182   */\n      add\n        /* \"#utility.yul\":17156:17182   */\n      swap1\n      pop\n        /* \"#utility.yul\":17192:17263   */\n      tag_571\n        /* \"#utility.yul\":17260:17261   */\n      0x00\n        /* \"#utility.yul\":17249:17258   */\n      dup4\n        /* \"#utility.yul\":17245:17262   */\n      add\n        /* \"#utility.yul\":17236:17242   */\n      dup5\n        /* \"#utility.yul\":17192:17263   */\n      tag_520\n      jump\t// in\n    tag_571:\n        /* \"#utility.yul\":17048:17270   */\n      swap3\n      swap2\n      pop\n      pop\n      jump\t// out\n        /* \"#utility.yul\":17357:17489   */\n    tag_434:\n        /* \"#utility.yul\":17424:17428   */\n      0x00\n        /* \"#utility.yul\":17447:17450   */\n      dup2\n        /* \"#utility.yul\":17439:17450   */\n      swap1\n      pop\n        /* \"#utility.yul\":17477:17481   */\n      0x20\n        /* \"#utility.yul\":17472:17475   */\n      dup3\n        /* \"#utility.yul\":17468:17482   */\n      add\n        /* \"#utility.yul\":17460:17482   */\n      swap1\n      pop\n        /* \"#utility.yul\":17357:17489   */\n      swap2\n      swap1\n      pop\n      jump\t// out\n        /* \"#utility.yul\":17495:17651   */\n    tag_448:\n        /* \"#utility.yul\":17586:17590   */\n      0x00\n        /* \"#utility.yul\":17609:17612   */\n      dup2\n        /* \"#utility.yul\":17601:17612   */\n      swap1\n      pop\n        /* \"#utility.yul\":17639:17643   */\n      0x20\n        /* \"#utility.yul\":17634:17637   */\n      dup3\n        /* \"#utility.yul\":17630:17644   */\n      add\n        /* \"#utility.yul\":17622:17644   */\n      swap1\n      pop\n        /* \"#utility.yul\":17495:17651   */\n      swap2\n      swap1\n      pop\n      jump\t// out\n        /* \"#utility.yul\":17657:17771   */\n    tag_430:\n        /* \"#utility.yul\":17724:17730   */\n      0x00\n        /* \"#utility.yul\":17758:17763   */\n      dup2\n        /* \"#utility.yul\":17752:17764   */\n      mload\n        /* \"#utility.yul\":17742:17764   */\n      swap1\n      pop\n        /* \"#utility.yul\":17657:17771   */\n      swap2\n      swap1\n      pop\n      jump\t// out\n        /* \"#utility.yul\":17777:17915   */\n    tag_444:\n        /* \"#utility.yul\":17868:17874   */\n      0x00\n        /* \"#utility.yul\":17902:17907   */\n      dup2\n        /* \"#utility.yul\":17896:17908   */\n      mload\n        /* \"#utility.yul\":17886:17908   */\n      swap1\n      pop\n        /* \"#utility.yul\":17777:17915   */\n      swap2\n      swap1\n      pop\n      jump\t// out\n        /* \"#utility.yul\":17921:18034   */\n    tag_440:\n        /* \"#utility.yul\":17991:17995   */\n      0x00\n        /* \"#utility.yul\":18023:18027   */\n      0x20\n        /* \"#utility.yul\":18018:18021   */\n      dup3\n        /* \"#utility.yul\":18014:18028   */\n      add\n        /* \"#utility.yul\":18006:18028   */\n      swap1\n      pop\n        /* \"#utility.yul\":17921:18034   */\n      swap2\n      swap1\n      pop\n      jump\t// out\n        /* \"#utility.yul\":18040:18177   */\n    tag_454:\n        /* \"#utility.yul\":18134:18138   */\n      0x00\n        /* \"#utility.yul\":18166:18170   */\n      0x20\n        /* \"#utility.yul\":18161:18164   */\n      dup3\n        /* \"#utility.yul\":18157:18171   */\n      add\n        /* \"#utility.yul\":18149:18171   */\n      swap1\n      pop\n        /* \"#utility.yul\":18040:18177   */\n      swap2\n      swap1\n      pop\n      jump\t// out\n        /* \"#utility.yul\":18183:18367   */\n    tag_432:\n        /* \"#utility.yul\":18282:18293   */\n      0x00\n        /* \"#utility.yul\":18316:18322   */\n      dup3\n        /* \"#utility.yul\":18311:18314   */\n      dup3\n        /* \"#utility.yul\":18304:18323   */\n      mstore\n        /* \"#utility.yul\":18356:18360   */\n      0x20\n        /* \"#utility.yul\":18351:18354   */\n      dup3\n        /* \"#utility.yul\":18347:18361   */\n      add\n        /* \"#utility.yul\":18332:18361   */\n      swap1\n      pop\n        /* \"#utility.yul\":18183:18367   */\n      swap3\n      swap2\n      pop\n      pop\n      jump\t// out\n        /* \"#utility.yul\":18373:18581   */\n    tag_446:\n        /* \"#utility.yul\":18496:18507   */\n      0x00\n        /* \"#utility.yul\":18530:18536   */\n      dup3\n        /* \"#utility.yul\":18525:18528   */\n      dup3\n        /* \"#utility.yul\":18518:18537   */\n      mstore\n        /* \"#utility.yul\":18570:18574   */\n      0x20\n        /* \"#utility.yul\":18565:18568   */\n      dup3\n        /* \"#utility.yul\":18561:18575   */\n      add\n        /* \"#utility.yul\":18546:18575   */\n      swap1\n      pop\n        /* \"#utility.yul\":18373:18581   */\n      swap3\n      swap2\n      pop\n      pop\n      jump\t// out\n        /* \"#utility.yul\":18587:18756   */\n    tag_466:\n        /* \"#utility.yul\":18671:18682   */\n      0x00\n        /* \"#utility.yul\":18705:18711   */\n      dup3\n        /* \"#utility.yul\":18700:18703   */\n      dup3\n        /* \"#utility.yul\":18693:18712   */\n      mstore\n        /* \"#utility.yul\":18745:18749   */\n      0x20\n        /* \"#utility.yul\":18740:18743   */\n      dup3\n        /* \"#utility.yul\":18736:18750   */\n      add\n        /* \"#utility.yul\":18721:18750   */\n      swap1\n      pop\n        /* \"#utility.yul\":18587:18756   */\n      swap3\n      swap2\n      pop\n      pop\n      jump\t// out\n        /* \"#utility.yul\":18762:19067   */\n    tag_163:\n        /* \"#utility.yul\":18802:18805   */\n      0x00\n        /* \"#utility.yul\":18821:18841   */\n      tag_584\n        /* \"#utility.yul\":18839:18840   */\n      dup3\n        /* \"#utility.yul\":18821:18841   */\n      tag_519\n      jump\t// in\n    tag_584:\n        /* \"#utility.yul\":18816:18841   */\n      swap2\n      pop\n        /* \"#utility.yul\":18855:18875   */\n      tag_585\n        /* \"#utility.yul\":18873:18874   */\n      dup4\n        /* \"#utility.yul\":18855:18875   */\n      tag_519\n      jump\t// in\n    tag_585:\n        /* \"#utility.yul\":18850:18875   */\n      swap3\n      pop\n        /* \"#utility.yul\":19009:19010   */\n      dup3\n        /* \"#utility.yul\":18941:19007   */\n      0xffffffffffffffffffffffffffffffffffffffffffffffffffffffffffffffff\n        /* \"#utility.yul\":18937:19011   */\n      sub\n        /* \"#utility.yul\":18934:18935   */\n      dup3\n        /* \"#utility.yul\":18931:19012   */\n      gt\n        /* \"#utility.yul\":18928:19035   */\n      iszero\n      tag_586\n      jumpi\n        /* \"#utility.yul\":19015:19033   */\n      tag_587\n      tag_588\n      jump\t// in\n    tag_587:\n        /* \"#utility.yul\":18928:19035   */\n    tag_586:\n        /* \"#utility.yul\":19059:19060   */\n      dup3\n        /* \"#utility.yul\":19056:19057   */\n      dup3\n        /* \"#utility.yul\":19052:19061   */\n      add\n        /* \"#utility.yul\":19045:19061   */\n      swap1\n      pop\n        /* \"#utility.yul\":18762:19067   */\n      swap3\n      swap2\n      pop\n      pop\n      jump\t// out\n        /* \"#utility.yul\":19073:19264   */\n    tag_93:\n        /* \"#utility.yul\":19113:19117   */\n      0x00\n        /* \"#utility.yul\":19133:19153   */\n      tag_590\n        /* \"#utility.yul\":19151:19152   */\n      dup3\n        /* \"#utility.yul\":19133:19153   */\n      tag_519\n      jump\t// in\n    tag_590:\n        /* \"#utility.yul\":19128:19153   */\n      swap2\n      pop\n        /* \"#utility.yul\":19167:19187   */\n      tag_591\n        /* \"#utility.yul\":19185:19186   */\n      dup4\n        /* \"#utility.yul\":19167:19187   */\n      tag_519\n      jump\t// in\n    tag_591:\n        /* \"#utility.yul\":19162:19187   */\n      swap3\n      pop\n        /* \"#utility.yul\":19206:19207   */\n      dup3\n        /* \"#utility.yul\":19203:19204   */\n      dup3\n        /* \"#utility.yul\":19200:19208   */\n      lt\n        /* \"#utility.yul\":19197:19231   */\n      iszero\n      tag_592\n      jumpi\n        /* \"#utility.yul\":19211:19229   */\n      tag_593\n      tag_588\n      jump\t// in\n    tag_593:\n        /* \"#utility.yul\":19197:19231   */\n    tag_592:\n        /* \"#utility.yul\":19256:19257   */\n      dup3\n        /* \"#utility.yul\":19253:19254   */\n      dup3\n        /* \"#utility.yul\":19249:19258   */\n      sub\n        /* \"#utility.yul\":19241:19258   */\n      swap1\n      pop\n        /* \"#utility.yul\":19073:19264   */\n      swap3\n      swap2\n      pop\n      pop\n      jump\t// out\n        /* \"#utility.yul\":19270:19366   */\n    tag_423:\n        /* \"#utility.yul\":19307:19314   */\n      0x00\n        /* \"#utility.yul\":19336:19360   */\n      tag_595\n        /* \"#utility.yul\":19354:19359   */\n      dup3\n        /* \"#utility.yul\":19336:19360   */\n      tag_596\n      jump\t// in\n    tag_595:\n        /* \"#utility.yul\":19325:19360   */\n      swap1\n      pop\n        /* \"#utility.yul\":19270:19366   */\n      swap2\n      swap1\n      pop\n      jump\t// out\n        /* \"#utility.yul\":19372:19476   */\n    tag_420:\n        /* \"#utility.yul\":19417:19424   */\n      0x00\n        /* \"#utility.yul\":19446:19470   */\n      tag_598\n        /* \"#utility.yul\":19464:19469   */\n      dup3\n        /* \"#utility.yul\":19446:19470   */\n      tag_596\n      jump\t// in\n    tag_598:\n        /* \"#utility.yul\":19435:19470   */\n      swap1\n      pop\n        /* \"#utility.yul\":19372:19476   */\n      swap2\n      swap1\n      pop\n      jump\t// out\n        /* \"#utility.yul\":19482:19572   */\n    tag_458:\n        /* \"#utility.yul\":19516:19523   */\n      0x00\n        /* \"#utility.yul\":19559:19564   */\n      dup2\n        /* \"#utility.yul\":19552:19565   */\n      iszero\n        /* \"#utility.yul\":19545:19566   */\n      iszero\n        /* \"#utility.yul\":19534:19566   */\n      swap1\n      pop\n        /* \"#utility.yul\":19482:19572   */\n      swap2\n      swap1\n      pop\n      jump\t// out\n        /* \"#utility.yul\":19578:19704   */\n    tag_596:\n        /* \"#utility.yul\":19615:19622   */\n      0x00\n        /* \"#utility.yul\":19655:19697   */\n      0xffffffffffffffffffffffffffffffffffffffff\n        /* \"#utility.yul\":19648:19653   */\n      dup3\n        /* \"#utility.yul\":19644:19698   */\n      and\n        /* \"#utility.yul\":19633:19698   */\n      swap1\n      pop\n        /* \"#utility.yul\":19578:19704   */\n      swap2\n      swap1\n      pop\n      jump\t// out\n        /* \"#utility.yul\":19710:19787   */\n    tag_519:\n        /* \"#utility.yul\":19747:19754   */\n      0x00\n        /* \"#utility.yul\":19776:19781   */\n      dup2\n        /* \"#utility.yul\":19765:19781   */\n      swap1\n      pop\n        /* \"#utility.yul\":19710:19787   */\n      swap2\n      swap1\n      pop\n      jump\t// out\n        /* \"#utility.yul\":19793:19927   */\n    tag_416:\n        /* \"#utility.yul\":19851:19860   */\n      0x00\n        /* \"#utility.yul\":19884:19921   */\n      tag_603\n        /* \"#utility.yul\":19915:19920   */\n      dup3\n        /* \"#utility.yul\":19884:19921   */\n      tag_604\n      jump\t// in\n    tag_603:\n        /* \"#utility.yul\":19871:19921   */\n      swap1\n      pop\n        /* \"#utility.yul\":19793:19927   */\n      swap2\n      swap1\n      pop\n      jump\t// out\n        /* \"#utility.yul\":19933:20054   */\n    tag_462:\n        /* \"#utility.yul\":19991:20000   */\n      0x00\n        /* \"#utility.yul\":20024:20048   */\n      tag_606\n        /* \"#utility.yul\":20042:20047   */\n      dup3\n        /* \"#utility.yul\":20024:20048   */\n      tag_519\n      jump\t// in\n    tag_606:\n        /* \"#utility.yul\":20011:20048   */\n      swap1\n      pop\n        /* \"#utility.yul\":19933:20054   */\n      swap2\n      swap1\n      pop\n      jump\t// out\n        /* \"#utility.yul\":20060:20186   */\n    tag_604:\n        /* \"#utility.yul\":20110:20119   */\n      0x00\n        /* \"#utility.yul\":20143:20180   */\n      tag_608\n        /* \"#utility.yul\":20174:20179   */\n      dup3\n        /* \"#utility.yul\":20143:20180   */\n      tag_609\n      jump\t// in\n    tag_608:\n        /* \"#utility.yul\":20130:20180   */\n      swap1\n      pop\n        /* \"#utility.yul\":20060:20186   */\n      swap2\n      swap1\n      pop\n      jump\t// out\n        /* \"#utility.yul\":20192:20305   */\n    tag_609:\n        /* \"#utility.yul\":20242:20251   */\n      0x00\n        /* \"#utility.yul\":20275:20299   */\n      tag_611\n        /* \"#utility.yul\":20293:20298   */\n      dup3\n        /* \"#utility.yul\":20275:20299   */\n      tag_596\n      jump\t// in\n    tag_611:\n        /* \"#utility.yul\":20262:20299   */\n      swap1\n      pop\n        /* \"#utility.yul\":20192:20305   */\n      swap2\n      swap1\n      pop\n      jump\t// out\n        /* \"#utility.yul\":20311:20544   */\n    tag_86:\n        /* \"#utility.yul\":20350:20353   */\n      0x00\n        /* \"#utility.yul\":20373:20397   */\n      tag_613\n        /* \"#utility.yul\":20391:20396   */\n      dup3\n        /* \"#utility.yul\":20373:20397   */\n      tag_519\n      jump\t// in\n    tag_613:\n        /* \"#utility.yul\":20364:20397   */\n      swap2\n      pop\n        /* \"#utility.yul\":20419:20485   */\n      0xffffffffffffffffffffffffffffffffffffffffffffffffffffffffffffffff\n        /* \"#utility.yul\":20412:20417   */\n      dup3\n        /* \"#utility.yul\":20409:20486   */\n      eq\n        /* \"#utility.yul\":20406:20509   */\n      iszero\n      tag_614\n      jumpi\n        /* \"#utility.yul\":20489:20507   */\n      tag_615\n      tag_588\n      jump\t// in\n    tag_615:\n        /* \"#utility.yul\":20406:20509   */\n    tag_614:\n        /* \"#utility.yul\":20536:20537   */\n      0x01\n        /* \"#utility.yul\":20529:20534   */\n      dup3\n        /* \"#utility.yul\":20525:20538   */\n      add\n        /* \"#utility.yul\":20518:20538   */\n      swap1\n      pop\n        /* \"#utility.yul\":20311:20544   */\n      swap2\n      swap1\n      pop\n      jump\t// out\n        /* \"#utility.yul\":20550:20730   */\n    tag_588:\n        /* \"#utility.yul\":20598:20675   */\n      0x4e487b7100000000000000000000000000000000000000000000000000000000\n        /* \"#utility.yul\":20595:20596   */\n      0x00\n        /* \"#utility.yul\":20588:20676   */\n      mstore\n        /* \"#utility.yul\":20695:20699   */\n      0x11\n        /* \"#utility.yul\":20692:20693   */\n      0x04\n        /* \"#utility.yul\":20685:20700   */\n      mstore\n        /* \"#utility.yul\":20719:20723   */\n      0x24\n        /* \"#utility.yul\":20716:20717   */\n      0x00\n        /* \"#utility.yul\":20709:20724   */\n      revert\n        /* \"#utility.yul\":20736:20916   */\n    tag_190:\n        /* \"#utility.yul\":20784:20861   */\n      0x4e487b7100000000000000000000000000000000000000000000000000000000\n        /* \"#utility.yul\":20781:20782   */\n      0x00\n        /* \"#utility.yul\":20774:20862   */\n      mstore\n        /* \"#utility.yul\":20881:20885   */\n      0x31\n        /* \"#utility.yul\":20878:20879   */\n      0x04\n        /* \"#utility.yul\":20871:20886   */\n      mstore\n        /* \"#utility.yul\":20905:20909   */\n      0x24\n        /* \"#utility.yul\":20902:20903   */\n      0x00\n        /* \"#utility.yul\":20895:20910   */\n      revert\n        /* \"#utility.yul\":20922:21102   */\n    tag_82:\n        /* \"#utility.yul\":20970:21047   */\n      0x4e487b7100000000000000000000000000000000000000000000000000000000\n        /* \"#utility.yul\":20967:20968   */\n      0x00\n        /* \"#utility.yul\":20960:21048   */\n      mstore\n        /* \"#utility.yul\":21067:21071   */\n      0x32\n        /* \"#utility.yul\":21064:21065   */\n      0x04\n        /* \"#utility.yul\":21057:21072   */\n      mstore\n        /* \"#utility.yul\":21091:21095   */\n      0x24\n        /* \"#utility.yul\":21088:21089   */\n      0x00\n        /* \"#utility.yul\":21081:21096   */\n      revert\n        /* \"#utility.yul\":21231:21348   */\n    tag_394:\n        /* \"#utility.yul\":21340:21341   */\n      0x00\n        /* \"#utility.yul\":21337:21338   */\n      dup1\n        /* \"#utility.yul\":21330:21342   */\n      revert\n        /* \"#utility.yul\":21354:21532   */\n    tag_468:\n        /* \"#utility.yul\":21494:21524   */\n      0x63616e6e6f74206465706f7369697420612063616c7565206f66203000000000\n        /* \"#utility.yul\":21490:21491   */\n      0x00\n        /* \"#utility.yul\":21482:21488   */\n      dup3\n        /* \"#utility.yul\":21478:21492   */\n      add\n        /* \"#utility.yul\":21471:21525   */\n      mstore\n        /* \"#utility.yul\":21354:21532   */\n      pop\n      jump\t// out\n        /* \"#utility.yul\":21538:21763   */\n    tag_473:\n        /* \"#utility.yul\":21678:21712   */\n      0x696e737566666963656e742066756e647320746f206372656174652061207472\n        /* \"#utility.yul\":21674:21675   */\n      0x00\n        /* \"#utility.yul\":21666:21672   */\n      dup3\n        /* \"#utility.yul\":21662:21676   */\n      add\n        /* \"#utility.yul\":21655:21713   */\n      mstore\n        /* \"#utility.yul\":21747:21755   */\n      0x616e736665720000000000000000000000000000000000000000000000000000\n        /* \"#utility.yul\":21742:21744   */\n      0x20\n        /* \"#utility.yul\":21734:21740   */\n      dup3\n        /* \"#utility.yul\":21730:21745   */\n      add\n        /* \"#utility.yul\":21723:21756   */\n      mstore\n        /* \"#utility.yul\":21538:21763   */\n      pop\n      jump\t// out\n        /* \"#utility.yul\":21769:21994   */\n    tag_478:\n        /* \"#utility.yul\":21909:21943   */\n      0x63616e6e6f7420617070726f7665207468652073616d65207472616e73666572\n        /* \"#utility.yul\":21905:21906   */\n      0x00\n        /* \"#utility.yul\":21897:21903   */\n      dup3\n        /* \"#utility.yul\":21893:21907   */\n      add\n        /* \"#utility.yul\":21886:21944   */\n      mstore\n        /* \"#utility.yul\":21978:21986   */\n      0x2074776963650000000000000000000000000000000000000000000000000000\n        /* \"#utility.yul\":21973:21975   */\n      0x20\n        /* \"#utility.yul\":21965:21971   */\n      dup3\n        /* \"#utility.yul\":21961:21976   */\n      add\n        /* \"#utility.yul\":21954:21987   */\n      mstore\n        /* \"#utility.yul\":21769:21994   */\n      pop\n      jump\t// out\n        /* \"#utility.yul\":22000:22175   */\n    tag_483:\n        /* \"#utility.yul\":22140:22167   */\n      0x77616c6c6574206f776e6572206e6f7420646574656374656400000000000000\n        /* \"#utility.yul\":22136:22137   */\n      0x00\n        /* \"#utility.yul\":22128:22134   */\n      dup3\n        /* \"#utility.yul\":22124:22138   */\n      add\n        /* \"#utility.yul\":22117:22168   */\n      mstore\n        /* \"#utility.yul\":22000:22175   */\n      pop\n      jump\t// out\n        /* \"#utility.yul\":22181:22358   */\n    tag_488:\n        /* \"#utility.yul\":22321:22350   */\n      0x63616e6e6f7420616464206475706c6963617465206f776e6572730000000000\n        /* \"#utility.yul\":22317:22318   */\n      0x00\n        /* \"#utility.yul\":22309:22315   */\n      dup3\n        /* \"#utility.yul\":22305:22319   */\n      add\n        /* \"#utility.yul\":22298:22351   */\n      mstore\n        /* \"#utility.yul\":22181:22358   */\n      pop\n      jump\t// out\n        /* \"#utility.yul\":22364:22587   */\n    tag_493:\n        /* \"#utility.yul\":22504:22538   */\n      0x6f6e6c7920746865207472616e736665722063726561746f722063616e206361\n        /* \"#utility.yul\":22500:22501   */\n      0x00\n        /* \"#utility.yul\":22492:22498   */\n      dup3\n        /* \"#utility.yul\":22488:22502   */\n      add\n        /* \"#utility.yul\":22481:22539   */\n      mstore\n        /* \"#utility.yul\":22573:22579   */\n      0x6e63656c00000000000000000000000000000000000000000000000000000000\n        /* \"#utility.yul\":22568:22570   */\n      0x20\n        /* \"#utility.yul\":22560:22566   */\n      dup3\n        /* \"#utility.yul\":22556:22571   */\n      add\n        /* \"#utility.yul\":22549:22580   */\n      mstore\n        /* \"#utility.yul\":22364:22587   */\n      pop\n      jump\t// out\n        /* \"#utility.yul\":22593:22820   */\n    tag_498:\n        /* \"#utility.yul\":22733:22767   */\n      0x63616e6e6f74207472616e736665722066756e6473207769746869776e207468\n        /* \"#utility.yul\":22729:22730   */\n      0x00\n        /* \"#utility.yul\":22721:22727   */\n      dup3\n        /* \"#utility.yul\":22717:22731   */\n      add\n        /* \"#utility.yul\":22710:22768   */\n      mstore\n        /* \"#utility.yul\":22802:22812   */\n      0x652077616c6c6574000000000000000000000000000000000000000000000000\n        /* \"#utility.yul\":22797:22799   */\n      0x20\n        /* \"#utility.yul\":22789:22795   */\n      dup3\n        /* \"#utility.yul\":22785:22800   */\n      add\n        /* \"#utility.yul\":22778:22813   */\n      mstore\n        /* \"#utility.yul\":22593:22820   */\n      pop\n      jump\t// out\n        /* \"#utility.yul\":22826:23007   */\n    tag_503:\n        /* \"#utility.yul\":22966:22999   */\n      0x7472616e73666572207265717565737420646f6573206e6f7420657869737400\n        /* \"#utility.yul\":22962:22963   */\n      0x00\n        /* \"#utility.yul\":22954:22960   */\n      dup3\n        /* \"#utility.yul\":22950:22964   */\n      add\n        /* \"#utility.yul\":22943:23000   */\n      mstore\n        /* \"#utility.yul\":22826:23007   */\n      pop\n      jump\t// out\n        /* \"#utility.yul\":23013:23241   */\n    tag_508:\n        /* \"#utility.yul\":23153:23187   */\n      0x6f6e6c792077616c6c6574206f776e6572732063616e2063616c6c2074686973\n        /* \"#utility.yul\":23149:23150   */\n      0x00\n        /* \"#utility.yul\":23141:23147   */\n      dup3\n        /* \"#utility.yul\":23137:23151   */\n      add\n        /* \"#utility.yul\":23130:23188   */\n      mstore\n        /* \"#utility.yul\":23222:23233   */\n      0x2066756e6374696f6e0000000000000000000000000000000000000000000000\n        /* \"#utility.yul\":23217:23219   */\n      0x20\n        /* \"#utility.yul\":23209:23215   */\n      dup3\n        /* \"#utility.yul\":23205:23220   */\n      add\n        /* \"#utility.yul\":23198:23234   */\n      mstore\n        /* \"#utility.yul\":23013:23241   */\n      pop\n      jump\t// out\n        /* \"#utility.yul\":23247:23369   */\n    tag_382:\n        /* \"#utility.yul\":23320:23344   */\n      tag_632\n        /* \"#utility.yul\":23338:23343   */\n      dup2\n        /* \"#utility.yul\":23320:23344   */\n      tag_423\n      jump\t// in\n    tag_632:\n        /* \"#utility.yul\":23313:23318   */\n      dup2\n        /* \"#utility.yul\":23310:23345   */\n      eq\n        /* \"#utility.yul\":23300:23363   */\n      tag_633\n      jumpi\n        /* \"#utility.yul\":23359:23360   */\n      0x00\n        /* \"#utility.yul\":23356:23357   */\n      dup1\n        /* \"#utility.yul\":23349:23361   */\n      revert\n        /* \"#utility.yul\":23300:23363   */\n    tag_633:\n        /* \"#utility.yul\":23247:23369   */\n      pop\n      jump\t// out\n        /* \"#utility.yul\":23375:23513   */\n    tag_386:\n        /* \"#utility.yul\":23456:23488   */\n      tag_635\n        /* \"#utility.yul\":23482:23487   */\n      dup2\n        /* \"#utility.yul\":23456:23488   */\n      tag_420\n      jump\t// in\n    tag_635:\n        /* \"#utility.yul\":23449:23454   */\n      dup2\n        /* \"#utility.yul\":23446:23489   */\n      eq\n        /* \"#utility.yul\":23436:23507   */\n      tag_636\n      jumpi\n        /* \"#utility.yul\":23503:23504   */\n      0x00\n        /* \"#utility.yul\":23500:23501   */\n      dup1\n        /* \"#utility.yul\":23493:23505   */\n      revert\n        /* \"#utility.yul\":23436:23507   */\n    tag_636:\n        /* \"#utility.yul\":23375:23513   */\n      pop\n      jump\t// out\n        /* \"#utility.yul\":23519:23641   */\n    tag_390:\n        /* \"#utility.yul\":23592:23616   */\n      tag_638\n        /* \"#utility.yul\":23610:23615   */\n      dup2\n        /* \"#utility.yul\":23592:23616   */\n      tag_519\n      jump\t// in\n    tag_638:\n        /* \"#utility.yul\":23585:23590   */\n      dup2\n        /* \"#utility.yul\":23582:23617   */\n      eq\n        /* \"#utility.yul\":23572:23635   */\n      tag_639\n      jumpi\n        /* \"#utility.yul\":23631:23632   */\n      0x00\n        /* \"#utility.yul\":23628:23629   */\n      dup1\n        /* \"#utility.yul\":23621:23633   */\n      revert\n        /* \"#utility.yul\":23572:23635   */\n    tag_639:\n        /* \"#utility.yul\":23519:23641   */\n      pop\n      jump\t// out\n\n    auxdata: 0xa2646970667358221220e6ea6880de190f7bea2e4d0b63b92681728dc8d7d7a8253a6343c74bcb97166b64736f6c63430008070033\n}\n",
				"bytecode": {
					"linkReferences": {},
					"object": "60806040526000600355600060045560006005553480156200002057600080fd5b50336000806101000a81548173ffffffffffffffffffffffffffffffffffffffff021916908373ffffffffffffffffffffffffffffffffffffffff160217905550600160008054906101000a900473ffffffffffffffffffffffffffffffffffffffff169080600181540180825580915050600190039060005260206000200160009091909190916101000a81548173ffffffffffffffffffffffffffffffffffffffff021916908373ffffffffffffffffffffffffffffffffffffffff16021790555060018080549050620000f7919062000223565b600281905550600680600181540180825580915050600190039060005260206000200160006040518060400160405280600381526020017f4554480000000000000000000000000000000000000000000000000000000000815250909190915090805190602001906200016c92919062000173565b50620002fc565b828054620001819062000268565b90600052602060002090601f016020900481019282620001a55760008555620001f1565b82601f10620001c057805160ff1916838001178555620001f1565b82800160010185558215620001f1579182015b82811115620001f0578251825591602001919060010190620001d3565b5b50905062000200919062000204565b5090565b5b808211156200021f57600081600090555060010162000205565b5090565b600062000230826200025e565b91506200023d836200025e565b9250828210156200025357620002526200029e565b5b828203905092915050565b6000819050919050565b600060028204905060018216806200028157607f821691505b60208210811415620002985762000297620002cd565b5b50919050565b7f4e487b7100000000000000000000000000000000000000000000000000000000600052601160045260246000fd5b7f4e487b7100000000000000000000000000000000000000000000000000000000600052602260045260246000fd5b612e3b806200030c6000396000f3fe6080604052600436106100c25760003560e01c806393dfbd9e1161007f578063aabdc71a11610059578063aabdc71a14610254578063ce993c771461027d578063d0e30db0146102a8578063dec3eea5146102b2576100c2565b806393dfbd9e146101c3578063a04ef145146101ec578063a4e360c814610217576100c2565b806312065fe0146100c75780632e1a7d4d146100f25780633cc61ea71461011b5780635f89aacb146101445780636f9fb98a1461016d5780637278a1fa14610198575b600080fd5b3480156100d357600080fd5b506100dc6102db565b6040516100e991906128ec565b60405180910390f35b3480156100fe57600080fd5b50610119600480360381019061011491906122e8565b610322565b005b34801561012757600080fd5b50610142600480360381019061013d91906122a8565b61054d565b005b34801561015057600080fd5b5061016b600480360381019061016691906122e8565b61097d565b005b34801561017957600080fd5b50610182610f44565b60405161018f91906128ec565b60405180910390f35b3480156101a457600080fd5b506101ad610f4c565b6040516101ba91906128ec565b60405180910390f35b3480156101cf57600080fd5b506101ea60048036038101906101e5919061227b565b610f56565b005b3480156101f857600080fd5b506102016111c7565b60405161020e919061278f565b60405180910390f35b34801561022357600080fd5b5061023e600480360381019061023991906122e8565b6112fa565b60405161024b91906127b1565b60405180910390f35b34801561026057600080fd5b5061027b6004803603810190610276919061227b565b611361565b005b34801561028957600080fd5b50610292611680565b60405161029f919061276d565b60405180910390f35b6102b061170e565b005b3480156102be57600080fd5b506102d960048036038101906102d491906122e8565b611916565b005b6000600760003373ffffffffffffffffffffffffffffffffffffffff1673ffffffffffffffffffffffffffffffffffffffff16815260200190815260200160002054905090565b6000805b6001805490508110156103c1573373ffffffffffffffffffffffffffffffffffffffff166001828154811061035e5761035d612b5d565b5b9060005260206000200160009054906101000a900473ffffffffffffffffffffffffffffffffffffffff1673ffffffffffffffffffffffffffffffffffffffff1614156103ae57600191506103c1565b80806103b990612ab6565b915050610326565b506001151581151514610409576040517f08c379a0000000000000000000000000000000000000000000000000000000008152600401610400906128cc565b60405180910390fd5b81600760003373ffffffffffffffffffffffffffffffffffffffff1673ffffffffffffffffffffffffffffffffffffffff16815260200190815260200160002054101561045557600080fd5b81600760003373ffffffffffffffffffffffffffffffffffffffff1673ffffffffffffffffffffffffffffffffffffffff16815260200190815260200160002060008282546104a491906129e0565b925050819055503373ffffffffffffffffffffffffffffffffffffffff166108fc839081150290604051600060405180830381858888f193505050501580156104f1573d6000803e3d6000fd5b507f911e5a424cda0aa25334a5bc6c8794ecafee939faa8aa2766de433541fdd840b3383600454426040516105299493929190612728565b60405180910390a16004600081548092919061054490612ab6565b91905055505050565b6000805b6001805490508110156105ec573373ffffffffffffffffffffffffffffffffffffffff166001828154811061058957610588612b5d565b5b9060005260206000200160009054906101000a900473ffffffffffffffffffffffffffffffffffffffff1673ffffffffffffffffffffffffffffffffffffffff1614156105d957600191506105ec565b80806105e490612ab6565b915050610551565b506001151581151514610634576040517f08c379a000000000000000000000000000000000000000000000000000000000815260040161062b906128cc565b60405180910390fd5b81600760003373ffffffffffffffffffffffffffffffffffffffff1673ffffffffffffffffffffffffffffffffffffffff1681526020019081526020016000205410156106b6576040517f08c379a00000000000000000000000000000000000000000000000000000000081526004016106ad906127ec565b60405180910390fd5b60005b600180549050811015610786578373ffffffffffffffffffffffffffffffffffffffff16600182815481106106f1576106f0612b5d565b5b9060005260206000200160009054906101000a900473ffffffffffffffffffffffffffffffffffffffff1673ffffffffffffffffffffffffffffffffffffffff161415610773576040517f08c379a000000000000000000000000000000000000000000000000000000000815260040161076a9061288c565b60405180910390fd5b808061077e90612ab6565b9150506106b9565b5081600760003373ffffffffffffffffffffffffffffffffffffffff1673ffffffffffffffffffffffffffffffffffffffff16815260200190815260200160002060008282546107d691906129e0565b92505081905550600a6040518060c001604052803373ffffffffffffffffffffffffffffffffffffffff1681526020018573ffffffffffffffffffffffffffffffffffffffff16815260200184815260200160055481526020016000815260200142815250908060018154018082558091505060019003906000526020600020906006020160009091909190915060008201518160000160006101000a81548173ffffffffffffffffffffffffffffffffffffffff021916908373ffffffffffffffffffffffffffffffffffffffff16021790555060208201518160010160006101000a81548173ffffffffffffffffffffffffffffffffffffffff021916908373ffffffffffffffffffffffffffffffffffffffff16021790555060408201518160020155606082015181600301556080820151816004015560a0820151816005015550506005600081548092919061092f90612ab6565b91905055507f218d714c553080abb0dbc7fc5f603d19d591d24c58a81c89983579c96b55a3de3384846005546000426040516109709695949392919061262f565b60405180910390a1505050565b6000805b600180549050811015610a1c573373ffffffffffffffffffffffffffffffffffffffff16600182815481106109b9576109b8612b5d565b5b9060005260206000200160009054906101000a900473ffffffffffffffffffffffffffffffffffffffff1673ffffffffffffffffffffffffffffffffffffffff161415610a095760019150610a1c565b8080610a1490612ab6565b915050610981565b506001151581151514610a64576040517f08c379a0000000000000000000000000000000000000000000000000000000008152600401610a5b906128cc565b60405180910390fd5b60008060005b600a80549050811015610ace5784600a8281548110610a8c57610a8b612b5d565b5b9060005260206000209060060201600301541415610aad5760019250610ace565b8180610ab890612ab6565b9250508080610ac690612ab6565b915050610a6a565b503373ffffffffffffffffffffffffffffffffffffffff16600a8281548110610afa57610af9612b5d565b5b906000526020600020906006020160000160009054906101000a900473ffffffffffffffffffffffffffffffffffffffff1673ffffffffffffffffffffffffffffffffffffffff1614610b82576040517f08c379a0000000000000000000000000000000000000000000000000000000008152600401610b799061286c565b60405180910390fd5b81610bc2576040517f08c379a0000000000000000000000000000000000000000000000000000000008152600401610bb9906128ac565b60405180910390fd5b600a8181548110610bd657610bd5612b5d565b5b906000526020600020906006020160020154600760003373ffffffffffffffffffffffffffffffffffffffff1673ffffffffffffffffffffffffffffffffffffffff1681526020019081526020016000206000828254610c36919061298a565b92505081905550600a6001600a80549050610c5191906129e0565b81548110610c6257610c61612b5d565b5b9060005260206000209060060201600a8281548110610c8457610c83612b5d565b5b90600052602060002090600602016000820160009054906101000a900473ffffffffffffffffffffffffffffffffffffffff168160000160006101000a81548173ffffffffffffffffffffffffffffffffffffffff021916908373ffffffffffffffffffffffffffffffffffffffff1602179055506001820160009054906101000a900473ffffffffffffffffffffffffffffffffffffffff168160010160006101000a81548173ffffffffffffffffffffffffffffffffffffffff021916908373ffffffffffffffffffffffffffffffffffffffff160217905550600282015481600201556003820154816003015560048201548160040155600582015481600501559050507f0c18a6fb463175a9fbb1a466faa776412540ffaed30fc734fd994d34e550eaa233600a8381548110610dc157610dc0612b5d565b5b906000526020600020906006020160010160009054906101000a900473ffffffffffffffffffffffffffffffffffffffff16600a8481548110610e0757610e06612b5d565b5b906000526020600020906006020160020154600a8581548110610e2d57610e2c612b5d565b5b906000526020600020906006020160030154600a8681548110610e5357610e52612b5d565b5b906000526020600020906006020160040154600a8781548110610e7957610e78612b5d565b5b906000526020600020906006020160050154604051610e9d96959493929190612690565b60405180910390a1600a805480610eb757610eb6612b2e565b5b6001900381819060005260206000209060060201600080820160006101000a81549073ffffffffffffffffffffffffffffffffffffffff02191690556001820160006101000a81549073ffffffffffffffffffffffffffffffffffffffff021916905560028201600090556003820160009055600482016000905560058201600090555050905550505050565b600047905090565b6000600254905090565b6000805b600180549050811015610ff5573373ffffffffffffffffffffffffffffffffffffffff1660018281548110610f9257610f91612b5d565b5b9060005260206000200160009054906101000a900473ffffffffffffffffffffffffffffffffffffffff1673ffffffffffffffffffffffffffffffffffffffff161415610fe25760019150610ff5565b8080610fed90612ab6565b915050610f5a565b50600115158115151461103d576040517f08c379a0000000000000000000000000000000000000000000000000000000008152600401611034906128cc565b60405180910390fd5b60005b60018054905081101561110d578273ffffffffffffffffffffffffffffffffffffffff166001828154811061107857611077612b5d565b5b9060005260206000200160009054906101000a900473ffffffffffffffffffffffffffffffffffffffff1673ffffffffffffffffffffffffffffffffffffffff1614156110fa576040517f08c379a00000000000000000000000000000000000000000000000000000000081526004016110f19061284c565b60405180910390fd5b808061110590612ab6565b915050611040565b506001829080600181540180825580915050600190039060005260206000200160009091909190916101000a81548173ffffffffffffffffffffffffffffffffffffffff021916908373ffffffffffffffffffffffffffffffffffffffff1602179055506001808054905061118291906129e0565b6002819055507f43abcff3409244ec1056224394af5f818e9a74866f0a11bfee2ad52f68ad6fb93383426040516111bb939291906126f1565b60405180910390a15050565b6060600a805480602002602001604051908101604052809291908181526020016000905b828210156112f157838290600052602060002090600602016040518060c00160405290816000820160009054906101000a900473ffffffffffffffffffffffffffffffffffffffff1673ffffffffffffffffffffffffffffffffffffffff1673ffffffffffffffffffffffffffffffffffffffff1681526020016001820160009054906101000a900473ffffffffffffffffffffffffffffffffffffffff1673ffffffffffffffffffffffffffffffffffffffff1673ffffffffffffffffffffffffffffffffffffffff168152602001600282015481526020016003820154815260200160048201548152602001600582015481525050815260200190600101906111eb565b50505050905090565b6000600860003373ffffffffffffffffffffffffffffffffffffffff1673ffffffffffffffffffffffffffffffffffffffff168152602001908152602001600020600083815260200190815260200160002060009054906101000a900460ff169050919050565b6000805b600180549050811015611400573373ffffffffffffffffffffffffffffffffffffffff166001828154811061139d5761139c612b5d565b5b9060005260206000200160009054906101000a900473ffffffffffffffffffffffffffffffffffffffff1673ffffffffffffffffffffffffffffffffffffffff1614156113ed5760019150611400565b80806113f890612ab6565b915050611365565b506001151581151514611448576040517f08c379a000000000000000000000000000000000000000000000000000000000815260040161143f906128cc565b60405180910390fd5b60008080600090505b6001805490508110156114ef578473ffffffffffffffffffffffffffffffffffffffff166001828154811061148957611488612b5d565b5b9060005260206000200160009054906101000a900473ffffffffffffffffffffffffffffffffffffffff1673ffffffffffffffffffffffffffffffffffffffff1614156114dc57600192508091506114ef565b80806114e790612ab6565b915050611451565b506001151582151514611537576040517f08c379a000000000000000000000000000000000000000000000000000000000815260040161152e9061282c565b60405180910390fd5b600180808054905061154991906129e0565b8154811061155a57611559612b5d565b5b9060005260206000200160009054906101000a900473ffffffffffffffffffffffffffffffffffffffff166001828154811061159957611598612b5d565b5b9060005260206000200160006101000a81548173ffffffffffffffffffffffffffffffffffffffff021916908373ffffffffffffffffffffffffffffffffffffffff16021790555060018054806115f3576115f2612b2e565b5b6001900381819060005260206000200160006101000a81549073ffffffffffffffffffffffffffffffffffffffff021916905590556001808054905061163991906129e0565b6002819055507fd1f329271e4a98b0181a7d91618a0a5de6f42a1aaf4c1362493d829eaf405a8a338542604051611672939291906126f1565b60405180910390a150505050565b6060600180548060200260200160405190810160405280929190818152602001828054801561170457602002820191906000526020600020905b8160009054906101000a900473ffffffffffffffffffffffffffffffffffffffff1673ffffffffffffffffffffffffffffffffffffffff16815260200190600101908083116116ba575b5050505050905090565b6000805b6001805490508110156117ad573373ffffffffffffffffffffffffffffffffffffffff166001828154811061174a57611749612b5d565b5b9060005260206000200160009054906101000a900473ffffffffffffffffffffffffffffffffffffffff1673ffffffffffffffffffffffffffffffffffffffff16141561179a57600191506117ad565b80806117a590612ab6565b915050611712565b5060011515811515146117f5576040517f08c379a00000000000000000000000000000000000000000000000000000000081526004016117ec906128cc565b60405180910390fd5b6000600760003373ffffffffffffffffffffffffffffffffffffffff1673ffffffffffffffffffffffffffffffffffffffff168152602001908152602001600020541015611878576040517f08c379a000000000000000000000000000000000000000000000000000000000815260040161186f906127cc565b60405180910390fd5b34600760003373ffffffffffffffffffffffffffffffffffffffff1673ffffffffffffffffffffffffffffffffffffffff168152602001908152602001600020819055507f2e0c7c0c884d7be5e05e90478e8e5e8e89b7fccac8131a5107aa200f79203f253334600354426040516118f39493929190612728565b60405180910390a16003600081548092919061190e90612ab6565b919050555050565b6000805b6001805490508110156119b5573373ffffffffffffffffffffffffffffffffffffffff166001828154811061195257611951612b5d565b5b9060005260206000200160009054906101000a900473ffffffffffffffffffffffffffffffffffffffff1673ffffffffffffffffffffffffffffffffffffffff1614156119a257600191506119b5565b80806119ad90612ab6565b91505061191a565b5060011515811515146119fd576040517f08c379a00000000000000000000000000000000000000000000000000000000081526004016119f4906128cc565b60405180910390fd5b60008060005b600a80549050811015611a675784600a8281548110611a2557611a24612b5d565b5b9060005260206000209060060201600301541415611a465760019250611a67565b8180611a5190612ab6565b9250508080611a5f90612ab6565b915050611a03565b5081611aa8576040517f08c379a0000000000000000000000000000000000000000000000000000000008152600401611a9f9061286c565b60405180910390fd5b60001515600860003373ffffffffffffffffffffffffffffffffffffffff1673ffffffffffffffffffffffffffffffffffffffff168152602001908152602001600020600086815260200190815260200160002060009054906101000a900460ff16151514611b4c576040517f08c379a0000000000000000000000000000000000000000000000000000000008152600401611b439061280c565b60405180910390fd5b3373ffffffffffffffffffffffffffffffffffffffff16600a8281548110611b7757611b76612b5d565b5b906000526020600020906006020160000160009054906101000a900473ffffffffffffffffffffffffffffffffffffffff1673ffffffffffffffffffffffffffffffffffffffff161415611bca57600080fd5b6001600860003373ffffffffffffffffffffffffffffffffffffffff1673ffffffffffffffffffffffffffffffffffffffff168152602001908152602001600020600086815260200190815260200160002060006101000a81548160ff021916908315150217905550600a8181548110611c4757611c46612b5d565b5b90600052602060002090600602016004016000815480929190611c6990612ab6565b91905055507fef752aa31d5fb48a280f9de059968813bb02bd5685abdc4bcad829a70525a41933600a8381548110611ca457611ca3612b5d565b5b906000526020600020906006020160010160009054906101000a900473ffffffffffffffffffffffffffffffffffffffff16600a8481548110611cea57611ce9612b5d565b5b906000526020600020906006020160020154600a8581548110611d1057611d0f612b5d565b5b906000526020600020906006020160030154600a8681548110611d3657611d35612b5d565b5b906000526020600020906006020160040154600a8781548110611d5c57611d5b612b5d565b5b906000526020600020906006020160050154604051611d8096959493929190612690565b60405180910390a1600254600a8281548110611d9f57611d9e612b5d565b5b9060005260206000209060060201600401541415611dc157611dc081611dc7565b5b50505050565b600a8181548110611ddb57611dda612b5d565b5b90600052602060002090600602016002015460076000600a8481548110611e0557611e04612b5d565b5b906000526020600020906006020160010160009054906101000a900473ffffffffffffffffffffffffffffffffffffffff1673ffffffffffffffffffffffffffffffffffffffff1673ffffffffffffffffffffffffffffffffffffffff1681526020019081526020016000206000828254611e80919061298a565b92505081905550600a8181548110611e9b57611e9a612b5d565b5b906000526020600020906006020160010160009054906101000a900473ffffffffffffffffffffffffffffffffffffffff1673ffffffffffffffffffffffffffffffffffffffff166108fc600a8381548110611efa57611ef9612b5d565b5b9060005260206000209060060201600201549081150290604051600060405180830381858888f19350505050158015611f37573d6000803e3d6000fd5b507f43fb677394050c8f05d75aa529267f5152e1ee4fc70f26c77d3b9a8e03ca17fb33600a8381548110611f6e57611f6d612b5d565b5b906000526020600020906006020160010160009054906101000a900473ffffffffffffffffffffffffffffffffffffffff16600a8481548110611fb457611fb3612b5d565b5b906000526020600020906006020160020154600a8581548110611fda57611fd9612b5d565b5b906000526020600020906006020160030154600a868154811061200057611fff612b5d565b5b906000526020600020906006020160040154600a878154811061202657612025612b5d565b5b90600052602060002090600602016005015460405161204a96959493929190612690565b60405180910390a1600a6001600a8054905061206691906129e0565b8154811061207757612076612b5d565b5b9060005260206000209060060201600a828154811061209957612098612b5d565b5b90600052602060002090600602016000820160009054906101000a900473ffffffffffffffffffffffffffffffffffffffff168160000160006101000a81548173ffffffffffffffffffffffffffffffffffffffff021916908373ffffffffffffffffffffffffffffffffffffffff1602179055506001820160009054906101000a900473ffffffffffffffffffffffffffffffffffffffff168160010160006101000a81548173ffffffffffffffffffffffffffffffffffffffff021916908373ffffffffffffffffffffffffffffffffffffffff16021790555060028201548160020155600382015481600301556004820154816004015560058201548160050155905050600a8054806121b2576121b1612b2e565b5b6001900381819060005260206000209060060201600080820160006101000a81549073ffffffffffffffffffffffffffffffffffffffff02191690556001820160006101000a81549073ffffffffffffffffffffffffffffffffffffffff021916905560028201600090556003820160009055600482016000905560058201600090555050905550565b60008135905061224b81612dc0565b92915050565b60008135905061226081612dd7565b92915050565b60008135905061227581612dee565b92915050565b60006020828403121561229157612290612b8c565b5b600061229f8482850161223c565b91505092915050565b600080604083850312156122bf576122be612b8c565b5b60006122cd85828601612251565b92505060206122de85828601612266565b9150509250929050565b6000602082840312156122fe576122fd612b8c565b5b600061230c84828501612266565b91505092915050565b60006123218383612363565b60208301905092915050565b60006123398383612596565b60c08301905092915050565b61234e81612a6e565b82525050565b61235d81612a26565b82525050565b61236c81612a14565b82525050565b61237b81612a14565b82525050565b600061238c82612927565b6123968185612957565b93506123a183612907565b8060005b838110156123d25781516123b98882612315565b97506123c48361293d565b9250506001810190506123a5565b5085935050505092915050565b60006123ea82612932565b6123f48185612968565b93506123ff83612917565b8060005b83811015612430578151612417888261232d565b97506124228361294a565b925050600181019050612403565b5085935050505092915050565b61244681612a38565b82525050565b61245581612a80565b82525050565b6000612468601c83612979565b915061247382612b91565b602082019050919050565b600061248b602683612979565b915061249682612bba565b604082019050919050565b60006124ae602683612979565b91506124b982612c09565b604082019050919050565b60006124d1601983612979565b91506124dc82612c58565b602082019050919050565b60006124f4601b83612979565b91506124ff82612c81565b602082019050919050565b6000612517602483612979565b915061252282612caa565b604082019050919050565b600061253a602883612979565b915061254582612cf9565b604082019050919050565b600061255d601f83612979565b915061256882612d48565b602082019050919050565b6000612580602983612979565b915061258b82612d71565b604082019050919050565b60c0820160008201516125ac6000850182612363565b5060208201516125bf6020850182612354565b5060408201516125d26040850182612611565b5060608201516125e56060850182612611565b5060808201516125f86080850182612611565b5060a082015161260b60a0850182612611565b50505050565b61261a81612a64565b82525050565b61262981612a64565b82525050565b600060c0820190506126446000830189612372565b6126516020830188612345565b61265e6040830187612620565b61266b6060830186612620565b612678608083018561244c565b61268560a0830184612620565b979650505050505050565b600060c0820190506126a56000830189612372565b6126b26020830188612345565b6126bf6040830187612620565b6126cc6060830186612620565b6126d96080830185612620565b6126e660a0830184612620565b979650505050505050565b60006060820190506127066000830186612372565b6127136020830185612372565b6127206040830184612620565b949350505050565b600060808201905061273d6000830187612372565b61274a6020830186612620565b6127576040830185612620565b6127646060830184612620565b95945050505050565b600060208201905081810360008301526127878184612381565b905092915050565b600060208201905081810360008301526127a981846123df565b905092915050565b60006020820190506127c6600083018461243d565b92915050565b600060208201905081810360008301526127e58161245b565b9050919050565b600060208201905081810360008301526128058161247e565b9050919050565b60006020820190508181036000830152612825816124a1565b9050919050565b60006020820190508181036000830152612845816124c4565b9050919050565b60006020820190508181036000830152612865816124e7565b9050919050565b600060208201905081810360008301526128858161250a565b9050919050565b600060208201905081810360008301526128a58161252d565b9050919050565b600060208201905081810360008301526128c581612550565b9050919050565b600060208201905081810360008301526128e581612573565b9050919050565b60006020820190506129016000830184612620565b92915050565b6000819050602082019050919050565b6000819050602082019050919050565b600081519050919050565b600081519050919050565b6000602082019050919050565b6000602082019050919050565b600082825260208201905092915050565b600082825260208201905092915050565b600082825260208201905092915050565b600061299582612a64565b91506129a083612a64565b9250827fffffffffffffffffffffffffffffffffffffffffffffffffffffffffffffffff038211156129d5576129d4612aff565b5b828201905092915050565b60006129eb82612a64565b91506129f683612a64565b925082821015612a0957612a08612aff565b5b828203905092915050565b6000612a1f82612a44565b9050919050565b6000612a3182612a44565b9050919050565b60008115159050919050565b600073ffffffffffffffffffffffffffffffffffffffff82169050919050565b6000819050919050565b6000612a7982612a92565b9050919050565b6000612a8b82612a64565b9050919050565b6000612a9d82612aa4565b9050919050565b6000612aaf82612a44565b9050919050565b6000612ac182612a64565b91507fffffffffffffffffffffffffffffffffffffffffffffffffffffffffffffffff821415612af457612af3612aff565b5b600182019050919050565b7f4e487b7100000000000000000000000000000000000000000000000000000000600052601160045260246000fd5b7f4e487b7100000000000000000000000000000000000000000000000000000000600052603160045260246000fd5b7f4e487b7100000000000000000000000000000000000000000000000000000000600052603260045260246000fd5b600080fd5b7f63616e6e6f74206465706f7369697420612063616c7565206f66203000000000600082015250565b7f696e737566666963656e742066756e647320746f20637265617465206120747260008201527f616e736665720000000000000000000000000000000000000000000000000000602082015250565b7f63616e6e6f7420617070726f7665207468652073616d65207472616e7366657260008201527f2074776963650000000000000000000000000000000000000000000000000000602082015250565b7f77616c6c6574206f776e6572206e6f7420646574656374656400000000000000600082015250565b7f63616e6e6f7420616464206475706c6963617465206f776e6572730000000000600082015250565b7f6f6e6c7920746865207472616e736665722063726561746f722063616e20636160008201527f6e63656c00000000000000000000000000000000000000000000000000000000602082015250565b7f63616e6e6f74207472616e736665722066756e6473207769746869776e20746860008201527f652077616c6c6574000000000000000000000000000000000000000000000000602082015250565b7f7472616e73666572207265717565737420646f6573206e6f7420657869737400600082015250565b7f6f6e6c792077616c6c6574206f776e6572732063616e2063616c6c207468697360008201527f2066756e6374696f6e0000000000000000000000000000000000000000000000602082015250565b612dc981612a14565b8114612dd457600080fd5b50565b612de081612a26565b8114612deb57600080fd5b50565b612df781612a64565b8114612e0257600080fd5b5056fea2646970667358221220e6ea6880de190f7bea2e4d0b63b92681728dc8d7d7a8253a6343c74bcb97166b64736f6c63430008070033",
					"opcodes": "PUSH1 0x80 PUSH1 0x40 MSTORE PUSH1 0x0 PUSH1 0x3 SSTORE PUSH1 0x0 PUSH1 0x4 SSTORE PUSH1 0x0 PUSH1 0x5 SSTORE CALLVALUE DUP1 ISZERO PUSH3 0x20 JUMPI PUSH1 0x0 DUP1 REVERT JUMPDEST POP CALLER PUSH1 0x0 DUP1 PUSH2 0x100 EXP DUP2 SLOAD DUP2 PUSH20 0xFFFFFFFFFFFFFFFFFFFFFFFFFFFFFFFFFFFFFFFF MUL NOT AND SWAP1 DUP4 PUSH20 0xFFFFFFFFFFFFFFFFFFFFFFFFFFFFFFFFFFFFFFFF AND MUL OR SWAP1 SSTORE POP PUSH1 0x1 PUSH1 0x0 DUP1 SLOAD SWAP1 PUSH2 0x100 EXP SWAP1 DIV PUSH20 0xFFFFFFFFFFFFFFFFFFFFFFFFFFFFFFFFFFFFFFFF AND SWAP1 DUP1 PUSH1 0x1 DUP2 SLOAD ADD DUP1 DUP3 SSTORE DUP1 SWAP2 POP POP PUSH1 0x1 SWAP1 SUB SWAP1 PUSH1 0x0 MSTORE PUSH1 0x20 PUSH1 0x0 KECCAK256 ADD PUSH1 0x0 SWAP1 SWAP2 SWAP1 SWAP2 SWAP1 SWAP2 PUSH2 0x100 EXP DUP2 SLOAD DUP2 PUSH20 0xFFFFFFFFFFFFFFFFFFFFFFFFFFFFFFFFFFFFFFFF MUL NOT AND SWAP1 DUP4 PUSH20 0xFFFFFFFFFFFFFFFFFFFFFFFFFFFFFFFFFFFFFFFF AND MUL OR SWAP1 SSTORE POP PUSH1 0x1 DUP1 DUP1 SLOAD SWAP1 POP PUSH3 0xF7 SWAP2 SWAP1 PUSH3 0x223 JUMP JUMPDEST PUSH1 0x2 DUP2 SWAP1 SSTORE POP PUSH1 0x6 DUP1 PUSH1 0x1 DUP2 SLOAD ADD DUP1 DUP3 SSTORE DUP1 SWAP2 POP POP PUSH1 0x1 SWAP1 SUB SWAP1 PUSH1 0x0 MSTORE PUSH1 0x20 PUSH1 0x0 KECCAK256 ADD PUSH1 0x0 PUSH1 0x40 MLOAD DUP1 PUSH1 0x40 ADD PUSH1 0x40 MSTORE DUP1 PUSH1 0x3 DUP2 MSTORE PUSH1 0x20 ADD PUSH32 0x4554480000000000000000000000000000000000000000000000000000000000 DUP2 MSTORE POP SWAP1 SWAP2 SWAP1 SWAP2 POP SWAP1 DUP1 MLOAD SWAP1 PUSH1 0x20 ADD SWAP1 PUSH3 0x16C SWAP3 SWAP2 SWAP1 PUSH3 0x173 JUMP JUMPDEST POP PUSH3 0x2FC JUMP JUMPDEST DUP3 DUP1 SLOAD PUSH3 0x181 SWAP1 PUSH3 0x268 JUMP JUMPDEST SWAP1 PUSH1 0x0 MSTORE PUSH1 0x20 PUSH1 0x0 KECCAK256 SWAP1 PUSH1 0x1F ADD PUSH1 0x20 SWAP1 DIV DUP2 ADD SWAP3 DUP3 PUSH3 0x1A5 JUMPI PUSH1 0x0 DUP6 SSTORE PUSH3 0x1F1 JUMP JUMPDEST DUP3 PUSH1 0x1F LT PUSH3 0x1C0 JUMPI DUP1 MLOAD PUSH1 0xFF NOT AND DUP4 DUP1 ADD OR DUP6 SSTORE PUSH3 0x1F1 JUMP JUMPDEST DUP3 DUP1 ADD PUSH1 0x1 ADD DUP6 SSTORE DUP3 ISZERO PUSH3 0x1F1 JUMPI SWAP2 DUP3 ADD JUMPDEST DUP3 DUP2 GT ISZERO PUSH3 0x1F0 JUMPI DUP3 MLOAD DUP3 SSTORE SWAP2 PUSH1 0x20 ADD SWAP2 SWAP1 PUSH1 0x1 ADD SWAP1 PUSH3 0x1D3 JUMP JUMPDEST JUMPDEST POP SWAP1 POP PUSH3 0x200 SWAP2 SWAP1 PUSH3 0x204 JUMP JUMPDEST POP SWAP1 JUMP JUMPDEST JUMPDEST DUP1 DUP3 GT ISZERO PUSH3 0x21F JUMPI PUSH1 0x0 DUP2 PUSH1 0x0 SWAP1 SSTORE POP PUSH1 0x1 ADD PUSH3 0x205 JUMP JUMPDEST POP SWAP1 JUMP JUMPDEST PUSH1 0x0 PUSH3 0x230 DUP3 PUSH3 0x25E JUMP JUMPDEST SWAP2 POP PUSH3 0x23D DUP4 PUSH3 0x25E JUMP JUMPDEST SWAP3 POP DUP3 DUP3 LT ISZERO PUSH3 0x253 JUMPI PUSH3 0x252 PUSH3 0x29E JUMP JUMPDEST JUMPDEST DUP3 DUP3 SUB SWAP1 POP SWAP3 SWAP2 POP POP JUMP JUMPDEST PUSH1 0x0 DUP2 SWAP1 POP SWAP2 SWAP1 POP JUMP JUMPDEST PUSH1 0x0 PUSH1 0x2 DUP3 DIV SWAP1 POP PUSH1 0x1 DUP3 AND DUP1 PUSH3 0x281 JUMPI PUSH1 0x7F DUP3 AND SWAP2 POP JUMPDEST PUSH1 0x20 DUP3 LT DUP2 EQ ISZERO PUSH3 0x298 JUMPI PUSH3 0x297 PUSH3 0x2CD JUMP JUMPDEST JUMPDEST POP SWAP2 SWAP1 POP JUMP JUMPDEST PUSH32 0x4E487B7100000000000000000000000000000000000000000000000000000000 PUSH1 0x0 MSTORE PUSH1 0x11 PUSH1 0x4 MSTORE PUSH1 0x24 PUSH1 0x0 REVERT JUMPDEST PUSH32 0x4E487B7100000000000000000000000000000000000000000000000000000000 PUSH1 0x0 MSTORE PUSH1 0x22 PUSH1 0x4 MSTORE PUSH1 0x24 PUSH1 0x0 REVERT JUMPDEST PUSH2 0x2E3B DUP1 PUSH3 0x30C PUSH1 0x0 CODECOPY PUSH1 0x0 RETURN INVALID PUSH1 0x80 PUSH1 0x40 MSTORE PUSH1 0x4 CALLDATASIZE LT PUSH2 0xC2 JUMPI PUSH1 0x0 CALLDATALOAD PUSH1 0xE0 SHR DUP1 PUSH4 0x93DFBD9E GT PUSH2 0x7F JUMPI DUP1 PUSH4 0xAABDC71A GT PUSH2 0x59 JUMPI DUP1 PUSH4 0xAABDC71A EQ PUSH2 0x254 JUMPI DUP1 PUSH4 0xCE993C77 EQ PUSH2 0x27D JUMPI DUP1 PUSH4 0xD0E30DB0 EQ PUSH2 0x2A8 JUMPI DUP1 PUSH4 0xDEC3EEA5 EQ PUSH2 0x2B2 JUMPI PUSH2 0xC2 JUMP JUMPDEST DUP1 PUSH4 0x93DFBD9E EQ PUSH2 0x1C3 JUMPI DUP1 PUSH4 0xA04EF145 EQ PUSH2 0x1EC JUMPI DUP1 PUSH4 0xA4E360C8 EQ PUSH2 0x217 JUMPI PUSH2 0xC2 JUMP JUMPDEST DUP1 PUSH4 0x12065FE0 EQ PUSH2 0xC7 JUMPI DUP1 PUSH4 0x2E1A7D4D EQ PUSH2 0xF2 JUMPI DUP1 PUSH4 0x3CC61EA7 EQ PUSH2 0x11B JUMPI DUP1 PUSH4 0x5F89AACB EQ PUSH2 0x144 JUMPI DUP1 PUSH4 0x6F9FB98A EQ PUSH2 0x16D JUMPI DUP1 PUSH4 0x7278A1FA EQ PUSH2 0x198 JUMPI JUMPDEST PUSH1 0x0 DUP1 REVERT JUMPDEST CALLVALUE DUP1 ISZERO PUSH2 0xD3 JUMPI PUSH1 0x0 DUP1 REVERT JUMPDEST POP PUSH2 0xDC PUSH2 0x2DB JUMP JUMPDEST PUSH1 0x40 MLOAD PUSH2 0xE9 SWAP2 SWAP1 PUSH2 0x28EC JUMP JUMPDEST PUSH1 0x40 MLOAD DUP1 SWAP2 SUB SWAP1 RETURN JUMPDEST CALLVALUE DUP1 ISZERO PUSH2 0xFE JUMPI PUSH1 0x0 DUP1 REVERT JUMPDEST POP PUSH2 0x119 PUSH1 0x4 DUP1 CALLDATASIZE SUB DUP2 ADD SWAP1 PUSH2 0x114 SWAP2 SWAP1 PUSH2 0x22E8 JUMP JUMPDEST PUSH2 0x322 JUMP JUMPDEST STOP JUMPDEST CALLVALUE DUP1 ISZERO PUSH2 0x127 JUMPI PUSH1 0x0 DUP1 REVERT JUMPDEST POP PUSH2 0x142 PUSH1 0x4 DUP1 CALLDATASIZE SUB DUP2 ADD SWAP1 PUSH2 0x13D SWAP2 SWAP1 PUSH2 0x22A8 JUMP JUMPDEST PUSH2 0x54D JUMP JUMPDEST STOP JUMPDEST CALLVALUE DUP1 ISZERO PUSH2 0x150 JUMPI PUSH1 0x0 DUP1 REVERT JUMPDEST POP PUSH2 0x16B PUSH1 0x4 DUP1 CALLDATASIZE SUB DUP2 ADD SWAP1 PUSH2 0x166 SWAP2 SWAP1 PUSH2 0x22E8 JUMP JUMPDEST PUSH2 0x97D JUMP JUMPDEST STOP JUMPDEST CALLVALUE DUP1 ISZERO PUSH2 0x179 JUMPI PUSH1 0x0 DUP1 REVERT JUMPDEST POP PUSH2 0x182 PUSH2 0xF44 JUMP JUMPDEST PUSH1 0x40 MLOAD PUSH2 0x18F SWAP2 SWAP1 PUSH2 0x28EC JUMP JUMPDEST PUSH1 0x40 MLOAD DUP1 SWAP2 SUB SWAP1 RETURN JUMPDEST CALLVALUE DUP1 ISZERO PUSH2 0x1A4 JUMPI PUSH1 0x0 DUP1 REVERT JUMPDEST POP PUSH2 0x1AD PUSH2 0xF4C JUMP JUMPDEST PUSH1 0x40 MLOAD PUSH2 0x1BA SWAP2 SWAP1 PUSH2 0x28EC JUMP JUMPDEST PUSH1 0x40 MLOAD DUP1 SWAP2 SUB SWAP1 RETURN JUMPDEST CALLVALUE DUP1 ISZERO PUSH2 0x1CF JUMPI PUSH1 0x0 DUP1 REVERT JUMPDEST POP PUSH2 0x1EA PUSH1 0x4 DUP1 CALLDATASIZE SUB DUP2 ADD SWAP1 PUSH2 0x1E5 SWAP2 SWAP1 PUSH2 0x227B JUMP JUMPDEST PUSH2 0xF56 JUMP JUMPDEST STOP JUMPDEST CALLVALUE DUP1 ISZERO PUSH2 0x1F8 JUMPI PUSH1 0x0 DUP1 REVERT JUMPDEST POP PUSH2 0x201 PUSH2 0x11C7 JUMP JUMPDEST PUSH1 0x40 MLOAD PUSH2 0x20E SWAP2 SWAP1 PUSH2 0x278F JUMP JUMPDEST PUSH1 0x40 MLOAD DUP1 SWAP2 SUB SWAP1 RETURN JUMPDEST CALLVALUE DUP1 ISZERO PUSH2 0x223 JUMPI PUSH1 0x0 DUP1 REVERT JUMPDEST POP PUSH2 0x23E PUSH1 0x4 DUP1 CALLDATASIZE SUB DUP2 ADD SWAP1 PUSH2 0x239 SWAP2 SWAP1 PUSH2 0x22E8 JUMP JUMPDEST PUSH2 0x12FA JUMP JUMPDEST PUSH1 0x40 MLOAD PUSH2 0x24B SWAP2 SWAP1 PUSH2 0x27B1 JUMP JUMPDEST PUSH1 0x40 MLOAD DUP1 SWAP2 SUB SWAP1 RETURN JUMPDEST CALLVALUE DUP1 ISZERO PUSH2 0x260 JUMPI PUSH1 0x0 DUP1 REVERT JUMPDEST POP PUSH2 0x27B PUSH1 0x4 DUP1 CALLDATASIZE SUB DUP2 ADD SWAP1 PUSH2 0x276 SWAP2 SWAP1 PUSH2 0x227B JUMP JUMPDEST PUSH2 0x1361 JUMP JUMPDEST STOP JUMPDEST CALLVALUE DUP1 ISZERO PUSH2 0x289 JUMPI PUSH1 0x0 DUP1 REVERT JUMPDEST POP PUSH2 0x292 PUSH2 0x1680 JUMP JUMPDEST PUSH1 0x40 MLOAD PUSH2 0x29F SWAP2 SWAP1 PUSH2 0x276D JUMP JUMPDEST PUSH1 0x40 MLOAD DUP1 SWAP2 SUB SWAP1 RETURN JUMPDEST PUSH2 0x2B0 PUSH2 0x170E JUMP JUMPDEST STOP JUMPDEST CALLVALUE DUP1 ISZERO PUSH2 0x2BE JUMPI PUSH1 0x0 DUP1 REVERT JUMPDEST POP PUSH2 0x2D9 PUSH1 0x4 DUP1 CALLDATASIZE SUB DUP2 ADD SWAP1 PUSH2 0x2D4 SWAP2 SWAP1 PUSH2 0x22E8 JUMP JUMPDEST PUSH2 0x1916 JUMP JUMPDEST STOP JUMPDEST PUSH1 0x0 PUSH1 0x7 PUSH1 0x0 CALLER PUSH20 0xFFFFFFFFFFFFFFFFFFFFFFFFFFFFFFFFFFFFFFFF AND PUSH20 0xFFFFFFFFFFFFFFFFFFFFFFFFFFFFFFFFFFFFFFFF AND DUP2 MSTORE PUSH1 0x20 ADD SWAP1 DUP2 MSTORE PUSH1 0x20 ADD PUSH1 0x0 KECCAK256 SLOAD SWAP1 POP SWAP1 JUMP JUMPDEST PUSH1 0x0 DUP1 JUMPDEST PUSH1 0x1 DUP1 SLOAD SWAP1 POP DUP2 LT ISZERO PUSH2 0x3C1 JUMPI CALLER PUSH20 0xFFFFFFFFFFFFFFFFFFFFFFFFFFFFFFFFFFFFFFFF AND PUSH1 0x1 DUP3 DUP2 SLOAD DUP2 LT PUSH2 0x35E JUMPI PUSH2 0x35D PUSH2 0x2B5D JUMP JUMPDEST JUMPDEST SWAP1 PUSH1 0x0 MSTORE PUSH1 0x20 PUSH1 0x0 KECCAK256 ADD PUSH1 0x0 SWAP1 SLOAD SWAP1 PUSH2 0x100 EXP SWAP1 DIV PUSH20 0xFFFFFFFFFFFFFFFFFFFFFFFFFFFFFFFFFFFFFFFF AND PUSH20 0xFFFFFFFFFFFFFFFFFFFFFFFFFFFFFFFFFFFFFFFF AND EQ ISZERO PUSH2 0x3AE JUMPI PUSH1 0x1 SWAP2 POP PUSH2 0x3C1 JUMP JUMPDEST DUP1 DUP1 PUSH2 0x3B9 SWAP1 PUSH2 0x2AB6 JUMP JUMPDEST SWAP2 POP POP PUSH2 0x326 JUMP JUMPDEST POP PUSH1 0x1 ISZERO ISZERO DUP2 ISZERO ISZERO EQ PUSH2 0x409 JUMPI PUSH1 0x40 MLOAD PUSH32 0x8C379A000000000000000000000000000000000000000000000000000000000 DUP2 MSTORE PUSH1 0x4 ADD PUSH2 0x400 SWAP1 PUSH2 0x28CC JUMP JUMPDEST PUSH1 0x40 MLOAD DUP1 SWAP2 SUB SWAP1 REVERT JUMPDEST DUP2 PUSH1 0x7 PUSH1 0x0 CALLER PUSH20 0xFFFFFFFFFFFFFFFFFFFFFFFFFFFFFFFFFFFFFFFF AND PUSH20 0xFFFFFFFFFFFFFFFFFFFFFFFFFFFFFFFFFFFFFFFF AND DUP2 MSTORE PUSH1 0x20 ADD SWAP1 DUP2 MSTORE PUSH1 0x20 ADD PUSH1 0x0 KECCAK256 SLOAD LT ISZERO PUSH2 0x455 JUMPI PUSH1 0x0 DUP1 REVERT JUMPDEST DUP2 PUSH1 0x7 PUSH1 0x0 CALLER PUSH20 0xFFFFFFFFFFFFFFFFFFFFFFFFFFFFFFFFFFFFFFFF AND PUSH20 0xFFFFFFFFFFFFFFFFFFFFFFFFFFFFFFFFFFFFFFFF AND DUP2 MSTORE PUSH1 0x20 ADD SWAP1 DUP2 MSTORE PUSH1 0x20 ADD PUSH1 0x0 KECCAK256 PUSH1 0x0 DUP3 DUP3 SLOAD PUSH2 0x4A4 SWAP2 SWAP1 PUSH2 0x29E0 JUMP JUMPDEST SWAP3 POP POP DUP2 SWAP1 SSTORE POP CALLER PUSH20 0xFFFFFFFFFFFFFFFFFFFFFFFFFFFFFFFFFFFFFFFF AND PUSH2 0x8FC DUP4 SWAP1 DUP2 ISZERO MUL SWAP1 PUSH1 0x40 MLOAD PUSH1 0x0 PUSH1 0x40 MLOAD DUP1 DUP4 SUB DUP2 DUP6 DUP9 DUP9 CALL SWAP4 POP POP POP POP ISZERO DUP1 ISZERO PUSH2 0x4F1 JUMPI RETURNDATASIZE PUSH1 0x0 DUP1 RETURNDATACOPY RETURNDATASIZE PUSH1 0x0 REVERT JUMPDEST POP PUSH32 0x911E5A424CDA0AA25334A5BC6C8794ECAFEE939FAA8AA2766DE433541FDD840B CALLER DUP4 PUSH1 0x4 SLOAD TIMESTAMP PUSH1 0x40 MLOAD PUSH2 0x529 SWAP5 SWAP4 SWAP3 SWAP2 SWAP1 PUSH2 0x2728 JUMP JUMPDEST PUSH1 0x40 MLOAD DUP1 SWAP2 SUB SWAP1 LOG1 PUSH1 0x4 PUSH1 0x0 DUP2 SLOAD DUP1 SWAP3 SWAP2 SWAP1 PUSH2 0x544 SWAP1 PUSH2 0x2AB6 JUMP JUMPDEST SWAP2 SWAP1 POP SSTORE POP POP POP JUMP JUMPDEST PUSH1 0x0 DUP1 JUMPDEST PUSH1 0x1 DUP1 SLOAD SWAP1 POP DUP2 LT ISZERO PUSH2 0x5EC JUMPI CALLER PUSH20 0xFFFFFFFFFFFFFFFFFFFFFFFFFFFFFFFFFFFFFFFF AND PUSH1 0x1 DUP3 DUP2 SLOAD DUP2 LT PUSH2 0x589 JUMPI PUSH2 0x588 PUSH2 0x2B5D JUMP JUMPDEST JUMPDEST SWAP1 PUSH1 0x0 MSTORE PUSH1 0x20 PUSH1 0x0 KECCAK256 ADD PUSH1 0x0 SWAP1 SLOAD SWAP1 PUSH2 0x100 EXP SWAP1 DIV PUSH20 0xFFFFFFFFFFFFFFFFFFFFFFFFFFFFFFFFFFFFFFFF AND PUSH20 0xFFFFFFFFFFFFFFFFFFFFFFFFFFFFFFFFFFFFFFFF AND EQ ISZERO PUSH2 0x5D9 JUMPI PUSH1 0x1 SWAP2 POP PUSH2 0x5EC JUMP JUMPDEST DUP1 DUP1 PUSH2 0x5E4 SWAP1 PUSH2 0x2AB6 JUMP JUMPDEST SWAP2 POP POP PUSH2 0x551 JUMP JUMPDEST POP PUSH1 0x1 ISZERO ISZERO DUP2 ISZERO ISZERO EQ PUSH2 0x634 JUMPI PUSH1 0x40 MLOAD PUSH32 0x8C379A000000000000000000000000000000000000000000000000000000000 DUP2 MSTORE PUSH1 0x4 ADD PUSH2 0x62B SWAP1 PUSH2 0x28CC JUMP JUMPDEST PUSH1 0x40 MLOAD DUP1 SWAP2 SUB SWAP1 REVERT JUMPDEST DUP2 PUSH1 0x7 PUSH1 0x0 CALLER PUSH20 0xFFFFFFFFFFFFFFFFFFFFFFFFFFFFFFFFFFFFFFFF AND PUSH20 0xFFFFFFFFFFFFFFFFFFFFFFFFFFFFFFFFFFFFFFFF AND DUP2 MSTORE PUSH1 0x20 ADD SWAP1 DUP2 MSTORE PUSH1 0x20 ADD PUSH1 0x0 KECCAK256 SLOAD LT ISZERO PUSH2 0x6B6 JUMPI PUSH1 0x40 MLOAD PUSH32 0x8C379A000000000000000000000000000000000000000000000000000000000 DUP2 MSTORE PUSH1 0x4 ADD PUSH2 0x6AD SWAP1 PUSH2 0x27EC JUMP JUMPDEST PUSH1 0x40 MLOAD DUP1 SWAP2 SUB SWAP1 REVERT JUMPDEST PUSH1 0x0 JUMPDEST PUSH1 0x1 DUP1 SLOAD SWAP1 POP DUP2 LT ISZERO PUSH2 0x786 JUMPI DUP4 PUSH20 0xFFFFFFFFFFFFFFFFFFFFFFFFFFFFFFFFFFFFFFFF AND PUSH1 0x1 DUP3 DUP2 SLOAD DUP2 LT PUSH2 0x6F1 JUMPI PUSH2 0x6F0 PUSH2 0x2B5D JUMP JUMPDEST JUMPDEST SWAP1 PUSH1 0x0 MSTORE PUSH1 0x20 PUSH1 0x0 KECCAK256 ADD PUSH1 0x0 SWAP1 SLOAD SWAP1 PUSH2 0x100 EXP SWAP1 DIV PUSH20 0xFFFFFFFFFFFFFFFFFFFFFFFFFFFFFFFFFFFFFFFF AND PUSH20 0xFFFFFFFFFFFFFFFFFFFFFFFFFFFFFFFFFFFFFFFF AND EQ ISZERO PUSH2 0x773 JUMPI PUSH1 0x40 MLOAD PUSH32 0x8C379A000000000000000000000000000000000000000000000000000000000 DUP2 MSTORE PUSH1 0x4 ADD PUSH2 0x76A SWAP1 PUSH2 0x288C JUMP JUMPDEST PUSH1 0x40 MLOAD DUP1 SWAP2 SUB SWAP1 REVERT JUMPDEST DUP1 DUP1 PUSH2 0x77E SWAP1 PUSH2 0x2AB6 JUMP JUMPDEST SWAP2 POP POP PUSH2 0x6B9 JUMP JUMPDEST POP DUP2 PUSH1 0x7 PUSH1 0x0 CALLER PUSH20 0xFFFFFFFFFFFFFFFFFFFFFFFFFFFFFFFFFFFFFFFF AND PUSH20 0xFFFFFFFFFFFFFFFFFFFFFFFFFFFFFFFFFFFFFFFF AND DUP2 MSTORE PUSH1 0x20 ADD SWAP1 DUP2 MSTORE PUSH1 0x20 ADD PUSH1 0x0 KECCAK256 PUSH1 0x0 DUP3 DUP3 SLOAD PUSH2 0x7D6 SWAP2 SWAP1 PUSH2 0x29E0 JUMP JUMPDEST SWAP3 POP POP DUP2 SWAP1 SSTORE POP PUSH1 0xA PUSH1 0x40 MLOAD DUP1 PUSH1 0xC0 ADD PUSH1 0x40 MSTORE DUP1 CALLER PUSH20 0xFFFFFFFFFFFFFFFFFFFFFFFFFFFFFFFFFFFFFFFF AND DUP2 MSTORE PUSH1 0x20 ADD DUP6 PUSH20 0xFFFFFFFFFFFFFFFFFFFFFFFFFFFFFFFFFFFFFFFF AND DUP2 MSTORE PUSH1 0x20 ADD DUP5 DUP2 MSTORE PUSH1 0x20 ADD PUSH1 0x5 SLOAD DUP2 MSTORE PUSH1 0x20 ADD PUSH1 0x0 DUP2 MSTORE PUSH1 0x20 ADD TIMESTAMP DUP2 MSTORE POP SWAP1 DUP1 PUSH1 0x1 DUP2 SLOAD ADD DUP1 DUP3 SSTORE DUP1 SWAP2 POP POP PUSH1 0x1 SWAP1 SUB SWAP1 PUSH1 0x0 MSTORE PUSH1 0x20 PUSH1 0x0 KECCAK256 SWAP1 PUSH1 0x6 MUL ADD PUSH1 0x0 SWAP1 SWAP2 SWAP1 SWAP2 SWAP1 SWAP2 POP PUSH1 0x0 DUP3 ADD MLOAD DUP2 PUSH1 0x0 ADD PUSH1 0x0 PUSH2 0x100 EXP DUP2 SLOAD DUP2 PUSH20 0xFFFFFFFFFFFFFFFFFFFFFFFFFFFFFFFFFFFFFFFF MUL NOT AND SWAP1 DUP4 PUSH20 0xFFFFFFFFFFFFFFFFFFFFFFFFFFFFFFFFFFFFFFFF AND MUL OR SWAP1 SSTORE POP PUSH1 0x20 DUP3 ADD MLOAD DUP2 PUSH1 0x1 ADD PUSH1 0x0 PUSH2 0x100 EXP DUP2 SLOAD DUP2 PUSH20 0xFFFFFFFFFFFFFFFFFFFFFFFFFFFFFFFFFFFFFFFF MUL NOT AND SWAP1 DUP4 PUSH20 0xFFFFFFFFFFFFFFFFFFFFFFFFFFFFFFFFFFFFFFFF AND MUL OR SWAP1 SSTORE POP PUSH1 0x40 DUP3 ADD MLOAD DUP2 PUSH1 0x2 ADD SSTORE PUSH1 0x60 DUP3 ADD MLOAD DUP2 PUSH1 0x3 ADD SSTORE PUSH1 0x80 DUP3 ADD MLOAD DUP2 PUSH1 0x4 ADD SSTORE PUSH1 0xA0 DUP3 ADD MLOAD DUP2 PUSH1 0x5 ADD SSTORE POP POP PUSH1 0x5 PUSH1 0x0 DUP2 SLOAD DUP1 SWAP3 SWAP2 SWAP1 PUSH2 0x92F SWAP1 PUSH2 0x2AB6 JUMP JUMPDEST SWAP2 SWAP1 POP SSTORE POP PUSH32 0x218D714C553080ABB0DBC7FC5F603D19D591D24C58A81C89983579C96B55A3DE CALLER DUP5 DUP5 PUSH1 0x5 SLOAD PUSH1 0x0 TIMESTAMP PUSH1 0x40 MLOAD PUSH2 0x970 SWAP7 SWAP6 SWAP5 SWAP4 SWAP3 SWAP2 SWAP1 PUSH2 0x262F JUMP JUMPDEST PUSH1 0x40 MLOAD DUP1 SWAP2 SUB SWAP1 LOG1 POP POP POP JUMP JUMPDEST PUSH1 0x0 DUP1 JUMPDEST PUSH1 0x1 DUP1 SLOAD SWAP1 POP DUP2 LT ISZERO PUSH2 0xA1C JUMPI CALLER PUSH20 0xFFFFFFFFFFFFFFFFFFFFFFFFFFFFFFFFFFFFFFFF AND PUSH1 0x1 DUP3 DUP2 SLOAD DUP2 LT PUSH2 0x9B9 JUMPI PUSH2 0x9B8 PUSH2 0x2B5D JUMP JUMPDEST JUMPDEST SWAP1 PUSH1 0x0 MSTORE PUSH1 0x20 PUSH1 0x0 KECCAK256 ADD PUSH1 0x0 SWAP1 SLOAD SWAP1 PUSH2 0x100 EXP SWAP1 DIV PUSH20 0xFFFFFFFFFFFFFFFFFFFFFFFFFFFFFFFFFFFFFFFF AND PUSH20 0xFFFFFFFFFFFFFFFFFFFFFFFFFFFFFFFFFFFFFFFF AND EQ ISZERO PUSH2 0xA09 JUMPI PUSH1 0x1 SWAP2 POP PUSH2 0xA1C JUMP JUMPDEST DUP1 DUP1 PUSH2 0xA14 SWAP1 PUSH2 0x2AB6 JUMP JUMPDEST SWAP2 POP POP PUSH2 0x981 JUMP JUMPDEST POP PUSH1 0x1 ISZERO ISZERO DUP2 ISZERO ISZERO EQ PUSH2 0xA64 JUMPI PUSH1 0x40 MLOAD PUSH32 0x8C379A000000000000000000000000000000000000000000000000000000000 DUP2 MSTORE PUSH1 0x4 ADD PUSH2 0xA5B SWAP1 PUSH2 0x28CC JUMP JUMPDEST PUSH1 0x40 MLOAD DUP1 SWAP2 SUB SWAP1 REVERT JUMPDEST PUSH1 0x0 DUP1 PUSH1 0x0 JUMPDEST PUSH1 0xA DUP1 SLOAD SWAP1 POP DUP2 LT ISZERO PUSH2 0xACE JUMPI DUP5 PUSH1 0xA DUP3 DUP2 SLOAD DUP2 LT PUSH2 0xA8C JUMPI PUSH2 0xA8B PUSH2 0x2B5D JUMP JUMPDEST JUMPDEST SWAP1 PUSH1 0x0 MSTORE PUSH1 0x20 PUSH1 0x0 KECCAK256 SWAP1 PUSH1 0x6 MUL ADD PUSH1 0x3 ADD SLOAD EQ ISZERO PUSH2 0xAAD JUMPI PUSH1 0x1 SWAP3 POP PUSH2 0xACE JUMP JUMPDEST DUP2 DUP1 PUSH2 0xAB8 SWAP1 PUSH2 0x2AB6 JUMP JUMPDEST SWAP3 POP POP DUP1 DUP1 PUSH2 0xAC6 SWAP1 PUSH2 0x2AB6 JUMP JUMPDEST SWAP2 POP POP PUSH2 0xA6A JUMP JUMPDEST POP CALLER PUSH20 0xFFFFFFFFFFFFFFFFFFFFFFFFFFFFFFFFFFFFFFFF AND PUSH1 0xA DUP3 DUP2 SLOAD DUP2 LT PUSH2 0xAFA JUMPI PUSH2 0xAF9 PUSH2 0x2B5D JUMP JUMPDEST JUMPDEST SWAP1 PUSH1 0x0 MSTORE PUSH1 0x20 PUSH1 0x0 KECCAK256 SWAP1 PUSH1 0x6 MUL ADD PUSH1 0x0 ADD PUSH1 0x0 SWAP1 SLOAD SWAP1 PUSH2 0x100 EXP SWAP1 DIV PUSH20 0xFFFFFFFFFFFFFFFFFFFFFFFFFFFFFFFFFFFFFFFF AND PUSH20 0xFFFFFFFFFFFFFFFFFFFFFFFFFFFFFFFFFFFFFFFF AND EQ PUSH2 0xB82 JUMPI PUSH1 0x40 MLOAD PUSH32 0x8C379A000000000000000000000000000000000000000000000000000000000 DUP2 MSTORE PUSH1 0x4 ADD PUSH2 0xB79 SWAP1 PUSH2 0x286C JUMP JUMPDEST PUSH1 0x40 MLOAD DUP1 SWAP2 SUB SWAP1 REVERT JUMPDEST DUP2 PUSH2 0xBC2 JUMPI PUSH1 0x40 MLOAD PUSH32 0x8C379A000000000000000000000000000000000000000000000000000000000 DUP2 MSTORE PUSH1 0x4 ADD PUSH2 0xBB9 SWAP1 PUSH2 0x28AC JUMP JUMPDEST PUSH1 0x40 MLOAD DUP1 SWAP2 SUB SWAP1 REVERT JUMPDEST PUSH1 0xA DUP2 DUP2 SLOAD DUP2 LT PUSH2 0xBD6 JUMPI PUSH2 0xBD5 PUSH2 0x2B5D JUMP JUMPDEST JUMPDEST SWAP1 PUSH1 0x0 MSTORE PUSH1 0x20 PUSH1 0x0 KECCAK256 SWAP1 PUSH1 0x6 MUL ADD PUSH1 0x2 ADD SLOAD PUSH1 0x7 PUSH1 0x0 CALLER PUSH20 0xFFFFFFFFFFFFFFFFFFFFFFFFFFFFFFFFFFFFFFFF AND PUSH20 0xFFFFFFFFFFFFFFFFFFFFFFFFFFFFFFFFFFFFFFFF AND DUP2 MSTORE PUSH1 0x20 ADD SWAP1 DUP2 MSTORE PUSH1 0x20 ADD PUSH1 0x0 KECCAK256 PUSH1 0x0 DUP3 DUP3 SLOAD PUSH2 0xC36 SWAP2 SWAP1 PUSH2 0x298A JUMP JUMPDEST SWAP3 POP POP DUP2 SWAP1 SSTORE POP PUSH1 0xA PUSH1 0x1 PUSH1 0xA DUP1 SLOAD SWAP1 POP PUSH2 0xC51 SWAP2 SWAP1 PUSH2 0x29E0 JUMP JUMPDEST DUP2 SLOAD DUP2 LT PUSH2 0xC62 JUMPI PUSH2 0xC61 PUSH2 0x2B5D JUMP JUMPDEST JUMPDEST SWAP1 PUSH1 0x0 MSTORE PUSH1 0x20 PUSH1 0x0 KECCAK256 SWAP1 PUSH1 0x6 MUL ADD PUSH1 0xA DUP3 DUP2 SLOAD DUP2 LT PUSH2 0xC84 JUMPI PUSH2 0xC83 PUSH2 0x2B5D JUMP JUMPDEST JUMPDEST SWAP1 PUSH1 0x0 MSTORE PUSH1 0x20 PUSH1 0x0 KECCAK256 SWAP1 PUSH1 0x6 MUL ADD PUSH1 0x0 DUP3 ADD PUSH1 0x0 SWAP1 SLOAD SWAP1 PUSH2 0x100 EXP SWAP1 DIV PUSH20 0xFFFFFFFFFFFFFFFFFFFFFFFFFFFFFFFFFFFFFFFF AND DUP2 PUSH1 0x0 ADD PUSH1 0x0 PUSH2 0x100 EXP DUP2 SLOAD DUP2 PUSH20 0xFFFFFFFFFFFFFFFFFFFFFFFFFFFFFFFFFFFFFFFF MUL NOT AND SWAP1 DUP4 PUSH20 0xFFFFFFFFFFFFFFFFFFFFFFFFFFFFFFFFFFFFFFFF AND MUL OR SWAP1 SSTORE POP PUSH1 0x1 DUP3 ADD PUSH1 0x0 SWAP1 SLOAD SWAP1 PUSH2 0x100 EXP SWAP1 DIV PUSH20 0xFFFFFFFFFFFFFFFFFFFFFFFFFFFFFFFFFFFFFFFF AND DUP2 PUSH1 0x1 ADD PUSH1 0x0 PUSH2 0x100 EXP DUP2 SLOAD DUP2 PUSH20 0xFFFFFFFFFFFFFFFFFFFFFFFFFFFFFFFFFFFFFFFF MUL NOT AND SWAP1 DUP4 PUSH20 0xFFFFFFFFFFFFFFFFFFFFFFFFFFFFFFFFFFFFFFFF AND MUL OR SWAP1 SSTORE POP PUSH1 0x2 DUP3 ADD SLOAD DUP2 PUSH1 0x2 ADD SSTORE PUSH1 0x3 DUP3 ADD SLOAD DUP2 PUSH1 0x3 ADD SSTORE PUSH1 0x4 DUP3 ADD SLOAD DUP2 PUSH1 0x4 ADD SSTORE PUSH1 0x5 DUP3 ADD SLOAD DUP2 PUSH1 0x5 ADD SSTORE SWAP1 POP POP PUSH32 0xC18A6FB463175A9FBB1A466FAA776412540FFAED30FC734FD994D34E550EAA2 CALLER PUSH1 0xA DUP4 DUP2 SLOAD DUP2 LT PUSH2 0xDC1 JUMPI PUSH2 0xDC0 PUSH2 0x2B5D JUMP JUMPDEST JUMPDEST SWAP1 PUSH1 0x0 MSTORE PUSH1 0x20 PUSH1 0x0 KECCAK256 SWAP1 PUSH1 0x6 MUL ADD PUSH1 0x1 ADD PUSH1 0x0 SWAP1 SLOAD SWAP1 PUSH2 0x100 EXP SWAP1 DIV PUSH20 0xFFFFFFFFFFFFFFFFFFFFFFFFFFFFFFFFFFFFFFFF AND PUSH1 0xA DUP5 DUP2 SLOAD DUP2 LT PUSH2 0xE07 JUMPI PUSH2 0xE06 PUSH2 0x2B5D JUMP JUMPDEST JUMPDEST SWAP1 PUSH1 0x0 MSTORE PUSH1 0x20 PUSH1 0x0 KECCAK256 SWAP1 PUSH1 0x6 MUL ADD PUSH1 0x2 ADD SLOAD PUSH1 0xA DUP6 DUP2 SLOAD DUP2 LT PUSH2 0xE2D JUMPI PUSH2 0xE2C PUSH2 0x2B5D JUMP JUMPDEST JUMPDEST SWAP1 PUSH1 0x0 MSTORE PUSH1 0x20 PUSH1 0x0 KECCAK256 SWAP1 PUSH1 0x6 MUL ADD PUSH1 0x3 ADD SLOAD PUSH1 0xA DUP7 DUP2 SLOAD DUP2 LT PUSH2 0xE53 JUMPI PUSH2 0xE52 PUSH2 0x2B5D JUMP JUMPDEST JUMPDEST SWAP1 PUSH1 0x0 MSTORE PUSH1 0x20 PUSH1 0x0 KECCAK256 SWAP1 PUSH1 0x6 MUL ADD PUSH1 0x4 ADD SLOAD PUSH1 0xA DUP8 DUP2 SLOAD DUP2 LT PUSH2 0xE79 JUMPI PUSH2 0xE78 PUSH2 0x2B5D JUMP JUMPDEST JUMPDEST SWAP1 PUSH1 0x0 MSTORE PUSH1 0x20 PUSH1 0x0 KECCAK256 SWAP1 PUSH1 0x6 MUL ADD PUSH1 0x5 ADD SLOAD PUSH1 0x40 MLOAD PUSH2 0xE9D SWAP7 SWAP6 SWAP5 SWAP4 SWAP3 SWAP2 SWAP1 PUSH2 0x2690 JUMP JUMPDEST PUSH1 0x40 MLOAD DUP1 SWAP2 SUB SWAP1 LOG1 PUSH1 0xA DUP1 SLOAD DUP1 PUSH2 0xEB7 JUMPI PUSH2 0xEB6 PUSH2 0x2B2E JUMP JUMPDEST JUMPDEST PUSH1 0x1 SWAP1 SUB DUP2 DUP2 SWAP1 PUSH1 0x0 MSTORE PUSH1 0x20 PUSH1 0x0 KECCAK256 SWAP1 PUSH1 0x6 MUL ADD PUSH1 0x0 DUP1 DUP3 ADD PUSH1 0x0 PUSH2 0x100 EXP DUP2 SLOAD SWAP1 PUSH20 0xFFFFFFFFFFFFFFFFFFFFFFFFFFFFFFFFFFFFFFFF MUL NOT AND SWAP1 SSTORE PUSH1 0x1 DUP3 ADD PUSH1 0x0 PUSH2 0x100 EXP DUP2 SLOAD SWAP1 PUSH20 0xFFFFFFFFFFFFFFFFFFFFFFFFFFFFFFFFFFFFFFFF MUL NOT AND SWAP1 SSTORE PUSH1 0x2 DUP3 ADD PUSH1 0x0 SWAP1 SSTORE PUSH1 0x3 DUP3 ADD PUSH1 0x0 SWAP1 SSTORE PUSH1 0x4 DUP3 ADD PUSH1 0x0 SWAP1 SSTORE PUSH1 0x5 DUP3 ADD PUSH1 0x0 SWAP1 SSTORE POP POP SWAP1 SSTORE POP POP POP POP JUMP JUMPDEST PUSH1 0x0 SELFBALANCE SWAP1 POP SWAP1 JUMP JUMPDEST PUSH1 0x0 PUSH1 0x2 SLOAD SWAP1 POP SWAP1 JUMP JUMPDEST PUSH1 0x0 DUP1 JUMPDEST PUSH1 0x1 DUP1 SLOAD SWAP1 POP DUP2 LT ISZERO PUSH2 0xFF5 JUMPI CALLER PUSH20 0xFFFFFFFFFFFFFFFFFFFFFFFFFFFFFFFFFFFFFFFF AND PUSH1 0x1 DUP3 DUP2 SLOAD DUP2 LT PUSH2 0xF92 JUMPI PUSH2 0xF91 PUSH2 0x2B5D JUMP JUMPDEST JUMPDEST SWAP1 PUSH1 0x0 MSTORE PUSH1 0x20 PUSH1 0x0 KECCAK256 ADD PUSH1 0x0 SWAP1 SLOAD SWAP1 PUSH2 0x100 EXP SWAP1 DIV PUSH20 0xFFFFFFFFFFFFFFFFFFFFFFFFFFFFFFFFFFFFFFFF AND PUSH20 0xFFFFFFFFFFFFFFFFFFFFFFFFFFFFFFFFFFFFFFFF AND EQ ISZERO PUSH2 0xFE2 JUMPI PUSH1 0x1 SWAP2 POP PUSH2 0xFF5 JUMP JUMPDEST DUP1 DUP1 PUSH2 0xFED SWAP1 PUSH2 0x2AB6 JUMP JUMPDEST SWAP2 POP POP PUSH2 0xF5A JUMP JUMPDEST POP PUSH1 0x1 ISZERO ISZERO DUP2 ISZERO ISZERO EQ PUSH2 0x103D JUMPI PUSH1 0x40 MLOAD PUSH32 0x8C379A000000000000000000000000000000000000000000000000000000000 DUP2 MSTORE PUSH1 0x4 ADD PUSH2 0x1034 SWAP1 PUSH2 0x28CC JUMP JUMPDEST PUSH1 0x40 MLOAD DUP1 SWAP2 SUB SWAP1 REVERT JUMPDEST PUSH1 0x0 JUMPDEST PUSH1 0x1 DUP1 SLOAD SWAP1 POP DUP2 LT ISZERO PUSH2 0x110D JUMPI DUP3 PUSH20 0xFFFFFFFFFFFFFFFFFFFFFFFFFFFFFFFFFFFFFFFF AND PUSH1 0x1 DUP3 DUP2 SLOAD DUP2 LT PUSH2 0x1078 JUMPI PUSH2 0x1077 PUSH2 0x2B5D JUMP JUMPDEST JUMPDEST SWAP1 PUSH1 0x0 MSTORE PUSH1 0x20 PUSH1 0x0 KECCAK256 ADD PUSH1 0x0 SWAP1 SLOAD SWAP1 PUSH2 0x100 EXP SWAP1 DIV PUSH20 0xFFFFFFFFFFFFFFFFFFFFFFFFFFFFFFFFFFFFFFFF AND PUSH20 0xFFFFFFFFFFFFFFFFFFFFFFFFFFFFFFFFFFFFFFFF AND EQ ISZERO PUSH2 0x10FA JUMPI PUSH1 0x40 MLOAD PUSH32 0x8C379A000000000000000000000000000000000000000000000000000000000 DUP2 MSTORE PUSH1 0x4 ADD PUSH2 0x10F1 SWAP1 PUSH2 0x284C JUMP JUMPDEST PUSH1 0x40 MLOAD DUP1 SWAP2 SUB SWAP1 REVERT JUMPDEST DUP1 DUP1 PUSH2 0x1105 SWAP1 PUSH2 0x2AB6 JUMP JUMPDEST SWAP2 POP POP PUSH2 0x1040 JUMP JUMPDEST POP PUSH1 0x1 DUP3 SWAP1 DUP1 PUSH1 0x1 DUP2 SLOAD ADD DUP1 DUP3 SSTORE DUP1 SWAP2 POP POP PUSH1 0x1 SWAP1 SUB SWAP1 PUSH1 0x0 MSTORE PUSH1 0x20 PUSH1 0x0 KECCAK256 ADD PUSH1 0x0 SWAP1 SWAP2 SWAP1 SWAP2 SWAP1 SWAP2 PUSH2 0x100 EXP DUP2 SLOAD DUP2 PUSH20 0xFFFFFFFFFFFFFFFFFFFFFFFFFFFFFFFFFFFFFFFF MUL NOT AND SWAP1 DUP4 PUSH20 0xFFFFFFFFFFFFFFFFFFFFFFFFFFFFFFFFFFFFFFFF AND MUL OR SWAP1 SSTORE POP PUSH1 0x1 DUP1 DUP1 SLOAD SWAP1 POP PUSH2 0x1182 SWAP2 SWAP1 PUSH2 0x29E0 JUMP JUMPDEST PUSH1 0x2 DUP2 SWAP1 SSTORE POP PUSH32 0x43ABCFF3409244EC1056224394AF5F818E9A74866F0A11BFEE2AD52F68AD6FB9 CALLER DUP4 TIMESTAMP PUSH1 0x40 MLOAD PUSH2 0x11BB SWAP4 SWAP3 SWAP2 SWAP1 PUSH2 0x26F1 JUMP JUMPDEST PUSH1 0x40 MLOAD DUP1 SWAP2 SUB SWAP1 LOG1 POP POP JUMP JUMPDEST PUSH1 0x60 PUSH1 0xA DUP1 SLOAD DUP1 PUSH1 0x20 MUL PUSH1 0x20 ADD PUSH1 0x40 MLOAD SWAP1 DUP2 ADD PUSH1 0x40 MSTORE DUP1 SWAP3 SWAP2 SWAP1 DUP2 DUP2 MSTORE PUSH1 0x20 ADD PUSH1 0x0 SWAP1 JUMPDEST DUP3 DUP3 LT ISZERO PUSH2 0x12F1 JUMPI DUP4 DUP3 SWAP1 PUSH1 0x0 MSTORE PUSH1 0x20 PUSH1 0x0 KECCAK256 SWAP1 PUSH1 0x6 MUL ADD PUSH1 0x40 MLOAD DUP1 PUSH1 0xC0 ADD PUSH1 0x40 MSTORE SWAP1 DUP2 PUSH1 0x0 DUP3 ADD PUSH1 0x0 SWAP1 SLOAD SWAP1 PUSH2 0x100 EXP SWAP1 DIV PUSH20 0xFFFFFFFFFFFFFFFFFFFFFFFFFFFFFFFFFFFFFFFF AND PUSH20 0xFFFFFFFFFFFFFFFFFFFFFFFFFFFFFFFFFFFFFFFF AND PUSH20 0xFFFFFFFFFFFFFFFFFFFFFFFFFFFFFFFFFFFFFFFF AND DUP2 MSTORE PUSH1 0x20 ADD PUSH1 0x1 DUP3 ADD PUSH1 0x0 SWAP1 SLOAD SWAP1 PUSH2 0x100 EXP SWAP1 DIV PUSH20 0xFFFFFFFFFFFFFFFFFFFFFFFFFFFFFFFFFFFFFFFF AND PUSH20 0xFFFFFFFFFFFFFFFFFFFFFFFFFFFFFFFFFFFFFFFF AND PUSH20 0xFFFFFFFFFFFFFFFFFFFFFFFFFFFFFFFFFFFFFFFF AND DUP2 MSTORE PUSH1 0x20 ADD PUSH1 0x2 DUP3 ADD SLOAD DUP2 MSTORE PUSH1 0x20 ADD PUSH1 0x3 DUP3 ADD SLOAD DUP2 MSTORE PUSH1 0x20 ADD PUSH1 0x4 DUP3 ADD SLOAD DUP2 MSTORE PUSH1 0x20 ADD PUSH1 0x5 DUP3 ADD SLOAD DUP2 MSTORE POP POP DUP2 MSTORE PUSH1 0x20 ADD SWAP1 PUSH1 0x1 ADD SWAP1 PUSH2 0x11EB JUMP JUMPDEST POP POP POP POP SWAP1 POP SWAP1 JUMP JUMPDEST PUSH1 0x0 PUSH1 0x8 PUSH1 0x0 CALLER PUSH20 0xFFFFFFFFFFFFFFFFFFFFFFFFFFFFFFFFFFFFFFFF AND PUSH20 0xFFFFFFFFFFFFFFFFFFFFFFFFFFFFFFFFFFFFFFFF AND DUP2 MSTORE PUSH1 0x20 ADD SWAP1 DUP2 MSTORE PUSH1 0x20 ADD PUSH1 0x0 KECCAK256 PUSH1 0x0 DUP4 DUP2 MSTORE PUSH1 0x20 ADD SWAP1 DUP2 MSTORE PUSH1 0x20 ADD PUSH1 0x0 KECCAK256 PUSH1 0x0 SWAP1 SLOAD SWAP1 PUSH2 0x100 EXP SWAP1 DIV PUSH1 0xFF AND SWAP1 POP SWAP2 SWAP1 POP JUMP JUMPDEST PUSH1 0x0 DUP1 JUMPDEST PUSH1 0x1 DUP1 SLOAD SWAP1 POP DUP2 LT ISZERO PUSH2 0x1400 JUMPI CALLER PUSH20 0xFFFFFFFFFFFFFFFFFFFFFFFFFFFFFFFFFFFFFFFF AND PUSH1 0x1 DUP3 DUP2 SLOAD DUP2 LT PUSH2 0x139D JUMPI PUSH2 0x139C PUSH2 0x2B5D JUMP JUMPDEST JUMPDEST SWAP1 PUSH1 0x0 MSTORE PUSH1 0x20 PUSH1 0x0 KECCAK256 ADD PUSH1 0x0 SWAP1 SLOAD SWAP1 PUSH2 0x100 EXP SWAP1 DIV PUSH20 0xFFFFFFFFFFFFFFFFFFFFFFFFFFFFFFFFFFFFFFFF AND PUSH20 0xFFFFFFFFFFFFFFFFFFFFFFFFFFFFFFFFFFFFFFFF AND EQ ISZERO PUSH2 0x13ED JUMPI PUSH1 0x1 SWAP2 POP PUSH2 0x1400 JUMP JUMPDEST DUP1 DUP1 PUSH2 0x13F8 SWAP1 PUSH2 0x2AB6 JUMP JUMPDEST SWAP2 POP POP PUSH2 0x1365 JUMP JUMPDEST POP PUSH1 0x1 ISZERO ISZERO DUP2 ISZERO ISZERO EQ PUSH2 0x1448 JUMPI PUSH1 0x40 MLOAD PUSH32 0x8C379A000000000000000000000000000000000000000000000000000000000 DUP2 MSTORE PUSH1 0x4 ADD PUSH2 0x143F SWAP1 PUSH2 0x28CC JUMP JUMPDEST PUSH1 0x40 MLOAD DUP1 SWAP2 SUB SWAP1 REVERT JUMPDEST PUSH1 0x0 DUP1 DUP1 PUSH1 0x0 SWAP1 POP JUMPDEST PUSH1 0x1 DUP1 SLOAD SWAP1 POP DUP2 LT ISZERO PUSH2 0x14EF JUMPI DUP5 PUSH20 0xFFFFFFFFFFFFFFFFFFFFFFFFFFFFFFFFFFFFFFFF AND PUSH1 0x1 DUP3 DUP2 SLOAD DUP2 LT PUSH2 0x1489 JUMPI PUSH2 0x1488 PUSH2 0x2B5D JUMP JUMPDEST JUMPDEST SWAP1 PUSH1 0x0 MSTORE PUSH1 0x20 PUSH1 0x0 KECCAK256 ADD PUSH1 0x0 SWAP1 SLOAD SWAP1 PUSH2 0x100 EXP SWAP1 DIV PUSH20 0xFFFFFFFFFFFFFFFFFFFFFFFFFFFFFFFFFFFFFFFF AND PUSH20 0xFFFFFFFFFFFFFFFFFFFFFFFFFFFFFFFFFFFFFFFF AND EQ ISZERO PUSH2 0x14DC JUMPI PUSH1 0x1 SWAP3 POP DUP1 SWAP2 POP PUSH2 0x14EF JUMP JUMPDEST DUP1 DUP1 PUSH2 0x14E7 SWAP1 PUSH2 0x2AB6 JUMP JUMPDEST SWAP2 POP POP PUSH2 0x1451 JUMP JUMPDEST POP PUSH1 0x1 ISZERO ISZERO DUP3 ISZERO ISZERO EQ PUSH2 0x1537 JUMPI PUSH1 0x40 MLOAD PUSH32 0x8C379A000000000000000000000000000000000000000000000000000000000 DUP2 MSTORE PUSH1 0x4 ADD PUSH2 0x152E SWAP1 PUSH2 0x282C JUMP JUMPDEST PUSH1 0x40 MLOAD DUP1 SWAP2 SUB SWAP1 REVERT JUMPDEST PUSH1 0x1 DUP1 DUP1 DUP1 SLOAD SWAP1 POP PUSH2 0x1549 SWAP2 SWAP1 PUSH2 0x29E0 JUMP JUMPDEST DUP2 SLOAD DUP2 LT PUSH2 0x155A JUMPI PUSH2 0x1559 PUSH2 0x2B5D JUMP JUMPDEST JUMPDEST SWAP1 PUSH1 0x0 MSTORE PUSH1 0x20 PUSH1 0x0 KECCAK256 ADD PUSH1 0x0 SWAP1 SLOAD SWAP1 PUSH2 0x100 EXP SWAP1 DIV PUSH20 0xFFFFFFFFFFFFFFFFFFFFFFFFFFFFFFFFFFFFFFFF AND PUSH1 0x1 DUP3 DUP2 SLOAD DUP2 LT PUSH2 0x1599 JUMPI PUSH2 0x1598 PUSH2 0x2B5D JUMP JUMPDEST JUMPDEST SWAP1 PUSH1 0x0 MSTORE PUSH1 0x20 PUSH1 0x0 KECCAK256 ADD PUSH1 0x0 PUSH2 0x100 EXP DUP2 SLOAD DUP2 PUSH20 0xFFFFFFFFFFFFFFFFFFFFFFFFFFFFFFFFFFFFFFFF MUL NOT AND SWAP1 DUP4 PUSH20 0xFFFFFFFFFFFFFFFFFFFFFFFFFFFFFFFFFFFFFFFF AND MUL OR SWAP1 SSTORE POP PUSH1 0x1 DUP1 SLOAD DUP1 PUSH2 0x15F3 JUMPI PUSH2 0x15F2 PUSH2 0x2B2E JUMP JUMPDEST JUMPDEST PUSH1 0x1 SWAP1 SUB DUP2 DUP2 SWAP1 PUSH1 0x0 MSTORE PUSH1 0x20 PUSH1 0x0 KECCAK256 ADD PUSH1 0x0 PUSH2 0x100 EXP DUP2 SLOAD SWAP1 PUSH20 0xFFFFFFFFFFFFFFFFFFFFFFFFFFFFFFFFFFFFFFFF MUL NOT AND SWAP1 SSTORE SWAP1 SSTORE PUSH1 0x1 DUP1 DUP1 SLOAD SWAP1 POP PUSH2 0x1639 SWAP2 SWAP1 PUSH2 0x29E0 JUMP JUMPDEST PUSH1 0x2 DUP2 SWAP1 SSTORE POP PUSH32 0xD1F329271E4A98B0181A7D91618A0A5DE6F42A1AAF4C1362493D829EAF405A8A CALLER DUP6 TIMESTAMP PUSH1 0x40 MLOAD PUSH2 0x1672 SWAP4 SWAP3 SWAP2 SWAP1 PUSH2 0x26F1 JUMP JUMPDEST PUSH1 0x40 MLOAD DUP1 SWAP2 SUB SWAP1 LOG1 POP POP POP POP JUMP JUMPDEST PUSH1 0x60 PUSH1 0x1 DUP1 SLOAD DUP1 PUSH1 0x20 MUL PUSH1 0x20 ADD PUSH1 0x40 MLOAD SWAP1 DUP2 ADD PUSH1 0x40 MSTORE DUP1 SWAP3 SWAP2 SWAP1 DUP2 DUP2 MSTORE PUSH1 0x20 ADD DUP3 DUP1 SLOAD DUP1 ISZERO PUSH2 0x1704 JUMPI PUSH1 0x20 MUL DUP3 ADD SWAP2 SWAP1 PUSH1 0x0 MSTORE PUSH1 0x20 PUSH1 0x0 KECCAK256 SWAP1 JUMPDEST DUP2 PUSH1 0x0 SWAP1 SLOAD SWAP1 PUSH2 0x100 EXP SWAP1 DIV PUSH20 0xFFFFFFFFFFFFFFFFFFFFFFFFFFFFFFFFFFFFFFFF AND PUSH20 0xFFFFFFFFFFFFFFFFFFFFFFFFFFFFFFFFFFFFFFFF AND DUP2 MSTORE PUSH1 0x20 ADD SWAP1 PUSH1 0x1 ADD SWAP1 DUP1 DUP4 GT PUSH2 0x16BA JUMPI JUMPDEST POP POP POP POP POP SWAP1 POP SWAP1 JUMP JUMPDEST PUSH1 0x0 DUP1 JUMPDEST PUSH1 0x1 DUP1 SLOAD SWAP1 POP DUP2 LT ISZERO PUSH2 0x17AD JUMPI CALLER PUSH20 0xFFFFFFFFFFFFFFFFFFFFFFFFFFFFFFFFFFFFFFFF AND PUSH1 0x1 DUP3 DUP2 SLOAD DUP2 LT PUSH2 0x174A JUMPI PUSH2 0x1749 PUSH2 0x2B5D JUMP JUMPDEST JUMPDEST SWAP1 PUSH1 0x0 MSTORE PUSH1 0x20 PUSH1 0x0 KECCAK256 ADD PUSH1 0x0 SWAP1 SLOAD SWAP1 PUSH2 0x100 EXP SWAP1 DIV PUSH20 0xFFFFFFFFFFFFFFFFFFFFFFFFFFFFFFFFFFFFFFFF AND PUSH20 0xFFFFFFFFFFFFFFFFFFFFFFFFFFFFFFFFFFFFFFFF AND EQ ISZERO PUSH2 0x179A JUMPI PUSH1 0x1 SWAP2 POP PUSH2 0x17AD JUMP JUMPDEST DUP1 DUP1 PUSH2 0x17A5 SWAP1 PUSH2 0x2AB6 JUMP JUMPDEST SWAP2 POP POP PUSH2 0x1712 JUMP JUMPDEST POP PUSH1 0x1 ISZERO ISZERO DUP2 ISZERO ISZERO EQ PUSH2 0x17F5 JUMPI PUSH1 0x40 MLOAD PUSH32 0x8C379A000000000000000000000000000000000000000000000000000000000 DUP2 MSTORE PUSH1 0x4 ADD PUSH2 0x17EC SWAP1 PUSH2 0x28CC JUMP JUMPDEST PUSH1 0x40 MLOAD DUP1 SWAP2 SUB SWAP1 REVERT JUMPDEST PUSH1 0x0 PUSH1 0x7 PUSH1 0x0 CALLER PUSH20 0xFFFFFFFFFFFFFFFFFFFFFFFFFFFFFFFFFFFFFFFF AND PUSH20 0xFFFFFFFFFFFFFFFFFFFFFFFFFFFFFFFFFFFFFFFF AND DUP2 MSTORE PUSH1 0x20 ADD SWAP1 DUP2 MSTORE PUSH1 0x20 ADD PUSH1 0x0 KECCAK256 SLOAD LT ISZERO PUSH2 0x1878 JUMPI PUSH1 0x40 MLOAD PUSH32 0x8C379A000000000000000000000000000000000000000000000000000000000 DUP2 MSTORE PUSH1 0x4 ADD PUSH2 0x186F SWAP1 PUSH2 0x27CC JUMP JUMPDEST PUSH1 0x40 MLOAD DUP1 SWAP2 SUB SWAP1 REVERT JUMPDEST CALLVALUE PUSH1 0x7 PUSH1 0x0 CALLER PUSH20 0xFFFFFFFFFFFFFFFFFFFFFFFFFFFFFFFFFFFFFFFF AND PUSH20 0xFFFFFFFFFFFFFFFFFFFFFFFFFFFFFFFFFFFFFFFF AND DUP2 MSTORE PUSH1 0x20 ADD SWAP1 DUP2 MSTORE PUSH1 0x20 ADD PUSH1 0x0 KECCAK256 DUP2 SWAP1 SSTORE POP PUSH32 0x2E0C7C0C884D7BE5E05E90478E8E5E8E89B7FCCAC8131A5107AA200F79203F25 CALLER CALLVALUE PUSH1 0x3 SLOAD TIMESTAMP PUSH1 0x40 MLOAD PUSH2 0x18F3 SWAP5 SWAP4 SWAP3 SWAP2 SWAP1 PUSH2 0x2728 JUMP JUMPDEST PUSH1 0x40 MLOAD DUP1 SWAP2 SUB SWAP1 LOG1 PUSH1 0x3 PUSH1 0x0 DUP2 SLOAD DUP1 SWAP3 SWAP2 SWAP1 PUSH2 0x190E SWAP1 PUSH2 0x2AB6 JUMP JUMPDEST SWAP2 SWAP1 POP SSTORE POP POP JUMP JUMPDEST PUSH1 0x0 DUP1 JUMPDEST PUSH1 0x1 DUP1 SLOAD SWAP1 POP DUP2 LT ISZERO PUSH2 0x19B5 JUMPI CALLER PUSH20 0xFFFFFFFFFFFFFFFFFFFFFFFFFFFFFFFFFFFFFFFF AND PUSH1 0x1 DUP3 DUP2 SLOAD DUP2 LT PUSH2 0x1952 JUMPI PUSH2 0x1951 PUSH2 0x2B5D JUMP JUMPDEST JUMPDEST SWAP1 PUSH1 0x0 MSTORE PUSH1 0x20 PUSH1 0x0 KECCAK256 ADD PUSH1 0x0 SWAP1 SLOAD SWAP1 PUSH2 0x100 EXP SWAP1 DIV PUSH20 0xFFFFFFFFFFFFFFFFFFFFFFFFFFFFFFFFFFFFFFFF AND PUSH20 0xFFFFFFFFFFFFFFFFFFFFFFFFFFFFFFFFFFFFFFFF AND EQ ISZERO PUSH2 0x19A2 JUMPI PUSH1 0x1 SWAP2 POP PUSH2 0x19B5 JUMP JUMPDEST DUP1 DUP1 PUSH2 0x19AD SWAP1 PUSH2 0x2AB6 JUMP JUMPDEST SWAP2 POP POP PUSH2 0x191A JUMP JUMPDEST POP PUSH1 0x1 ISZERO ISZERO DUP2 ISZERO ISZERO EQ PUSH2 0x19FD JUMPI PUSH1 0x40 MLOAD PUSH32 0x8C379A000000000000000000000000000000000000000000000000000000000 DUP2 MSTORE PUSH1 0x4 ADD PUSH2 0x19F4 SWAP1 PUSH2 0x28CC JUMP JUMPDEST PUSH1 0x40 MLOAD DUP1 SWAP2 SUB SWAP1 REVERT JUMPDEST PUSH1 0x0 DUP1 PUSH1 0x0 JUMPDEST PUSH1 0xA DUP1 SLOAD SWAP1 POP DUP2 LT ISZERO PUSH2 0x1A67 JUMPI DUP5 PUSH1 0xA DUP3 DUP2 SLOAD DUP2 LT PUSH2 0x1A25 JUMPI PUSH2 0x1A24 PUSH2 0x2B5D JUMP JUMPDEST JUMPDEST SWAP1 PUSH1 0x0 MSTORE PUSH1 0x20 PUSH1 0x0 KECCAK256 SWAP1 PUSH1 0x6 MUL ADD PUSH1 0x3 ADD SLOAD EQ ISZERO PUSH2 0x1A46 JUMPI PUSH1 0x1 SWAP3 POP PUSH2 0x1A67 JUMP JUMPDEST DUP2 DUP1 PUSH2 0x1A51 SWAP1 PUSH2 0x2AB6 JUMP JUMPDEST SWAP3 POP POP DUP1 DUP1 PUSH2 0x1A5F SWAP1 PUSH2 0x2AB6 JUMP JUMPDEST SWAP2 POP POP PUSH2 0x1A03 JUMP JUMPDEST POP DUP2 PUSH2 0x1AA8 JUMPI PUSH1 0x40 MLOAD PUSH32 0x8C379A000000000000000000000000000000000000000000000000000000000 DUP2 MSTORE PUSH1 0x4 ADD PUSH2 0x1A9F SWAP1 PUSH2 0x286C JUMP JUMPDEST PUSH1 0x40 MLOAD DUP1 SWAP2 SUB SWAP1 REVERT JUMPDEST PUSH1 0x0 ISZERO ISZERO PUSH1 0x8 PUSH1 0x0 CALLER PUSH20 0xFFFFFFFFFFFFFFFFFFFFFFFFFFFFFFFFFFFFFFFF AND PUSH20 0xFFFFFFFFFFFFFFFFFFFFFFFFFFFFFFFFFFFFFFFF AND DUP2 MSTORE PUSH1 0x20 ADD SWAP1 DUP2 MSTORE PUSH1 0x20 ADD PUSH1 0x0 KECCAK256 PUSH1 0x0 DUP7 DUP2 MSTORE PUSH1 0x20 ADD SWAP1 DUP2 MSTORE PUSH1 0x20 ADD PUSH1 0x0 KECCAK256 PUSH1 0x0 SWAP1 SLOAD SWAP1 PUSH2 0x100 EXP SWAP1 DIV PUSH1 0xFF AND ISZERO ISZERO EQ PUSH2 0x1B4C JUMPI PUSH1 0x40 MLOAD PUSH32 0x8C379A000000000000000000000000000000000000000000000000000000000 DUP2 MSTORE PUSH1 0x4 ADD PUSH2 0x1B43 SWAP1 PUSH2 0x280C JUMP JUMPDEST PUSH1 0x40 MLOAD DUP1 SWAP2 SUB SWAP1 REVERT JUMPDEST CALLER PUSH20 0xFFFFFFFFFFFFFFFFFFFFFFFFFFFFFFFFFFFFFFFF AND PUSH1 0xA DUP3 DUP2 SLOAD DUP2 LT PUSH2 0x1B77 JUMPI PUSH2 0x1B76 PUSH2 0x2B5D JUMP JUMPDEST JUMPDEST SWAP1 PUSH1 0x0 MSTORE PUSH1 0x20 PUSH1 0x0 KECCAK256 SWAP1 PUSH1 0x6 MUL ADD PUSH1 0x0 ADD PUSH1 0x0 SWAP1 SLOAD SWAP1 PUSH2 0x100 EXP SWAP1 DIV PUSH20 0xFFFFFFFFFFFFFFFFFFFFFFFFFFFFFFFFFFFFFFFF AND PUSH20 0xFFFFFFFFFFFFFFFFFFFFFFFFFFFFFFFFFFFFFFFF AND EQ ISZERO PUSH2 0x1BCA JUMPI PUSH1 0x0 DUP1 REVERT JUMPDEST PUSH1 0x1 PUSH1 0x8 PUSH1 0x0 CALLER PUSH20 0xFFFFFFFFFFFFFFFFFFFFFFFFFFFFFFFFFFFFFFFF AND PUSH20 0xFFFFFFFFFFFFFFFFFFFFFFFFFFFFFFFFFFFFFFFF AND DUP2 MSTORE PUSH1 0x20 ADD SWAP1 DUP2 MSTORE PUSH1 0x20 ADD PUSH1 0x0 KECCAK256 PUSH1 0x0 DUP7 DUP2 MSTORE PUSH1 0x20 ADD SWAP1 DUP2 MSTORE PUSH1 0x20 ADD PUSH1 0x0 KECCAK256 PUSH1 0x0 PUSH2 0x100 EXP DUP2 SLOAD DUP2 PUSH1 0xFF MUL NOT AND SWAP1 DUP4 ISZERO ISZERO MUL OR SWAP1 SSTORE POP PUSH1 0xA DUP2 DUP2 SLOAD DUP2 LT PUSH2 0x1C47 JUMPI PUSH2 0x1C46 PUSH2 0x2B5D JUMP JUMPDEST JUMPDEST SWAP1 PUSH1 0x0 MSTORE PUSH1 0x20 PUSH1 0x0 KECCAK256 SWAP1 PUSH1 0x6 MUL ADD PUSH1 0x4 ADD PUSH1 0x0 DUP2 SLOAD DUP1 SWAP3 SWAP2 SWAP1 PUSH2 0x1C69 SWAP1 PUSH2 0x2AB6 JUMP JUMPDEST SWAP2 SWAP1 POP SSTORE POP PUSH32 0xEF752AA31D5FB48A280F9DE059968813BB02BD5685ABDC4BCAD829A70525A419 CALLER PUSH1 0xA DUP4 DUP2 SLOAD DUP2 LT PUSH2 0x1CA4 JUMPI PUSH2 0x1CA3 PUSH2 0x2B5D JUMP JUMPDEST JUMPDEST SWAP1 PUSH1 0x0 MSTORE PUSH1 0x20 PUSH1 0x0 KECCAK256 SWAP1 PUSH1 0x6 MUL ADD PUSH1 0x1 ADD PUSH1 0x0 SWAP1 SLOAD SWAP1 PUSH2 0x100 EXP SWAP1 DIV PUSH20 0xFFFFFFFFFFFFFFFFFFFFFFFFFFFFFFFFFFFFFFFF AND PUSH1 0xA DUP5 DUP2 SLOAD DUP2 LT PUSH2 0x1CEA JUMPI PUSH2 0x1CE9 PUSH2 0x2B5D JUMP JUMPDEST JUMPDEST SWAP1 PUSH1 0x0 MSTORE PUSH1 0x20 PUSH1 0x0 KECCAK256 SWAP1 PUSH1 0x6 MUL ADD PUSH1 0x2 ADD SLOAD PUSH1 0xA DUP6 DUP2 SLOAD DUP2 LT PUSH2 0x1D10 JUMPI PUSH2 0x1D0F PUSH2 0x2B5D JUMP JUMPDEST JUMPDEST SWAP1 PUSH1 0x0 MSTORE PUSH1 0x20 PUSH1 0x0 KECCAK256 SWAP1 PUSH1 0x6 MUL ADD PUSH1 0x3 ADD SLOAD PUSH1 0xA DUP7 DUP2 SLOAD DUP2 LT PUSH2 0x1D36 JUMPI PUSH2 0x1D35 PUSH2 0x2B5D JUMP JUMPDEST JUMPDEST SWAP1 PUSH1 0x0 MSTORE PUSH1 0x20 PUSH1 0x0 KECCAK256 SWAP1 PUSH1 0x6 MUL ADD PUSH1 0x4 ADD SLOAD PUSH1 0xA DUP8 DUP2 SLOAD DUP2 LT PUSH2 0x1D5C JUMPI PUSH2 0x1D5B PUSH2 0x2B5D JUMP JUMPDEST JUMPDEST SWAP1 PUSH1 0x0 MSTORE PUSH1 0x20 PUSH1 0x0 KECCAK256 SWAP1 PUSH1 0x6 MUL ADD PUSH1 0x5 ADD SLOAD PUSH1 0x40 MLOAD PUSH2 0x1D80 SWAP7 SWAP6 SWAP5 SWAP4 SWAP3 SWAP2 SWAP1 PUSH2 0x2690 JUMP JUMPDEST PUSH1 0x40 MLOAD DUP1 SWAP2 SUB SWAP1 LOG1 PUSH1 0x2 SLOAD PUSH1 0xA DUP3 DUP2 SLOAD DUP2 LT PUSH2 0x1D9F JUMPI PUSH2 0x1D9E PUSH2 0x2B5D JUMP JUMPDEST JUMPDEST SWAP1 PUSH1 0x0 MSTORE PUSH1 0x20 PUSH1 0x0 KECCAK256 SWAP1 PUSH1 0x6 MUL ADD PUSH1 0x4 ADD SLOAD EQ ISZERO PUSH2 0x1DC1 JUMPI PUSH2 0x1DC0 DUP2 PUSH2 0x1DC7 JUMP JUMPDEST JUMPDEST POP POP POP POP JUMP JUMPDEST PUSH1 0xA DUP2 DUP2 SLOAD DUP2 LT PUSH2 0x1DDB JUMPI PUSH2 0x1DDA PUSH2 0x2B5D JUMP JUMPDEST JUMPDEST SWAP1 PUSH1 0x0 MSTORE PUSH1 0x20 PUSH1 0x0 KECCAK256 SWAP1 PUSH1 0x6 MUL ADD PUSH1 0x2 ADD SLOAD PUSH1 0x7 PUSH1 0x0 PUSH1 0xA DUP5 DUP2 SLOAD DUP2 LT PUSH2 0x1E05 JUMPI PUSH2 0x1E04 PUSH2 0x2B5D JUMP JUMPDEST JUMPDEST SWAP1 PUSH1 0x0 MSTORE PUSH1 0x20 PUSH1 0x0 KECCAK256 SWAP1 PUSH1 0x6 MUL ADD PUSH1 0x1 ADD PUSH1 0x0 SWAP1 SLOAD SWAP1 PUSH2 0x100 EXP SWAP1 DIV PUSH20 0xFFFFFFFFFFFFFFFFFFFFFFFFFFFFFFFFFFFFFFFF AND PUSH20 0xFFFFFFFFFFFFFFFFFFFFFFFFFFFFFFFFFFFFFFFF AND PUSH20 0xFFFFFFFFFFFFFFFFFFFFFFFFFFFFFFFFFFFFFFFF AND DUP2 MSTORE PUSH1 0x20 ADD SWAP1 DUP2 MSTORE PUSH1 0x20 ADD PUSH1 0x0 KECCAK256 PUSH1 0x0 DUP3 DUP3 SLOAD PUSH2 0x1E80 SWAP2 SWAP1 PUSH2 0x298A JUMP JUMPDEST SWAP3 POP POP DUP2 SWAP1 SSTORE POP PUSH1 0xA DUP2 DUP2 SLOAD DUP2 LT PUSH2 0x1E9B JUMPI PUSH2 0x1E9A PUSH2 0x2B5D JUMP JUMPDEST JUMPDEST SWAP1 PUSH1 0x0 MSTORE PUSH1 0x20 PUSH1 0x0 KECCAK256 SWAP1 PUSH1 0x6 MUL ADD PUSH1 0x1 ADD PUSH1 0x0 SWAP1 SLOAD SWAP1 PUSH2 0x100 EXP SWAP1 DIV PUSH20 0xFFFFFFFFFFFFFFFFFFFFFFFFFFFFFFFFFFFFFFFF AND PUSH20 0xFFFFFFFFFFFFFFFFFFFFFFFFFFFFFFFFFFFFFFFF AND PUSH2 0x8FC PUSH1 0xA DUP4 DUP2 SLOAD DUP2 LT PUSH2 0x1EFA JUMPI PUSH2 0x1EF9 PUSH2 0x2B5D JUMP JUMPDEST JUMPDEST SWAP1 PUSH1 0x0 MSTORE PUSH1 0x20 PUSH1 0x0 KECCAK256 SWAP1 PUSH1 0x6 MUL ADD PUSH1 0x2 ADD SLOAD SWAP1 DUP2 ISZERO MUL SWAP1 PUSH1 0x40 MLOAD PUSH1 0x0 PUSH1 0x40 MLOAD DUP1 DUP4 SUB DUP2 DUP6 DUP9 DUP9 CALL SWAP4 POP POP POP POP ISZERO DUP1 ISZERO PUSH2 0x1F37 JUMPI RETURNDATASIZE PUSH1 0x0 DUP1 RETURNDATACOPY RETURNDATASIZE PUSH1 0x0 REVERT JUMPDEST POP PUSH32 0x43FB677394050C8F05D75AA529267F5152E1EE4FC70F26C77D3B9A8E03CA17FB CALLER PUSH1 0xA DUP4 DUP2 SLOAD DUP2 LT PUSH2 0x1F6E JUMPI PUSH2 0x1F6D PUSH2 0x2B5D JUMP JUMPDEST JUMPDEST SWAP1 PUSH1 0x0 MSTORE PUSH1 0x20 PUSH1 0x0 KECCAK256 SWAP1 PUSH1 0x6 MUL ADD PUSH1 0x1 ADD PUSH1 0x0 SWAP1 SLOAD SWAP1 PUSH2 0x100 EXP SWAP1 DIV PUSH20 0xFFFFFFFFFFFFFFFFFFFFFFFFFFFFFFFFFFFFFFFF AND PUSH1 0xA DUP5 DUP2 SLOAD DUP2 LT PUSH2 0x1FB4 JUMPI PUSH2 0x1FB3 PUSH2 0x2B5D JUMP JUMPDEST JUMPDEST SWAP1 PUSH1 0x0 MSTORE PUSH1 0x20 PUSH1 0x0 KECCAK256 SWAP1 PUSH1 0x6 MUL ADD PUSH1 0x2 ADD SLOAD PUSH1 0xA DUP6 DUP2 SLOAD DUP2 LT PUSH2 0x1FDA JUMPI PUSH2 0x1FD9 PUSH2 0x2B5D JUMP JUMPDEST JUMPDEST SWAP1 PUSH1 0x0 MSTORE PUSH1 0x20 PUSH1 0x0 KECCAK256 SWAP1 PUSH1 0x6 MUL ADD PUSH1 0x3 ADD SLOAD PUSH1 0xA DUP7 DUP2 SLOAD DUP2 LT PUSH2 0x2000 JUMPI PUSH2 0x1FFF PUSH2 0x2B5D JUMP JUMPDEST JUMPDEST SWAP1 PUSH1 0x0 MSTORE PUSH1 0x20 PUSH1 0x0 KECCAK256 SWAP1 PUSH1 0x6 MUL ADD PUSH1 0x4 ADD SLOAD PUSH1 0xA DUP8 DUP2 SLOAD DUP2 LT PUSH2 0x2026 JUMPI PUSH2 0x2025 PUSH2 0x2B5D JUMP JUMPDEST JUMPDEST SWAP1 PUSH1 0x0 MSTORE PUSH1 0x20 PUSH1 0x0 KECCAK256 SWAP1 PUSH1 0x6 MUL ADD PUSH1 0x5 ADD SLOAD PUSH1 0x40 MLOAD PUSH2 0x204A SWAP7 SWAP6 SWAP5 SWAP4 SWAP3 SWAP2 SWAP1 PUSH2 0x2690 JUMP JUMPDEST PUSH1 0x40 MLOAD DUP1 SWAP2 SUB SWAP1 LOG1 PUSH1 0xA PUSH1 0x1 PUSH1 0xA DUP1 SLOAD SWAP1 POP PUSH2 0x2066 SWAP2 SWAP1 PUSH2 0x29E0 JUMP JUMPDEST DUP2 SLOAD DUP2 LT PUSH2 0x2077 JUMPI PUSH2 0x2076 PUSH2 0x2B5D JUMP JUMPDEST JUMPDEST SWAP1 PUSH1 0x0 MSTORE PUSH1 0x20 PUSH1 0x0 KECCAK256 SWAP1 PUSH1 0x6 MUL ADD PUSH1 0xA DUP3 DUP2 SLOAD DUP2 LT PUSH2 0x2099 JUMPI PUSH2 0x2098 PUSH2 0x2B5D JUMP JUMPDEST JUMPDEST SWAP1 PUSH1 0x0 MSTORE PUSH1 0x20 PUSH1 0x0 KECCAK256 SWAP1 PUSH1 0x6 MUL ADD PUSH1 0x0 DUP3 ADD PUSH1 0x0 SWAP1 SLOAD SWAP1 PUSH2 0x100 EXP SWAP1 DIV PUSH20 0xFFFFFFFFFFFFFFFFFFFFFFFFFFFFFFFFFFFFFFFF AND DUP2 PUSH1 0x0 ADD PUSH1 0x0 PUSH2 0x100 EXP DUP2 SLOAD DUP2 PUSH20 0xFFFFFFFFFFFFFFFFFFFFFFFFFFFFFFFFFFFFFFFF MUL NOT AND SWAP1 DUP4 PUSH20 0xFFFFFFFFFFFFFFFFFFFFFFFFFFFFFFFFFFFFFFFF AND MUL OR SWAP1 SSTORE POP PUSH1 0x1 DUP3 ADD PUSH1 0x0 SWAP1 SLOAD SWAP1 PUSH2 0x100 EXP SWAP1 DIV PUSH20 0xFFFFFFFFFFFFFFFFFFFFFFFFFFFFFFFFFFFFFFFF AND DUP2 PUSH1 0x1 ADD PUSH1 0x0 PUSH2 0x100 EXP DUP2 SLOAD DUP2 PUSH20 0xFFFFFFFFFFFFFFFFFFFFFFFFFFFFFFFFFFFFFFFF MUL NOT AND SWAP1 DUP4 PUSH20 0xFFFFFFFFFFFFFFFFFFFFFFFFFFFFFFFFFFFFFFFF AND MUL OR SWAP1 SSTORE POP PUSH1 0x2 DUP3 ADD SLOAD DUP2 PUSH1 0x2 ADD SSTORE PUSH1 0x3 DUP3 ADD SLOAD DUP2 PUSH1 0x3 ADD SSTORE PUSH1 0x4 DUP3 ADD SLOAD DUP2 PUSH1 0x4 ADD SSTORE PUSH1 0x5 DUP3 ADD SLOAD DUP2 PUSH1 0x5 ADD SSTORE SWAP1 POP POP PUSH1 0xA DUP1 SLOAD DUP1 PUSH2 0x21B2 JUMPI PUSH2 0x21B1 PUSH2 0x2B2E JUMP JUMPDEST JUMPDEST PUSH1 0x1 SWAP1 SUB DUP2 DUP2 SWAP1 PUSH1 0x0 MSTORE PUSH1 0x20 PUSH1 0x0 KECCAK256 SWAP1 PUSH1 0x6 MUL ADD PUSH1 0x0 DUP1 DUP3 ADD PUSH1 0x0 PUSH2 0x100 EXP DUP2 SLOAD SWAP1 PUSH20 0xFFFFFFFFFFFFFFFFFFFFFFFFFFFFFFFFFFFFFFFF MUL NOT AND SWAP1 SSTORE PUSH1 0x1 DUP3 ADD PUSH1 0x0 PUSH2 0x100 EXP DUP2 SLOAD SWAP1 PUSH20 0xFFFFFFFFFFFFFFFFFFFFFFFFFFFFFFFFFFFFFFFF MUL NOT AND SWAP1 SSTORE PUSH1 0x2 DUP3 ADD PUSH1 0x0 SWAP1 SSTORE PUSH1 0x3 DUP3 ADD PUSH1 0x0 SWAP1 SSTORE PUSH1 0x4 DUP3 ADD PUSH1 0x0 SWAP1 SSTORE PUSH1 0x5 DUP3 ADD PUSH1 0x0 SWAP1 SSTORE POP POP SWAP1 SSTORE POP JUMP JUMPDEST PUSH1 0x0 DUP2 CALLDATALOAD SWAP1 POP PUSH2 0x224B DUP2 PUSH2 0x2DC0 JUMP JUMPDEST SWAP3 SWAP2 POP POP JUMP JUMPDEST PUSH1 0x0 DUP2 CALLDATALOAD SWAP1 POP PUSH2 0x2260 DUP2 PUSH2 0x2DD7 JUMP JUMPDEST SWAP3 SWAP2 POP POP JUMP JUMPDEST PUSH1 0x0 DUP2 CALLDATALOAD SWAP1 POP PUSH2 0x2275 DUP2 PUSH2 0x2DEE JUMP JUMPDEST SWAP3 SWAP2 POP POP JUMP JUMPDEST PUSH1 0x0 PUSH1 0x20 DUP3 DUP5 SUB SLT ISZERO PUSH2 0x2291 JUMPI PUSH2 0x2290 PUSH2 0x2B8C JUMP JUMPDEST JUMPDEST PUSH1 0x0 PUSH2 0x229F DUP5 DUP3 DUP6 ADD PUSH2 0x223C JUMP JUMPDEST SWAP2 POP POP SWAP3 SWAP2 POP POP JUMP JUMPDEST PUSH1 0x0 DUP1 PUSH1 0x40 DUP4 DUP6 SUB SLT ISZERO PUSH2 0x22BF JUMPI PUSH2 0x22BE PUSH2 0x2B8C JUMP JUMPDEST JUMPDEST PUSH1 0x0 PUSH2 0x22CD DUP6 DUP3 DUP7 ADD PUSH2 0x2251 JUMP JUMPDEST SWAP3 POP POP PUSH1 0x20 PUSH2 0x22DE DUP6 DUP3 DUP7 ADD PUSH2 0x2266 JUMP JUMPDEST SWAP2 POP POP SWAP3 POP SWAP3 SWAP1 POP JUMP JUMPDEST PUSH1 0x0 PUSH1 0x20 DUP3 DUP5 SUB SLT ISZERO PUSH2 0x22FE JUMPI PUSH2 0x22FD PUSH2 0x2B8C JUMP JUMPDEST JUMPDEST PUSH1 0x0 PUSH2 0x230C DUP5 DUP3 DUP6 ADD PUSH2 0x2266 JUMP JUMPDEST SWAP2 POP POP SWAP3 SWAP2 POP POP JUMP JUMPDEST PUSH1 0x0 PUSH2 0x2321 DUP4 DUP4 PUSH2 0x2363 JUMP JUMPDEST PUSH1 0x20 DUP4 ADD SWAP1 POP SWAP3 SWAP2 POP POP JUMP JUMPDEST PUSH1 0x0 PUSH2 0x2339 DUP4 DUP4 PUSH2 0x2596 JUMP JUMPDEST PUSH1 0xC0 DUP4 ADD SWAP1 POP SWAP3 SWAP2 POP POP JUMP JUMPDEST PUSH2 0x234E DUP2 PUSH2 0x2A6E JUMP JUMPDEST DUP3 MSTORE POP POP JUMP JUMPDEST PUSH2 0x235D DUP2 PUSH2 0x2A26 JUMP JUMPDEST DUP3 MSTORE POP POP JUMP JUMPDEST PUSH2 0x236C DUP2 PUSH2 0x2A14 JUMP JUMPDEST DUP3 MSTORE POP POP JUMP JUMPDEST PUSH2 0x237B DUP2 PUSH2 0x2A14 JUMP JUMPDEST DUP3 MSTORE POP POP JUMP JUMPDEST PUSH1 0x0 PUSH2 0x238C DUP3 PUSH2 0x2927 JUMP JUMPDEST PUSH2 0x2396 DUP2 DUP6 PUSH2 0x2957 JUMP JUMPDEST SWAP4 POP PUSH2 0x23A1 DUP4 PUSH2 0x2907 JUMP JUMPDEST DUP1 PUSH1 0x0 JUMPDEST DUP4 DUP2 LT ISZERO PUSH2 0x23D2 JUMPI DUP2 MLOAD PUSH2 0x23B9 DUP9 DUP3 PUSH2 0x2315 JUMP JUMPDEST SWAP8 POP PUSH2 0x23C4 DUP4 PUSH2 0x293D JUMP JUMPDEST SWAP3 POP POP PUSH1 0x1 DUP2 ADD SWAP1 POP PUSH2 0x23A5 JUMP JUMPDEST POP DUP6 SWAP4 POP POP POP POP SWAP3 SWAP2 POP POP JUMP JUMPDEST PUSH1 0x0 PUSH2 0x23EA DUP3 PUSH2 0x2932 JUMP JUMPDEST PUSH2 0x23F4 DUP2 DUP6 PUSH2 0x2968 JUMP JUMPDEST SWAP4 POP PUSH2 0x23FF DUP4 PUSH2 0x2917 JUMP JUMPDEST DUP1 PUSH1 0x0 JUMPDEST DUP4 DUP2 LT ISZERO PUSH2 0x2430 JUMPI DUP2 MLOAD PUSH2 0x2417 DUP9 DUP3 PUSH2 0x232D JUMP JUMPDEST SWAP8 POP PUSH2 0x2422 DUP4 PUSH2 0x294A JUMP JUMPDEST SWAP3 POP POP PUSH1 0x1 DUP2 ADD SWAP1 POP PUSH2 0x2403 JUMP JUMPDEST POP DUP6 SWAP4 POP POP POP POP SWAP3 SWAP2 POP POP JUMP JUMPDEST PUSH2 0x2446 DUP2 PUSH2 0x2A38 JUMP JUMPDEST DUP3 MSTORE POP POP JUMP JUMPDEST PUSH2 0x2455 DUP2 PUSH2 0x2A80 JUMP JUMPDEST DUP3 MSTORE POP POP JUMP JUMPDEST PUSH1 0x0 PUSH2 0x2468 PUSH1 0x1C DUP4 PUSH2 0x2979 JUMP JUMPDEST SWAP2 POP PUSH2 0x2473 DUP3 PUSH2 0x2B91 JUMP JUMPDEST PUSH1 0x20 DUP3 ADD SWAP1 POP SWAP2 SWAP1 POP JUMP JUMPDEST PUSH1 0x0 PUSH2 0x248B PUSH1 0x26 DUP4 PUSH2 0x2979 JUMP JUMPDEST SWAP2 POP PUSH2 0x2496 DUP3 PUSH2 0x2BBA JUMP JUMPDEST PUSH1 0x40 DUP3 ADD SWAP1 POP SWAP2 SWAP1 POP JUMP JUMPDEST PUSH1 0x0 PUSH2 0x24AE PUSH1 0x26 DUP4 PUSH2 0x2979 JUMP JUMPDEST SWAP2 POP PUSH2 0x24B9 DUP3 PUSH2 0x2C09 JUMP JUMPDEST PUSH1 0x40 DUP3 ADD SWAP1 POP SWAP2 SWAP1 POP JUMP JUMPDEST PUSH1 0x0 PUSH2 0x24D1 PUSH1 0x19 DUP4 PUSH2 0x2979 JUMP JUMPDEST SWAP2 POP PUSH2 0x24DC DUP3 PUSH2 0x2C58 JUMP JUMPDEST PUSH1 0x20 DUP3 ADD SWAP1 POP SWAP2 SWAP1 POP JUMP JUMPDEST PUSH1 0x0 PUSH2 0x24F4 PUSH1 0x1B DUP4 PUSH2 0x2979 JUMP JUMPDEST SWAP2 POP PUSH2 0x24FF DUP3 PUSH2 0x2C81 JUMP JUMPDEST PUSH1 0x20 DUP3 ADD SWAP1 POP SWAP2 SWAP1 POP JUMP JUMPDEST PUSH1 0x0 PUSH2 0x2517 PUSH1 0x24 DUP4 PUSH2 0x2979 JUMP JUMPDEST SWAP2 POP PUSH2 0x2522 DUP3 PUSH2 0x2CAA JUMP JUMPDEST PUSH1 0x40 DUP3 ADD SWAP1 POP SWAP2 SWAP1 POP JUMP JUMPDEST PUSH1 0x0 PUSH2 0x253A PUSH1 0x28 DUP4 PUSH2 0x2979 JUMP JUMPDEST SWAP2 POP PUSH2 0x2545 DUP3 PUSH2 0x2CF9 JUMP JUMPDEST PUSH1 0x40 DUP3 ADD SWAP1 POP SWAP2 SWAP1 POP JUMP JUMPDEST PUSH1 0x0 PUSH2 0x255D PUSH1 0x1F DUP4 PUSH2 0x2979 JUMP JUMPDEST SWAP2 POP PUSH2 0x2568 DUP3 PUSH2 0x2D48 JUMP JUMPDEST PUSH1 0x20 DUP3 ADD SWAP1 POP SWAP2 SWAP1 POP JUMP JUMPDEST PUSH1 0x0 PUSH2 0x2580 PUSH1 0x29 DUP4 PUSH2 0x2979 JUMP JUMPDEST SWAP2 POP PUSH2 0x258B DUP3 PUSH2 0x2D71 JUMP JUMPDEST PUSH1 0x40 DUP3 ADD SWAP1 POP SWAP2 SWAP1 POP JUMP JUMPDEST PUSH1 0xC0 DUP3 ADD PUSH1 0x0 DUP3 ADD MLOAD PUSH2 0x25AC PUSH1 0x0 DUP6 ADD DUP3 PUSH2 0x2363 JUMP JUMPDEST POP PUSH1 0x20 DUP3 ADD MLOAD PUSH2 0x25BF PUSH1 0x20 DUP6 ADD DUP3 PUSH2 0x2354 JUMP JUMPDEST POP PUSH1 0x40 DUP3 ADD MLOAD PUSH2 0x25D2 PUSH1 0x40 DUP6 ADD DUP3 PUSH2 0x2611 JUMP JUMPDEST POP PUSH1 0x60 DUP3 ADD MLOAD PUSH2 0x25E5 PUSH1 0x60 DUP6 ADD DUP3 PUSH2 0x2611 JUMP JUMPDEST POP PUSH1 0x80 DUP3 ADD MLOAD PUSH2 0x25F8 PUSH1 0x80 DUP6 ADD DUP3 PUSH2 0x2611 JUMP JUMPDEST POP PUSH1 0xA0 DUP3 ADD MLOAD PUSH2 0x260B PUSH1 0xA0 DUP6 ADD DUP3 PUSH2 0x2611 JUMP JUMPDEST POP POP POP POP JUMP JUMPDEST PUSH2 0x261A DUP2 PUSH2 0x2A64 JUMP JUMPDEST DUP3 MSTORE POP POP JUMP JUMPDEST PUSH2 0x2629 DUP2 PUSH2 0x2A64 JUMP JUMPDEST DUP3 MSTORE POP POP JUMP JUMPDEST PUSH1 0x0 PUSH1 0xC0 DUP3 ADD SWAP1 POP PUSH2 0x2644 PUSH1 0x0 DUP4 ADD DUP10 PUSH2 0x2372 JUMP JUMPDEST PUSH2 0x2651 PUSH1 0x20 DUP4 ADD DUP9 PUSH2 0x2345 JUMP JUMPDEST PUSH2 0x265E PUSH1 0x40 DUP4 ADD DUP8 PUSH2 0x2620 JUMP JUMPDEST PUSH2 0x266B PUSH1 0x60 DUP4 ADD DUP7 PUSH2 0x2620 JUMP JUMPDEST PUSH2 0x2678 PUSH1 0x80 DUP4 ADD DUP6 PUSH2 0x244C JUMP JUMPDEST PUSH2 0x2685 PUSH1 0xA0 DUP4 ADD DUP5 PUSH2 0x2620 JUMP JUMPDEST SWAP8 SWAP7 POP POP POP POP POP POP POP JUMP JUMPDEST PUSH1 0x0 PUSH1 0xC0 DUP3 ADD SWAP1 POP PUSH2 0x26A5 PUSH1 0x0 DUP4 ADD DUP10 PUSH2 0x2372 JUMP JUMPDEST PUSH2 0x26B2 PUSH1 0x20 DUP4 ADD DUP9 PUSH2 0x2345 JUMP JUMPDEST PUSH2 0x26BF PUSH1 0x40 DUP4 ADD DUP8 PUSH2 0x2620 JUMP JUMPDEST PUSH2 0x26CC PUSH1 0x60 DUP4 ADD DUP7 PUSH2 0x2620 JUMP JUMPDEST PUSH2 0x26D9 PUSH1 0x80 DUP4 ADD DUP6 PUSH2 0x2620 JUMP JUMPDEST PUSH2 0x26E6 PUSH1 0xA0 DUP4 ADD DUP5 PUSH2 0x2620 JUMP JUMPDEST SWAP8 SWAP7 POP POP POP POP POP POP POP JUMP JUMPDEST PUSH1 0x0 PUSH1 0x60 DUP3 ADD SWAP1 POP PUSH2 0x2706 PUSH1 0x0 DUP4 ADD DUP7 PUSH2 0x2372 JUMP JUMPDEST PUSH2 0x2713 PUSH1 0x20 DUP4 ADD DUP6 PUSH2 0x2372 JUMP JUMPDEST PUSH2 0x2720 PUSH1 0x40 DUP4 ADD DUP5 PUSH2 0x2620 JUMP JUMPDEST SWAP5 SWAP4 POP POP POP POP JUMP JUMPDEST PUSH1 0x0 PUSH1 0x80 DUP3 ADD SWAP1 POP PUSH2 0x273D PUSH1 0x0 DUP4 ADD DUP8 PUSH2 0x2372 JUMP JUMPDEST PUSH2 0x274A PUSH1 0x20 DUP4 ADD DUP7 PUSH2 0x2620 JUMP JUMPDEST PUSH2 0x2757 PUSH1 0x40 DUP4 ADD DUP6 PUSH2 0x2620 JUMP JUMPDEST PUSH2 0x2764 PUSH1 0x60 DUP4 ADD DUP5 PUSH2 0x2620 JUMP JUMPDEST SWAP6 SWAP5 POP POP POP POP POP JUMP JUMPDEST PUSH1 0x0 PUSH1 0x20 DUP3 ADD SWAP1 POP DUP2 DUP2 SUB PUSH1 0x0 DUP4 ADD MSTORE PUSH2 0x2787 DUP2 DUP5 PUSH2 0x2381 JUMP JUMPDEST SWAP1 POP SWAP3 SWAP2 POP POP JUMP JUMPDEST PUSH1 0x0 PUSH1 0x20 DUP3 ADD SWAP1 POP DUP2 DUP2 SUB PUSH1 0x0 DUP4 ADD MSTORE PUSH2 0x27A9 DUP2 DUP5 PUSH2 0x23DF JUMP JUMPDEST SWAP1 POP SWAP3 SWAP2 POP POP JUMP JUMPDEST PUSH1 0x0 PUSH1 0x20 DUP3 ADD SWAP1 POP PUSH2 0x27C6 PUSH1 0x0 DUP4 ADD DUP5 PUSH2 0x243D JUMP JUMPDEST SWAP3 SWAP2 POP POP JUMP JUMPDEST PUSH1 0x0 PUSH1 0x20 DUP3 ADD SWAP1 POP DUP2 DUP2 SUB PUSH1 0x0 DUP4 ADD MSTORE PUSH2 0x27E5 DUP2 PUSH2 0x245B JUMP JUMPDEST SWAP1 POP SWAP2 SWAP1 POP JUMP JUMPDEST PUSH1 0x0 PUSH1 0x20 DUP3 ADD SWAP1 POP DUP2 DUP2 SUB PUSH1 0x0 DUP4 ADD MSTORE PUSH2 0x2805 DUP2 PUSH2 0x247E JUMP JUMPDEST SWAP1 POP SWAP2 SWAP1 POP JUMP JUMPDEST PUSH1 0x0 PUSH1 0x20 DUP3 ADD SWAP1 POP DUP2 DUP2 SUB PUSH1 0x0 DUP4 ADD MSTORE PUSH2 0x2825 DUP2 PUSH2 0x24A1 JUMP JUMPDEST SWAP1 POP SWAP2 SWAP1 POP JUMP JUMPDEST PUSH1 0x0 PUSH1 0x20 DUP3 ADD SWAP1 POP DUP2 DUP2 SUB PUSH1 0x0 DUP4 ADD MSTORE PUSH2 0x2845 DUP2 PUSH2 0x24C4 JUMP JUMPDEST SWAP1 POP SWAP2 SWAP1 POP JUMP JUMPDEST PUSH1 0x0 PUSH1 0x20 DUP3 ADD SWAP1 POP DUP2 DUP2 SUB PUSH1 0x0 DUP4 ADD MSTORE PUSH2 0x2865 DUP2 PUSH2 0x24E7 JUMP JUMPDEST SWAP1 POP SWAP2 SWAP1 POP JUMP JUMPDEST PUSH1 0x0 PUSH1 0x20 DUP3 ADD SWAP1 POP DUP2 DUP2 SUB PUSH1 0x0 DUP4 ADD MSTORE PUSH2 0x2885 DUP2 PUSH2 0x250A JUMP JUMPDEST SWAP1 POP SWAP2 SWAP1 POP JUMP JUMPDEST PUSH1 0x0 PUSH1 0x20 DUP3 ADD SWAP1 POP DUP2 DUP2 SUB PUSH1 0x0 DUP4 ADD MSTORE PUSH2 0x28A5 DUP2 PUSH2 0x252D JUMP JUMPDEST SWAP1 POP SWAP2 SWAP1 POP JUMP JUMPDEST PUSH1 0x0 PUSH1 0x20 DUP3 ADD SWAP1 POP DUP2 DUP2 SUB PUSH1 0x0 DUP4 ADD MSTORE PUSH2 0x28C5 DUP2 PUSH2 0x2550 JUMP JUMPDEST SWAP1 POP SWAP2 SWAP1 POP JUMP JUMPDEST PUSH1 0x0 PUSH1 0x20 DUP3 ADD SWAP1 POP DUP2 DUP2 SUB PUSH1 0x0 DUP4 ADD MSTORE PUSH2 0x28E5 DUP2 PUSH2 0x2573 JUMP JUMPDEST SWAP1 POP SWAP2 SWAP1 POP JUMP JUMPDEST PUSH1 0x0 PUSH1 0x20 DUP3 ADD SWAP1 POP PUSH2 0x2901 PUSH1 0x0 DUP4 ADD DUP5 PUSH2 0x2620 JUMP JUMPDEST SWAP3 SWAP2 POP POP JUMP JUMPDEST PUSH1 0x0 DUP2 SWAP1 POP PUSH1 0x20 DUP3 ADD SWAP1 POP SWAP2 SWAP1 POP JUMP JUMPDEST PUSH1 0x0 DUP2 SWAP1 POP PUSH1 0x20 DUP3 ADD SWAP1 POP SWAP2 SWAP1 POP JUMP JUMPDEST PUSH1 0x0 DUP2 MLOAD SWAP1 POP SWAP2 SWAP1 POP JUMP JUMPDEST PUSH1 0x0 DUP2 MLOAD SWAP1 POP SWAP2 SWAP1 POP JUMP JUMPDEST PUSH1 0x0 PUSH1 0x20 DUP3 ADD SWAP1 POP SWAP2 SWAP1 POP JUMP JUMPDEST PUSH1 0x0 PUSH1 0x20 DUP3 ADD SWAP1 POP SWAP2 SWAP1 POP JUMP JUMPDEST PUSH1 0x0 DUP3 DUP3 MSTORE PUSH1 0x20 DUP3 ADD SWAP1 POP SWAP3 SWAP2 POP POP JUMP JUMPDEST PUSH1 0x0 DUP3 DUP3 MSTORE PUSH1 0x20 DUP3 ADD SWAP1 POP SWAP3 SWAP2 POP POP JUMP JUMPDEST PUSH1 0x0 DUP3 DUP3 MSTORE PUSH1 0x20 DUP3 ADD SWAP1 POP SWAP3 SWAP2 POP POP JUMP JUMPDEST PUSH1 0x0 PUSH2 0x2995 DUP3 PUSH2 0x2A64 JUMP JUMPDEST SWAP2 POP PUSH2 0x29A0 DUP4 PUSH2 0x2A64 JUMP JUMPDEST SWAP3 POP DUP3 PUSH32 0xFFFFFFFFFFFFFFFFFFFFFFFFFFFFFFFFFFFFFFFFFFFFFFFFFFFFFFFFFFFFFFFF SUB DUP3 GT ISZERO PUSH2 0x29D5 JUMPI PUSH2 0x29D4 PUSH2 0x2AFF JUMP JUMPDEST JUMPDEST DUP3 DUP3 ADD SWAP1 POP SWAP3 SWAP2 POP POP JUMP JUMPDEST PUSH1 0x0 PUSH2 0x29EB DUP3 PUSH2 0x2A64 JUMP JUMPDEST SWAP2 POP PUSH2 0x29F6 DUP4 PUSH2 0x2A64 JUMP JUMPDEST SWAP3 POP DUP3 DUP3 LT ISZERO PUSH2 0x2A09 JUMPI PUSH2 0x2A08 PUSH2 0x2AFF JUMP JUMPDEST JUMPDEST DUP3 DUP3 SUB SWAP1 POP SWAP3 SWAP2 POP POP JUMP JUMPDEST PUSH1 0x0 PUSH2 0x2A1F DUP3 PUSH2 0x2A44 JUMP JUMPDEST SWAP1 POP SWAP2 SWAP1 POP JUMP JUMPDEST PUSH1 0x0 PUSH2 0x2A31 DUP3 PUSH2 0x2A44 JUMP JUMPDEST SWAP1 POP SWAP2 SWAP1 POP JUMP JUMPDEST PUSH1 0x0 DUP2 ISZERO ISZERO SWAP1 POP SWAP2 SWAP1 POP JUMP JUMPDEST PUSH1 0x0 PUSH20 0xFFFFFFFFFFFFFFFFFFFFFFFFFFFFFFFFFFFFFFFF DUP3 AND SWAP1 POP SWAP2 SWAP1 POP JUMP JUMPDEST PUSH1 0x0 DUP2 SWAP1 POP SWAP2 SWAP1 POP JUMP JUMPDEST PUSH1 0x0 PUSH2 0x2A79 DUP3 PUSH2 0x2A92 JUMP JUMPDEST SWAP1 POP SWAP2 SWAP1 POP JUMP JUMPDEST PUSH1 0x0 PUSH2 0x2A8B DUP3 PUSH2 0x2A64 JUMP JUMPDEST SWAP1 POP SWAP2 SWAP1 POP JUMP JUMPDEST PUSH1 0x0 PUSH2 0x2A9D DUP3 PUSH2 0x2AA4 JUMP JUMPDEST SWAP1 POP SWAP2 SWAP1 POP JUMP JUMPDEST PUSH1 0x0 PUSH2 0x2AAF DUP3 PUSH2 0x2A44 JUMP JUMPDEST SWAP1 POP SWAP2 SWAP1 POP JUMP JUMPDEST PUSH1 0x0 PUSH2 0x2AC1 DUP3 PUSH2 0x2A64 JUMP JUMPDEST SWAP2 POP PUSH32 0xFFFFFFFFFFFFFFFFFFFFFFFFFFFFFFFFFFFFFFFFFFFFFFFFFFFFFFFFFFFFFFFF DUP3 EQ ISZERO PUSH2 0x2AF4 JUMPI PUSH2 0x2AF3 PUSH2 0x2AFF JUMP JUMPDEST JUMPDEST PUSH1 0x1 DUP3 ADD SWAP1 POP SWAP2 SWAP1 POP JUMP JUMPDEST PUSH32 0x4E487B7100000000000000000000000000000000000000000000000000000000 PUSH1 0x0 MSTORE PUSH1 0x11 PUSH1 0x4 MSTORE PUSH1 0x24 PUSH1 0x0 REVERT JUMPDEST PUSH32 0x4E487B7100000000000000000000000000000000000000000000000000000000 PUSH1 0x0 MSTORE PUSH1 0x31 PUSH1 0x4 MSTORE PUSH1 0x24 PUSH1 0x0 REVERT JUMPDEST PUSH32 0x4E487B7100000000000000000000000000000000000000000000000000000000 PUSH1 0x0 MSTORE PUSH1 0x32 PUSH1 0x4 MSTORE PUSH1 0x24 PUSH1 0x0 REVERT JUMPDEST PUSH1 0x0 DUP1 REVERT JUMPDEST PUSH32 0x63616E6E6F74206465706F7369697420612063616C7565206F66203000000000 PUSH1 0x0 DUP3 ADD MSTORE POP JUMP JUMPDEST PUSH32 0x696E737566666963656E742066756E647320746F206372656174652061207472 PUSH1 0x0 DUP3 ADD MSTORE PUSH32 0x616E736665720000000000000000000000000000000000000000000000000000 PUSH1 0x20 DUP3 ADD MSTORE POP JUMP JUMPDEST PUSH32 0x63616E6E6F7420617070726F7665207468652073616D65207472616E73666572 PUSH1 0x0 DUP3 ADD MSTORE PUSH32 0x2074776963650000000000000000000000000000000000000000000000000000 PUSH1 0x20 DUP3 ADD MSTORE POP JUMP JUMPDEST PUSH32 0x77616C6C6574206F776E6572206E6F7420646574656374656400000000000000 PUSH1 0x0 DUP3 ADD MSTORE POP JUMP JUMPDEST PUSH32 0x63616E6E6F7420616464206475706C6963617465206F776E6572730000000000 PUSH1 0x0 DUP3 ADD MSTORE POP JUMP JUMPDEST PUSH32 0x6F6E6C7920746865207472616E736665722063726561746F722063616E206361 PUSH1 0x0 DUP3 ADD MSTORE PUSH32 0x6E63656C00000000000000000000000000000000000000000000000000000000 PUSH1 0x20 DUP3 ADD MSTORE POP JUMP JUMPDEST PUSH32 0x63616E6E6F74207472616E736665722066756E6473207769746869776E207468 PUSH1 0x0 DUP3 ADD MSTORE PUSH32 0x652077616C6C6574000000000000000000000000000000000000000000000000 PUSH1 0x20 DUP3 ADD MSTORE POP JUMP JUMPDEST PUSH32 0x7472616E73666572207265717565737420646F6573206E6F7420657869737400 PUSH1 0x0 DUP3 ADD MSTORE POP JUMP JUMPDEST PUSH32 0x6F6E6C792077616C6C6574206F776E6572732063616E2063616C6C2074686973 PUSH1 0x0 DUP3 ADD MSTORE PUSH32 0x2066756E6374696F6E0000000000000000000000000000000000000000000000 PUSH1 0x20 DUP3 ADD MSTORE POP JUMP JUMPDEST PUSH2 0x2DC9 DUP2 PUSH2 0x2A14 JUMP JUMPDEST DUP2 EQ PUSH2 0x2DD4 JUMPI PUSH1 0x0 DUP1 REVERT JUMPDEST POP JUMP JUMPDEST PUSH2 0x2DE0 DUP2 PUSH2 0x2A26 JUMP JUMPDEST DUP2 EQ PUSH2 0x2DEB JUMPI PUSH1 0x0 DUP1 REVERT JUMPDEST POP JUMP JUMPDEST PUSH2 0x2DF7 DUP2 PUSH2 0x2A64 JUMP JUMPDEST DUP2 EQ PUSH2 0x2E02 JUMPI PUSH1 0x0 DUP1 REVERT JUMPDEST POP JUMP INVALID LOG2 PUSH5 0x6970667358 0x22 SLT KECCAK256 0xE6 0xEA PUSH9 0x80DE190F7BEA2E4D0B PUSH4 0xB9268172 DUP14 0xC8 0xD7 0xD7 0xA8 0x25 GASPRICE PUSH4 0x43C74BCB SWAP8 AND PUSH12 0x64736F6C6343000807003300 "
				},
				"gasEstimates": {
					"creation": {
						"codeDepositCost": "2367000",
						"executionCost": "infinite",
						"totalCost": "infinite"
					},
					"external": {
						"addWalletOwner(address)": "infinite",
						"approveTransferRequest(uint256)": "infinite",
						"cancelTransferRequest(uint256)": "infinite",
						"createTrnasferRequest(address,uint256)": "infinite",
						"deposit()": "infinite",
						"getApprovalLimit()": "2548",
						"getApprovals(uint256)": "2978",
						"getBalance()": "2527",
						"getContractBalance()": "428",
						"getTransferRequests()": "infinite",
						"getWalletOners()": "infinite",
						"removeWalletOwner(address)": "infinite",
						"withdraw(uint256)": "infinite"
					},
					"internal": {
						"transferFunds(uint256)": "infinite"
					}
				},
				"methodIdentifiers": {
					"addWalletOwner(address)": "93dfbd9e",
					"approveTransferRequest(uint256)": "dec3eea5",
					"cancelTransferRequest(uint256)": "5f89aacb",
					"createTrnasferRequest(address,uint256)": "3cc61ea7",
					"deposit()": "d0e30db0",
					"getApprovalLimit()": "7278a1fa",
					"getApprovals(uint256)": "a4e360c8",
					"getBalance()": "12065fe0",
					"getContractBalance()": "6f9fb98a",
					"getTransferRequests()": "a04ef145",
					"getWalletOners()": "ce993c77",
					"removeWalletOwner(address)": "aabdc71a",
					"withdraw(uint256)": "2e1a7d4d"
				}
			},
			"storageLayout": {
				"storage": [
					{
						"astId": 3,
						"contract": "contracts/Multisig.sol:MultiiSig",
						"label": "mainOwner",
						"offset": 0,
						"slot": "0",
						"type": "t_address"
					},
					{
						"astId": 6,
						"contract": "contracts/Multisig.sol:MultiiSig",
						"label": "walletowners",
						"offset": 0,
						"slot": "1",
						"type": "t_array(t_address)dyn_storage"
					},
					{
						"astId": 8,
						"contract": "contracts/Multisig.sol:MultiiSig",
						"label": "limit",
						"offset": 0,
						"slot": "2",
						"type": "t_uint256"
					},
					{
						"astId": 11,
						"contract": "contracts/Multisig.sol:MultiiSig",
						"label": "depositId",
						"offset": 0,
						"slot": "3",
						"type": "t_uint256"
					},
					{
						"astId": 14,
						"contract": "contracts/Multisig.sol:MultiiSig",
						"label": "withdrawalId",
						"offset": 0,
						"slot": "4",
						"type": "t_uint256"
					},
					{
						"astId": 17,
						"contract": "contracts/Multisig.sol:MultiiSig",
						"label": "transferId",
						"offset": 0,
						"slot": "5",
						"type": "t_uint256"
					},
					{
						"astId": 20,
						"contract": "contracts/Multisig.sol:MultiiSig",
						"label": "tokenList",
						"offset": 0,
						"slot": "6",
						"type": "t_array(t_string_storage)dyn_storage"
					},
					{
						"astId": 52,
						"contract": "contracts/Multisig.sol:MultiiSig",
						"label": "balance",
						"offset": 0,
						"slot": "7",
						"type": "t_mapping(t_address,t_uint256)"
					},
					{
						"astId": 58,
						"contract": "contracts/Multisig.sol:MultiiSig",
						"label": "approvals",
						"offset": 0,
						"slot": "8",
						"type": "t_mapping(t_address,t_mapping(t_uint256,t_bool))"
					},
					{
						"astId": 63,
						"contract": "contracts/Multisig.sol:MultiiSig",
						"label": "tokenMapping",
						"offset": 0,
						"slot": "9",
						"type": "t_mapping(t_string_memory_ptr,t_struct(Token)68_storage)"
					},
					{
						"astId": 85,
						"contract": "contracts/Multisig.sol:MultiiSig",
						"label": "transferRequests",
						"offset": 0,
						"slot": "10",
						"type": "t_array(t_struct(Transfer)81_storage)dyn_storage"
					}
				],
				"types": {
					"t_address": {
						"encoding": "inplace",
						"label": "address",
						"numberOfBytes": "20"
					},
					"t_address_payable": {
						"encoding": "inplace",
						"label": "address payable",
						"numberOfBytes": "20"
					},
					"t_array(t_address)dyn_storage": {
						"base": "t_address",
						"encoding": "dynamic_array",
						"label": "address[]",
						"numberOfBytes": "32"
					},
					"t_array(t_string_storage)dyn_storage": {
						"base": "t_string_storage",
						"encoding": "dynamic_array",
						"label": "string[]",
						"numberOfBytes": "32"
					},
					"t_array(t_struct(Transfer)81_storage)dyn_storage": {
						"base": "t_struct(Transfer)81_storage",
						"encoding": "dynamic_array",
						"label": "struct MultiiSig.Transfer[]",
						"numberOfBytes": "32"
					},
					"t_bool": {
						"encoding": "inplace",
						"label": "bool",
						"numberOfBytes": "1"
					},
					"t_mapping(t_address,t_mapping(t_uint256,t_bool))": {
						"encoding": "mapping",
						"key": "t_address",
						"label": "mapping(address => mapping(uint256 => bool))",
						"numberOfBytes": "32",
						"value": "t_mapping(t_uint256,t_bool)"
					},
					"t_mapping(t_address,t_uint256)": {
						"encoding": "mapping",
						"key": "t_address",
						"label": "mapping(address => uint256)",
						"numberOfBytes": "32",
						"value": "t_uint256"
					},
					"t_mapping(t_string_memory_ptr,t_struct(Token)68_storage)": {
						"encoding": "mapping",
						"key": "t_string_memory_ptr",
						"label": "mapping(string => struct MultiiSig.Token)",
						"numberOfBytes": "32",
						"value": "t_struct(Token)68_storage"
					},
					"t_mapping(t_uint256,t_bool)": {
						"encoding": "mapping",
						"key": "t_uint256",
						"label": "mapping(uint256 => bool)",
						"numberOfBytes": "32",
						"value": "t_bool"
					},
					"t_string_memory_ptr": {
						"encoding": "bytes",
						"label": "string",
						"numberOfBytes": "32"
					},
					"t_string_storage": {
						"encoding": "bytes",
						"label": "string",
						"numberOfBytes": "32"
					},
					"t_struct(Token)68_storage": {
						"encoding": "inplace",
						"label": "struct MultiiSig.Token",
						"members": [
							{
								"astId": 65,
								"contract": "contracts/Multisig.sol:MultiiSig",
								"label": "ticker",
								"offset": 0,
								"slot": "0",
								"type": "t_string_storage"
							},
							{
								"astId": 67,
								"contract": "contracts/Multisig.sol:MultiiSig",
								"label": "tokenAddress",
								"offset": 0,
								"slot": "1",
								"type": "t_address"
							}
						],
						"numberOfBytes": "64"
					},
					"t_struct(Transfer)81_storage": {
						"encoding": "inplace",
						"label": "struct MultiiSig.Transfer",
						"members": [
							{
								"astId": 70,
								"contract": "contracts/Multisig.sol:MultiiSig",
								"label": "sender",
								"offset": 0,
								"slot": "0",
								"type": "t_address"
							},
							{
								"astId": 72,
								"contract": "contracts/Multisig.sol:MultiiSig",
								"label": "receiver",
								"offset": 0,
								"slot": "1",
								"type": "t_address_payable"
							},
							{
								"astId": 74,
								"contract": "contracts/Multisig.sol:MultiiSig",
								"label": "amount",
								"offset": 0,
								"slot": "2",
								"type": "t_uint256"
							},
							{
								"astId": 76,
								"contract": "contracts/Multisig.sol:MultiiSig",
								"label": "id",
								"offset": 0,
								"slot": "3",
								"type": "t_uint256"
							},
							{
								"astId": 78,
								"contract": "contracts/Multisig.sol:MultiiSig",
								"label": "approvals",
								"offset": 0,
								"slot": "4",
								"type": "t_uint256"
							},
							{
								"astId": 80,
								"contract": "contracts/Multisig.sol:MultiiSig",
								"label": "timeOfTransaction",
								"offset": 0,
								"slot": "5",
								"type": "t_uint256"
							}
						],
						"numberOfBytes": "192"
					},
					"t_uint256": {
						"encoding": "inplace",
						"label": "uint256",
						"numberOfBytes": "32"
					}
				}
			},
			"userdoc": {
				"kind": "user",
				"methods": {},
				"version": 1
			}
		}
	}
}