{
	"data": {
		"bytecode": {
			"linkReferences": {},
			"object": "60806040525f6003555f6004555f6005553480156200001c575f80fd5b50335f806101000a81548173ffffffffffffffffffffffffffffffffffffffff021916908373ffffffffffffffffffffffffffffffffffffffff16021790555060015f8054906101000a900473ffffffffffffffffffffffffffffffffffffffff16908060018154018082558091505060019003905f5260205f20015f9091909190916101000a81548173ffffffffffffffffffffffffffffffffffffffff021916908373ffffffffffffffffffffffffffffffffffffffff16021790555060018080549050620000ee919062000196565b60028190555060068060018154018082558091505060019003905f5260205f20015f6040518060400160405280600381526020017f4554480000000000000000000000000000000000000000000000000000000000815250909190915090816200015991906200042b565b506200050f565b5f819050919050565b7f4e487b71000000000000000000000000000000000000000000000000000000005f52601160045260245ffd5b5f620001a28262000160565b9150620001af8362000160565b9250828203905081811115620001ca57620001c962000169565b5b92915050565b5f81519050919050565b7f4e487b71000000000000000000000000000000000000000000000000000000005f52604160045260245ffd5b7f4e487b71000000000000000000000000000000000000000000000000000000005f52602260045260245ffd5b5f60028204905060018216806200024c57607f821691505b60208210810362000262576200026162000207565b5b50919050565b5f819050815f5260205f209050919050565b5f6020601f8301049050919050565b5f82821b905092915050565b5f60088302620002c67fffffffffffffffffffffffffffffffffffffffffffffffffffffffffffffffff8262000289565b620002d2868362000289565b95508019841693508086168417925050509392505050565b5f819050919050565b5f620003136200030d620003078462000160565b620002ea565b62000160565b9050919050565b5f819050919050565b6200032e83620002f3565b620003466200033d826200031a565b84845462000295565b825550505050565b5f90565b6200035c6200034e565b6200036981848462000323565b505050565b5b818110156200039057620003845f8262000352565b6001810190506200036f565b5050565b601f821115620003df57620003a98162000268565b620003b4846200027a565b81016020851015620003c4578190505b620003dc620003d3856200027a565b8301826200036e565b50505b505050565b5f82821c905092915050565b5f620004015f1984600802620003e4565b1980831691505092915050565b5f6200041b8383620003f0565b9150826002028217905092915050565b6200043682620001d0565b67ffffffffffffffff811115620004525762000451620001da565b5b6200045e825462000234565b6200046b82828562000394565b5f60209050601f831160018114620004a1575f84156200048c578287015190505b6200049885826200040e565b86555062000507565b601f198416620004b18662000268565b5f5b82811015620004da57848901518255600182019150602085019450602081019050620004b3565b86831015620004fa5784890151620004f6601f891682620003f0565b8355505b6001600288020188555050505b505050505050565b614898806200051d5f395ff3fe6080604052600436106100e7575f3560e01c80638e27d71911610089578063aabdc71a11610058578063aabdc71a146102c7578063b0b22c2c146102ef578063ce3b3e8814610317578063ce993c771461033f576100e7565b80638e27d7191461021d57806393dfbd9e14610239578063a04ef14514610261578063a4e360c81461028b576100e7565b80634e67d1d6116100c55780634e67d1d6146101795780636f9fb98a146101a15780637278a1fa146101cb57806380735a5a146101f5576100e7565b8063273cbaa0146100eb57806330b39a62146101155780633a51d2461461013d575b5f80fd5b3480156100f6575f80fd5b506100ff610369565b60405161010c91906130fe565b60405180910390f35b348015610120575f80fd5b5061013b6004803603810190610136919061328e565b61043d565b005b348015610148575f80fd5b50610163600480360381019061015e91906132e8565b61087f565b604051610170919061333e565b60405180910390f35b348015610184575f80fd5b5061019f600480360381019061019a919061328e565b6108e1565b005b3480156101ac575f80fd5b506101b5610d96565b6040516101c2919061333e565b60405180910390f35b3480156101d6575f80fd5b506101df610d9d565b6040516101ec919061333e565b60405180910390f35b348015610200575f80fd5b5061021b6004803603810190610216919061328e565b610da6565b005b6102376004803603810190610232919061328e565b611374565b005b348015610244575f80fd5b5061025f600480360381019061025a91906133b1565b6117e1565b005b34801561026c575f80fd5b50610275611a39565b604051610282919061356e565b60405180910390f35b348015610296575f80fd5b506102b160048036038101906102ac919061358e565b611cd3565b6040516102be91906135d3565b60405180910390f35b3480156102d2575f80fd5b506102ed60048036038101906102e891906133b1565b611d34565b005b3480156102fa575f80fd5b50610315600480360381019061031091906135ec565b612033565b005b348015610322575f80fd5b5061033d60048036038101906103389190613670565b61237e565b005b34801561034a575f80fd5b506103536128db565b6040516103609190613784565b60405180910390f35b60606006805480602002602001604051908101604052809291908181526020015f905b82821015610434578382905f5260205f200180546103a9906137d1565b80601f01602080910402602001604051908101604052809291908181526020018280546103d5906137d1565b80156104205780601f106103f757610100808354040283529160200191610420565b820191905f5260205f20905b81548152906001019060200180831161040357829003601f168201915b50505050508152602001906001019061038c565b50505050905090565b5f805b6001805490508110156104d1573373ffffffffffffffffffffffffffffffffffffffff166001828154811061047857610477613801565b5b905f5260205f20015f9054906101000a900473ffffffffffffffffffffffffffffffffffffffff1673ffffffffffffffffffffffffffffffffffffffff16036104c457600191506104d1565b8080600101915050610440565b506001151581151514610519576040517f08c379a0000000000000000000000000000000000000000000000000000000008152600401610510906138ae565b60405180910390fd5b8160075f3373ffffffffffffffffffffffffffffffffffffffff1673ffffffffffffffffffffffffffffffffffffffff1681526020019081526020015f20846040516105659190613906565b90815260200160405180910390205410156105b5576040517f08c379a00000000000000000000000000000000000000000000000000000000081526004016105ac90613966565b60405180910390fd5b8160075f3373ffffffffffffffffffffffffffffffffffffffff1673ffffffffffffffffffffffffffffffffffffffff1681526020019081526020015f20846040516106019190613906565b90815260200160405180910390205f82825461061d91906139b1565b925050819055506040518060400160405280600381526020017f4554480000000000000000000000000000000000000000000000000000000000815250805190602001208380519060200120036106b7573373ffffffffffffffffffffffffffffffffffffffff166108fc8390811502906040515f60405180830381858888f193505050501580156106b1573d5f803e3d5ffd5b50610822565b5f73ffffffffffffffffffffffffffffffffffffffff166009846040516106de9190613906565b90815260200160405180910390206001015f9054906101000a900473ffffffffffffffffffffffffffffffffffffffff1673ffffffffffffffffffffffffffffffffffffffff1603610765576040517f08c379a000000000000000000000000000000000000000000000000000000000815260040161075c90613a2e565b60405180910390fd5b6009836040516107759190613906565b90815260200160405180910390206001015f9054906101000a900473ffffffffffffffffffffffffffffffffffffffff1673ffffffffffffffffffffffffffffffffffffffff1663a9059cbb33846040518363ffffffff1660e01b81526004016107e0929190613a5b565b6020604051808303815f875af11580156107fc573d5f803e3d5ffd5b505050506040513d601f19601f820116820180604052508101906108209190613aac565b505b7f6a647eacc9e98792655e8dba08e3167440b93e02ef76e8e3330fa10a27b4ecbf8333846004544260405161085b959493929190613b0f565b60405180910390a160045f81548092919061087590613b67565b9190505550505050565b5f60075f3373ffffffffffffffffffffffffffffffffffffffff1673ffffffffffffffffffffffffffffffffffffffff1681526020019081526020015f20826040516108cb9190613906565b9081526020016040518091039020549050919050565b5f805b600180549050811015610975573373ffffffffffffffffffffffffffffffffffffffff166001828154811061091c5761091b613801565b5b905f5260205f20015f9054906101000a900473ffffffffffffffffffffffffffffffffffffffff1673ffffffffffffffffffffffffffffffffffffffff16036109685760019150610975565b80806001019150506108e4565b5060011515811515146109bd576040517f08c379a00000000000000000000000000000000000000000000000000000000081526004016109b4906138ae565b60405180910390fd5b5f805f5b600a80549050811015610a1c5784600a82815481106109e3576109e2613801565b5b905f5260205f2090600702016004015403610a015760019250610a1c565b8180610a0c90613b67565b92505080806001019150506109c1565b5081610a5d576040517f08c379a0000000000000000000000000000000000000000000000000000000008152600401610a5490613c1e565b60405180910390fd5b5f151560085f3373ffffffffffffffffffffffffffffffffffffffff1673ffffffffffffffffffffffffffffffffffffffff1681526020019081526020015f205f8681526020019081526020015f205f9054906101000a900460ff16151514610afb576040517f08c379a0000000000000000000000000000000000000000000000000000000008152600401610af290613cac565b60405180910390fd5b3373ffffffffffffffffffffffffffffffffffffffff16600a8281548110610b2657610b25613801565b5b905f5260205f2090600702016001015f9054906101000a900473ffffffffffffffffffffffffffffffffffffffff1673ffffffffffffffffffffffffffffffffffffffff1603610bab576040517f08c379a0000000000000000000000000000000000000000000000000000000008152600401610ba290613d14565b60405180910390fd5b600160085f3373ffffffffffffffffffffffffffffffffffffffff1673ffffffffffffffffffffffffffffffffffffffff1681526020019081526020015f205f8681526020019081526020015f205f6101000a81548160ff021916908315150217905550600a8181548110610c2357610c22613801565b5b905f5260205f2090600702016005015f815480929190610c4290613b67565b91905055507fead8052a59bd99f1b0115f4da8e862ebc15be06d11ad168b737b8e6dae0886c88533600a8481548110610c7e57610c7d613801565b5b905f5260205f2090600702016002015f9054906101000a900473ffffffffffffffffffffffffffffffffffffffff16600a8581548110610cc157610cc0613801565b5b905f5260205f20906007020160030154600a8681548110610ce557610ce4613801565b5b905f5260205f20906007020160040154600a8781548110610d0957610d08613801565b5b905f5260205f20906007020160050154600a8881548110610d2d57610d2c613801565b5b905f5260205f20906007020160060154604051610d509796959493929190613d8d565b60405180910390a1600254600a8281548110610d6f57610d6e613801565b5b905f5260205f2090600702016005015403610d8f57610d8e8582612966565b5b5050505050565b5f47905090565b5f600254905090565b5f805b600180549050811015610e3a573373ffffffffffffffffffffffffffffffffffffffff1660018281548110610de157610de0613801565b5b905f5260205f20015f9054906101000a900473ffffffffffffffffffffffffffffffffffffffff1673ffffffffffffffffffffffffffffffffffffffff1603610e2d5760019150610e3a565b8080600101915050610da9565b506001151581151514610e82576040517f08c379a0000000000000000000000000000000000000000000000000000000008152600401610e79906138ae565b60405180910390fd5b5f805f5b600a80549050811015610ee15784600a8281548110610ea857610ea7613801565b5b905f5260205f2090600702016004015403610ec65760019250610ee1565b8180610ed190613b67565b9250508080600101915050610e86565b503373ffffffffffffffffffffffffffffffffffffffff16600a8281548110610f0d57610f0c613801565b5b905f5260205f2090600702016001015f9054906101000a900473ffffffffffffffffffffffffffffffffffffffff1673ffffffffffffffffffffffffffffffffffffffff1614610f92576040517f08c379a0000000000000000000000000000000000000000000000000000000008152600401610f8990613c1e565b60405180910390fd5b81610fd2576040517f08c379a0000000000000000000000000000000000000000000000000000000008152600401610fc990613e4b565b60405180910390fd5b600a8181548110610fe657610fe5613801565b5b905f5260205f2090600702016003015460075f3373ffffffffffffffffffffffffffffffffffffffff1673ffffffffffffffffffffffffffffffffffffffff1681526020019081526020015f20866040516110419190613906565b90815260200160405180910390205f82825461105d9190613e69565b92505081905550600a6001600a8054905061107891906139b1565b8154811061108957611088613801565b5b905f5260205f209060070201600a82815481106110a9576110a8613801565b5b905f5260205f2090600702015f8201815f0190816110c79190614045565b50600182015f9054906101000a900473ffffffffffffffffffffffffffffffffffffffff16816001015f6101000a81548173ffffffffffffffffffffffffffffffffffffffff021916908373ffffffffffffffffffffffffffffffffffffffff160217905550600282015f9054906101000a900473ffffffffffffffffffffffffffffffffffffffff16816002015f6101000a81548173ffffffffffffffffffffffffffffffffffffffff021916908373ffffffffffffffffffffffffffffffffffffffff160217905550600382015481600301556004820154816004015560058201548160050155600682015481600601559050507f88ac4e01306872c0a5f289baf13af804eedb981db2018261cf8afed94bd9e19b8533600a84815481106111f4576111f3613801565b5b905f5260205f2090600702016002015f9054906101000a900473ffffffffffffffffffffffffffffffffffffffff16600a858154811061123757611236613801565b5b905f5260205f20906007020160030154600a868154811061125b5761125a613801565b5b905f5260205f20906007020160040154600a878154811061127f5761127e613801565b5b905f5260205f20906007020160050154600a88815481106112a3576112a2613801565b5b905f5260205f209060070201600601546040516112c69796959493929190613d8d565b60405180910390a1600a8054806112e0576112df61412a565b5b600190038181905f5260205f2090600702015f8082015f6113019190612f61565b600182015f6101000a81549073ffffffffffffffffffffffffffffffffffffffff0219169055600282015f6101000a81549073ffffffffffffffffffffffffffffffffffffffff0219169055600382015f9055600482015f9055600582015f9055600682015f9055505090555050505050565b5f805b600180549050811015611408573373ffffffffffffffffffffffffffffffffffffffff16600182815481106113af576113ae613801565b5b905f5260205f20015f9054906101000a900473ffffffffffffffffffffffffffffffffffffffff1673ffffffffffffffffffffffffffffffffffffffff16036113fb5760019150611408565b8080600101915050611377565b506001151581151514611450576040517f08c379a0000000000000000000000000000000000000000000000000000000008152600401611447906138ae565b60405180910390fd5b5f60075f3373ffffffffffffffffffffffffffffffffffffffff1673ffffffffffffffffffffffffffffffffffffffff1681526020019081526020015f208460405161149c9190613906565b90815260200160405180910390205410156114ec576040517f08c379a00000000000000000000000000000000000000000000000000000000081526004016114e3906141a1565b60405180910390fd5b6040518060400160405280600381526020017f4554480000000000000000000000000000000000000000000000000000000000815250805190602001208380519060200120036115a8573460075f3373ffffffffffffffffffffffffffffffffffffffff1673ffffffffffffffffffffffffffffffffffffffff1681526020019081526020015f2060405161158090614209565b90815260200160405180910390205f82825461159c9190613e69565b92505081905550611784565b5f73ffffffffffffffffffffffffffffffffffffffff166009846040516115cf9190613906565b90815260200160405180910390206001015f9054906101000a900473ffffffffffffffffffffffffffffffffffffffff1673ffffffffffffffffffffffffffffffffffffffff1603611656576040517f08c379a000000000000000000000000000000000000000000000000000000000815260040161164d90613a2e565b60405180910390fd5b8160075f3373ffffffffffffffffffffffffffffffffffffffff1673ffffffffffffffffffffffffffffffffffffffff1681526020019081526020015f20846040516116a29190613906565b90815260200160405180910390205f8282546116be9190613e69565b925050819055506009836040516116d59190613906565b90815260200160405180910390206001015f9054906101000a900473ffffffffffffffffffffffffffffffffffffffff1673ffffffffffffffffffffffffffffffffffffffff166323b872dd3330856040518463ffffffff1660e01b81526004016117429392919061421d565b6020604051808303815f875af115801561175e573d5f803e3d5ffd5b505050506040513d601f19601f820116820180604052508101906117829190613aac565b505b7f41751252894a74bd975de630158c4e47bb25c36d9ce7ad90383d86d391d2be12833334600354426040516117bd959493929190613b0f565b60405180910390a160035f8154809291906117d790613b67565b9190505550505050565b5f805b600180549050811015611875573373ffffffffffffffffffffffffffffffffffffffff166001828154811061181c5761181b613801565b5b905f5260205f20015f9054906101000a900473ffffffffffffffffffffffffffffffffffffffff1673ffffffffffffffffffffffffffffffffffffffff16036118685760019150611875565b80806001019150506117e4565b5060011515811515146118bd576040517f08c379a00000000000000000000000000000000000000000000000000000000081526004016118b4906138ae565b60405180910390fd5b5f5b600180549050811015611982578273ffffffffffffffffffffffffffffffffffffffff16600182815481106118f7576118f6613801565b5b905f5260205f20015f9054906101000a900473ffffffffffffffffffffffffffffffffffffffff1673ffffffffffffffffffffffffffffffffffffffff1603611975576040517f08c379a000000000000000000000000000000000000000000000000000000000815260040161196c9061429c565b60405180910390fd5b80806001019150506118bf565b50600182908060018154018082558091505060019003905f5260205f20015f9091909190916101000a81548173ffffffffffffffffffffffffffffffffffffffff021916908373ffffffffffffffffffffffffffffffffffffffff160217905550600180805490506119f491906139b1565b6002819055507f43abcff3409244ec1056224394af5f818e9a74866f0a11bfee2ad52f68ad6fb9338342604051611a2d9392919061421d565b60405180910390a15050565b60605f805b600180549050811015611acf573373ffffffffffffffffffffffffffffffffffffffff1660018281548110611a7657611a75613801565b5b905f5260205f20015f9054906101000a900473ffffffffffffffffffffffffffffffffffffffff1673ffffffffffffffffffffffffffffffffffffffff1603611ac25760019150611acf565b8080600101915050611a3e565b506001151581151514611b17576040517f08c379a0000000000000000000000000000000000000000000000000000000008152600401611b0e906138ae565b60405180910390fd5b600a805480602002602001604051908101604052809291908181526020015f905b82821015611cc9578382905f5260205f2090600702016040518060e00160405290815f82018054611b68906137d1565b80601f0160208091040260200160405190810160405280929190818152602001828054611b94906137d1565b8015611bdf5780601f10611bb657610100808354040283529160200191611bdf565b820191905f5260205f20905b815481529060010190602001808311611bc257829003601f168201915b50505050508152602001600182015f9054906101000a900473ffffffffffffffffffffffffffffffffffffffff1673ffffffffffffffffffffffffffffffffffffffff1673ffffffffffffffffffffffffffffffffffffffff168152602001600282015f9054906101000a900473ffffffffffffffffffffffffffffffffffffffff1673ffffffffffffffffffffffffffffffffffffffff1673ffffffffffffffffffffffffffffffffffffffff16815260200160038201548152602001600482015481526020016005820154815260200160068201548152505081526020019060010190611b38565b5050505091505090565b5f60085f3373ffffffffffffffffffffffffffffffffffffffff1673ffffffffffffffffffffffffffffffffffffffff1681526020019081526020015f205f8381526020019081526020015f205f9054906101000a900460ff169050919050565b5f805b600180549050811015611dc8573373ffffffffffffffffffffffffffffffffffffffff1660018281548110611d6f57611d6e613801565b5b905f5260205f20015f9054906101000a900473ffffffffffffffffffffffffffffffffffffffff1673ffffffffffffffffffffffffffffffffffffffff1603611dbb5760019150611dc8565b8080600101915050611d37565b506001151581151514611e10576040517f08c379a0000000000000000000000000000000000000000000000000000000008152600401611e07906138ae565b60405180910390fd5b5f80805f90505b600180549050811015611eab578473ffffffffffffffffffffffffffffffffffffffff1660018281548110611e4f57611e4e613801565b5b905f5260205f20015f9054906101000a900473ffffffffffffffffffffffffffffffffffffffff1673ffffffffffffffffffffffffffffffffffffffff1603611e9e5760019250809150611eab565b8080600101915050611e17565b506001151582151514611ef3576040517f08c379a0000000000000000000000000000000000000000000000000000000008152600401611eea90614304565b60405180910390fd5b6001808080549050611f0591906139b1565b81548110611f1657611f15613801565b5b905f5260205f20015f9054906101000a900473ffffffffffffffffffffffffffffffffffffffff1660018281548110611f5257611f51613801565b5b905f5260205f20015f6101000a81548173ffffffffffffffffffffffffffffffffffffffff021916908373ffffffffffffffffffffffffffffffffffffffff1602179055506001805480611fa957611fa861412a565b5b600190038181905f5260205f20015f6101000a81549073ffffffffffffffffffffffffffffffffffffffff0219169055905560018080549050611fec91906139b1565b6002819055507fd1f329271e4a98b0181a7d91618a0a5de6f42a1aaf4c1362493d829eaf405a8a3385426040516120259392919061421d565b60405180910390a150505050565b5f805b6001805490508110156120c7573373ffffffffffffffffffffffffffffffffffffffff166001828154811061206e5761206d613801565b5b905f5260205f20015f9054906101000a900473ffffffffffffffffffffffffffffffffffffffff1673ffffffffffffffffffffffffffffffffffffffff16036120ba57600191506120c7565b8080600101915050612036565b50600115158115151461210f576040517f08c379a0000000000000000000000000000000000000000000000000000000008152600401612106906138ae565b60405180910390fd5b5f5b6006805490508110156121a45783805190602001206006828154811061213a57612139613801565b5b905f5260205f200160405161214f91906143be565b604051809103902003612197576040517f08c379a000000000000000000000000000000000000000000000000000000000815260040161218e9061441e565b60405180910390fd5b8080600101915050612111565b5082805190602001208273ffffffffffffffffffffffffffffffffffffffff166395d89b416040518163ffffffff1660e01b81526004015f60405180830381865afa1580156121f5573d5f803e3d5ffd5b505050506040513d5f823e3d601f19601f8201168201806040525081019061221d91906144aa565b8051906020012014612264576040517f08c379a000000000000000000000000000000000000000000000000000000000815260040161225b9061453b565b60405180910390fd5b60405180604001604052808481526020018373ffffffffffffffffffffffffffffffffffffffff1681525060098460405161229f9190613906565b90815260200160405180910390205f820151815f0190816122c09190614559565b506020820151816001015f6101000a81548173ffffffffffffffffffffffffffffffffffffffff021916908373ffffffffffffffffffffffffffffffffffffffff160217905550905050600683908060018154018082558091505060019003905f5260205f20015f90919091909150908161233b9190614559565b507fe6887a88bb2477605d9b68e33f64a263587018a6a232f3b234ba1b78c96b84f2338484426040516123719493929190614628565b60405180910390a1505050565b5f805b600180549050811015612412573373ffffffffffffffffffffffffffffffffffffffff16600182815481106123b9576123b8613801565b5b905f5260205f20015f9054906101000a900473ffffffffffffffffffffffffffffffffffffffff1673ffffffffffffffffffffffffffffffffffffffff16036124055760019150612412565b8080600101915050612381565b50600115158115151461245a576040517f08c379a0000000000000000000000000000000000000000000000000000000008152600401612451906138ae565b60405180910390fd5b836040518060400160405280600381526020017f455448000000000000000000000000000000000000000000000000000000000081525080519060200120818051906020012014612554575f73ffffffffffffffffffffffffffffffffffffffff166009826040516124cc9190613906565b90815260200160405180910390206001015f9054906101000a900473ffffffffffffffffffffffffffffffffffffffff1673ffffffffffffffffffffffffffffffffffffffff1603612553576040517f08c379a000000000000000000000000000000000000000000000000000000000815260040161254a90613a2e565b60405180910390fd5b5b8260075f3373ffffffffffffffffffffffffffffffffffffffff1673ffffffffffffffffffffffffffffffffffffffff1681526020019081526020015f20866040516125a09190613906565b90815260200160405180910390205410156125f0576040517f08c379a00000000000000000000000000000000000000000000000000000000081526004016125e7906146e2565b60405180910390fd5b5f5b6001805490508110156126b5578473ffffffffffffffffffffffffffffffffffffffff166001828154811061262a57612629613801565b5b905f5260205f20015f9054906101000a900473ffffffffffffffffffffffffffffffffffffffff1673ffffffffffffffffffffffffffffffffffffffff16036126a8576040517f08c379a000000000000000000000000000000000000000000000000000000000815260040161269f90614770565b60405180910390fd5b80806001019150506125f2565b508260075f3373ffffffffffffffffffffffffffffffffffffffff1673ffffffffffffffffffffffffffffffffffffffff1681526020019081526020015f20866040516127029190613906565b90815260200160405180910390205f82825461271e91906139b1565b92505081905550600a6040518060e001604052808781526020013373ffffffffffffffffffffffffffffffffffffffff1681526020018673ffffffffffffffffffffffffffffffffffffffff16815260200185815260200160055481526020015f815260200142815250908060018154018082558091505060019003905f5260205f2090600702015f909190919091505f820151815f0190816127c19190614559565b506020820151816001015f6101000a81548173ffffffffffffffffffffffffffffffffffffffff021916908373ffffffffffffffffffffffffffffffffffffffff1602179055506040820151816002015f6101000a81548173ffffffffffffffffffffffffffffffffffffffff021916908373ffffffffffffffffffffffffffffffffffffffff160217905550606082015181600301556080820151816004015560a0820151816005015560c08201518160060155505060055f81548092919061288a90613b67565b91905055507f9cc5df05955d08828d561f92ad3f6b82c78a55cf7d3dedacffacc4f694faf9be853386866005545f426040516128cc97969594939291906147c7565b60405180910390a15050505050565b6060600180548060200260200160405190810160405280929190818152602001828054801561295c57602002820191905f5260205f20905b815f9054906101000a900473ffffffffffffffffffffffffffffffffffffffff1673ffffffffffffffffffffffffffffffffffffffff1681526020019060010190808311612913575b5050505050905090565b600a818154811061297a57612979613801565b5b905f5260205f2090600702016003015460075f600a84815481106129a1576129a0613801565b5b905f5260205f2090600702016002015f9054906101000a900473ffffffffffffffffffffffffffffffffffffffff1673ffffffffffffffffffffffffffffffffffffffff1673ffffffffffffffffffffffffffffffffffffffff1681526020019081526020015f2083604051612a179190613906565b90815260200160405180910390205f828254612a339190613e69565b925050819055506040518060400160405280600381526020017f455448000000000000000000000000000000000000000000000000000000000081525080519060200120828051906020012003612b3257600a8181548110612a9857612a97613801565b5b905f5260205f2090600702016002015f9054906101000a900473ffffffffffffffffffffffffffffffffffffffff1673ffffffffffffffffffffffffffffffffffffffff166108fc600a8381548110612af457612af3613801565b5b905f5260205f2090600702016003015490811502906040515f60405180830381858888f19350505050158015612b2c573d5f803e3d5ffd5b50612c54565b600982604051612b429190613906565b90815260200160405180910390206001015f9054906101000a900473ffffffffffffffffffffffffffffffffffffffff1673ffffffffffffffffffffffffffffffffffffffff1663a9059cbb600a8381548110612ba257612ba1613801565b5b905f5260205f2090600702016002015f9054906101000a900473ffffffffffffffffffffffffffffffffffffffff16600a8481548110612be557612be4613801565b5b905f5260205f209060070201600301546040518363ffffffff1660e01b8152600401612c1292919061483b565b6020604051808303815f875af1158015612c2e573d5f803e3d5ffd5b505050506040513d601f19601f82011682018060405250810190612c529190613aac565b505b7fdeea4c72b502b4bd7dce3c793e57c46bb32f3b2f66613d54a765e7585f520a2c8233600a8481548110612c8b57612c8a613801565b5b905f5260205f2090600702016002015f9054906101000a900473ffffffffffffffffffffffffffffffffffffffff16600a8581548110612cce57612ccd613801565b5b905f5260205f20906007020160030154600a8681548110612cf257612cf1613801565b5b905f5260205f20906007020160040154600a8781548110612d1657612d15613801565b5b905f5260205f20906007020160050154600a8881548110612d3a57612d39613801565b5b905f5260205f20906007020160060154604051612d5d9796959493929190613d8d565b60405180910390a1600a6001600a80549050612d7991906139b1565b81548110612d8a57612d89613801565b5b905f5260205f209060070201600a8281548110612daa57612da9613801565b5b905f5260205f2090600702015f8201815f019081612dc89190614045565b50600182015f9054906101000a900473ffffffffffffffffffffffffffffffffffffffff16816001015f6101000a81548173ffffffffffffffffffffffffffffffffffffffff021916908373ffffffffffffffffffffffffffffffffffffffff160217905550600282015f9054906101000a900473ffffffffffffffffffffffffffffffffffffffff16816002015f6101000a81548173ffffffffffffffffffffffffffffffffffffffff021916908373ffffffffffffffffffffffffffffffffffffffff16021790555060038201548160030155600482015481600401556005820154816005015560068201548160060155905050600a805480612ed057612ecf61412a565b5b600190038181905f5260205f2090600702015f8082015f612ef19190612f61565b600182015f6101000a81549073ffffffffffffffffffffffffffffffffffffffff0219169055600282015f6101000a81549073ffffffffffffffffffffffffffffffffffffffff0219169055600382015f9055600482015f9055600582015f9055600682015f9055505090555050565b508054612f6d906137d1565b5f825580601f10612f7e5750612f9b565b601f0160209004905f5260205f2090810190612f9a9190612f9e565b5b50565b5b80821115612fb5575f815f905550600101612f9f565b5090565b5f81519050919050565b5f82825260208201905092915050565b5f819050602082019050919050565b5f81519050919050565b5f82825260208201905092915050565b5f5b83811015613019578082015181840152602081019050612ffe565b5f8484015250505050565b5f601f19601f8301169050919050565b5f61303e82612fe2565b6130488185612fec565b9350613058818560208601612ffc565b61306181613024565b840191505092915050565b5f6130778383613034565b905092915050565b5f602082019050919050565b5f61309582612fb9565b61309f8185612fc3565b9350836020820285016130b185612fd3565b805f5b858110156130ec57848403895281516130cd858261306c565b94506130d88361307f565b925060208a019950506001810190506130b4565b50829750879550505050505092915050565b5f6020820190508181035f830152613116818461308b565b905092915050565b5f604051905090565b5f80fd5b5f80fd5b5f80fd5b5f80fd5b7f4e487b71000000000000000000000000000000000000000000000000000000005f52604160045260245ffd5b61316d82613024565b810181811067ffffffffffffffff8211171561318c5761318b613137565b5b80604052505050565b5f61319e61311e565b90506131aa8282613164565b919050565b5f67ffffffffffffffff8211156131c9576131c8613137565b5b6131d282613024565b9050602081019050919050565b828183375f83830152505050565b5f6131ff6131fa846131af565b613195565b90508281526020810184848401111561321b5761321a613133565b5b6132268482856131df565b509392505050565b5f82601f8301126132425761324161312f565b5b81356132528482602086016131ed565b91505092915050565b5f819050919050565b61326d8161325b565b8114613277575f80fd5b50565b5f8135905061328881613264565b92915050565b5f80604083850312156132a4576132a3613127565b5b5f83013567ffffffffffffffff8111156132c1576132c061312b565b5b6132cd8582860161322e565b92505060206132de8582860161327a565b9150509250929050565b5f602082840312156132fd576132fc613127565b5b5f82013567ffffffffffffffff81111561331a5761331961312b565b5b6133268482850161322e565b91505092915050565b6133388161325b565b82525050565b5f6020820190506133515f83018461332f565b92915050565b5f73ffffffffffffffffffffffffffffffffffffffff82169050919050565b5f61338082613357565b9050919050565b61339081613376565b811461339a575f80fd5b50565b5f813590506133ab81613387565b92915050565b5f602082840312156133c6576133c5613127565b5b5f6133d38482850161339d565b91505092915050565b5f81519050919050565b5f82825260208201905092915050565b5f819050602082019050919050565b61340e81613376565b82525050565b5f61341e82613357565b9050919050565b61342e81613414565b82525050565b61343d8161325b565b82525050565b5f60e083015f8301518482035f86015261345d8282613034565b91505060208301516134726020860182613405565b5060408301516134856040860182613425565b5060608301516134986060860182613434565b5060808301516134ab6080860182613434565b5060a08301516134be60a0860182613434565b5060c08301516134d160c0860182613434565b508091505092915050565b5f6134e78383613443565b905092915050565b5f602082019050919050565b5f613505826133dc565b61350f81856133e6565b935083602082028501613521856133f6565b805f5b8581101561355c578484038952815161353d85826134dc565b9450613548836134ef565b925060208a01995050600181019050613524565b50829750879550505050505092915050565b5f6020820190508181035f83015261358681846134fb565b905092915050565b5f602082840312156135a3576135a2613127565b5b5f6135b08482850161327a565b91505092915050565b5f8115159050919050565b6135cd816135b9565b82525050565b5f6020820190506135e65f8301846135c4565b92915050565b5f806040838503121561360257613601613127565b5b5f83013567ffffffffffffffff81111561361f5761361e61312b565b5b61362b8582860161322e565b925050602061363c8582860161339d565b9150509250929050565b61364f81613414565b8114613659575f80fd5b50565b5f8135905061366a81613646565b92915050565b5f805f6060848603121561368757613686613127565b5b5f84013567ffffffffffffffff8111156136a4576136a361312b565b5b6136b08682870161322e565b93505060206136c18682870161365c565b92505060406136d28682870161327a565b9150509250925092565b5f81519050919050565b5f82825260208201905092915050565b5f819050602082019050919050565b5f6137108383613405565b60208301905092915050565b5f602082019050919050565b5f613732826136dc565b61373c81856136e6565b9350613747836136f6565b805f5b8381101561377757815161375e8882613705565b97506137698361371c565b92505060018101905061374a565b5085935050505092915050565b5f6020820190508181035f83015261379c8184613728565b905092915050565b7f4e487b71000000000000000000000000000000000000000000000000000000005f52602260045260245ffd5b5f60028204905060018216806137e857607f821691505b6020821081036137fb576137fa6137a4565b5b50919050565b7f4e487b71000000000000000000000000000000000000000000000000000000005f52603260045260245ffd5b5f82825260208201905092915050565b7f6f6e6c792077616c6c6574206f776e6572732063616e2063616c6c20746869735f8201527f2066756e6374696f6e0000000000000000000000000000000000000000000000602082015250565b5f61389860298361382e565b91506138a38261383e565b604082019050919050565b5f6020820190508181035f8301526138c58161388c565b9050919050565b5f81905092915050565b5f6138e082612fe2565b6138ea81856138cc565b93506138fa818560208601612ffc565b80840191505092915050565b5f61391182846138d6565b915081905092915050565b7f696e7375666669656e742062616c616e636500000000000000000000000000005f82015250565b5f61395060128361382e565b915061395b8261391c565b602082019050919050565b5f6020820190508181035f83015261397d81613944565b9050919050565b7f4e487b71000000000000000000000000000000000000000000000000000000005f52601160045260245ffd5b5f6139bb8261325b565b91506139c68361325b565b92508282039050818111156139de576139dd613984565b5b92915050565b7f746f6b656e20646f6573206e6f742065786978747300000000000000000000005f82015250565b5f613a1860158361382e565b9150613a23826139e4565b602082019050919050565b5f6020820190508181035f830152613a4581613a0c565b9050919050565b613a5581613376565b82525050565b5f604082019050613a6e5f830185613a4c565b613a7b602083018461332f565b9392505050565b613a8b816135b9565b8114613a95575f80fd5b50565b5f81519050613aa681613a82565b92915050565b5f60208284031215613ac157613ac0613127565b5b5f613ace84828501613a98565b91505092915050565b5f613ae182612fe2565b613aeb818561382e565b9350613afb818560208601612ffc565b613b0481613024565b840191505092915050565b5f60a0820190508181035f830152613b278188613ad7565b9050613b366020830187613a4c565b613b43604083018661332f565b613b50606083018561332f565b613b5d608083018461332f565b9695505050505050565b5f613b718261325b565b91507fffffffffffffffffffffffffffffffffffffffffffffffffffffffffffffffff8203613ba357613ba2613984565b5b600182019050919050565b7f6f6e6c7920746865207472616e736665722063726561746f722063616e2063615f8201527f6e63656c00000000000000000000000000000000000000000000000000000000602082015250565b5f613c0860248361382e565b9150613c1382613bae565b604082019050919050565b5f6020820190508181035f830152613c3581613bfc565b9050919050565b7f63616e6e6f7420617070726f7665207468652073616d65207472616e736665725f8201527f2074776963650000000000000000000000000000000000000000000000000000602082015250565b5f613c9660268361382e565b9150613ca182613c3c565b604082019050919050565b5f6020820190508181035f830152613cc381613c8a565b9050919050565b7f63616e6e6f7420617070726f7665206f776e207472616e73616374696f6e00005f82015250565b5f613cfe601e8361382e565b9150613d0982613cca565b602082019050919050565b5f6020820190508181035f830152613d2b81613cf2565b9050919050565b5f819050919050565b5f613d55613d50613d4b84613357565b613d32565b613357565b9050919050565b5f613d6682613d3b565b9050919050565b5f613d7782613d5c565b9050919050565b613d8781613d6d565b82525050565b5f60e0820190508181035f830152613da5818a613ad7565b9050613db46020830189613a4c565b613dc16040830188613d7e565b613dce606083018761332f565b613ddb608083018661332f565b613de860a083018561332f565b613df560c083018461332f565b98975050505050505050565b7f7472616e73666572207265717565737420646f6573206e6f74206578697374005f82015250565b5f613e35601f8361382e565b9150613e4082613e01565b602082019050919050565b5f6020820190508181035f830152613e6281613e29565b9050919050565b5f613e738261325b565b9150613e7e8361325b565b9250828201905080821115613e9657613e95613984565b5b92915050565b5f81549050613eaa816137d1565b9050919050565b5f819050815f5260205f209050919050565b5f6020601f8301049050919050565b5f82821b905092915050565b5f60088302613f0d7fffffffffffffffffffffffffffffffffffffffffffffffffffffffffffffffff82613ed2565b613f178683613ed2565b95508019841693508086168417925050509392505050565b5f613f49613f44613f3f8461325b565b613d32565b61325b565b9050919050565b5f819050919050565b613f6283613f2f565b613f76613f6e82613f50565b848454613ede565b825550505050565b5f90565b613f8a613f7e565b613f95818484613f59565b505050565b5b81811015613fb857613fad5f82613f82565b600181019050613f9b565b5050565b601f821115613ffd57613fce81613eb1565b613fd784613ec3565b81016020851015613fe6578190505b613ffa613ff285613ec3565b830182613f9a565b50505b505050565b5f82821c905092915050565b5f61401d5f1984600802614002565b1980831691505092915050565b5f614035838361400e565b9150826002028217905092915050565b818103614053575050614128565b61405c82613e9c565b67ffffffffffffffff81111561407557614074613137565b5b61407f82546137d1565b61408a828285613fbc565b5f601f8311600181146140b7575f84156140a5578287015490505b6140af858261402a565b865550614121565b601f1984166140c587613eb1565b96506140d086613eb1565b5f5b828110156140f7578489015482556001820191506001850194506020810190506140d2565b868310156141145784890154614110601f89168261400e565b8355505b6001600288020188555050505b5050505050505b565b7f4e487b71000000000000000000000000000000000000000000000000000000005f52603160045260245ffd5b7f63616e6e6f74206465706f73697420612076616c7565206f66203000000000005f82015250565b5f61418b601b8361382e565b915061419682614157565b602082019050919050565b5f6020820190508181035f8301526141b88161417f565b9050919050565b7f45544800000000000000000000000000000000000000000000000000000000005f82015250565b5f6141f36003836138cc565b91506141fe826141bf565b600382019050919050565b5f614213826141e7565b9150819050919050565b5f6060820190506142305f830186613a4c565b61423d6020830185613a4c565b61424a604083018461332f565b949350505050565b7f63616e6e6f7420616464206475706c6963617465206f776e65727300000000005f82015250565b5f614286601b8361382e565b915061429182614252565b602082019050919050565b5f6020820190508181035f8301526142b38161427a565b9050919050565b7f77616c6c6574206f776e6572206e6f74206465746563746564000000000000005f82015250565b5f6142ee60198361382e565b91506142f9826142ba565b602082019050919050565b5f6020820190508181035f83015261431b816142e2565b9050919050565b5f81905092915050565b5f819050815f5260205f209050919050565b5f815461434a816137d1565b6143548186614322565b9450600182165f811461436e5760018114614383576143b5565b60ff19831686528115158202860193506143b5565b61438c8561432c565b5f5b838110156143ad5781548189015260018201915060208101905061438e565b838801955050505b50505092915050565b5f6143c9828461433e565b915081905092915050565b7f63616e6e6f7420616464206475706c696361746520746f6b656e7300000000005f82015250565b5f614408601b8361382e565b9150614413826143d4565b602082019050919050565b5f6020820190508181035f830152614435816143fc565b9050919050565b5f61444e614449846131af565b613195565b90508281526020810184848401111561446a57614469613133565b5b614475848285612ffc565b509392505050565b5f82601f8301126144915761449061312f565b5b81516144a184826020860161443c565b91505092915050565b5f602082840312156144bf576144be613127565b5b5f82015167ffffffffffffffff8111156144dc576144db61312b565b5b6144e88482850161447d565b91505092915050565b7f746f6b656e206e6f7420617661696c61626c65206f6e204552433230000000005f82015250565b5f614525601c8361382e565b9150614530826144f1565b602082019050919050565b5f6020820190508181035f83015261455281614519565b9050919050565b61456282612fe2565b67ffffffffffffffff81111561457b5761457a613137565b5b61458582546137d1565b614590828285613fbc565b5f60209050601f8311600181146145c1575f84156145af578287015190505b6145b9858261402a565b865550614620565b601f1984166145cf86613eb1565b5f5b828110156145f6578489015182556001820191506020850194506020810190506145d1565b86831015614613578489015161460f601f89168261400e565b8355505b6001600288020188555050505b505050505050565b5f60808201905061463b5f830187613a4c565b818103602083015261464d8186613ad7565b905061465c6040830185613a4c565b614669606083018461332f565b95945050505050565b7f696e737566666963656e742066756e647320746f2063726561746520612074725f8201527f616e736665720000000000000000000000000000000000000000000000000000602082015250565b5f6146cc60268361382e565b91506146d782614672565b604082019050919050565b5f6020820190508181035f8301526146f9816146c0565b9050919050565b7f63616e6e6f74207472616e736665722066756e64732077697468696e207468655f8201527f2077616c6c657400000000000000000000000000000000000000000000000000602082015250565b5f61475a60278361382e565b915061476582614700565b604082019050919050565b5f6020820190508181035f8301526147878161474e565b9050919050565b5f819050919050565b5f6147b16147ac6147a78461478e565b613d32565b61325b565b9050919050565b6147c181614797565b82525050565b5f60e0820190508181035f8301526147df818a613ad7565b90506147ee6020830189613a4c565b6147fb6040830188613d7e565b614808606083018761332f565b614815608083018661332f565b61482260a08301856147b8565b61482f60c083018461332f565b98975050505050505050565b5f60408201905061484e5f830185613d7e565b61485b602083018461332f565b939250505056fea2646970667358221220dc82fabce5a70a56d43f4c30309027215ca0e8485a192caa2af53da3fb1d1e7864736f6c63430008160033",
			"opcodes": "PUSH1 0x80 PUSH1 0x40 MSTORE PUSH0 PUSH1 0x3 SSTORE PUSH0 PUSH1 0x4 SSTORE PUSH0 PUSH1 0x5 SSTORE CALLVALUE DUP1 ISZERO PUSH3 0x1C JUMPI PUSH0 DUP1 REVERT JUMPDEST POP CALLER PUSH0 DUP1 PUSH2 0x100 EXP DUP2 SLOAD DUP2 PUSH20 0xFFFFFFFFFFFFFFFFFFFFFFFFFFFFFFFFFFFFFFFF MUL NOT AND SWAP1 DUP4 PUSH20 0xFFFFFFFFFFFFFFFFFFFFFFFFFFFFFFFFFFFFFFFF AND MUL OR SWAP1 SSTORE POP PUSH1 0x1 PUSH0 DUP1 SLOAD SWAP1 PUSH2 0x100 EXP SWAP1 DIV PUSH20 0xFFFFFFFFFFFFFFFFFFFFFFFFFFFFFFFFFFFFFFFF AND SWAP1 DUP1 PUSH1 0x1 DUP2 SLOAD ADD DUP1 DUP3 SSTORE DUP1 SWAP2 POP POP PUSH1 0x1 SWAP1 SUB SWAP1 PUSH0 MSTORE PUSH1 0x20 PUSH0 KECCAK256 ADD PUSH0 SWAP1 SWAP2 SWAP1 SWAP2 SWAP1 SWAP2 PUSH2 0x100 EXP DUP2 SLOAD DUP2 PUSH20 0xFFFFFFFFFFFFFFFFFFFFFFFFFFFFFFFFFFFFFFFF MUL NOT AND SWAP1 DUP4 PUSH20 0xFFFFFFFFFFFFFFFFFFFFFFFFFFFFFFFFFFFFFFFF AND MUL OR SWAP1 SSTORE POP PUSH1 0x1 DUP1 DUP1 SLOAD SWAP1 POP PUSH3 0xEE SWAP2 SWAP1 PUSH3 0x196 JUMP JUMPDEST PUSH1 0x2 DUP2 SWAP1 SSTORE POP PUSH1 0x6 DUP1 PUSH1 0x1 DUP2 SLOAD ADD DUP1 DUP3 SSTORE DUP1 SWAP2 POP POP PUSH1 0x1 SWAP1 SUB SWAP1 PUSH0 MSTORE PUSH1 0x20 PUSH0 KECCAK256 ADD PUSH0 PUSH1 0x40 MLOAD DUP1 PUSH1 0x40 ADD PUSH1 0x40 MSTORE DUP1 PUSH1 0x3 DUP2 MSTORE PUSH1 0x20 ADD PUSH32 0x4554480000000000000000000000000000000000000000000000000000000000 DUP2 MSTORE POP SWAP1 SWAP2 SWAP1 SWAP2 POP SWAP1 DUP2 PUSH3 0x159 SWAP2 SWAP1 PUSH3 0x42B JUMP JUMPDEST POP PUSH3 0x50F JUMP JUMPDEST PUSH0 DUP2 SWAP1 POP SWAP2 SWAP1 POP JUMP JUMPDEST PUSH32 0x4E487B7100000000000000000000000000000000000000000000000000000000 PUSH0 MSTORE PUSH1 0x11 PUSH1 0x4 MSTORE PUSH1 0x24 PUSH0 REVERT JUMPDEST PUSH0 PUSH3 0x1A2 DUP3 PUSH3 0x160 JUMP JUMPDEST SWAP2 POP PUSH3 0x1AF DUP4 PUSH3 0x160 JUMP JUMPDEST SWAP3 POP DUP3 DUP3 SUB SWAP1 POP DUP2 DUP2 GT ISZERO PUSH3 0x1CA JUMPI PUSH3 0x1C9 PUSH3 0x169 JUMP JUMPDEST JUMPDEST SWAP3 SWAP2 POP POP JUMP JUMPDEST PUSH0 DUP2 MLOAD SWAP1 POP SWAP2 SWAP1 POP JUMP JUMPDEST PUSH32 0x4E487B7100000000000000000000000000000000000000000000000000000000 PUSH0 MSTORE PUSH1 0x41 PUSH1 0x4 MSTORE PUSH1 0x24 PUSH0 REVERT JUMPDEST PUSH32 0x4E487B7100000000000000000000000000000000000000000000000000000000 PUSH0 MSTORE PUSH1 0x22 PUSH1 0x4 MSTORE PUSH1 0x24 PUSH0 REVERT JUMPDEST PUSH0 PUSH1 0x2 DUP3 DIV SWAP1 POP PUSH1 0x1 DUP3 AND DUP1 PUSH3 0x24C JUMPI PUSH1 0x7F DUP3 AND SWAP2 POP JUMPDEST PUSH1 0x20 DUP3 LT DUP2 SUB PUSH3 0x262 JUMPI PUSH3 0x261 PUSH3 0x207 JUMP JUMPDEST JUMPDEST POP SWAP2 SWAP1 POP JUMP JUMPDEST PUSH0 DUP2 SWAP1 POP DUP2 PUSH0 MSTORE PUSH1 0x20 PUSH0 KECCAK256 SWAP1 POP SWAP2 SWAP1 POP JUMP JUMPDEST PUSH0 PUSH1 0x20 PUSH1 0x1F DUP4 ADD DIV SWAP1 POP SWAP2 SWAP1 POP JUMP JUMPDEST PUSH0 DUP3 DUP3 SHL SWAP1 POP SWAP3 SWAP2 POP POP JUMP JUMPDEST PUSH0 PUSH1 0x8 DUP4 MUL PUSH3 0x2C6 PUSH32 0xFFFFFFFFFFFFFFFFFFFFFFFFFFFFFFFFFFFFFFFFFFFFFFFFFFFFFFFFFFFFFFFF DUP3 PUSH3 0x289 JUMP JUMPDEST PUSH3 0x2D2 DUP7 DUP4 PUSH3 0x289 JUMP JUMPDEST SWAP6 POP DUP1 NOT DUP5 AND SWAP4 POP DUP1 DUP7 AND DUP5 OR SWAP3 POP POP POP SWAP4 SWAP3 POP POP POP JUMP JUMPDEST PUSH0 DUP2 SWAP1 POP SWAP2 SWAP1 POP JUMP JUMPDEST PUSH0 PUSH3 0x313 PUSH3 0x30D PUSH3 0x307 DUP5 PUSH3 0x160 JUMP JUMPDEST PUSH3 0x2EA JUMP JUMPDEST PUSH3 0x160 JUMP JUMPDEST SWAP1 POP SWAP2 SWAP1 POP JUMP JUMPDEST PUSH0 DUP2 SWAP1 POP SWAP2 SWAP1 POP JUMP JUMPDEST PUSH3 0x32E DUP4 PUSH3 0x2F3 JUMP JUMPDEST PUSH3 0x346 PUSH3 0x33D DUP3 PUSH3 0x31A JUMP JUMPDEST DUP5 DUP5 SLOAD PUSH3 0x295 JUMP JUMPDEST DUP3 SSTORE POP POP POP POP JUMP JUMPDEST PUSH0 SWAP1 JUMP JUMPDEST PUSH3 0x35C PUSH3 0x34E JUMP JUMPDEST PUSH3 0x369 DUP2 DUP5 DUP5 PUSH3 0x323 JUMP JUMPDEST POP POP POP JUMP JUMPDEST JUMPDEST DUP2 DUP2 LT ISZERO PUSH3 0x390 JUMPI PUSH3 0x384 PUSH0 DUP3 PUSH3 0x352 JUMP JUMPDEST PUSH1 0x1 DUP2 ADD SWAP1 POP PUSH3 0x36F JUMP JUMPDEST POP POP JUMP JUMPDEST PUSH1 0x1F DUP3 GT ISZERO PUSH3 0x3DF JUMPI PUSH3 0x3A9 DUP2 PUSH3 0x268 JUMP JUMPDEST PUSH3 0x3B4 DUP5 PUSH3 0x27A JUMP JUMPDEST DUP2 ADD PUSH1 0x20 DUP6 LT ISZERO PUSH3 0x3C4 JUMPI DUP2 SWAP1 POP JUMPDEST PUSH3 0x3DC PUSH3 0x3D3 DUP6 PUSH3 0x27A JUMP JUMPDEST DUP4 ADD DUP3 PUSH3 0x36E JUMP JUMPDEST POP POP JUMPDEST POP POP POP JUMP JUMPDEST PUSH0 DUP3 DUP3 SHR SWAP1 POP SWAP3 SWAP2 POP POP JUMP JUMPDEST PUSH0 PUSH3 0x401 PUSH0 NOT DUP5 PUSH1 0x8 MUL PUSH3 0x3E4 JUMP JUMPDEST NOT DUP1 DUP4 AND SWAP2 POP POP SWAP3 SWAP2 POP POP JUMP JUMPDEST PUSH0 PUSH3 0x41B DUP4 DUP4 PUSH3 0x3F0 JUMP JUMPDEST SWAP2 POP DUP3 PUSH1 0x2 MUL DUP3 OR SWAP1 POP SWAP3 SWAP2 POP POP JUMP JUMPDEST PUSH3 0x436 DUP3 PUSH3 0x1D0 JUMP JUMPDEST PUSH8 0xFFFFFFFFFFFFFFFF DUP2 GT ISZERO PUSH3 0x452 JUMPI PUSH3 0x451 PUSH3 0x1DA JUMP JUMPDEST JUMPDEST PUSH3 0x45E DUP3 SLOAD PUSH3 0x234 JUMP JUMPDEST PUSH3 0x46B DUP3 DUP3 DUP6 PUSH3 0x394 JUMP JUMPDEST PUSH0 PUSH1 0x20 SWAP1 POP PUSH1 0x1F DUP4 GT PUSH1 0x1 DUP2 EQ PUSH3 0x4A1 JUMPI PUSH0 DUP5 ISZERO PUSH3 0x48C JUMPI DUP3 DUP8 ADD MLOAD SWAP1 POP JUMPDEST PUSH3 0x498 DUP6 DUP3 PUSH3 0x40E JUMP JUMPDEST DUP7 SSTORE POP PUSH3 0x507 JUMP JUMPDEST PUSH1 0x1F NOT DUP5 AND PUSH3 0x4B1 DUP7 PUSH3 0x268 JUMP JUMPDEST PUSH0 JUMPDEST DUP3 DUP2 LT ISZERO PUSH3 0x4DA JUMPI DUP5 DUP10 ADD MLOAD DUP3 SSTORE PUSH1 0x1 DUP3 ADD SWAP2 POP PUSH1 0x20 DUP6 ADD SWAP5 POP PUSH1 0x20 DUP2 ADD SWAP1 POP PUSH3 0x4B3 JUMP JUMPDEST DUP7 DUP4 LT ISZERO PUSH3 0x4FA JUMPI DUP5 DUP10 ADD MLOAD PUSH3 0x4F6 PUSH1 0x1F DUP10 AND DUP3 PUSH3 0x3F0 JUMP JUMPDEST DUP4 SSTORE POP JUMPDEST PUSH1 0x1 PUSH1 0x2 DUP9 MUL ADD DUP9 SSTORE POP POP POP JUMPDEST POP POP POP POP POP POP JUMP JUMPDEST PUSH2 0x4898 DUP1 PUSH3 0x51D PUSH0 CODECOPY PUSH0 RETURN INVALID PUSH1 0x80 PUSH1 0x40 MSTORE PUSH1 0x4 CALLDATASIZE LT PUSH2 0xE7 JUMPI PUSH0 CALLDATALOAD PUSH1 0xE0 SHR DUP1 PUSH4 0x8E27D719 GT PUSH2 0x89 JUMPI DUP1 PUSH4 0xAABDC71A GT PUSH2 0x58 JUMPI DUP1 PUSH4 0xAABDC71A EQ PUSH2 0x2C7 JUMPI DUP1 PUSH4 0xB0B22C2C EQ PUSH2 0x2EF JUMPI DUP1 PUSH4 0xCE3B3E88 EQ PUSH2 0x317 JUMPI DUP1 PUSH4 0xCE993C77 EQ PUSH2 0x33F JUMPI PUSH2 0xE7 JUMP JUMPDEST DUP1 PUSH4 0x8E27D719 EQ PUSH2 0x21D JUMPI DUP1 PUSH4 0x93DFBD9E EQ PUSH2 0x239 JUMPI DUP1 PUSH4 0xA04EF145 EQ PUSH2 0x261 JUMPI DUP1 PUSH4 0xA4E360C8 EQ PUSH2 0x28B JUMPI PUSH2 0xE7 JUMP JUMPDEST DUP1 PUSH4 0x4E67D1D6 GT PUSH2 0xC5 JUMPI DUP1 PUSH4 0x4E67D1D6 EQ PUSH2 0x179 JUMPI DUP1 PUSH4 0x6F9FB98A EQ PUSH2 0x1A1 JUMPI DUP1 PUSH4 0x7278A1FA EQ PUSH2 0x1CB JUMPI DUP1 PUSH4 0x80735A5A EQ PUSH2 0x1F5 JUMPI PUSH2 0xE7 JUMP JUMPDEST DUP1 PUSH4 0x273CBAA0 EQ PUSH2 0xEB JUMPI DUP1 PUSH4 0x30B39A62 EQ PUSH2 0x115 JUMPI DUP1 PUSH4 0x3A51D246 EQ PUSH2 0x13D JUMPI JUMPDEST PUSH0 DUP1 REVERT JUMPDEST CALLVALUE DUP1 ISZERO PUSH2 0xF6 JUMPI PUSH0 DUP1 REVERT JUMPDEST POP PUSH2 0xFF PUSH2 0x369 JUMP JUMPDEST PUSH1 0x40 MLOAD PUSH2 0x10C SWAP2 SWAP1 PUSH2 0x30FE JUMP JUMPDEST PUSH1 0x40 MLOAD DUP1 SWAP2 SUB SWAP1 RETURN JUMPDEST CALLVALUE DUP1 ISZERO PUSH2 0x120 JUMPI PUSH0 DUP1 REVERT JUMPDEST POP PUSH2 0x13B PUSH1 0x4 DUP1 CALLDATASIZE SUB DUP2 ADD SWAP1 PUSH2 0x136 SWAP2 SWAP1 PUSH2 0x328E JUMP JUMPDEST PUSH2 0x43D JUMP JUMPDEST STOP JUMPDEST CALLVALUE DUP1 ISZERO PUSH2 0x148 JUMPI PUSH0 DUP1 REVERT JUMPDEST POP PUSH2 0x163 PUSH1 0x4 DUP1 CALLDATASIZE SUB DUP2 ADD SWAP1 PUSH2 0x15E SWAP2 SWAP1 PUSH2 0x32E8 JUMP JUMPDEST PUSH2 0x87F JUMP JUMPDEST PUSH1 0x40 MLOAD PUSH2 0x170 SWAP2 SWAP1 PUSH2 0x333E JUMP JUMPDEST PUSH1 0x40 MLOAD DUP1 SWAP2 SUB SWAP1 RETURN JUMPDEST CALLVALUE DUP1 ISZERO PUSH2 0x184 JUMPI PUSH0 DUP1 REVERT JUMPDEST POP PUSH2 0x19F PUSH1 0x4 DUP1 CALLDATASIZE SUB DUP2 ADD SWAP1 PUSH2 0x19A SWAP2 SWAP1 PUSH2 0x328E JUMP JUMPDEST PUSH2 0x8E1 JUMP JUMPDEST STOP JUMPDEST CALLVALUE DUP1 ISZERO PUSH2 0x1AC JUMPI PUSH0 DUP1 REVERT JUMPDEST POP PUSH2 0x1B5 PUSH2 0xD96 JUMP JUMPDEST PUSH1 0x40 MLOAD PUSH2 0x1C2 SWAP2 SWAP1 PUSH2 0x333E JUMP JUMPDEST PUSH1 0x40 MLOAD DUP1 SWAP2 SUB SWAP1 RETURN JUMPDEST CALLVALUE DUP1 ISZERO PUSH2 0x1D6 JUMPI PUSH0 DUP1 REVERT JUMPDEST POP PUSH2 0x1DF PUSH2 0xD9D JUMP JUMPDEST PUSH1 0x40 MLOAD PUSH2 0x1EC SWAP2 SWAP1 PUSH2 0x333E JUMP JUMPDEST PUSH1 0x40 MLOAD DUP1 SWAP2 SUB SWAP1 RETURN JUMPDEST CALLVALUE DUP1 ISZERO PUSH2 0x200 JUMPI PUSH0 DUP1 REVERT JUMPDEST POP PUSH2 0x21B PUSH1 0x4 DUP1 CALLDATASIZE SUB DUP2 ADD SWAP1 PUSH2 0x216 SWAP2 SWAP1 PUSH2 0x328E JUMP JUMPDEST PUSH2 0xDA6 JUMP JUMPDEST STOP JUMPDEST PUSH2 0x237 PUSH1 0x4 DUP1 CALLDATASIZE SUB DUP2 ADD SWAP1 PUSH2 0x232 SWAP2 SWAP1 PUSH2 0x328E JUMP JUMPDEST PUSH2 0x1374 JUMP JUMPDEST STOP JUMPDEST CALLVALUE DUP1 ISZERO PUSH2 0x244 JUMPI PUSH0 DUP1 REVERT JUMPDEST POP PUSH2 0x25F PUSH1 0x4 DUP1 CALLDATASIZE SUB DUP2 ADD SWAP1 PUSH2 0x25A SWAP2 SWAP1 PUSH2 0x33B1 JUMP JUMPDEST PUSH2 0x17E1 JUMP JUMPDEST STOP JUMPDEST CALLVALUE DUP1 ISZERO PUSH2 0x26C JUMPI PUSH0 DUP1 REVERT JUMPDEST POP PUSH2 0x275 PUSH2 0x1A39 JUMP JUMPDEST PUSH1 0x40 MLOAD PUSH2 0x282 SWAP2 SWAP1 PUSH2 0x356E JUMP JUMPDEST PUSH1 0x40 MLOAD DUP1 SWAP2 SUB SWAP1 RETURN JUMPDEST CALLVALUE DUP1 ISZERO PUSH2 0x296 JUMPI PUSH0 DUP1 REVERT JUMPDEST POP PUSH2 0x2B1 PUSH1 0x4 DUP1 CALLDATASIZE SUB DUP2 ADD SWAP1 PUSH2 0x2AC SWAP2 SWAP1 PUSH2 0x358E JUMP JUMPDEST PUSH2 0x1CD3 JUMP JUMPDEST PUSH1 0x40 MLOAD PUSH2 0x2BE SWAP2 SWAP1 PUSH2 0x35D3 JUMP JUMPDEST PUSH1 0x40 MLOAD DUP1 SWAP2 SUB SWAP1 RETURN JUMPDEST CALLVALUE DUP1 ISZERO PUSH2 0x2D2 JUMPI PUSH0 DUP1 REVERT JUMPDEST POP PUSH2 0x2ED PUSH1 0x4 DUP1 CALLDATASIZE SUB DUP2 ADD SWAP1 PUSH2 0x2E8 SWAP2 SWAP1 PUSH2 0x33B1 JUMP JUMPDEST PUSH2 0x1D34 JUMP JUMPDEST STOP JUMPDEST CALLVALUE DUP1 ISZERO PUSH2 0x2FA JUMPI PUSH0 DUP1 REVERT JUMPDEST POP PUSH2 0x315 PUSH1 0x4 DUP1 CALLDATASIZE SUB DUP2 ADD SWAP1 PUSH2 0x310 SWAP2 SWAP1 PUSH2 0x35EC JUMP JUMPDEST PUSH2 0x2033 JUMP JUMPDEST STOP JUMPDEST CALLVALUE DUP1 ISZERO PUSH2 0x322 JUMPI PUSH0 DUP1 REVERT JUMPDEST POP PUSH2 0x33D PUSH1 0x4 DUP1 CALLDATASIZE SUB DUP2 ADD SWAP1 PUSH2 0x338 SWAP2 SWAP1 PUSH2 0x3670 JUMP JUMPDEST PUSH2 0x237E JUMP JUMPDEST STOP JUMPDEST CALLVALUE DUP1 ISZERO PUSH2 0x34A JUMPI PUSH0 DUP1 REVERT JUMPDEST POP PUSH2 0x353 PUSH2 0x28DB JUMP JUMPDEST PUSH1 0x40 MLOAD PUSH2 0x360 SWAP2 SWAP1 PUSH2 0x3784 JUMP JUMPDEST PUSH1 0x40 MLOAD DUP1 SWAP2 SUB SWAP1 RETURN JUMPDEST PUSH1 0x60 PUSH1 0x6 DUP1 SLOAD DUP1 PUSH1 0x20 MUL PUSH1 0x20 ADD PUSH1 0x40 MLOAD SWAP1 DUP2 ADD PUSH1 0x40 MSTORE DUP1 SWAP3 SWAP2 SWAP1 DUP2 DUP2 MSTORE PUSH1 0x20 ADD PUSH0 SWAP1 JUMPDEST DUP3 DUP3 LT ISZERO PUSH2 0x434 JUMPI DUP4 DUP3 SWAP1 PUSH0 MSTORE PUSH1 0x20 PUSH0 KECCAK256 ADD DUP1 SLOAD PUSH2 0x3A9 SWAP1 PUSH2 0x37D1 JUMP JUMPDEST DUP1 PUSH1 0x1F ADD PUSH1 0x20 DUP1 SWAP2 DIV MUL PUSH1 0x20 ADD PUSH1 0x40 MLOAD SWAP1 DUP2 ADD PUSH1 0x40 MSTORE DUP1 SWAP3 SWAP2 SWAP1 DUP2 DUP2 MSTORE PUSH1 0x20 ADD DUP3 DUP1 SLOAD PUSH2 0x3D5 SWAP1 PUSH2 0x37D1 JUMP JUMPDEST DUP1 ISZERO PUSH2 0x420 JUMPI DUP1 PUSH1 0x1F LT PUSH2 0x3F7 JUMPI PUSH2 0x100 DUP1 DUP4 SLOAD DIV MUL DUP4 MSTORE SWAP2 PUSH1 0x20 ADD SWAP2 PUSH2 0x420 JUMP JUMPDEST DUP3 ADD SWAP2 SWAP1 PUSH0 MSTORE PUSH1 0x20 PUSH0 KECCAK256 SWAP1 JUMPDEST DUP2 SLOAD DUP2 MSTORE SWAP1 PUSH1 0x1 ADD SWAP1 PUSH1 0x20 ADD DUP1 DUP4 GT PUSH2 0x403 JUMPI DUP3 SWAP1 SUB PUSH1 0x1F AND DUP3 ADD SWAP2 JUMPDEST POP POP POP POP POP DUP2 MSTORE PUSH1 0x20 ADD SWAP1 PUSH1 0x1 ADD SWAP1 PUSH2 0x38C JUMP JUMPDEST POP POP POP POP SWAP1 POP SWAP1 JUMP JUMPDEST PUSH0 DUP1 JUMPDEST PUSH1 0x1 DUP1 SLOAD SWAP1 POP DUP2 LT ISZERO PUSH2 0x4D1 JUMPI CALLER PUSH20 0xFFFFFFFFFFFFFFFFFFFFFFFFFFFFFFFFFFFFFFFF AND PUSH1 0x1 DUP3 DUP2 SLOAD DUP2 LT PUSH2 0x478 JUMPI PUSH2 0x477 PUSH2 0x3801 JUMP JUMPDEST JUMPDEST SWAP1 PUSH0 MSTORE PUSH1 0x20 PUSH0 KECCAK256 ADD PUSH0 SWAP1 SLOAD SWAP1 PUSH2 0x100 EXP SWAP1 DIV PUSH20 0xFFFFFFFFFFFFFFFFFFFFFFFFFFFFFFFFFFFFFFFF AND PUSH20 0xFFFFFFFFFFFFFFFFFFFFFFFFFFFFFFFFFFFFFFFF AND SUB PUSH2 0x4C4 JUMPI PUSH1 0x1 SWAP2 POP PUSH2 0x4D1 JUMP JUMPDEST DUP1 DUP1 PUSH1 0x1 ADD SWAP2 POP POP PUSH2 0x440 JUMP JUMPDEST POP PUSH1 0x1 ISZERO ISZERO DUP2 ISZERO ISZERO EQ PUSH2 0x519 JUMPI PUSH1 0x40 MLOAD PUSH32 0x8C379A000000000000000000000000000000000000000000000000000000000 DUP2 MSTORE PUSH1 0x4 ADD PUSH2 0x510 SWAP1 PUSH2 0x38AE JUMP JUMPDEST PUSH1 0x40 MLOAD DUP1 SWAP2 SUB SWAP1 REVERT JUMPDEST DUP2 PUSH1 0x7 PUSH0 CALLER PUSH20 0xFFFFFFFFFFFFFFFFFFFFFFFFFFFFFFFFFFFFFFFF AND PUSH20 0xFFFFFFFFFFFFFFFFFFFFFFFFFFFFFFFFFFFFFFFF AND DUP2 MSTORE PUSH1 0x20 ADD SWAP1 DUP2 MSTORE PUSH1 0x20 ADD PUSH0 KECCAK256 DUP5 PUSH1 0x40 MLOAD PUSH2 0x565 SWAP2 SWAP1 PUSH2 0x3906 JUMP JUMPDEST SWAP1 DUP2 MSTORE PUSH1 0x20 ADD PUSH1 0x40 MLOAD DUP1 SWAP2 SUB SWAP1 KECCAK256 SLOAD LT ISZERO PUSH2 0x5B5 JUMPI PUSH1 0x40 MLOAD PUSH32 0x8C379A000000000000000000000000000000000000000000000000000000000 DUP2 MSTORE PUSH1 0x4 ADD PUSH2 0x5AC SWAP1 PUSH2 0x3966 JUMP JUMPDEST PUSH1 0x40 MLOAD DUP1 SWAP2 SUB SWAP1 REVERT JUMPDEST DUP2 PUSH1 0x7 PUSH0 CALLER PUSH20 0xFFFFFFFFFFFFFFFFFFFFFFFFFFFFFFFFFFFFFFFF AND PUSH20 0xFFFFFFFFFFFFFFFFFFFFFFFFFFFFFFFFFFFFFFFF AND DUP2 MSTORE PUSH1 0x20 ADD SWAP1 DUP2 MSTORE PUSH1 0x20 ADD PUSH0 KECCAK256 DUP5 PUSH1 0x40 MLOAD PUSH2 0x601 SWAP2 SWAP1 PUSH2 0x3906 JUMP JUMPDEST SWAP1 DUP2 MSTORE PUSH1 0x20 ADD PUSH1 0x40 MLOAD DUP1 SWAP2 SUB SWAP1 KECCAK256 PUSH0 DUP3 DUP3 SLOAD PUSH2 0x61D SWAP2 SWAP1 PUSH2 0x39B1 JUMP JUMPDEST SWAP3 POP POP DUP2 SWAP1 SSTORE POP PUSH1 0x40 MLOAD DUP1 PUSH1 0x40 ADD PUSH1 0x40 MSTORE DUP1 PUSH1 0x3 DUP2 MSTORE PUSH1 0x20 ADD PUSH32 0x4554480000000000000000000000000000000000000000000000000000000000 DUP2 MSTORE POP DUP1 MLOAD SWAP1 PUSH1 0x20 ADD KECCAK256 DUP4 DUP1 MLOAD SWAP1 PUSH1 0x20 ADD KECCAK256 SUB PUSH2 0x6B7 JUMPI CALLER PUSH20 0xFFFFFFFFFFFFFFFFFFFFFFFFFFFFFFFFFFFFFFFF AND PUSH2 0x8FC DUP4 SWAP1 DUP2 ISZERO MUL SWAP1 PUSH1 0x40 MLOAD PUSH0 PUSH1 0x40 MLOAD DUP1 DUP4 SUB DUP2 DUP6 DUP9 DUP9 CALL SWAP4 POP POP POP POP ISZERO DUP1 ISZERO PUSH2 0x6B1 JUMPI RETURNDATASIZE PUSH0 DUP1 RETURNDATACOPY RETURNDATASIZE PUSH0 REVERT JUMPDEST POP PUSH2 0x822 JUMP JUMPDEST PUSH0 PUSH20 0xFFFFFFFFFFFFFFFFFFFFFFFFFFFFFFFFFFFFFFFF AND PUSH1 0x9 DUP5 PUSH1 0x40 MLOAD PUSH2 0x6DE SWAP2 SWAP1 PUSH2 0x3906 JUMP JUMPDEST SWAP1 DUP2 MSTORE PUSH1 0x20 ADD PUSH1 0x40 MLOAD DUP1 SWAP2 SUB SWAP1 KECCAK256 PUSH1 0x1 ADD PUSH0 SWAP1 SLOAD SWAP1 PUSH2 0x100 EXP SWAP1 DIV PUSH20 0xFFFFFFFFFFFFFFFFFFFFFFFFFFFFFFFFFFFFFFFF AND PUSH20 0xFFFFFFFFFFFFFFFFFFFFFFFFFFFFFFFFFFFFFFFF AND SUB PUSH2 0x765 JUMPI PUSH1 0x40 MLOAD PUSH32 0x8C379A000000000000000000000000000000000000000000000000000000000 DUP2 MSTORE PUSH1 0x4 ADD PUSH2 0x75C SWAP1 PUSH2 0x3A2E JUMP JUMPDEST PUSH1 0x40 MLOAD DUP1 SWAP2 SUB SWAP1 REVERT JUMPDEST PUSH1 0x9 DUP4 PUSH1 0x40 MLOAD PUSH2 0x775 SWAP2 SWAP1 PUSH2 0x3906 JUMP JUMPDEST SWAP1 DUP2 MSTORE PUSH1 0x20 ADD PUSH1 0x40 MLOAD DUP1 SWAP2 SUB SWAP1 KECCAK256 PUSH1 0x1 ADD PUSH0 SWAP1 SLOAD SWAP1 PUSH2 0x100 EXP SWAP1 DIV PUSH20 0xFFFFFFFFFFFFFFFFFFFFFFFFFFFFFFFFFFFFFFFF AND PUSH20 0xFFFFFFFFFFFFFFFFFFFFFFFFFFFFFFFFFFFFFFFF AND PUSH4 0xA9059CBB CALLER DUP5 PUSH1 0x40 MLOAD DUP4 PUSH4 0xFFFFFFFF AND PUSH1 0xE0 SHL DUP2 MSTORE PUSH1 0x4 ADD PUSH2 0x7E0 SWAP3 SWAP2 SWAP1 PUSH2 0x3A5B JUMP JUMPDEST PUSH1 0x20 PUSH1 0x40 MLOAD DUP1 DUP4 SUB DUP2 PUSH0 DUP8 GAS CALL ISZERO DUP1 ISZERO PUSH2 0x7FC JUMPI RETURNDATASIZE PUSH0 DUP1 RETURNDATACOPY RETURNDATASIZE PUSH0 REVERT JUMPDEST POP POP POP POP PUSH1 0x40 MLOAD RETURNDATASIZE PUSH1 0x1F NOT PUSH1 0x1F DUP3 ADD AND DUP3 ADD DUP1 PUSH1 0x40 MSTORE POP DUP2 ADD SWAP1 PUSH2 0x820 SWAP2 SWAP1 PUSH2 0x3AAC JUMP JUMPDEST POP JUMPDEST PUSH32 0x6A647EACC9E98792655E8DBA08E3167440B93E02EF76E8E3330FA10A27B4ECBF DUP4 CALLER DUP5 PUSH1 0x4 SLOAD TIMESTAMP PUSH1 0x40 MLOAD PUSH2 0x85B SWAP6 SWAP5 SWAP4 SWAP3 SWAP2 SWAP1 PUSH2 0x3B0F JUMP JUMPDEST PUSH1 0x40 MLOAD DUP1 SWAP2 SUB SWAP1 LOG1 PUSH1 0x4 PUSH0 DUP2 SLOAD DUP1 SWAP3 SWAP2 SWAP1 PUSH2 0x875 SWAP1 PUSH2 0x3B67 JUMP JUMPDEST SWAP2 SWAP1 POP SSTORE POP POP POP POP JUMP JUMPDEST PUSH0 PUSH1 0x7 PUSH0 CALLER PUSH20 0xFFFFFFFFFFFFFFFFFFFFFFFFFFFFFFFFFFFFFFFF AND PUSH20 0xFFFFFFFFFFFFFFFFFFFFFFFFFFFFFFFFFFFFFFFF AND DUP2 MSTORE PUSH1 0x20 ADD SWAP1 DUP2 MSTORE PUSH1 0x20 ADD PUSH0 KECCAK256 DUP3 PUSH1 0x40 MLOAD PUSH2 0x8CB SWAP2 SWAP1 PUSH2 0x3906 JUMP JUMPDEST SWAP1 DUP2 MSTORE PUSH1 0x20 ADD PUSH1 0x40 MLOAD DUP1 SWAP2 SUB SWAP1 KECCAK256 SLOAD SWAP1 POP SWAP2 SWAP1 POP JUMP JUMPDEST PUSH0 DUP1 JUMPDEST PUSH1 0x1 DUP1 SLOAD SWAP1 POP DUP2 LT ISZERO PUSH2 0x975 JUMPI CALLER PUSH20 0xFFFFFFFFFFFFFFFFFFFFFFFFFFFFFFFFFFFFFFFF AND PUSH1 0x1 DUP3 DUP2 SLOAD DUP2 LT PUSH2 0x91C JUMPI PUSH2 0x91B PUSH2 0x3801 JUMP JUMPDEST JUMPDEST SWAP1 PUSH0 MSTORE PUSH1 0x20 PUSH0 KECCAK256 ADD PUSH0 SWAP1 SLOAD SWAP1 PUSH2 0x100 EXP SWAP1 DIV PUSH20 0xFFFFFFFFFFFFFFFFFFFFFFFFFFFFFFFFFFFFFFFF AND PUSH20 0xFFFFFFFFFFFFFFFFFFFFFFFFFFFFFFFFFFFFFFFF AND SUB PUSH2 0x968 JUMPI PUSH1 0x1 SWAP2 POP PUSH2 0x975 JUMP JUMPDEST DUP1 DUP1 PUSH1 0x1 ADD SWAP2 POP POP PUSH2 0x8E4 JUMP JUMPDEST POP PUSH1 0x1 ISZERO ISZERO DUP2 ISZERO ISZERO EQ PUSH2 0x9BD JUMPI PUSH1 0x40 MLOAD PUSH32 0x8C379A000000000000000000000000000000000000000000000000000000000 DUP2 MSTORE PUSH1 0x4 ADD PUSH2 0x9B4 SWAP1 PUSH2 0x38AE JUMP JUMPDEST PUSH1 0x40 MLOAD DUP1 SWAP2 SUB SWAP1 REVERT JUMPDEST PUSH0 DUP1 PUSH0 JUMPDEST PUSH1 0xA DUP1 SLOAD SWAP1 POP DUP2 LT ISZERO PUSH2 0xA1C JUMPI DUP5 PUSH1 0xA DUP3 DUP2 SLOAD DUP2 LT PUSH2 0x9E3 JUMPI PUSH2 0x9E2 PUSH2 0x3801 JUMP JUMPDEST JUMPDEST SWAP1 PUSH0 MSTORE PUSH1 0x20 PUSH0 KECCAK256 SWAP1 PUSH1 0x7 MUL ADD PUSH1 0x4 ADD SLOAD SUB PUSH2 0xA01 JUMPI PUSH1 0x1 SWAP3 POP PUSH2 0xA1C JUMP JUMPDEST DUP2 DUP1 PUSH2 0xA0C SWAP1 PUSH2 0x3B67 JUMP JUMPDEST SWAP3 POP POP DUP1 DUP1 PUSH1 0x1 ADD SWAP2 POP POP PUSH2 0x9C1 JUMP JUMPDEST POP DUP2 PUSH2 0xA5D JUMPI PUSH1 0x40 MLOAD PUSH32 0x8C379A000000000000000000000000000000000000000000000000000000000 DUP2 MSTORE PUSH1 0x4 ADD PUSH2 0xA54 SWAP1 PUSH2 0x3C1E JUMP JUMPDEST PUSH1 0x40 MLOAD DUP1 SWAP2 SUB SWAP1 REVERT JUMPDEST PUSH0 ISZERO ISZERO PUSH1 0x8 PUSH0 CALLER PUSH20 0xFFFFFFFFFFFFFFFFFFFFFFFFFFFFFFFFFFFFFFFF AND PUSH20 0xFFFFFFFFFFFFFFFFFFFFFFFFFFFFFFFFFFFFFFFF AND DUP2 MSTORE PUSH1 0x20 ADD SWAP1 DUP2 MSTORE PUSH1 0x20 ADD PUSH0 KECCAK256 PUSH0 DUP7 DUP2 MSTORE PUSH1 0x20 ADD SWAP1 DUP2 MSTORE PUSH1 0x20 ADD PUSH0 KECCAK256 PUSH0 SWAP1 SLOAD SWAP1 PUSH2 0x100 EXP SWAP1 DIV PUSH1 0xFF AND ISZERO ISZERO EQ PUSH2 0xAFB JUMPI PUSH1 0x40 MLOAD PUSH32 0x8C379A000000000000000000000000000000000000000000000000000000000 DUP2 MSTORE PUSH1 0x4 ADD PUSH2 0xAF2 SWAP1 PUSH2 0x3CAC JUMP JUMPDEST PUSH1 0x40 MLOAD DUP1 SWAP2 SUB SWAP1 REVERT JUMPDEST CALLER PUSH20 0xFFFFFFFFFFFFFFFFFFFFFFFFFFFFFFFFFFFFFFFF AND PUSH1 0xA DUP3 DUP2 SLOAD DUP2 LT PUSH2 0xB26 JUMPI PUSH2 0xB25 PUSH2 0x3801 JUMP JUMPDEST JUMPDEST SWAP1 PUSH0 MSTORE PUSH1 0x20 PUSH0 KECCAK256 SWAP1 PUSH1 0x7 MUL ADD PUSH1 0x1 ADD PUSH0 SWAP1 SLOAD SWAP1 PUSH2 0x100 EXP SWAP1 DIV PUSH20 0xFFFFFFFFFFFFFFFFFFFFFFFFFFFFFFFFFFFFFFFF AND PUSH20 0xFFFFFFFFFFFFFFFFFFFFFFFFFFFFFFFFFFFFFFFF AND SUB PUSH2 0xBAB JUMPI PUSH1 0x40 MLOAD PUSH32 0x8C379A000000000000000000000000000000000000000000000000000000000 DUP2 MSTORE PUSH1 0x4 ADD PUSH2 0xBA2 SWAP1 PUSH2 0x3D14 JUMP JUMPDEST PUSH1 0x40 MLOAD DUP1 SWAP2 SUB SWAP1 REVERT JUMPDEST PUSH1 0x1 PUSH1 0x8 PUSH0 CALLER PUSH20 0xFFFFFFFFFFFFFFFFFFFFFFFFFFFFFFFFFFFFFFFF AND PUSH20 0xFFFFFFFFFFFFFFFFFFFFFFFFFFFFFFFFFFFFFFFF AND DUP2 MSTORE PUSH1 0x20 ADD SWAP1 DUP2 MSTORE PUSH1 0x20 ADD PUSH0 KECCAK256 PUSH0 DUP7 DUP2 MSTORE PUSH1 0x20 ADD SWAP1 DUP2 MSTORE PUSH1 0x20 ADD PUSH0 KECCAK256 PUSH0 PUSH2 0x100 EXP DUP2 SLOAD DUP2 PUSH1 0xFF MUL NOT AND SWAP1 DUP4 ISZERO ISZERO MUL OR SWAP1 SSTORE POP PUSH1 0xA DUP2 DUP2 SLOAD DUP2 LT PUSH2 0xC23 JUMPI PUSH2 0xC22 PUSH2 0x3801 JUMP JUMPDEST JUMPDEST SWAP1 PUSH0 MSTORE PUSH1 0x20 PUSH0 KECCAK256 SWAP1 PUSH1 0x7 MUL ADD PUSH1 0x5 ADD PUSH0 DUP2 SLOAD DUP1 SWAP3 SWAP2 SWAP1 PUSH2 0xC42 SWAP1 PUSH2 0x3B67 JUMP JUMPDEST SWAP2 SWAP1 POP SSTORE POP PUSH32 0xEAD8052A59BD99F1B0115F4DA8E862EBC15BE06D11AD168B737B8E6DAE0886C8 DUP6 CALLER PUSH1 0xA DUP5 DUP2 SLOAD DUP2 LT PUSH2 0xC7E JUMPI PUSH2 0xC7D PUSH2 0x3801 JUMP JUMPDEST JUMPDEST SWAP1 PUSH0 MSTORE PUSH1 0x20 PUSH0 KECCAK256 SWAP1 PUSH1 0x7 MUL ADD PUSH1 0x2 ADD PUSH0 SWAP1 SLOAD SWAP1 PUSH2 0x100 EXP SWAP1 DIV PUSH20 0xFFFFFFFFFFFFFFFFFFFFFFFFFFFFFFFFFFFFFFFF AND PUSH1 0xA DUP6 DUP2 SLOAD DUP2 LT PUSH2 0xCC1 JUMPI PUSH2 0xCC0 PUSH2 0x3801 JUMP JUMPDEST JUMPDEST SWAP1 PUSH0 MSTORE PUSH1 0x20 PUSH0 KECCAK256 SWAP1 PUSH1 0x7 MUL ADD PUSH1 0x3 ADD SLOAD PUSH1 0xA DUP7 DUP2 SLOAD DUP2 LT PUSH2 0xCE5 JUMPI PUSH2 0xCE4 PUSH2 0x3801 JUMP JUMPDEST JUMPDEST SWAP1 PUSH0 MSTORE PUSH1 0x20 PUSH0 KECCAK256 SWAP1 PUSH1 0x7 MUL ADD PUSH1 0x4 ADD SLOAD PUSH1 0xA DUP8 DUP2 SLOAD DUP2 LT PUSH2 0xD09 JUMPI PUSH2 0xD08 PUSH2 0x3801 JUMP JUMPDEST JUMPDEST SWAP1 PUSH0 MSTORE PUSH1 0x20 PUSH0 KECCAK256 SWAP1 PUSH1 0x7 MUL ADD PUSH1 0x5 ADD SLOAD PUSH1 0xA DUP9 DUP2 SLOAD DUP2 LT PUSH2 0xD2D JUMPI PUSH2 0xD2C PUSH2 0x3801 JUMP JUMPDEST JUMPDEST SWAP1 PUSH0 MSTORE PUSH1 0x20 PUSH0 KECCAK256 SWAP1 PUSH1 0x7 MUL ADD PUSH1 0x6 ADD SLOAD PUSH1 0x40 MLOAD PUSH2 0xD50 SWAP8 SWAP7 SWAP6 SWAP5 SWAP4 SWAP3 SWAP2 SWAP1 PUSH2 0x3D8D JUMP JUMPDEST PUSH1 0x40 MLOAD DUP1 SWAP2 SUB SWAP1 LOG1 PUSH1 0x2 SLOAD PUSH1 0xA DUP3 DUP2 SLOAD DUP2 LT PUSH2 0xD6F JUMPI PUSH2 0xD6E PUSH2 0x3801 JUMP JUMPDEST JUMPDEST SWAP1 PUSH0 MSTORE PUSH1 0x20 PUSH0 KECCAK256 SWAP1 PUSH1 0x7 MUL ADD PUSH1 0x5 ADD SLOAD SUB PUSH2 0xD8F JUMPI PUSH2 0xD8E DUP6 DUP3 PUSH2 0x2966 JUMP JUMPDEST JUMPDEST POP POP POP POP POP JUMP JUMPDEST PUSH0 SELFBALANCE SWAP1 POP SWAP1 JUMP JUMPDEST PUSH0 PUSH1 0x2 SLOAD SWAP1 POP SWAP1 JUMP JUMPDEST PUSH0 DUP1 JUMPDEST PUSH1 0x1 DUP1 SLOAD SWAP1 POP DUP2 LT ISZERO PUSH2 0xE3A JUMPI CALLER PUSH20 0xFFFFFFFFFFFFFFFFFFFFFFFFFFFFFFFFFFFFFFFF AND PUSH1 0x1 DUP3 DUP2 SLOAD DUP2 LT PUSH2 0xDE1 JUMPI PUSH2 0xDE0 PUSH2 0x3801 JUMP JUMPDEST JUMPDEST SWAP1 PUSH0 MSTORE PUSH1 0x20 PUSH0 KECCAK256 ADD PUSH0 SWAP1 SLOAD SWAP1 PUSH2 0x100 EXP SWAP1 DIV PUSH20 0xFFFFFFFFFFFFFFFFFFFFFFFFFFFFFFFFFFFFFFFF AND PUSH20 0xFFFFFFFFFFFFFFFFFFFFFFFFFFFFFFFFFFFFFFFF AND SUB PUSH2 0xE2D JUMPI PUSH1 0x1 SWAP2 POP PUSH2 0xE3A JUMP JUMPDEST DUP1 DUP1 PUSH1 0x1 ADD SWAP2 POP POP PUSH2 0xDA9 JUMP JUMPDEST POP PUSH1 0x1 ISZERO ISZERO DUP2 ISZERO ISZERO EQ PUSH2 0xE82 JUMPI PUSH1 0x40 MLOAD PUSH32 0x8C379A000000000000000000000000000000000000000000000000000000000 DUP2 MSTORE PUSH1 0x4 ADD PUSH2 0xE79 SWAP1 PUSH2 0x38AE JUMP JUMPDEST PUSH1 0x40 MLOAD DUP1 SWAP2 SUB SWAP1 REVERT JUMPDEST PUSH0 DUP1 PUSH0 JUMPDEST PUSH1 0xA DUP1 SLOAD SWAP1 POP DUP2 LT ISZERO PUSH2 0xEE1 JUMPI DUP5 PUSH1 0xA DUP3 DUP2 SLOAD DUP2 LT PUSH2 0xEA8 JUMPI PUSH2 0xEA7 PUSH2 0x3801 JUMP JUMPDEST JUMPDEST SWAP1 PUSH0 MSTORE PUSH1 0x20 PUSH0 KECCAK256 SWAP1 PUSH1 0x7 MUL ADD PUSH1 0x4 ADD SLOAD SUB PUSH2 0xEC6 JUMPI PUSH1 0x1 SWAP3 POP PUSH2 0xEE1 JUMP JUMPDEST DUP2 DUP1 PUSH2 0xED1 SWAP1 PUSH2 0x3B67 JUMP JUMPDEST SWAP3 POP POP DUP1 DUP1 PUSH1 0x1 ADD SWAP2 POP POP PUSH2 0xE86 JUMP JUMPDEST POP CALLER PUSH20 0xFFFFFFFFFFFFFFFFFFFFFFFFFFFFFFFFFFFFFFFF AND PUSH1 0xA DUP3 DUP2 SLOAD DUP2 LT PUSH2 0xF0D JUMPI PUSH2 0xF0C PUSH2 0x3801 JUMP JUMPDEST JUMPDEST SWAP1 PUSH0 MSTORE PUSH1 0x20 PUSH0 KECCAK256 SWAP1 PUSH1 0x7 MUL ADD PUSH1 0x1 ADD PUSH0 SWAP1 SLOAD SWAP1 PUSH2 0x100 EXP SWAP1 DIV PUSH20 0xFFFFFFFFFFFFFFFFFFFFFFFFFFFFFFFFFFFFFFFF AND PUSH20 0xFFFFFFFFFFFFFFFFFFFFFFFFFFFFFFFFFFFFFFFF AND EQ PUSH2 0xF92 JUMPI PUSH1 0x40 MLOAD PUSH32 0x8C379A000000000000000000000000000000000000000000000000000000000 DUP2 MSTORE PUSH1 0x4 ADD PUSH2 0xF89 SWAP1 PUSH2 0x3C1E JUMP JUMPDEST PUSH1 0x40 MLOAD DUP1 SWAP2 SUB SWAP1 REVERT JUMPDEST DUP2 PUSH2 0xFD2 JUMPI PUSH1 0x40 MLOAD PUSH32 0x8C379A000000000000000000000000000000000000000000000000000000000 DUP2 MSTORE PUSH1 0x4 ADD PUSH2 0xFC9 SWAP1 PUSH2 0x3E4B JUMP JUMPDEST PUSH1 0x40 MLOAD DUP1 SWAP2 SUB SWAP1 REVERT JUMPDEST PUSH1 0xA DUP2 DUP2 SLOAD DUP2 LT PUSH2 0xFE6 JUMPI PUSH2 0xFE5 PUSH2 0x3801 JUMP JUMPDEST JUMPDEST SWAP1 PUSH0 MSTORE PUSH1 0x20 PUSH0 KECCAK256 SWAP1 PUSH1 0x7 MUL ADD PUSH1 0x3 ADD SLOAD PUSH1 0x7 PUSH0 CALLER PUSH20 0xFFFFFFFFFFFFFFFFFFFFFFFFFFFFFFFFFFFFFFFF AND PUSH20 0xFFFFFFFFFFFFFFFFFFFFFFFFFFFFFFFFFFFFFFFF AND DUP2 MSTORE PUSH1 0x20 ADD SWAP1 DUP2 MSTORE PUSH1 0x20 ADD PUSH0 KECCAK256 DUP7 PUSH1 0x40 MLOAD PUSH2 0x1041 SWAP2 SWAP1 PUSH2 0x3906 JUMP JUMPDEST SWAP1 DUP2 MSTORE PUSH1 0x20 ADD PUSH1 0x40 MLOAD DUP1 SWAP2 SUB SWAP1 KECCAK256 PUSH0 DUP3 DUP3 SLOAD PUSH2 0x105D SWAP2 SWAP1 PUSH2 0x3E69 JUMP JUMPDEST SWAP3 POP POP DUP2 SWAP1 SSTORE POP PUSH1 0xA PUSH1 0x1 PUSH1 0xA DUP1 SLOAD SWAP1 POP PUSH2 0x1078 SWAP2 SWAP1 PUSH2 0x39B1 JUMP JUMPDEST DUP2 SLOAD DUP2 LT PUSH2 0x1089 JUMPI PUSH2 0x1088 PUSH2 0x3801 JUMP JUMPDEST JUMPDEST SWAP1 PUSH0 MSTORE PUSH1 0x20 PUSH0 KECCAK256 SWAP1 PUSH1 0x7 MUL ADD PUSH1 0xA DUP3 DUP2 SLOAD DUP2 LT PUSH2 0x10A9 JUMPI PUSH2 0x10A8 PUSH2 0x3801 JUMP JUMPDEST JUMPDEST SWAP1 PUSH0 MSTORE PUSH1 0x20 PUSH0 KECCAK256 SWAP1 PUSH1 0x7 MUL ADD PUSH0 DUP3 ADD DUP2 PUSH0 ADD SWAP1 DUP2 PUSH2 0x10C7 SWAP2 SWAP1 PUSH2 0x4045 JUMP JUMPDEST POP PUSH1 0x1 DUP3 ADD PUSH0 SWAP1 SLOAD SWAP1 PUSH2 0x100 EXP SWAP1 DIV PUSH20 0xFFFFFFFFFFFFFFFFFFFFFFFFFFFFFFFFFFFFFFFF AND DUP2 PUSH1 0x1 ADD PUSH0 PUSH2 0x100 EXP DUP2 SLOAD DUP2 PUSH20 0xFFFFFFFFFFFFFFFFFFFFFFFFFFFFFFFFFFFFFFFF MUL NOT AND SWAP1 DUP4 PUSH20 0xFFFFFFFFFFFFFFFFFFFFFFFFFFFFFFFFFFFFFFFF AND MUL OR SWAP1 SSTORE POP PUSH1 0x2 DUP3 ADD PUSH0 SWAP1 SLOAD SWAP1 PUSH2 0x100 EXP SWAP1 DIV PUSH20 0xFFFFFFFFFFFFFFFFFFFFFFFFFFFFFFFFFFFFFFFF AND DUP2 PUSH1 0x2 ADD PUSH0 PUSH2 0x100 EXP DUP2 SLOAD DUP2 PUSH20 0xFFFFFFFFFFFFFFFFFFFFFFFFFFFFFFFFFFFFFFFF MUL NOT AND SWAP1 DUP4 PUSH20 0xFFFFFFFFFFFFFFFFFFFFFFFFFFFFFFFFFFFFFFFF AND MUL OR SWAP1 SSTORE POP PUSH1 0x3 DUP3 ADD SLOAD DUP2 PUSH1 0x3 ADD SSTORE PUSH1 0x4 DUP3 ADD SLOAD DUP2 PUSH1 0x4 ADD SSTORE PUSH1 0x5 DUP3 ADD SLOAD DUP2 PUSH1 0x5 ADD SSTORE PUSH1 0x6 DUP3 ADD SLOAD DUP2 PUSH1 0x6 ADD SSTORE SWAP1 POP POP PUSH32 0x88AC4E01306872C0A5F289BAF13AF804EEDB981DB2018261CF8AFED94BD9E19B DUP6 CALLER PUSH1 0xA DUP5 DUP2 SLOAD DUP2 LT PUSH2 0x11F4 JUMPI PUSH2 0x11F3 PUSH2 0x3801 JUMP JUMPDEST JUMPDEST SWAP1 PUSH0 MSTORE PUSH1 0x20 PUSH0 KECCAK256 SWAP1 PUSH1 0x7 MUL ADD PUSH1 0x2 ADD PUSH0 SWAP1 SLOAD SWAP1 PUSH2 0x100 EXP SWAP1 DIV PUSH20 0xFFFFFFFFFFFFFFFFFFFFFFFFFFFFFFFFFFFFFFFF AND PUSH1 0xA DUP6 DUP2 SLOAD DUP2 LT PUSH2 0x1237 JUMPI PUSH2 0x1236 PUSH2 0x3801 JUMP JUMPDEST JUMPDEST SWAP1 PUSH0 MSTORE PUSH1 0x20 PUSH0 KECCAK256 SWAP1 PUSH1 0x7 MUL ADD PUSH1 0x3 ADD SLOAD PUSH1 0xA DUP7 DUP2 SLOAD DUP2 LT PUSH2 0x125B JUMPI PUSH2 0x125A PUSH2 0x3801 JUMP JUMPDEST JUMPDEST SWAP1 PUSH0 MSTORE PUSH1 0x20 PUSH0 KECCAK256 SWAP1 PUSH1 0x7 MUL ADD PUSH1 0x4 ADD SLOAD PUSH1 0xA DUP8 DUP2 SLOAD DUP2 LT PUSH2 0x127F JUMPI PUSH2 0x127E PUSH2 0x3801 JUMP JUMPDEST JUMPDEST SWAP1 PUSH0 MSTORE PUSH1 0x20 PUSH0 KECCAK256 SWAP1 PUSH1 0x7 MUL ADD PUSH1 0x5 ADD SLOAD PUSH1 0xA DUP9 DUP2 SLOAD DUP2 LT PUSH2 0x12A3 JUMPI PUSH2 0x12A2 PUSH2 0x3801 JUMP JUMPDEST JUMPDEST SWAP1 PUSH0 MSTORE PUSH1 0x20 PUSH0 KECCAK256 SWAP1 PUSH1 0x7 MUL ADD PUSH1 0x6 ADD SLOAD PUSH1 0x40 MLOAD PUSH2 0x12C6 SWAP8 SWAP7 SWAP6 SWAP5 SWAP4 SWAP3 SWAP2 SWAP1 PUSH2 0x3D8D JUMP JUMPDEST PUSH1 0x40 MLOAD DUP1 SWAP2 SUB SWAP1 LOG1 PUSH1 0xA DUP1 SLOAD DUP1 PUSH2 0x12E0 JUMPI PUSH2 0x12DF PUSH2 0x412A JUMP JUMPDEST JUMPDEST PUSH1 0x1 SWAP1 SUB DUP2 DUP2 SWAP1 PUSH0 MSTORE PUSH1 0x20 PUSH0 KECCAK256 SWAP1 PUSH1 0x7 MUL ADD PUSH0 DUP1 DUP3 ADD PUSH0 PUSH2 0x1301 SWAP2 SWAP1 PUSH2 0x2F61 JUMP JUMPDEST PUSH1 0x1 DUP3 ADD PUSH0 PUSH2 0x100 EXP DUP2 SLOAD SWAP1 PUSH20 0xFFFFFFFFFFFFFFFFFFFFFFFFFFFFFFFFFFFFFFFF MUL NOT AND SWAP1 SSTORE PUSH1 0x2 DUP3 ADD PUSH0 PUSH2 0x100 EXP DUP2 SLOAD SWAP1 PUSH20 0xFFFFFFFFFFFFFFFFFFFFFFFFFFFFFFFFFFFFFFFF MUL NOT AND SWAP1 SSTORE PUSH1 0x3 DUP3 ADD PUSH0 SWAP1 SSTORE PUSH1 0x4 DUP3 ADD PUSH0 SWAP1 SSTORE PUSH1 0x5 DUP3 ADD PUSH0 SWAP1 SSTORE PUSH1 0x6 DUP3 ADD PUSH0 SWAP1 SSTORE POP POP SWAP1 SSTORE POP POP POP POP POP JUMP JUMPDEST PUSH0 DUP1 JUMPDEST PUSH1 0x1 DUP1 SLOAD SWAP1 POP DUP2 LT ISZERO PUSH2 0x1408 JUMPI CALLER PUSH20 0xFFFFFFFFFFFFFFFFFFFFFFFFFFFFFFFFFFFFFFFF AND PUSH1 0x1 DUP3 DUP2 SLOAD DUP2 LT PUSH2 0x13AF JUMPI PUSH2 0x13AE PUSH2 0x3801 JUMP JUMPDEST JUMPDEST SWAP1 PUSH0 MSTORE PUSH1 0x20 PUSH0 KECCAK256 ADD PUSH0 SWAP1 SLOAD SWAP1 PUSH2 0x100 EXP SWAP1 DIV PUSH20 0xFFFFFFFFFFFFFFFFFFFFFFFFFFFFFFFFFFFFFFFF AND PUSH20 0xFFFFFFFFFFFFFFFFFFFFFFFFFFFFFFFFFFFFFFFF AND SUB PUSH2 0x13FB JUMPI PUSH1 0x1 SWAP2 POP PUSH2 0x1408 JUMP JUMPDEST DUP1 DUP1 PUSH1 0x1 ADD SWAP2 POP POP PUSH2 0x1377 JUMP JUMPDEST POP PUSH1 0x1 ISZERO ISZERO DUP2 ISZERO ISZERO EQ PUSH2 0x1450 JUMPI PUSH1 0x40 MLOAD PUSH32 0x8C379A000000000000000000000000000000000000000000000000000000000 DUP2 MSTORE PUSH1 0x4 ADD PUSH2 0x1447 SWAP1 PUSH2 0x38AE JUMP JUMPDEST PUSH1 0x40 MLOAD DUP1 SWAP2 SUB SWAP1 REVERT JUMPDEST PUSH0 PUSH1 0x7 PUSH0 CALLER PUSH20 0xFFFFFFFFFFFFFFFFFFFFFFFFFFFFFFFFFFFFFFFF AND PUSH20 0xFFFFFFFFFFFFFFFFFFFFFFFFFFFFFFFFFFFFFFFF AND DUP2 MSTORE PUSH1 0x20 ADD SWAP1 DUP2 MSTORE PUSH1 0x20 ADD PUSH0 KECCAK256 DUP5 PUSH1 0x40 MLOAD PUSH2 0x149C SWAP2 SWAP1 PUSH2 0x3906 JUMP JUMPDEST SWAP1 DUP2 MSTORE PUSH1 0x20 ADD PUSH1 0x40 MLOAD DUP1 SWAP2 SUB SWAP1 KECCAK256 SLOAD LT ISZERO PUSH2 0x14EC JUMPI PUSH1 0x40 MLOAD PUSH32 0x8C379A000000000000000000000000000000000000000000000000000000000 DUP2 MSTORE PUSH1 0x4 ADD PUSH2 0x14E3 SWAP1 PUSH2 0x41A1 JUMP JUMPDEST PUSH1 0x40 MLOAD DUP1 SWAP2 SUB SWAP1 REVERT JUMPDEST PUSH1 0x40 MLOAD DUP1 PUSH1 0x40 ADD PUSH1 0x40 MSTORE DUP1 PUSH1 0x3 DUP2 MSTORE PUSH1 0x20 ADD PUSH32 0x4554480000000000000000000000000000000000000000000000000000000000 DUP2 MSTORE POP DUP1 MLOAD SWAP1 PUSH1 0x20 ADD KECCAK256 DUP4 DUP1 MLOAD SWAP1 PUSH1 0x20 ADD KECCAK256 SUB PUSH2 0x15A8 JUMPI CALLVALUE PUSH1 0x7 PUSH0 CALLER PUSH20 0xFFFFFFFFFFFFFFFFFFFFFFFFFFFFFFFFFFFFFFFF AND PUSH20 0xFFFFFFFFFFFFFFFFFFFFFFFFFFFFFFFFFFFFFFFF AND DUP2 MSTORE PUSH1 0x20 ADD SWAP1 DUP2 MSTORE PUSH1 0x20 ADD PUSH0 KECCAK256 PUSH1 0x40 MLOAD PUSH2 0x1580 SWAP1 PUSH2 0x4209 JUMP JUMPDEST SWAP1 DUP2 MSTORE PUSH1 0x20 ADD PUSH1 0x40 MLOAD DUP1 SWAP2 SUB SWAP1 KECCAK256 PUSH0 DUP3 DUP3 SLOAD PUSH2 0x159C SWAP2 SWAP1 PUSH2 0x3E69 JUMP JUMPDEST SWAP3 POP POP DUP2 SWAP1 SSTORE POP PUSH2 0x1784 JUMP JUMPDEST PUSH0 PUSH20 0xFFFFFFFFFFFFFFFFFFFFFFFFFFFFFFFFFFFFFFFF AND PUSH1 0x9 DUP5 PUSH1 0x40 MLOAD PUSH2 0x15CF SWAP2 SWAP1 PUSH2 0x3906 JUMP JUMPDEST SWAP1 DUP2 MSTORE PUSH1 0x20 ADD PUSH1 0x40 MLOAD DUP1 SWAP2 SUB SWAP1 KECCAK256 PUSH1 0x1 ADD PUSH0 SWAP1 SLOAD SWAP1 PUSH2 0x100 EXP SWAP1 DIV PUSH20 0xFFFFFFFFFFFFFFFFFFFFFFFFFFFFFFFFFFFFFFFF AND PUSH20 0xFFFFFFFFFFFFFFFFFFFFFFFFFFFFFFFFFFFFFFFF AND SUB PUSH2 0x1656 JUMPI PUSH1 0x40 MLOAD PUSH32 0x8C379A000000000000000000000000000000000000000000000000000000000 DUP2 MSTORE PUSH1 0x4 ADD PUSH2 0x164D SWAP1 PUSH2 0x3A2E JUMP JUMPDEST PUSH1 0x40 MLOAD DUP1 SWAP2 SUB SWAP1 REVERT JUMPDEST DUP2 PUSH1 0x7 PUSH0 CALLER PUSH20 0xFFFFFFFFFFFFFFFFFFFFFFFFFFFFFFFFFFFFFFFF AND PUSH20 0xFFFFFFFFFFFFFFFFFFFFFFFFFFFFFFFFFFFFFFFF AND DUP2 MSTORE PUSH1 0x20 ADD SWAP1 DUP2 MSTORE PUSH1 0x20 ADD PUSH0 KECCAK256 DUP5 PUSH1 0x40 MLOAD PUSH2 0x16A2 SWAP2 SWAP1 PUSH2 0x3906 JUMP JUMPDEST SWAP1 DUP2 MSTORE PUSH1 0x20 ADD PUSH1 0x40 MLOAD DUP1 SWAP2 SUB SWAP1 KECCAK256 PUSH0 DUP3 DUP3 SLOAD PUSH2 0x16BE SWAP2 SWAP1 PUSH2 0x3E69 JUMP JUMPDEST SWAP3 POP POP DUP2 SWAP1 SSTORE POP PUSH1 0x9 DUP4 PUSH1 0x40 MLOAD PUSH2 0x16D5 SWAP2 SWAP1 PUSH2 0x3906 JUMP JUMPDEST SWAP1 DUP2 MSTORE PUSH1 0x20 ADD PUSH1 0x40 MLOAD DUP1 SWAP2 SUB SWAP1 KECCAK256 PUSH1 0x1 ADD PUSH0 SWAP1 SLOAD SWAP1 PUSH2 0x100 EXP SWAP1 DIV PUSH20 0xFFFFFFFFFFFFFFFFFFFFFFFFFFFFFFFFFFFFFFFF AND PUSH20 0xFFFFFFFFFFFFFFFFFFFFFFFFFFFFFFFFFFFFFFFF AND PUSH4 0x23B872DD CALLER ADDRESS DUP6 PUSH1 0x40 MLOAD DUP5 PUSH4 0xFFFFFFFF AND PUSH1 0xE0 SHL DUP2 MSTORE PUSH1 0x4 ADD PUSH2 0x1742 SWAP4 SWAP3 SWAP2 SWAP1 PUSH2 0x421D JUMP JUMPDEST PUSH1 0x20 PUSH1 0x40 MLOAD DUP1 DUP4 SUB DUP2 PUSH0 DUP8 GAS CALL ISZERO DUP1 ISZERO PUSH2 0x175E JUMPI RETURNDATASIZE PUSH0 DUP1 RETURNDATACOPY RETURNDATASIZE PUSH0 REVERT JUMPDEST POP POP POP POP PUSH1 0x40 MLOAD RETURNDATASIZE PUSH1 0x1F NOT PUSH1 0x1F DUP3 ADD AND DUP3 ADD DUP1 PUSH1 0x40 MSTORE POP DUP2 ADD SWAP1 PUSH2 0x1782 SWAP2 SWAP1 PUSH2 0x3AAC JUMP JUMPDEST POP JUMPDEST PUSH32 0x41751252894A74BD975DE630158C4E47BB25C36D9CE7AD90383D86D391D2BE12 DUP4 CALLER CALLVALUE PUSH1 0x3 SLOAD TIMESTAMP PUSH1 0x40 MLOAD PUSH2 0x17BD SWAP6 SWAP5 SWAP4 SWAP3 SWAP2 SWAP1 PUSH2 0x3B0F JUMP JUMPDEST PUSH1 0x40 MLOAD DUP1 SWAP2 SUB SWAP1 LOG1 PUSH1 0x3 PUSH0 DUP2 SLOAD DUP1 SWAP3 SWAP2 SWAP1 PUSH2 0x17D7 SWAP1 PUSH2 0x3B67 JUMP JUMPDEST SWAP2 SWAP1 POP SSTORE POP POP POP POP JUMP JUMPDEST PUSH0 DUP1 JUMPDEST PUSH1 0x1 DUP1 SLOAD SWAP1 POP DUP2 LT ISZERO PUSH2 0x1875 JUMPI CALLER PUSH20 0xFFFFFFFFFFFFFFFFFFFFFFFFFFFFFFFFFFFFFFFF AND PUSH1 0x1 DUP3 DUP2 SLOAD DUP2 LT PUSH2 0x181C JUMPI PUSH2 0x181B PUSH2 0x3801 JUMP JUMPDEST JUMPDEST SWAP1 PUSH0 MSTORE PUSH1 0x20 PUSH0 KECCAK256 ADD PUSH0 SWAP1 SLOAD SWAP1 PUSH2 0x100 EXP SWAP1 DIV PUSH20 0xFFFFFFFFFFFFFFFFFFFFFFFFFFFFFFFFFFFFFFFF AND PUSH20 0xFFFFFFFFFFFFFFFFFFFFFFFFFFFFFFFFFFFFFFFF AND SUB PUSH2 0x1868 JUMPI PUSH1 0x1 SWAP2 POP PUSH2 0x1875 JUMP JUMPDEST DUP1 DUP1 PUSH1 0x1 ADD SWAP2 POP POP PUSH2 0x17E4 JUMP JUMPDEST POP PUSH1 0x1 ISZERO ISZERO DUP2 ISZERO ISZERO EQ PUSH2 0x18BD JUMPI PUSH1 0x40 MLOAD PUSH32 0x8C379A000000000000000000000000000000000000000000000000000000000 DUP2 MSTORE PUSH1 0x4 ADD PUSH2 0x18B4 SWAP1 PUSH2 0x38AE JUMP JUMPDEST PUSH1 0x40 MLOAD DUP1 SWAP2 SUB SWAP1 REVERT JUMPDEST PUSH0 JUMPDEST PUSH1 0x1 DUP1 SLOAD SWAP1 POP DUP2 LT ISZERO PUSH2 0x1982 JUMPI DUP3 PUSH20 0xFFFFFFFFFFFFFFFFFFFFFFFFFFFFFFFFFFFFFFFF AND PUSH1 0x1 DUP3 DUP2 SLOAD DUP2 LT PUSH2 0x18F7 JUMPI PUSH2 0x18F6 PUSH2 0x3801 JUMP JUMPDEST JUMPDEST SWAP1 PUSH0 MSTORE PUSH1 0x20 PUSH0 KECCAK256 ADD PUSH0 SWAP1 SLOAD SWAP1 PUSH2 0x100 EXP SWAP1 DIV PUSH20 0xFFFFFFFFFFFFFFFFFFFFFFFFFFFFFFFFFFFFFFFF AND PUSH20 0xFFFFFFFFFFFFFFFFFFFFFFFFFFFFFFFFFFFFFFFF AND SUB PUSH2 0x1975 JUMPI PUSH1 0x40 MLOAD PUSH32 0x8C379A000000000000000000000000000000000000000000000000000000000 DUP2 MSTORE PUSH1 0x4 ADD PUSH2 0x196C SWAP1 PUSH2 0x429C JUMP JUMPDEST PUSH1 0x40 MLOAD DUP1 SWAP2 SUB SWAP1 REVERT JUMPDEST DUP1 DUP1 PUSH1 0x1 ADD SWAP2 POP POP PUSH2 0x18BF JUMP JUMPDEST POP PUSH1 0x1 DUP3 SWAP1 DUP1 PUSH1 0x1 DUP2 SLOAD ADD DUP1 DUP3 SSTORE DUP1 SWAP2 POP POP PUSH1 0x1 SWAP1 SUB SWAP1 PUSH0 MSTORE PUSH1 0x20 PUSH0 KECCAK256 ADD PUSH0 SWAP1 SWAP2 SWAP1 SWAP2 SWAP1 SWAP2 PUSH2 0x100 EXP DUP2 SLOAD DUP2 PUSH20 0xFFFFFFFFFFFFFFFFFFFFFFFFFFFFFFFFFFFFFFFF MUL NOT AND SWAP1 DUP4 PUSH20 0xFFFFFFFFFFFFFFFFFFFFFFFFFFFFFFFFFFFFFFFF AND MUL OR SWAP1 SSTORE POP PUSH1 0x1 DUP1 DUP1 SLOAD SWAP1 POP PUSH2 0x19F4 SWAP2 SWAP1 PUSH2 0x39B1 JUMP JUMPDEST PUSH1 0x2 DUP2 SWAP1 SSTORE POP PUSH32 0x43ABCFF3409244EC1056224394AF5F818E9A74866F0A11BFEE2AD52F68AD6FB9 CALLER DUP4 TIMESTAMP PUSH1 0x40 MLOAD PUSH2 0x1A2D SWAP4 SWAP3 SWAP2 SWAP1 PUSH2 0x421D JUMP JUMPDEST PUSH1 0x40 MLOAD DUP1 SWAP2 SUB SWAP1 LOG1 POP POP JUMP JUMPDEST PUSH1 0x60 PUSH0 DUP1 JUMPDEST PUSH1 0x1 DUP1 SLOAD SWAP1 POP DUP2 LT ISZERO PUSH2 0x1ACF JUMPI CALLER PUSH20 0xFFFFFFFFFFFFFFFFFFFFFFFFFFFFFFFFFFFFFFFF AND PUSH1 0x1 DUP3 DUP2 SLOAD DUP2 LT PUSH2 0x1A76 JUMPI PUSH2 0x1A75 PUSH2 0x3801 JUMP JUMPDEST JUMPDEST SWAP1 PUSH0 MSTORE PUSH1 0x20 PUSH0 KECCAK256 ADD PUSH0 SWAP1 SLOAD SWAP1 PUSH2 0x100 EXP SWAP1 DIV PUSH20 0xFFFFFFFFFFFFFFFFFFFFFFFFFFFFFFFFFFFFFFFF AND PUSH20 0xFFFFFFFFFFFFFFFFFFFFFFFFFFFFFFFFFFFFFFFF AND SUB PUSH2 0x1AC2 JUMPI PUSH1 0x1 SWAP2 POP PUSH2 0x1ACF JUMP JUMPDEST DUP1 DUP1 PUSH1 0x1 ADD SWAP2 POP POP PUSH2 0x1A3E JUMP JUMPDEST POP PUSH1 0x1 ISZERO ISZERO DUP2 ISZERO ISZERO EQ PUSH2 0x1B17 JUMPI PUSH1 0x40 MLOAD PUSH32 0x8C379A000000000000000000000000000000000000000000000000000000000 DUP2 MSTORE PUSH1 0x4 ADD PUSH2 0x1B0E SWAP1 PUSH2 0x38AE JUMP JUMPDEST PUSH1 0x40 MLOAD DUP1 SWAP2 SUB SWAP1 REVERT JUMPDEST PUSH1 0xA DUP1 SLOAD DUP1 PUSH1 0x20 MUL PUSH1 0x20 ADD PUSH1 0x40 MLOAD SWAP1 DUP2 ADD PUSH1 0x40 MSTORE DUP1 SWAP3 SWAP2 SWAP1 DUP2 DUP2 MSTORE PUSH1 0x20 ADD PUSH0 SWAP1 JUMPDEST DUP3 DUP3 LT ISZERO PUSH2 0x1CC9 JUMPI DUP4 DUP3 SWAP1 PUSH0 MSTORE PUSH1 0x20 PUSH0 KECCAK256 SWAP1 PUSH1 0x7 MUL ADD PUSH1 0x40 MLOAD DUP1 PUSH1 0xE0 ADD PUSH1 0x40 MSTORE SWAP1 DUP2 PUSH0 DUP3 ADD DUP1 SLOAD PUSH2 0x1B68 SWAP1 PUSH2 0x37D1 JUMP JUMPDEST DUP1 PUSH1 0x1F ADD PUSH1 0x20 DUP1 SWAP2 DIV MUL PUSH1 0x20 ADD PUSH1 0x40 MLOAD SWAP1 DUP2 ADD PUSH1 0x40 MSTORE DUP1 SWAP3 SWAP2 SWAP1 DUP2 DUP2 MSTORE PUSH1 0x20 ADD DUP3 DUP1 SLOAD PUSH2 0x1B94 SWAP1 PUSH2 0x37D1 JUMP JUMPDEST DUP1 ISZERO PUSH2 0x1BDF JUMPI DUP1 PUSH1 0x1F LT PUSH2 0x1BB6 JUMPI PUSH2 0x100 DUP1 DUP4 SLOAD DIV MUL DUP4 MSTORE SWAP2 PUSH1 0x20 ADD SWAP2 PUSH2 0x1BDF JUMP JUMPDEST DUP3 ADD SWAP2 SWAP1 PUSH0 MSTORE PUSH1 0x20 PUSH0 KECCAK256 SWAP1 JUMPDEST DUP2 SLOAD DUP2 MSTORE SWAP1 PUSH1 0x1 ADD SWAP1 PUSH1 0x20 ADD DUP1 DUP4 GT PUSH2 0x1BC2 JUMPI DUP3 SWAP1 SUB PUSH1 0x1F AND DUP3 ADD SWAP2 JUMPDEST POP POP POP POP POP DUP2 MSTORE PUSH1 0x20 ADD PUSH1 0x1 DUP3 ADD PUSH0 SWAP1 SLOAD SWAP1 PUSH2 0x100 EXP SWAP1 DIV PUSH20 0xFFFFFFFFFFFFFFFFFFFFFFFFFFFFFFFFFFFFFFFF AND PUSH20 0xFFFFFFFFFFFFFFFFFFFFFFFFFFFFFFFFFFFFFFFF AND PUSH20 0xFFFFFFFFFFFFFFFFFFFFFFFFFFFFFFFFFFFFFFFF AND DUP2 MSTORE PUSH1 0x20 ADD PUSH1 0x2 DUP3 ADD PUSH0 SWAP1 SLOAD SWAP1 PUSH2 0x100 EXP SWAP1 DIV PUSH20 0xFFFFFFFFFFFFFFFFFFFFFFFFFFFFFFFFFFFFFFFF AND PUSH20 0xFFFFFFFFFFFFFFFFFFFFFFFFFFFFFFFFFFFFFFFF AND PUSH20 0xFFFFFFFFFFFFFFFFFFFFFFFFFFFFFFFFFFFFFFFF AND DUP2 MSTORE PUSH1 0x20 ADD PUSH1 0x3 DUP3 ADD SLOAD DUP2 MSTORE PUSH1 0x20 ADD PUSH1 0x4 DUP3 ADD SLOAD DUP2 MSTORE PUSH1 0x20 ADD PUSH1 0x5 DUP3 ADD SLOAD DUP2 MSTORE PUSH1 0x20 ADD PUSH1 0x6 DUP3 ADD SLOAD DUP2 MSTORE POP POP DUP2 MSTORE PUSH1 0x20 ADD SWAP1 PUSH1 0x1 ADD SWAP1 PUSH2 0x1B38 JUMP JUMPDEST POP POP POP POP SWAP2 POP POP SWAP1 JUMP JUMPDEST PUSH0 PUSH1 0x8 PUSH0 CALLER PUSH20 0xFFFFFFFFFFFFFFFFFFFFFFFFFFFFFFFFFFFFFFFF AND PUSH20 0xFFFFFFFFFFFFFFFFFFFFFFFFFFFFFFFFFFFFFFFF AND DUP2 MSTORE PUSH1 0x20 ADD SWAP1 DUP2 MSTORE PUSH1 0x20 ADD PUSH0 KECCAK256 PUSH0 DUP4 DUP2 MSTORE PUSH1 0x20 ADD SWAP1 DUP2 MSTORE PUSH1 0x20 ADD PUSH0 KECCAK256 PUSH0 SWAP1 SLOAD SWAP1 PUSH2 0x100 EXP SWAP1 DIV PUSH1 0xFF AND SWAP1 POP SWAP2 SWAP1 POP JUMP JUMPDEST PUSH0 DUP1 JUMPDEST PUSH1 0x1 DUP1 SLOAD SWAP1 POP DUP2 LT ISZERO PUSH2 0x1DC8 JUMPI CALLER PUSH20 0xFFFFFFFFFFFFFFFFFFFFFFFFFFFFFFFFFFFFFFFF AND PUSH1 0x1 DUP3 DUP2 SLOAD DUP2 LT PUSH2 0x1D6F JUMPI PUSH2 0x1D6E PUSH2 0x3801 JUMP JUMPDEST JUMPDEST SWAP1 PUSH0 MSTORE PUSH1 0x20 PUSH0 KECCAK256 ADD PUSH0 SWAP1 SLOAD SWAP1 PUSH2 0x100 EXP SWAP1 DIV PUSH20 0xFFFFFFFFFFFFFFFFFFFFFFFFFFFFFFFFFFFFFFFF AND PUSH20 0xFFFFFFFFFFFFFFFFFFFFFFFFFFFFFFFFFFFFFFFF AND SUB PUSH2 0x1DBB JUMPI PUSH1 0x1 SWAP2 POP PUSH2 0x1DC8 JUMP JUMPDEST DUP1 DUP1 PUSH1 0x1 ADD SWAP2 POP POP PUSH2 0x1D37 JUMP JUMPDEST POP PUSH1 0x1 ISZERO ISZERO DUP2 ISZERO ISZERO EQ PUSH2 0x1E10 JUMPI PUSH1 0x40 MLOAD PUSH32 0x8C379A000000000000000000000000000000000000000000000000000000000 DUP2 MSTORE PUSH1 0x4 ADD PUSH2 0x1E07 SWAP1 PUSH2 0x38AE JUMP JUMPDEST PUSH1 0x40 MLOAD DUP1 SWAP2 SUB SWAP1 REVERT JUMPDEST PUSH0 DUP1 DUP1 PUSH0 SWAP1 POP JUMPDEST PUSH1 0x1 DUP1 SLOAD SWAP1 POP DUP2 LT ISZERO PUSH2 0x1EAB JUMPI DUP5 PUSH20 0xFFFFFFFFFFFFFFFFFFFFFFFFFFFFFFFFFFFFFFFF AND PUSH1 0x1 DUP3 DUP2 SLOAD DUP2 LT PUSH2 0x1E4F JUMPI PUSH2 0x1E4E PUSH2 0x3801 JUMP JUMPDEST JUMPDEST SWAP1 PUSH0 MSTORE PUSH1 0x20 PUSH0 KECCAK256 ADD PUSH0 SWAP1 SLOAD SWAP1 PUSH2 0x100 EXP SWAP1 DIV PUSH20 0xFFFFFFFFFFFFFFFFFFFFFFFFFFFFFFFFFFFFFFFF AND PUSH20 0xFFFFFFFFFFFFFFFFFFFFFFFFFFFFFFFFFFFFFFFF AND SUB PUSH2 0x1E9E JUMPI PUSH1 0x1 SWAP3 POP DUP1 SWAP2 POP PUSH2 0x1EAB JUMP JUMPDEST DUP1 DUP1 PUSH1 0x1 ADD SWAP2 POP POP PUSH2 0x1E17 JUMP JUMPDEST POP PUSH1 0x1 ISZERO ISZERO DUP3 ISZERO ISZERO EQ PUSH2 0x1EF3 JUMPI PUSH1 0x40 MLOAD PUSH32 0x8C379A000000000000000000000000000000000000000000000000000000000 DUP2 MSTORE PUSH1 0x4 ADD PUSH2 0x1EEA SWAP1 PUSH2 0x4304 JUMP JUMPDEST PUSH1 0x40 MLOAD DUP1 SWAP2 SUB SWAP1 REVERT JUMPDEST PUSH1 0x1 DUP1 DUP1 DUP1 SLOAD SWAP1 POP PUSH2 0x1F05 SWAP2 SWAP1 PUSH2 0x39B1 JUMP JUMPDEST DUP2 SLOAD DUP2 LT PUSH2 0x1F16 JUMPI PUSH2 0x1F15 PUSH2 0x3801 JUMP JUMPDEST JUMPDEST SWAP1 PUSH0 MSTORE PUSH1 0x20 PUSH0 KECCAK256 ADD PUSH0 SWAP1 SLOAD SWAP1 PUSH2 0x100 EXP SWAP1 DIV PUSH20 0xFFFFFFFFFFFFFFFFFFFFFFFFFFFFFFFFFFFFFFFF AND PUSH1 0x1 DUP3 DUP2 SLOAD DUP2 LT PUSH2 0x1F52 JUMPI PUSH2 0x1F51 PUSH2 0x3801 JUMP JUMPDEST JUMPDEST SWAP1 PUSH0 MSTORE PUSH1 0x20 PUSH0 KECCAK256 ADD PUSH0 PUSH2 0x100 EXP DUP2 SLOAD DUP2 PUSH20 0xFFFFFFFFFFFFFFFFFFFFFFFFFFFFFFFFFFFFFFFF MUL NOT AND SWAP1 DUP4 PUSH20 0xFFFFFFFFFFFFFFFFFFFFFFFFFFFFFFFFFFFFFFFF AND MUL OR SWAP1 SSTORE POP PUSH1 0x1 DUP1 SLOAD DUP1 PUSH2 0x1FA9 JUMPI PUSH2 0x1FA8 PUSH2 0x412A JUMP JUMPDEST JUMPDEST PUSH1 0x1 SWAP1 SUB DUP2 DUP2 SWAP1 PUSH0 MSTORE PUSH1 0x20 PUSH0 KECCAK256 ADD PUSH0 PUSH2 0x100 EXP DUP2 SLOAD SWAP1 PUSH20 0xFFFFFFFFFFFFFFFFFFFFFFFFFFFFFFFFFFFFFFFF MUL NOT AND SWAP1 SSTORE SWAP1 SSTORE PUSH1 0x1 DUP1 DUP1 SLOAD SWAP1 POP PUSH2 0x1FEC SWAP2 SWAP1 PUSH2 0x39B1 JUMP JUMPDEST PUSH1 0x2 DUP2 SWAP1 SSTORE POP PUSH32 0xD1F329271E4A98B0181A7D91618A0A5DE6F42A1AAF4C1362493D829EAF405A8A CALLER DUP6 TIMESTAMP PUSH1 0x40 MLOAD PUSH2 0x2025 SWAP4 SWAP3 SWAP2 SWAP1 PUSH2 0x421D JUMP JUMPDEST PUSH1 0x40 MLOAD DUP1 SWAP2 SUB SWAP1 LOG1 POP POP POP POP JUMP JUMPDEST PUSH0 DUP1 JUMPDEST PUSH1 0x1 DUP1 SLOAD SWAP1 POP DUP2 LT ISZERO PUSH2 0x20C7 JUMPI CALLER PUSH20 0xFFFFFFFFFFFFFFFFFFFFFFFFFFFFFFFFFFFFFFFF AND PUSH1 0x1 DUP3 DUP2 SLOAD DUP2 LT PUSH2 0x206E JUMPI PUSH2 0x206D PUSH2 0x3801 JUMP JUMPDEST JUMPDEST SWAP1 PUSH0 MSTORE PUSH1 0x20 PUSH0 KECCAK256 ADD PUSH0 SWAP1 SLOAD SWAP1 PUSH2 0x100 EXP SWAP1 DIV PUSH20 0xFFFFFFFFFFFFFFFFFFFFFFFFFFFFFFFFFFFFFFFF AND PUSH20 0xFFFFFFFFFFFFFFFFFFFFFFFFFFFFFFFFFFFFFFFF AND SUB PUSH2 0x20BA JUMPI PUSH1 0x1 SWAP2 POP PUSH2 0x20C7 JUMP JUMPDEST DUP1 DUP1 PUSH1 0x1 ADD SWAP2 POP POP PUSH2 0x2036 JUMP JUMPDEST POP PUSH1 0x1 ISZERO ISZERO DUP2 ISZERO ISZERO EQ PUSH2 0x210F JUMPI PUSH1 0x40 MLOAD PUSH32 0x8C379A000000000000000000000000000000000000000000000000000000000 DUP2 MSTORE PUSH1 0x4 ADD PUSH2 0x2106 SWAP1 PUSH2 0x38AE JUMP JUMPDEST PUSH1 0x40 MLOAD DUP1 SWAP2 SUB SWAP1 REVERT JUMPDEST PUSH0 JUMPDEST PUSH1 0x6 DUP1 SLOAD SWAP1 POP DUP2 LT ISZERO PUSH2 0x21A4 JUMPI DUP4 DUP1 MLOAD SWAP1 PUSH1 0x20 ADD KECCAK256 PUSH1 0x6 DUP3 DUP2 SLOAD DUP2 LT PUSH2 0x213A JUMPI PUSH2 0x2139 PUSH2 0x3801 JUMP JUMPDEST JUMPDEST SWAP1 PUSH0 MSTORE PUSH1 0x20 PUSH0 KECCAK256 ADD PUSH1 0x40 MLOAD PUSH2 0x214F SWAP2 SWAP1 PUSH2 0x43BE JUMP JUMPDEST PUSH1 0x40 MLOAD DUP1 SWAP2 SUB SWAP1 KECCAK256 SUB PUSH2 0x2197 JUMPI PUSH1 0x40 MLOAD PUSH32 0x8C379A000000000000000000000000000000000000000000000000000000000 DUP2 MSTORE PUSH1 0x4 ADD PUSH2 0x218E SWAP1 PUSH2 0x441E JUMP JUMPDEST PUSH1 0x40 MLOAD DUP1 SWAP2 SUB SWAP1 REVERT JUMPDEST DUP1 DUP1 PUSH1 0x1 ADD SWAP2 POP POP PUSH2 0x2111 JUMP JUMPDEST POP DUP3 DUP1 MLOAD SWAP1 PUSH1 0x20 ADD KECCAK256 DUP3 PUSH20 0xFFFFFFFFFFFFFFFFFFFFFFFFFFFFFFFFFFFFFFFF AND PUSH4 0x95D89B41 PUSH1 0x40 MLOAD DUP2 PUSH4 0xFFFFFFFF AND PUSH1 0xE0 SHL DUP2 MSTORE PUSH1 0x4 ADD PUSH0 PUSH1 0x40 MLOAD DUP1 DUP4 SUB DUP2 DUP7 GAS STATICCALL ISZERO DUP1 ISZERO PUSH2 0x21F5 JUMPI RETURNDATASIZE PUSH0 DUP1 RETURNDATACOPY RETURNDATASIZE PUSH0 REVERT JUMPDEST POP POP POP POP PUSH1 0x40 MLOAD RETURNDATASIZE PUSH0 DUP3 RETURNDATACOPY RETURNDATASIZE PUSH1 0x1F NOT PUSH1 0x1F DUP3 ADD AND DUP3 ADD DUP1 PUSH1 0x40 MSTORE POP DUP2 ADD SWAP1 PUSH2 0x221D SWAP2 SWAP1 PUSH2 0x44AA JUMP JUMPDEST DUP1 MLOAD SWAP1 PUSH1 0x20 ADD KECCAK256 EQ PUSH2 0x2264 JUMPI PUSH1 0x40 MLOAD PUSH32 0x8C379A000000000000000000000000000000000000000000000000000000000 DUP2 MSTORE PUSH1 0x4 ADD PUSH2 0x225B SWAP1 PUSH2 0x453B JUMP JUMPDEST PUSH1 0x40 MLOAD DUP1 SWAP2 SUB SWAP1 REVERT JUMPDEST PUSH1 0x40 MLOAD DUP1 PUSH1 0x40 ADD PUSH1 0x40 MSTORE DUP1 DUP5 DUP2 MSTORE PUSH1 0x20 ADD DUP4 PUSH20 0xFFFFFFFFFFFFFFFFFFFFFFFFFFFFFFFFFFFFFFFF AND DUP2 MSTORE POP PUSH1 0x9 DUP5 PUSH1 0x40 MLOAD PUSH2 0x229F SWAP2 SWAP1 PUSH2 0x3906 JUMP JUMPDEST SWAP1 DUP2 MSTORE PUSH1 0x20 ADD PUSH1 0x40 MLOAD DUP1 SWAP2 SUB SWAP1 KECCAK256 PUSH0 DUP3 ADD MLOAD DUP2 PUSH0 ADD SWAP1 DUP2 PUSH2 0x22C0 SWAP2 SWAP1 PUSH2 0x4559 JUMP JUMPDEST POP PUSH1 0x20 DUP3 ADD MLOAD DUP2 PUSH1 0x1 ADD PUSH0 PUSH2 0x100 EXP DUP2 SLOAD DUP2 PUSH20 0xFFFFFFFFFFFFFFFFFFFFFFFFFFFFFFFFFFFFFFFF MUL NOT AND SWAP1 DUP4 PUSH20 0xFFFFFFFFFFFFFFFFFFFFFFFFFFFFFFFFFFFFFFFF AND MUL OR SWAP1 SSTORE POP SWAP1 POP POP PUSH1 0x6 DUP4 SWAP1 DUP1 PUSH1 0x1 DUP2 SLOAD ADD DUP1 DUP3 SSTORE DUP1 SWAP2 POP POP PUSH1 0x1 SWAP1 SUB SWAP1 PUSH0 MSTORE PUSH1 0x20 PUSH0 KECCAK256 ADD PUSH0 SWAP1 SWAP2 SWAP1 SWAP2 SWAP1 SWAP2 POP SWAP1 DUP2 PUSH2 0x233B SWAP2 SWAP1 PUSH2 0x4559 JUMP JUMPDEST POP PUSH32 0xE6887A88BB2477605D9B68E33F64A263587018A6A232F3B234BA1B78C96B84F2 CALLER DUP5 DUP5 TIMESTAMP PUSH1 0x40 MLOAD PUSH2 0x2371 SWAP5 SWAP4 SWAP3 SWAP2 SWAP1 PUSH2 0x4628 JUMP JUMPDEST PUSH1 0x40 MLOAD DUP1 SWAP2 SUB SWAP1 LOG1 POP POP POP JUMP JUMPDEST PUSH0 DUP1 JUMPDEST PUSH1 0x1 DUP1 SLOAD SWAP1 POP DUP2 LT ISZERO PUSH2 0x2412 JUMPI CALLER PUSH20 0xFFFFFFFFFFFFFFFFFFFFFFFFFFFFFFFFFFFFFFFF AND PUSH1 0x1 DUP3 DUP2 SLOAD DUP2 LT PUSH2 0x23B9 JUMPI PUSH2 0x23B8 PUSH2 0x3801 JUMP JUMPDEST JUMPDEST SWAP1 PUSH0 MSTORE PUSH1 0x20 PUSH0 KECCAK256 ADD PUSH0 SWAP1 SLOAD SWAP1 PUSH2 0x100 EXP SWAP1 DIV PUSH20 0xFFFFFFFFFFFFFFFFFFFFFFFFFFFFFFFFFFFFFFFF AND PUSH20 0xFFFFFFFFFFFFFFFFFFFFFFFFFFFFFFFFFFFFFFFF AND SUB PUSH2 0x2405 JUMPI PUSH1 0x1 SWAP2 POP PUSH2 0x2412 JUMP JUMPDEST DUP1 DUP1 PUSH1 0x1 ADD SWAP2 POP POP PUSH2 0x2381 JUMP JUMPDEST POP PUSH1 0x1 ISZERO ISZERO DUP2 ISZERO ISZERO EQ PUSH2 0x245A JUMPI PUSH1 0x40 MLOAD PUSH32 0x8C379A000000000000000000000000000000000000000000000000000000000 DUP2 MSTORE PUSH1 0x4 ADD PUSH2 0x2451 SWAP1 PUSH2 0x38AE JUMP JUMPDEST PUSH1 0x40 MLOAD DUP1 SWAP2 SUB SWAP1 REVERT JUMPDEST DUP4 PUSH1 0x40 MLOAD DUP1 PUSH1 0x40 ADD PUSH1 0x40 MSTORE DUP1 PUSH1 0x3 DUP2 MSTORE PUSH1 0x20 ADD PUSH32 0x4554480000000000000000000000000000000000000000000000000000000000 DUP2 MSTORE POP DUP1 MLOAD SWAP1 PUSH1 0x20 ADD KECCAK256 DUP2 DUP1 MLOAD SWAP1 PUSH1 0x20 ADD KECCAK256 EQ PUSH2 0x2554 JUMPI PUSH0 PUSH20 0xFFFFFFFFFFFFFFFFFFFFFFFFFFFFFFFFFFFFFFFF AND PUSH1 0x9 DUP3 PUSH1 0x40 MLOAD PUSH2 0x24CC SWAP2 SWAP1 PUSH2 0x3906 JUMP JUMPDEST SWAP1 DUP2 MSTORE PUSH1 0x20 ADD PUSH1 0x40 MLOAD DUP1 SWAP2 SUB SWAP1 KECCAK256 PUSH1 0x1 ADD PUSH0 SWAP1 SLOAD SWAP1 PUSH2 0x100 EXP SWAP1 DIV PUSH20 0xFFFFFFFFFFFFFFFFFFFFFFFFFFFFFFFFFFFFFFFF AND PUSH20 0xFFFFFFFFFFFFFFFFFFFFFFFFFFFFFFFFFFFFFFFF AND SUB PUSH2 0x2553 JUMPI PUSH1 0x40 MLOAD PUSH32 0x8C379A000000000000000000000000000000000000000000000000000000000 DUP2 MSTORE PUSH1 0x4 ADD PUSH2 0x254A SWAP1 PUSH2 0x3A2E JUMP JUMPDEST PUSH1 0x40 MLOAD DUP1 SWAP2 SUB SWAP1 REVERT JUMPDEST JUMPDEST DUP3 PUSH1 0x7 PUSH0 CALLER PUSH20 0xFFFFFFFFFFFFFFFFFFFFFFFFFFFFFFFFFFFFFFFF AND PUSH20 0xFFFFFFFFFFFFFFFFFFFFFFFFFFFFFFFFFFFFFFFF AND DUP2 MSTORE PUSH1 0x20 ADD SWAP1 DUP2 MSTORE PUSH1 0x20 ADD PUSH0 KECCAK256 DUP7 PUSH1 0x40 MLOAD PUSH2 0x25A0 SWAP2 SWAP1 PUSH2 0x3906 JUMP JUMPDEST SWAP1 DUP2 MSTORE PUSH1 0x20 ADD PUSH1 0x40 MLOAD DUP1 SWAP2 SUB SWAP1 KECCAK256 SLOAD LT ISZERO PUSH2 0x25F0 JUMPI PUSH1 0x40 MLOAD PUSH32 0x8C379A000000000000000000000000000000000000000000000000000000000 DUP2 MSTORE PUSH1 0x4 ADD PUSH2 0x25E7 SWAP1 PUSH2 0x46E2 JUMP JUMPDEST PUSH1 0x40 MLOAD DUP1 SWAP2 SUB SWAP1 REVERT JUMPDEST PUSH0 JUMPDEST PUSH1 0x1 DUP1 SLOAD SWAP1 POP DUP2 LT ISZERO PUSH2 0x26B5 JUMPI DUP5 PUSH20 0xFFFFFFFFFFFFFFFFFFFFFFFFFFFFFFFFFFFFFFFF AND PUSH1 0x1 DUP3 DUP2 SLOAD DUP2 LT PUSH2 0x262A JUMPI PUSH2 0x2629 PUSH2 0x3801 JUMP JUMPDEST JUMPDEST SWAP1 PUSH0 MSTORE PUSH1 0x20 PUSH0 KECCAK256 ADD PUSH0 SWAP1 SLOAD SWAP1 PUSH2 0x100 EXP SWAP1 DIV PUSH20 0xFFFFFFFFFFFFFFFFFFFFFFFFFFFFFFFFFFFFFFFF AND PUSH20 0xFFFFFFFFFFFFFFFFFFFFFFFFFFFFFFFFFFFFFFFF AND SUB PUSH2 0x26A8 JUMPI PUSH1 0x40 MLOAD PUSH32 0x8C379A000000000000000000000000000000000000000000000000000000000 DUP2 MSTORE PUSH1 0x4 ADD PUSH2 0x269F SWAP1 PUSH2 0x4770 JUMP JUMPDEST PUSH1 0x40 MLOAD DUP1 SWAP2 SUB SWAP1 REVERT JUMPDEST DUP1 DUP1 PUSH1 0x1 ADD SWAP2 POP POP PUSH2 0x25F2 JUMP JUMPDEST POP DUP3 PUSH1 0x7 PUSH0 CALLER PUSH20 0xFFFFFFFFFFFFFFFFFFFFFFFFFFFFFFFFFFFFFFFF AND PUSH20 0xFFFFFFFFFFFFFFFFFFFFFFFFFFFFFFFFFFFFFFFF AND DUP2 MSTORE PUSH1 0x20 ADD SWAP1 DUP2 MSTORE PUSH1 0x20 ADD PUSH0 KECCAK256 DUP7 PUSH1 0x40 MLOAD PUSH2 0x2702 SWAP2 SWAP1 PUSH2 0x3906 JUMP JUMPDEST SWAP1 DUP2 MSTORE PUSH1 0x20 ADD PUSH1 0x40 MLOAD DUP1 SWAP2 SUB SWAP1 KECCAK256 PUSH0 DUP3 DUP3 SLOAD PUSH2 0x271E SWAP2 SWAP1 PUSH2 0x39B1 JUMP JUMPDEST SWAP3 POP POP DUP2 SWAP1 SSTORE POP PUSH1 0xA PUSH1 0x40 MLOAD DUP1 PUSH1 0xE0 ADD PUSH1 0x40 MSTORE DUP1 DUP8 DUP2 MSTORE PUSH1 0x20 ADD CALLER PUSH20 0xFFFFFFFFFFFFFFFFFFFFFFFFFFFFFFFFFFFFFFFF AND DUP2 MSTORE PUSH1 0x20 ADD DUP7 PUSH20 0xFFFFFFFFFFFFFFFFFFFFFFFFFFFFFFFFFFFFFFFF AND DUP2 MSTORE PUSH1 0x20 ADD DUP6 DUP2 MSTORE PUSH1 0x20 ADD PUSH1 0x5 SLOAD DUP2 MSTORE PUSH1 0x20 ADD PUSH0 DUP2 MSTORE PUSH1 0x20 ADD TIMESTAMP DUP2 MSTORE POP SWAP1 DUP1 PUSH1 0x1 DUP2 SLOAD ADD DUP1 DUP3 SSTORE DUP1 SWAP2 POP POP PUSH1 0x1 SWAP1 SUB SWAP1 PUSH0 MSTORE PUSH1 0x20 PUSH0 KECCAK256 SWAP1 PUSH1 0x7 MUL ADD PUSH0 SWAP1 SWAP2 SWAP1 SWAP2 SWAP1 SWAP2 POP PUSH0 DUP3 ADD MLOAD DUP2 PUSH0 ADD SWAP1 DUP2 PUSH2 0x27C1 SWAP2 SWAP1 PUSH2 0x4559 JUMP JUMPDEST POP PUSH1 0x20 DUP3 ADD MLOAD DUP2 PUSH1 0x1 ADD PUSH0 PUSH2 0x100 EXP DUP2 SLOAD DUP2 PUSH20 0xFFFFFFFFFFFFFFFFFFFFFFFFFFFFFFFFFFFFFFFF MUL NOT AND SWAP1 DUP4 PUSH20 0xFFFFFFFFFFFFFFFFFFFFFFFFFFFFFFFFFFFFFFFF AND MUL OR SWAP1 SSTORE POP PUSH1 0x40 DUP3 ADD MLOAD DUP2 PUSH1 0x2 ADD PUSH0 PUSH2 0x100 EXP DUP2 SLOAD DUP2 PUSH20 0xFFFFFFFFFFFFFFFFFFFFFFFFFFFFFFFFFFFFFFFF MUL NOT AND SWAP1 DUP4 PUSH20 0xFFFFFFFFFFFFFFFFFFFFFFFFFFFFFFFFFFFFFFFF AND MUL OR SWAP1 SSTORE POP PUSH1 0x60 DUP3 ADD MLOAD DUP2 PUSH1 0x3 ADD SSTORE PUSH1 0x80 DUP3 ADD MLOAD DUP2 PUSH1 0x4 ADD SSTORE PUSH1 0xA0 DUP3 ADD MLOAD DUP2 PUSH1 0x5 ADD SSTORE PUSH1 0xC0 DUP3 ADD MLOAD DUP2 PUSH1 0x6 ADD SSTORE POP POP PUSH1 0x5 PUSH0 DUP2 SLOAD DUP1 SWAP3 SWAP2 SWAP1 PUSH2 0x288A SWAP1 PUSH2 0x3B67 JUMP JUMPDEST SWAP2 SWAP1 POP SSTORE POP PUSH32 0x9CC5DF05955D08828D561F92AD3F6B82C78A55CF7D3DEDACFFACC4F694FAF9BE DUP6 CALLER DUP7 DUP7 PUSH1 0x5 SLOAD PUSH0 TIMESTAMP PUSH1 0x40 MLOAD PUSH2 0x28CC SWAP8 SWAP7 SWAP6 SWAP5 SWAP4 SWAP3 SWAP2 SWAP1 PUSH2 0x47C7 JUMP JUMPDEST PUSH1 0x40 MLOAD DUP1 SWAP2 SUB SWAP1 LOG1 POP POP POP POP POP JUMP JUMPDEST PUSH1 0x60 PUSH1 0x1 DUP1 SLOAD DUP1 PUSH1 0x20 MUL PUSH1 0x20 ADD PUSH1 0x40 MLOAD SWAP1 DUP2 ADD PUSH1 0x40 MSTORE DUP1 SWAP3 SWAP2 SWAP1 DUP2 DUP2 MSTORE PUSH1 0x20 ADD DUP3 DUP1 SLOAD DUP1 ISZERO PUSH2 0x295C JUMPI PUSH1 0x20 MUL DUP3 ADD SWAP2 SWAP1 PUSH0 MSTORE PUSH1 0x20 PUSH0 KECCAK256 SWAP1 JUMPDEST DUP2 PUSH0 SWAP1 SLOAD SWAP1 PUSH2 0x100 EXP SWAP1 DIV PUSH20 0xFFFFFFFFFFFFFFFFFFFFFFFFFFFFFFFFFFFFFFFF AND PUSH20 0xFFFFFFFFFFFFFFFFFFFFFFFFFFFFFFFFFFFFFFFF AND DUP2 MSTORE PUSH1 0x20 ADD SWAP1 PUSH1 0x1 ADD SWAP1 DUP1 DUP4 GT PUSH2 0x2913 JUMPI JUMPDEST POP POP POP POP POP SWAP1 POP SWAP1 JUMP JUMPDEST PUSH1 0xA DUP2 DUP2 SLOAD DUP2 LT PUSH2 0x297A JUMPI PUSH2 0x2979 PUSH2 0x3801 JUMP JUMPDEST JUMPDEST SWAP1 PUSH0 MSTORE PUSH1 0x20 PUSH0 KECCAK256 SWAP1 PUSH1 0x7 MUL ADD PUSH1 0x3 ADD SLOAD PUSH1 0x7 PUSH0 PUSH1 0xA DUP5 DUP2 SLOAD DUP2 LT PUSH2 0x29A1 JUMPI PUSH2 0x29A0 PUSH2 0x3801 JUMP JUMPDEST JUMPDEST SWAP1 PUSH0 MSTORE PUSH1 0x20 PUSH0 KECCAK256 SWAP1 PUSH1 0x7 MUL ADD PUSH1 0x2 ADD PUSH0 SWAP1 SLOAD SWAP1 PUSH2 0x100 EXP SWAP1 DIV PUSH20 0xFFFFFFFFFFFFFFFFFFFFFFFFFFFFFFFFFFFFFFFF AND PUSH20 0xFFFFFFFFFFFFFFFFFFFFFFFFFFFFFFFFFFFFFFFF AND PUSH20 0xFFFFFFFFFFFFFFFFFFFFFFFFFFFFFFFFFFFFFFFF AND DUP2 MSTORE PUSH1 0x20 ADD SWAP1 DUP2 MSTORE PUSH1 0x20 ADD PUSH0 KECCAK256 DUP4 PUSH1 0x40 MLOAD PUSH2 0x2A17 SWAP2 SWAP1 PUSH2 0x3906 JUMP JUMPDEST SWAP1 DUP2 MSTORE PUSH1 0x20 ADD PUSH1 0x40 MLOAD DUP1 SWAP2 SUB SWAP1 KECCAK256 PUSH0 DUP3 DUP3 SLOAD PUSH2 0x2A33 SWAP2 SWAP1 PUSH2 0x3E69 JUMP JUMPDEST SWAP3 POP POP DUP2 SWAP1 SSTORE POP PUSH1 0x40 MLOAD DUP1 PUSH1 0x40 ADD PUSH1 0x40 MSTORE DUP1 PUSH1 0x3 DUP2 MSTORE PUSH1 0x20 ADD PUSH32 0x4554480000000000000000000000000000000000000000000000000000000000 DUP2 MSTORE POP DUP1 MLOAD SWAP1 PUSH1 0x20 ADD KECCAK256 DUP3 DUP1 MLOAD SWAP1 PUSH1 0x20 ADD KECCAK256 SUB PUSH2 0x2B32 JUMPI PUSH1 0xA DUP2 DUP2 SLOAD DUP2 LT PUSH2 0x2A98 JUMPI PUSH2 0x2A97 PUSH2 0x3801 JUMP JUMPDEST JUMPDEST SWAP1 PUSH0 MSTORE PUSH1 0x20 PUSH0 KECCAK256 SWAP1 PUSH1 0x7 MUL ADD PUSH1 0x2 ADD PUSH0 SWAP1 SLOAD SWAP1 PUSH2 0x100 EXP SWAP1 DIV PUSH20 0xFFFFFFFFFFFFFFFFFFFFFFFFFFFFFFFFFFFFFFFF AND PUSH20 0xFFFFFFFFFFFFFFFFFFFFFFFFFFFFFFFFFFFFFFFF AND PUSH2 0x8FC PUSH1 0xA DUP4 DUP2 SLOAD DUP2 LT PUSH2 0x2AF4 JUMPI PUSH2 0x2AF3 PUSH2 0x3801 JUMP JUMPDEST JUMPDEST SWAP1 PUSH0 MSTORE PUSH1 0x20 PUSH0 KECCAK256 SWAP1 PUSH1 0x7 MUL ADD PUSH1 0x3 ADD SLOAD SWAP1 DUP2 ISZERO MUL SWAP1 PUSH1 0x40 MLOAD PUSH0 PUSH1 0x40 MLOAD DUP1 DUP4 SUB DUP2 DUP6 DUP9 DUP9 CALL SWAP4 POP POP POP POP ISZERO DUP1 ISZERO PUSH2 0x2B2C JUMPI RETURNDATASIZE PUSH0 DUP1 RETURNDATACOPY RETURNDATASIZE PUSH0 REVERT JUMPDEST POP PUSH2 0x2C54 JUMP JUMPDEST PUSH1 0x9 DUP3 PUSH1 0x40 MLOAD PUSH2 0x2B42 SWAP2 SWAP1 PUSH2 0x3906 JUMP JUMPDEST SWAP1 DUP2 MSTORE PUSH1 0x20 ADD PUSH1 0x40 MLOAD DUP1 SWAP2 SUB SWAP1 KECCAK256 PUSH1 0x1 ADD PUSH0 SWAP1 SLOAD SWAP1 PUSH2 0x100 EXP SWAP1 DIV PUSH20 0xFFFFFFFFFFFFFFFFFFFFFFFFFFFFFFFFFFFFFFFF AND PUSH20 0xFFFFFFFFFFFFFFFFFFFFFFFFFFFFFFFFFFFFFFFF AND PUSH4 0xA9059CBB PUSH1 0xA DUP4 DUP2 SLOAD DUP2 LT PUSH2 0x2BA2 JUMPI PUSH2 0x2BA1 PUSH2 0x3801 JUMP JUMPDEST JUMPDEST SWAP1 PUSH0 MSTORE PUSH1 0x20 PUSH0 KECCAK256 SWAP1 PUSH1 0x7 MUL ADD PUSH1 0x2 ADD PUSH0 SWAP1 SLOAD SWAP1 PUSH2 0x100 EXP SWAP1 DIV PUSH20 0xFFFFFFFFFFFFFFFFFFFFFFFFFFFFFFFFFFFFFFFF AND PUSH1 0xA DUP5 DUP2 SLOAD DUP2 LT PUSH2 0x2BE5 JUMPI PUSH2 0x2BE4 PUSH2 0x3801 JUMP JUMPDEST JUMPDEST SWAP1 PUSH0 MSTORE PUSH1 0x20 PUSH0 KECCAK256 SWAP1 PUSH1 0x7 MUL ADD PUSH1 0x3 ADD SLOAD PUSH1 0x40 MLOAD DUP4 PUSH4 0xFFFFFFFF AND PUSH1 0xE0 SHL DUP2 MSTORE PUSH1 0x4 ADD PUSH2 0x2C12 SWAP3 SWAP2 SWAP1 PUSH2 0x483B JUMP JUMPDEST PUSH1 0x20 PUSH1 0x40 MLOAD DUP1 DUP4 SUB DUP2 PUSH0 DUP8 GAS CALL ISZERO DUP1 ISZERO PUSH2 0x2C2E JUMPI RETURNDATASIZE PUSH0 DUP1 RETURNDATACOPY RETURNDATASIZE PUSH0 REVERT JUMPDEST POP POP POP POP PUSH1 0x40 MLOAD RETURNDATASIZE PUSH1 0x1F NOT PUSH1 0x1F DUP3 ADD AND DUP3 ADD DUP1 PUSH1 0x40 MSTORE POP DUP2 ADD SWAP1 PUSH2 0x2C52 SWAP2 SWAP1 PUSH2 0x3AAC JUMP JUMPDEST POP JUMPDEST PUSH32 0xDEEA4C72B502B4BD7DCE3C793E57C46BB32F3B2F66613D54A765E7585F520A2C DUP3 CALLER PUSH1 0xA DUP5 DUP2 SLOAD DUP2 LT PUSH2 0x2C8B JUMPI PUSH2 0x2C8A PUSH2 0x3801 JUMP JUMPDEST JUMPDEST SWAP1 PUSH0 MSTORE PUSH1 0x20 PUSH0 KECCAK256 SWAP1 PUSH1 0x7 MUL ADD PUSH1 0x2 ADD PUSH0 SWAP1 SLOAD SWAP1 PUSH2 0x100 EXP SWAP1 DIV PUSH20 0xFFFFFFFFFFFFFFFFFFFFFFFFFFFFFFFFFFFFFFFF AND PUSH1 0xA DUP6 DUP2 SLOAD DUP2 LT PUSH2 0x2CCE JUMPI PUSH2 0x2CCD PUSH2 0x3801 JUMP JUMPDEST JUMPDEST SWAP1 PUSH0 MSTORE PUSH1 0x20 PUSH0 KECCAK256 SWAP1 PUSH1 0x7 MUL ADD PUSH1 0x3 ADD SLOAD PUSH1 0xA DUP7 DUP2 SLOAD DUP2 LT PUSH2 0x2CF2 JUMPI PUSH2 0x2CF1 PUSH2 0x3801 JUMP JUMPDEST JUMPDEST SWAP1 PUSH0 MSTORE PUSH1 0x20 PUSH0 KECCAK256 SWAP1 PUSH1 0x7 MUL ADD PUSH1 0x4 ADD SLOAD PUSH1 0xA DUP8 DUP2 SLOAD DUP2 LT PUSH2 0x2D16 JUMPI PUSH2 0x2D15 PUSH2 0x3801 JUMP JUMPDEST JUMPDEST SWAP1 PUSH0 MSTORE PUSH1 0x20 PUSH0 KECCAK256 SWAP1 PUSH1 0x7 MUL ADD PUSH1 0x5 ADD SLOAD PUSH1 0xA DUP9 DUP2 SLOAD DUP2 LT PUSH2 0x2D3A JUMPI PUSH2 0x2D39 PUSH2 0x3801 JUMP JUMPDEST JUMPDEST SWAP1 PUSH0 MSTORE PUSH1 0x20 PUSH0 KECCAK256 SWAP1 PUSH1 0x7 MUL ADD PUSH1 0x6 ADD SLOAD PUSH1 0x40 MLOAD PUSH2 0x2D5D SWAP8 SWAP7 SWAP6 SWAP5 SWAP4 SWAP3 SWAP2 SWAP1 PUSH2 0x3D8D JUMP JUMPDEST PUSH1 0x40 MLOAD DUP1 SWAP2 SUB SWAP1 LOG1 PUSH1 0xA PUSH1 0x1 PUSH1 0xA DUP1 SLOAD SWAP1 POP PUSH2 0x2D79 SWAP2 SWAP1 PUSH2 0x39B1 JUMP JUMPDEST DUP2 SLOAD DUP2 LT PUSH2 0x2D8A JUMPI PUSH2 0x2D89 PUSH2 0x3801 JUMP JUMPDEST JUMPDEST SWAP1 PUSH0 MSTORE PUSH1 0x20 PUSH0 KECCAK256 SWAP1 PUSH1 0x7 MUL ADD PUSH1 0xA DUP3 DUP2 SLOAD DUP2 LT PUSH2 0x2DAA JUMPI PUSH2 0x2DA9 PUSH2 0x3801 JUMP JUMPDEST JUMPDEST SWAP1 PUSH0 MSTORE PUSH1 0x20 PUSH0 KECCAK256 SWAP1 PUSH1 0x7 MUL ADD PUSH0 DUP3 ADD DUP2 PUSH0 ADD SWAP1 DUP2 PUSH2 0x2DC8 SWAP2 SWAP1 PUSH2 0x4045 JUMP JUMPDEST POP PUSH1 0x1 DUP3 ADD PUSH0 SWAP1 SLOAD SWAP1 PUSH2 0x100 EXP SWAP1 DIV PUSH20 0xFFFFFFFFFFFFFFFFFFFFFFFFFFFFFFFFFFFFFFFF AND DUP2 PUSH1 0x1 ADD PUSH0 PUSH2 0x100 EXP DUP2 SLOAD DUP2 PUSH20 0xFFFFFFFFFFFFFFFFFFFFFFFFFFFFFFFFFFFFFFFF MUL NOT AND SWAP1 DUP4 PUSH20 0xFFFFFFFFFFFFFFFFFFFFFFFFFFFFFFFFFFFFFFFF AND MUL OR SWAP1 SSTORE POP PUSH1 0x2 DUP3 ADD PUSH0 SWAP1 SLOAD SWAP1 PUSH2 0x100 EXP SWAP1 DIV PUSH20 0xFFFFFFFFFFFFFFFFFFFFFFFFFFFFFFFFFFFFFFFF AND DUP2 PUSH1 0x2 ADD PUSH0 PUSH2 0x100 EXP DUP2 SLOAD DUP2 PUSH20 0xFFFFFFFFFFFFFFFFFFFFFFFFFFFFFFFFFFFFFFFF MUL NOT AND SWAP1 DUP4 PUSH20 0xFFFFFFFFFFFFFFFFFFFFFFFFFFFFFFFFFFFFFFFF AND MUL OR SWAP1 SSTORE POP PUSH1 0x3 DUP3 ADD SLOAD DUP2 PUSH1 0x3 ADD SSTORE PUSH1 0x4 DUP3 ADD SLOAD DUP2 PUSH1 0x4 ADD SSTORE PUSH1 0x5 DUP3 ADD SLOAD DUP2 PUSH1 0x5 ADD SSTORE PUSH1 0x6 DUP3 ADD SLOAD DUP2 PUSH1 0x6 ADD SSTORE SWAP1 POP POP PUSH1 0xA DUP1 SLOAD DUP1 PUSH2 0x2ED0 JUMPI PUSH2 0x2ECF PUSH2 0x412A JUMP JUMPDEST JUMPDEST PUSH1 0x1 SWAP1 SUB DUP2 DUP2 SWAP1 PUSH0 MSTORE PUSH1 0x20 PUSH0 KECCAK256 SWAP1 PUSH1 0x7 MUL ADD PUSH0 DUP1 DUP3 ADD PUSH0 PUSH2 0x2EF1 SWAP2 SWAP1 PUSH2 0x2F61 JUMP JUMPDEST PUSH1 0x1 DUP3 ADD PUSH0 PUSH2 0x100 EXP DUP2 SLOAD SWAP1 PUSH20 0xFFFFFFFFFFFFFFFFFFFFFFFFFFFFFFFFFFFFFFFF MUL NOT AND SWAP1 SSTORE PUSH1 0x2 DUP3 ADD PUSH0 PUSH2 0x100 EXP DUP2 SLOAD SWAP1 PUSH20 0xFFFFFFFFFFFFFFFFFFFFFFFFFFFFFFFFFFFFFFFF MUL NOT AND SWAP1 SSTORE PUSH1 0x3 DUP3 ADD PUSH0 SWAP1 SSTORE PUSH1 0x4 DUP3 ADD PUSH0 SWAP1 SSTORE PUSH1 0x5 DUP3 ADD PUSH0 SWAP1 SSTORE PUSH1 0x6 DUP3 ADD PUSH0 SWAP1 SSTORE POP POP SWAP1 SSTORE POP POP JUMP JUMPDEST POP DUP1 SLOAD PUSH2 0x2F6D SWAP1 PUSH2 0x37D1 JUMP JUMPDEST PUSH0 DUP3 SSTORE DUP1 PUSH1 0x1F LT PUSH2 0x2F7E JUMPI POP PUSH2 0x2F9B JUMP JUMPDEST PUSH1 0x1F ADD PUSH1 0x20 SWAP1 DIV SWAP1 PUSH0 MSTORE PUSH1 0x20 PUSH0 KECCAK256 SWAP1 DUP2 ADD SWAP1 PUSH2 0x2F9A SWAP2 SWAP1 PUSH2 0x2F9E JUMP JUMPDEST JUMPDEST POP JUMP JUMPDEST JUMPDEST DUP1 DUP3 GT ISZERO PUSH2 0x2FB5 JUMPI PUSH0 DUP2 PUSH0 SWAP1 SSTORE POP PUSH1 0x1 ADD PUSH2 0x2F9F JUMP JUMPDEST POP SWAP1 JUMP JUMPDEST PUSH0 DUP2 MLOAD SWAP1 POP SWAP2 SWAP1 POP JUMP JUMPDEST PUSH0 DUP3 DUP3 MSTORE PUSH1 0x20 DUP3 ADD SWAP1 POP SWAP3 SWAP2 POP POP JUMP JUMPDEST PUSH0 DUP2 SWAP1 POP PUSH1 0x20 DUP3 ADD SWAP1 POP SWAP2 SWAP1 POP JUMP JUMPDEST PUSH0 DUP2 MLOAD SWAP1 POP SWAP2 SWAP1 POP JUMP JUMPDEST PUSH0 DUP3 DUP3 MSTORE PUSH1 0x20 DUP3 ADD SWAP1 POP SWAP3 SWAP2 POP POP JUMP JUMPDEST PUSH0 JUMPDEST DUP4 DUP2 LT ISZERO PUSH2 0x3019 JUMPI DUP1 DUP3 ADD MLOAD DUP2 DUP5 ADD MSTORE PUSH1 0x20 DUP2 ADD SWAP1 POP PUSH2 0x2FFE JUMP JUMPDEST PUSH0 DUP5 DUP5 ADD MSTORE POP POP POP POP JUMP JUMPDEST PUSH0 PUSH1 0x1F NOT PUSH1 0x1F DUP4 ADD AND SWAP1 POP SWAP2 SWAP1 POP JUMP JUMPDEST PUSH0 PUSH2 0x303E DUP3 PUSH2 0x2FE2 JUMP JUMPDEST PUSH2 0x3048 DUP2 DUP6 PUSH2 0x2FEC JUMP JUMPDEST SWAP4 POP PUSH2 0x3058 DUP2 DUP6 PUSH1 0x20 DUP7 ADD PUSH2 0x2FFC JUMP JUMPDEST PUSH2 0x3061 DUP2 PUSH2 0x3024 JUMP JUMPDEST DUP5 ADD SWAP2 POP POP SWAP3 SWAP2 POP POP JUMP JUMPDEST PUSH0 PUSH2 0x3077 DUP4 DUP4 PUSH2 0x3034 JUMP JUMPDEST SWAP1 POP SWAP3 SWAP2 POP POP JUMP JUMPDEST PUSH0 PUSH1 0x20 DUP3 ADD SWAP1 POP SWAP2 SWAP1 POP JUMP JUMPDEST PUSH0 PUSH2 0x3095 DUP3 PUSH2 0x2FB9 JUMP JUMPDEST PUSH2 0x309F DUP2 DUP6 PUSH2 0x2FC3 JUMP JUMPDEST SWAP4 POP DUP4 PUSH1 0x20 DUP3 MUL DUP6 ADD PUSH2 0x30B1 DUP6 PUSH2 0x2FD3 JUMP JUMPDEST DUP1 PUSH0 JUMPDEST DUP6 DUP2 LT ISZERO PUSH2 0x30EC JUMPI DUP5 DUP5 SUB DUP10 MSTORE DUP2 MLOAD PUSH2 0x30CD DUP6 DUP3 PUSH2 0x306C JUMP JUMPDEST SWAP5 POP PUSH2 0x30D8 DUP4 PUSH2 0x307F JUMP JUMPDEST SWAP3 POP PUSH1 0x20 DUP11 ADD SWAP10 POP POP PUSH1 0x1 DUP2 ADD SWAP1 POP PUSH2 0x30B4 JUMP JUMPDEST POP DUP3 SWAP8 POP DUP8 SWAP6 POP POP POP POP POP POP SWAP3 SWAP2 POP POP JUMP JUMPDEST PUSH0 PUSH1 0x20 DUP3 ADD SWAP1 POP DUP2 DUP2 SUB PUSH0 DUP4 ADD MSTORE PUSH2 0x3116 DUP2 DUP5 PUSH2 0x308B JUMP JUMPDEST SWAP1 POP SWAP3 SWAP2 POP POP JUMP JUMPDEST PUSH0 PUSH1 0x40 MLOAD SWAP1 POP SWAP1 JUMP JUMPDEST PUSH0 DUP1 REVERT JUMPDEST PUSH0 DUP1 REVERT JUMPDEST PUSH0 DUP1 REVERT JUMPDEST PUSH0 DUP1 REVERT JUMPDEST PUSH32 0x4E487B7100000000000000000000000000000000000000000000000000000000 PUSH0 MSTORE PUSH1 0x41 PUSH1 0x4 MSTORE PUSH1 0x24 PUSH0 REVERT JUMPDEST PUSH2 0x316D DUP3 PUSH2 0x3024 JUMP JUMPDEST DUP2 ADD DUP2 DUP2 LT PUSH8 0xFFFFFFFFFFFFFFFF DUP3 GT OR ISZERO PUSH2 0x318C JUMPI PUSH2 0x318B PUSH2 0x3137 JUMP JUMPDEST JUMPDEST DUP1 PUSH1 0x40 MSTORE POP POP POP JUMP JUMPDEST PUSH0 PUSH2 0x319E PUSH2 0x311E JUMP JUMPDEST SWAP1 POP PUSH2 0x31AA DUP3 DUP3 PUSH2 0x3164 JUMP JUMPDEST SWAP2 SWAP1 POP JUMP JUMPDEST PUSH0 PUSH8 0xFFFFFFFFFFFFFFFF DUP3 GT ISZERO PUSH2 0x31C9 JUMPI PUSH2 0x31C8 PUSH2 0x3137 JUMP JUMPDEST JUMPDEST PUSH2 0x31D2 DUP3 PUSH2 0x3024 JUMP JUMPDEST SWAP1 POP PUSH1 0x20 DUP2 ADD SWAP1 POP SWAP2 SWAP1 POP JUMP JUMPDEST DUP3 DUP2 DUP4 CALLDATACOPY PUSH0 DUP4 DUP4 ADD MSTORE POP POP POP JUMP JUMPDEST PUSH0 PUSH2 0x31FF PUSH2 0x31FA DUP5 PUSH2 0x31AF JUMP JUMPDEST PUSH2 0x3195 JUMP JUMPDEST SWAP1 POP DUP3 DUP2 MSTORE PUSH1 0x20 DUP2 ADD DUP5 DUP5 DUP5 ADD GT ISZERO PUSH2 0x321B JUMPI PUSH2 0x321A PUSH2 0x3133 JUMP JUMPDEST JUMPDEST PUSH2 0x3226 DUP5 DUP3 DUP6 PUSH2 0x31DF JUMP JUMPDEST POP SWAP4 SWAP3 POP POP POP JUMP JUMPDEST PUSH0 DUP3 PUSH1 0x1F DUP4 ADD SLT PUSH2 0x3242 JUMPI PUSH2 0x3241 PUSH2 0x312F JUMP JUMPDEST JUMPDEST DUP2 CALLDATALOAD PUSH2 0x3252 DUP5 DUP3 PUSH1 0x20 DUP7 ADD PUSH2 0x31ED JUMP JUMPDEST SWAP2 POP POP SWAP3 SWAP2 POP POP JUMP JUMPDEST PUSH0 DUP2 SWAP1 POP SWAP2 SWAP1 POP JUMP JUMPDEST PUSH2 0x326D DUP2 PUSH2 0x325B JUMP JUMPDEST DUP2 EQ PUSH2 0x3277 JUMPI PUSH0 DUP1 REVERT JUMPDEST POP JUMP JUMPDEST PUSH0 DUP2 CALLDATALOAD SWAP1 POP PUSH2 0x3288 DUP2 PUSH2 0x3264 JUMP JUMPDEST SWAP3 SWAP2 POP POP JUMP JUMPDEST PUSH0 DUP1 PUSH1 0x40 DUP4 DUP6 SUB SLT ISZERO PUSH2 0x32A4 JUMPI PUSH2 0x32A3 PUSH2 0x3127 JUMP JUMPDEST JUMPDEST PUSH0 DUP4 ADD CALLDATALOAD PUSH8 0xFFFFFFFFFFFFFFFF DUP2 GT ISZERO PUSH2 0x32C1 JUMPI PUSH2 0x32C0 PUSH2 0x312B JUMP JUMPDEST JUMPDEST PUSH2 0x32CD DUP6 DUP3 DUP7 ADD PUSH2 0x322E JUMP JUMPDEST SWAP3 POP POP PUSH1 0x20 PUSH2 0x32DE DUP6 DUP3 DUP7 ADD PUSH2 0x327A JUMP JUMPDEST SWAP2 POP POP SWAP3 POP SWAP3 SWAP1 POP JUMP JUMPDEST PUSH0 PUSH1 0x20 DUP3 DUP5 SUB SLT ISZERO PUSH2 0x32FD JUMPI PUSH2 0x32FC PUSH2 0x3127 JUMP JUMPDEST JUMPDEST PUSH0 DUP3 ADD CALLDATALOAD PUSH8 0xFFFFFFFFFFFFFFFF DUP2 GT ISZERO PUSH2 0x331A JUMPI PUSH2 0x3319 PUSH2 0x312B JUMP JUMPDEST JUMPDEST PUSH2 0x3326 DUP5 DUP3 DUP6 ADD PUSH2 0x322E JUMP JUMPDEST SWAP2 POP POP SWAP3 SWAP2 POP POP JUMP JUMPDEST PUSH2 0x3338 DUP2 PUSH2 0x325B JUMP JUMPDEST DUP3 MSTORE POP POP JUMP JUMPDEST PUSH0 PUSH1 0x20 DUP3 ADD SWAP1 POP PUSH2 0x3351 PUSH0 DUP4 ADD DUP5 PUSH2 0x332F JUMP JUMPDEST SWAP3 SWAP2 POP POP JUMP JUMPDEST PUSH0 PUSH20 0xFFFFFFFFFFFFFFFFFFFFFFFFFFFFFFFFFFFFFFFF DUP3 AND SWAP1 POP SWAP2 SWAP1 POP JUMP JUMPDEST PUSH0 PUSH2 0x3380 DUP3 PUSH2 0x3357 JUMP JUMPDEST SWAP1 POP SWAP2 SWAP1 POP JUMP JUMPDEST PUSH2 0x3390 DUP2 PUSH2 0x3376 JUMP JUMPDEST DUP2 EQ PUSH2 0x339A JUMPI PUSH0 DUP1 REVERT JUMPDEST POP JUMP JUMPDEST PUSH0 DUP2 CALLDATALOAD SWAP1 POP PUSH2 0x33AB DUP2 PUSH2 0x3387 JUMP JUMPDEST SWAP3 SWAP2 POP POP JUMP JUMPDEST PUSH0 PUSH1 0x20 DUP3 DUP5 SUB SLT ISZERO PUSH2 0x33C6 JUMPI PUSH2 0x33C5 PUSH2 0x3127 JUMP JUMPDEST JUMPDEST PUSH0 PUSH2 0x33D3 DUP5 DUP3 DUP6 ADD PUSH2 0x339D JUMP JUMPDEST SWAP2 POP POP SWAP3 SWAP2 POP POP JUMP JUMPDEST PUSH0 DUP2 MLOAD SWAP1 POP SWAP2 SWAP1 POP JUMP JUMPDEST PUSH0 DUP3 DUP3 MSTORE PUSH1 0x20 DUP3 ADD SWAP1 POP SWAP3 SWAP2 POP POP JUMP JUMPDEST PUSH0 DUP2 SWAP1 POP PUSH1 0x20 DUP3 ADD SWAP1 POP SWAP2 SWAP1 POP JUMP JUMPDEST PUSH2 0x340E DUP2 PUSH2 0x3376 JUMP JUMPDEST DUP3 MSTORE POP POP JUMP JUMPDEST PUSH0 PUSH2 0x341E DUP3 PUSH2 0x3357 JUMP JUMPDEST SWAP1 POP SWAP2 SWAP1 POP JUMP JUMPDEST PUSH2 0x342E DUP2 PUSH2 0x3414 JUMP JUMPDEST DUP3 MSTORE POP POP JUMP JUMPDEST PUSH2 0x343D DUP2 PUSH2 0x325B JUMP JUMPDEST DUP3 MSTORE POP POP JUMP JUMPDEST PUSH0 PUSH1 0xE0 DUP4 ADD PUSH0 DUP4 ADD MLOAD DUP5 DUP3 SUB PUSH0 DUP7 ADD MSTORE PUSH2 0x345D DUP3 DUP3 PUSH2 0x3034 JUMP JUMPDEST SWAP2 POP POP PUSH1 0x20 DUP4 ADD MLOAD PUSH2 0x3472 PUSH1 0x20 DUP7 ADD DUP3 PUSH2 0x3405 JUMP JUMPDEST POP PUSH1 0x40 DUP4 ADD MLOAD PUSH2 0x3485 PUSH1 0x40 DUP7 ADD DUP3 PUSH2 0x3425 JUMP JUMPDEST POP PUSH1 0x60 DUP4 ADD MLOAD PUSH2 0x3498 PUSH1 0x60 DUP7 ADD DUP3 PUSH2 0x3434 JUMP JUMPDEST POP PUSH1 0x80 DUP4 ADD MLOAD PUSH2 0x34AB PUSH1 0x80 DUP7 ADD DUP3 PUSH2 0x3434 JUMP JUMPDEST POP PUSH1 0xA0 DUP4 ADD MLOAD PUSH2 0x34BE PUSH1 0xA0 DUP7 ADD DUP3 PUSH2 0x3434 JUMP JUMPDEST POP PUSH1 0xC0 DUP4 ADD MLOAD PUSH2 0x34D1 PUSH1 0xC0 DUP7 ADD DUP3 PUSH2 0x3434 JUMP JUMPDEST POP DUP1 SWAP2 POP POP SWAP3 SWAP2 POP POP JUMP JUMPDEST PUSH0 PUSH2 0x34E7 DUP4 DUP4 PUSH2 0x3443 JUMP JUMPDEST SWAP1 POP SWAP3 SWAP2 POP POP JUMP JUMPDEST PUSH0 PUSH1 0x20 DUP3 ADD SWAP1 POP SWAP2 SWAP1 POP JUMP JUMPDEST PUSH0 PUSH2 0x3505 DUP3 PUSH2 0x33DC JUMP JUMPDEST PUSH2 0x350F DUP2 DUP6 PUSH2 0x33E6 JUMP JUMPDEST SWAP4 POP DUP4 PUSH1 0x20 DUP3 MUL DUP6 ADD PUSH2 0x3521 DUP6 PUSH2 0x33F6 JUMP JUMPDEST DUP1 PUSH0 JUMPDEST DUP6 DUP2 LT ISZERO PUSH2 0x355C JUMPI DUP5 DUP5 SUB DUP10 MSTORE DUP2 MLOAD PUSH2 0x353D DUP6 DUP3 PUSH2 0x34DC JUMP JUMPDEST SWAP5 POP PUSH2 0x3548 DUP4 PUSH2 0x34EF JUMP JUMPDEST SWAP3 POP PUSH1 0x20 DUP11 ADD SWAP10 POP POP PUSH1 0x1 DUP2 ADD SWAP1 POP PUSH2 0x3524 JUMP JUMPDEST POP DUP3 SWAP8 POP DUP8 SWAP6 POP POP POP POP POP POP SWAP3 SWAP2 POP POP JUMP JUMPDEST PUSH0 PUSH1 0x20 DUP3 ADD SWAP1 POP DUP2 DUP2 SUB PUSH0 DUP4 ADD MSTORE PUSH2 0x3586 DUP2 DUP5 PUSH2 0x34FB JUMP JUMPDEST SWAP1 POP SWAP3 SWAP2 POP POP JUMP JUMPDEST PUSH0 PUSH1 0x20 DUP3 DUP5 SUB SLT ISZERO PUSH2 0x35A3 JUMPI PUSH2 0x35A2 PUSH2 0x3127 JUMP JUMPDEST JUMPDEST PUSH0 PUSH2 0x35B0 DUP5 DUP3 DUP6 ADD PUSH2 0x327A JUMP JUMPDEST SWAP2 POP POP SWAP3 SWAP2 POP POP JUMP JUMPDEST PUSH0 DUP2 ISZERO ISZERO SWAP1 POP SWAP2 SWAP1 POP JUMP JUMPDEST PUSH2 0x35CD DUP2 PUSH2 0x35B9 JUMP JUMPDEST DUP3 MSTORE POP POP JUMP JUMPDEST PUSH0 PUSH1 0x20 DUP3 ADD SWAP1 POP PUSH2 0x35E6 PUSH0 DUP4 ADD DUP5 PUSH2 0x35C4 JUMP JUMPDEST SWAP3 SWAP2 POP POP JUMP JUMPDEST PUSH0 DUP1 PUSH1 0x40 DUP4 DUP6 SUB SLT ISZERO PUSH2 0x3602 JUMPI PUSH2 0x3601 PUSH2 0x3127 JUMP JUMPDEST JUMPDEST PUSH0 DUP4 ADD CALLDATALOAD PUSH8 0xFFFFFFFFFFFFFFFF DUP2 GT ISZERO PUSH2 0x361F JUMPI PUSH2 0x361E PUSH2 0x312B JUMP JUMPDEST JUMPDEST PUSH2 0x362B DUP6 DUP3 DUP7 ADD PUSH2 0x322E JUMP JUMPDEST SWAP3 POP POP PUSH1 0x20 PUSH2 0x363C DUP6 DUP3 DUP7 ADD PUSH2 0x339D JUMP JUMPDEST SWAP2 POP POP SWAP3 POP SWAP3 SWAP1 POP JUMP JUMPDEST PUSH2 0x364F DUP2 PUSH2 0x3414 JUMP JUMPDEST DUP2 EQ PUSH2 0x3659 JUMPI PUSH0 DUP1 REVERT JUMPDEST POP JUMP JUMPDEST PUSH0 DUP2 CALLDATALOAD SWAP1 POP PUSH2 0x366A DUP2 PUSH2 0x3646 JUMP JUMPDEST SWAP3 SWAP2 POP POP JUMP JUMPDEST PUSH0 DUP1 PUSH0 PUSH1 0x60 DUP5 DUP7 SUB SLT ISZERO PUSH2 0x3687 JUMPI PUSH2 0x3686 PUSH2 0x3127 JUMP JUMPDEST JUMPDEST PUSH0 DUP5 ADD CALLDATALOAD PUSH8 0xFFFFFFFFFFFFFFFF DUP2 GT ISZERO PUSH2 0x36A4 JUMPI PUSH2 0x36A3 PUSH2 0x312B JUMP JUMPDEST JUMPDEST PUSH2 0x36B0 DUP7 DUP3 DUP8 ADD PUSH2 0x322E JUMP JUMPDEST SWAP4 POP POP PUSH1 0x20 PUSH2 0x36C1 DUP7 DUP3 DUP8 ADD PUSH2 0x365C JUMP JUMPDEST SWAP3 POP POP PUSH1 0x40 PUSH2 0x36D2 DUP7 DUP3 DUP8 ADD PUSH2 0x327A JUMP JUMPDEST SWAP2 POP POP SWAP3 POP SWAP3 POP SWAP3 JUMP JUMPDEST PUSH0 DUP2 MLOAD SWAP1 POP SWAP2 SWAP1 POP JUMP JUMPDEST PUSH0 DUP3 DUP3 MSTORE PUSH1 0x20 DUP3 ADD SWAP1 POP SWAP3 SWAP2 POP POP JUMP JUMPDEST PUSH0 DUP2 SWAP1 POP PUSH1 0x20 DUP3 ADD SWAP1 POP SWAP2 SWAP1 POP JUMP JUMPDEST PUSH0 PUSH2 0x3710 DUP4 DUP4 PUSH2 0x3405 JUMP JUMPDEST PUSH1 0x20 DUP4 ADD SWAP1 POP SWAP3 SWAP2 POP POP JUMP JUMPDEST PUSH0 PUSH1 0x20 DUP3 ADD SWAP1 POP SWAP2 SWAP1 POP JUMP JUMPDEST PUSH0 PUSH2 0x3732 DUP3 PUSH2 0x36DC JUMP JUMPDEST PUSH2 0x373C DUP2 DUP6 PUSH2 0x36E6 JUMP JUMPDEST SWAP4 POP PUSH2 0x3747 DUP4 PUSH2 0x36F6 JUMP JUMPDEST DUP1 PUSH0 JUMPDEST DUP4 DUP2 LT ISZERO PUSH2 0x3777 JUMPI DUP2 MLOAD PUSH2 0x375E DUP9 DUP3 PUSH2 0x3705 JUMP JUMPDEST SWAP8 POP PUSH2 0x3769 DUP4 PUSH2 0x371C JUMP JUMPDEST SWAP3 POP POP PUSH1 0x1 DUP2 ADD SWAP1 POP PUSH2 0x374A JUMP JUMPDEST POP DUP6 SWAP4 POP POP POP POP SWAP3 SWAP2 POP POP JUMP JUMPDEST PUSH0 PUSH1 0x20 DUP3 ADD SWAP1 POP DUP2 DUP2 SUB PUSH0 DUP4 ADD MSTORE PUSH2 0x379C DUP2 DUP5 PUSH2 0x3728 JUMP JUMPDEST SWAP1 POP SWAP3 SWAP2 POP POP JUMP JUMPDEST PUSH32 0x4E487B7100000000000000000000000000000000000000000000000000000000 PUSH0 MSTORE PUSH1 0x22 PUSH1 0x4 MSTORE PUSH1 0x24 PUSH0 REVERT JUMPDEST PUSH0 PUSH1 0x2 DUP3 DIV SWAP1 POP PUSH1 0x1 DUP3 AND DUP1 PUSH2 0x37E8 JUMPI PUSH1 0x7F DUP3 AND SWAP2 POP JUMPDEST PUSH1 0x20 DUP3 LT DUP2 SUB PUSH2 0x37FB JUMPI PUSH2 0x37FA PUSH2 0x37A4 JUMP JUMPDEST JUMPDEST POP SWAP2 SWAP1 POP JUMP JUMPDEST PUSH32 0x4E487B7100000000000000000000000000000000000000000000000000000000 PUSH0 MSTORE PUSH1 0x32 PUSH1 0x4 MSTORE PUSH1 0x24 PUSH0 REVERT JUMPDEST PUSH0 DUP3 DUP3 MSTORE PUSH1 0x20 DUP3 ADD SWAP1 POP SWAP3 SWAP2 POP POP JUMP JUMPDEST PUSH32 0x6F6E6C792077616C6C6574206F776E6572732063616E2063616C6C2074686973 PUSH0 DUP3 ADD MSTORE PUSH32 0x2066756E6374696F6E0000000000000000000000000000000000000000000000 PUSH1 0x20 DUP3 ADD MSTORE POP JUMP JUMPDEST PUSH0 PUSH2 0x3898 PUSH1 0x29 DUP4 PUSH2 0x382E JUMP JUMPDEST SWAP2 POP PUSH2 0x38A3 DUP3 PUSH2 0x383E JUMP JUMPDEST PUSH1 0x40 DUP3 ADD SWAP1 POP SWAP2 SWAP1 POP JUMP JUMPDEST PUSH0 PUSH1 0x20 DUP3 ADD SWAP1 POP DUP2 DUP2 SUB PUSH0 DUP4 ADD MSTORE PUSH2 0x38C5 DUP2 PUSH2 0x388C JUMP JUMPDEST SWAP1 POP SWAP2 SWAP1 POP JUMP JUMPDEST PUSH0 DUP2 SWAP1 POP SWAP3 SWAP2 POP POP JUMP JUMPDEST PUSH0 PUSH2 0x38E0 DUP3 PUSH2 0x2FE2 JUMP JUMPDEST PUSH2 0x38EA DUP2 DUP6 PUSH2 0x38CC JUMP JUMPDEST SWAP4 POP PUSH2 0x38FA DUP2 DUP6 PUSH1 0x20 DUP7 ADD PUSH2 0x2FFC JUMP JUMPDEST DUP1 DUP5 ADD SWAP2 POP POP SWAP3 SWAP2 POP POP JUMP JUMPDEST PUSH0 PUSH2 0x3911 DUP3 DUP5 PUSH2 0x38D6 JUMP JUMPDEST SWAP2 POP DUP2 SWAP1 POP SWAP3 SWAP2 POP POP JUMP JUMPDEST PUSH32 0x696E7375666669656E742062616C616E63650000000000000000000000000000 PUSH0 DUP3 ADD MSTORE POP JUMP JUMPDEST PUSH0 PUSH2 0x3950 PUSH1 0x12 DUP4 PUSH2 0x382E JUMP JUMPDEST SWAP2 POP PUSH2 0x395B DUP3 PUSH2 0x391C JUMP JUMPDEST PUSH1 0x20 DUP3 ADD SWAP1 POP SWAP2 SWAP1 POP JUMP JUMPDEST PUSH0 PUSH1 0x20 DUP3 ADD SWAP1 POP DUP2 DUP2 SUB PUSH0 DUP4 ADD MSTORE PUSH2 0x397D DUP2 PUSH2 0x3944 JUMP JUMPDEST SWAP1 POP SWAP2 SWAP1 POP JUMP JUMPDEST PUSH32 0x4E487B7100000000000000000000000000000000000000000000000000000000 PUSH0 MSTORE PUSH1 0x11 PUSH1 0x4 MSTORE PUSH1 0x24 PUSH0 REVERT JUMPDEST PUSH0 PUSH2 0x39BB DUP3 PUSH2 0x325B JUMP JUMPDEST SWAP2 POP PUSH2 0x39C6 DUP4 PUSH2 0x325B JUMP JUMPDEST SWAP3 POP DUP3 DUP3 SUB SWAP1 POP DUP2 DUP2 GT ISZERO PUSH2 0x39DE JUMPI PUSH2 0x39DD PUSH2 0x3984 JUMP JUMPDEST JUMPDEST SWAP3 SWAP2 POP POP JUMP JUMPDEST PUSH32 0x746F6B656E20646F6573206E6F74206578697874730000000000000000000000 PUSH0 DUP3 ADD MSTORE POP JUMP JUMPDEST PUSH0 PUSH2 0x3A18 PUSH1 0x15 DUP4 PUSH2 0x382E JUMP JUMPDEST SWAP2 POP PUSH2 0x3A23 DUP3 PUSH2 0x39E4 JUMP JUMPDEST PUSH1 0x20 DUP3 ADD SWAP1 POP SWAP2 SWAP1 POP JUMP JUMPDEST PUSH0 PUSH1 0x20 DUP3 ADD SWAP1 POP DUP2 DUP2 SUB PUSH0 DUP4 ADD MSTORE PUSH2 0x3A45 DUP2 PUSH2 0x3A0C JUMP JUMPDEST SWAP1 POP SWAP2 SWAP1 POP JUMP JUMPDEST PUSH2 0x3A55 DUP2 PUSH2 0x3376 JUMP JUMPDEST DUP3 MSTORE POP POP JUMP JUMPDEST PUSH0 PUSH1 0x40 DUP3 ADD SWAP1 POP PUSH2 0x3A6E PUSH0 DUP4 ADD DUP6 PUSH2 0x3A4C JUMP JUMPDEST PUSH2 0x3A7B PUSH1 0x20 DUP4 ADD DUP5 PUSH2 0x332F JUMP JUMPDEST SWAP4 SWAP3 POP POP POP JUMP JUMPDEST PUSH2 0x3A8B DUP2 PUSH2 0x35B9 JUMP JUMPDEST DUP2 EQ PUSH2 0x3A95 JUMPI PUSH0 DUP1 REVERT JUMPDEST POP JUMP JUMPDEST PUSH0 DUP2 MLOAD SWAP1 POP PUSH2 0x3AA6 DUP2 PUSH2 0x3A82 JUMP JUMPDEST SWAP3 SWAP2 POP POP JUMP JUMPDEST PUSH0 PUSH1 0x20 DUP3 DUP5 SUB SLT ISZERO PUSH2 0x3AC1 JUMPI PUSH2 0x3AC0 PUSH2 0x3127 JUMP JUMPDEST JUMPDEST PUSH0 PUSH2 0x3ACE DUP5 DUP3 DUP6 ADD PUSH2 0x3A98 JUMP JUMPDEST SWAP2 POP POP SWAP3 SWAP2 POP POP JUMP JUMPDEST PUSH0 PUSH2 0x3AE1 DUP3 PUSH2 0x2FE2 JUMP JUMPDEST PUSH2 0x3AEB DUP2 DUP6 PUSH2 0x382E JUMP JUMPDEST SWAP4 POP PUSH2 0x3AFB DUP2 DUP6 PUSH1 0x20 DUP7 ADD PUSH2 0x2FFC JUMP JUMPDEST PUSH2 0x3B04 DUP2 PUSH2 0x3024 JUMP JUMPDEST DUP5 ADD SWAP2 POP POP SWAP3 SWAP2 POP POP JUMP JUMPDEST PUSH0 PUSH1 0xA0 DUP3 ADD SWAP1 POP DUP2 DUP2 SUB PUSH0 DUP4 ADD MSTORE PUSH2 0x3B27 DUP2 DUP9 PUSH2 0x3AD7 JUMP JUMPDEST SWAP1 POP PUSH2 0x3B36 PUSH1 0x20 DUP4 ADD DUP8 PUSH2 0x3A4C JUMP JUMPDEST PUSH2 0x3B43 PUSH1 0x40 DUP4 ADD DUP7 PUSH2 0x332F JUMP JUMPDEST PUSH2 0x3B50 PUSH1 0x60 DUP4 ADD DUP6 PUSH2 0x332F JUMP JUMPDEST PUSH2 0x3B5D PUSH1 0x80 DUP4 ADD DUP5 PUSH2 0x332F JUMP JUMPDEST SWAP7 SWAP6 POP POP POP POP POP POP JUMP JUMPDEST PUSH0 PUSH2 0x3B71 DUP3 PUSH2 0x325B JUMP JUMPDEST SWAP2 POP PUSH32 0xFFFFFFFFFFFFFFFFFFFFFFFFFFFFFFFFFFFFFFFFFFFFFFFFFFFFFFFFFFFFFFFF DUP3 SUB PUSH2 0x3BA3 JUMPI PUSH2 0x3BA2 PUSH2 0x3984 JUMP JUMPDEST JUMPDEST PUSH1 0x1 DUP3 ADD SWAP1 POP SWAP2 SWAP1 POP JUMP JUMPDEST PUSH32 0x6F6E6C7920746865207472616E736665722063726561746F722063616E206361 PUSH0 DUP3 ADD MSTORE PUSH32 0x6E63656C00000000000000000000000000000000000000000000000000000000 PUSH1 0x20 DUP3 ADD MSTORE POP JUMP JUMPDEST PUSH0 PUSH2 0x3C08 PUSH1 0x24 DUP4 PUSH2 0x382E JUMP JUMPDEST SWAP2 POP PUSH2 0x3C13 DUP3 PUSH2 0x3BAE JUMP JUMPDEST PUSH1 0x40 DUP3 ADD SWAP1 POP SWAP2 SWAP1 POP JUMP JUMPDEST PUSH0 PUSH1 0x20 DUP3 ADD SWAP1 POP DUP2 DUP2 SUB PUSH0 DUP4 ADD MSTORE PUSH2 0x3C35 DUP2 PUSH2 0x3BFC JUMP JUMPDEST SWAP1 POP SWAP2 SWAP1 POP JUMP JUMPDEST PUSH32 0x63616E6E6F7420617070726F7665207468652073616D65207472616E73666572 PUSH0 DUP3 ADD MSTORE PUSH32 0x2074776963650000000000000000000000000000000000000000000000000000 PUSH1 0x20 DUP3 ADD MSTORE POP JUMP JUMPDEST PUSH0 PUSH2 0x3C96 PUSH1 0x26 DUP4 PUSH2 0x382E JUMP JUMPDEST SWAP2 POP PUSH2 0x3CA1 DUP3 PUSH2 0x3C3C JUMP JUMPDEST PUSH1 0x40 DUP3 ADD SWAP1 POP SWAP2 SWAP1 POP JUMP JUMPDEST PUSH0 PUSH1 0x20 DUP3 ADD SWAP1 POP DUP2 DUP2 SUB PUSH0 DUP4 ADD MSTORE PUSH2 0x3CC3 DUP2 PUSH2 0x3C8A JUMP JUMPDEST SWAP1 POP SWAP2 SWAP1 POP JUMP JUMPDEST PUSH32 0x63616E6E6F7420617070726F7665206F776E207472616E73616374696F6E0000 PUSH0 DUP3 ADD MSTORE POP JUMP JUMPDEST PUSH0 PUSH2 0x3CFE PUSH1 0x1E DUP4 PUSH2 0x382E JUMP JUMPDEST SWAP2 POP PUSH2 0x3D09 DUP3 PUSH2 0x3CCA JUMP JUMPDEST PUSH1 0x20 DUP3 ADD SWAP1 POP SWAP2 SWAP1 POP JUMP JUMPDEST PUSH0 PUSH1 0x20 DUP3 ADD SWAP1 POP DUP2 DUP2 SUB PUSH0 DUP4 ADD MSTORE PUSH2 0x3D2B DUP2 PUSH2 0x3CF2 JUMP JUMPDEST SWAP1 POP SWAP2 SWAP1 POP JUMP JUMPDEST PUSH0 DUP2 SWAP1 POP SWAP2 SWAP1 POP JUMP JUMPDEST PUSH0 PUSH2 0x3D55 PUSH2 0x3D50 PUSH2 0x3D4B DUP5 PUSH2 0x3357 JUMP JUMPDEST PUSH2 0x3D32 JUMP JUMPDEST PUSH2 0x3357 JUMP JUMPDEST SWAP1 POP SWAP2 SWAP1 POP JUMP JUMPDEST PUSH0 PUSH2 0x3D66 DUP3 PUSH2 0x3D3B JUMP JUMPDEST SWAP1 POP SWAP2 SWAP1 POP JUMP JUMPDEST PUSH0 PUSH2 0x3D77 DUP3 PUSH2 0x3D5C JUMP JUMPDEST SWAP1 POP SWAP2 SWAP1 POP JUMP JUMPDEST PUSH2 0x3D87 DUP2 PUSH2 0x3D6D JUMP JUMPDEST DUP3 MSTORE POP POP JUMP JUMPDEST PUSH0 PUSH1 0xE0 DUP3 ADD SWAP1 POP DUP2 DUP2 SUB PUSH0 DUP4 ADD MSTORE PUSH2 0x3DA5 DUP2 DUP11 PUSH2 0x3AD7 JUMP JUMPDEST SWAP1 POP PUSH2 0x3DB4 PUSH1 0x20 DUP4 ADD DUP10 PUSH2 0x3A4C JUMP JUMPDEST PUSH2 0x3DC1 PUSH1 0x40 DUP4 ADD DUP9 PUSH2 0x3D7E JUMP JUMPDEST PUSH2 0x3DCE PUSH1 0x60 DUP4 ADD DUP8 PUSH2 0x332F JUMP JUMPDEST PUSH2 0x3DDB PUSH1 0x80 DUP4 ADD DUP7 PUSH2 0x332F JUMP JUMPDEST PUSH2 0x3DE8 PUSH1 0xA0 DUP4 ADD DUP6 PUSH2 0x332F JUMP JUMPDEST PUSH2 0x3DF5 PUSH1 0xC0 DUP4 ADD DUP5 PUSH2 0x332F JUMP JUMPDEST SWAP9 SWAP8 POP POP POP POP POP POP POP POP JUMP JUMPDEST PUSH32 0x7472616E73666572207265717565737420646F6573206E6F7420657869737400 PUSH0 DUP3 ADD MSTORE POP JUMP JUMPDEST PUSH0 PUSH2 0x3E35 PUSH1 0x1F DUP4 PUSH2 0x382E JUMP JUMPDEST SWAP2 POP PUSH2 0x3E40 DUP3 PUSH2 0x3E01 JUMP JUMPDEST PUSH1 0x20 DUP3 ADD SWAP1 POP SWAP2 SWAP1 POP JUMP JUMPDEST PUSH0 PUSH1 0x20 DUP3 ADD SWAP1 POP DUP2 DUP2 SUB PUSH0 DUP4 ADD MSTORE PUSH2 0x3E62 DUP2 PUSH2 0x3E29 JUMP JUMPDEST SWAP1 POP SWAP2 SWAP1 POP JUMP JUMPDEST PUSH0 PUSH2 0x3E73 DUP3 PUSH2 0x325B JUMP JUMPDEST SWAP2 POP PUSH2 0x3E7E DUP4 PUSH2 0x325B JUMP JUMPDEST SWAP3 POP DUP3 DUP3 ADD SWAP1 POP DUP1 DUP3 GT ISZERO PUSH2 0x3E96 JUMPI PUSH2 0x3E95 PUSH2 0x3984 JUMP JUMPDEST JUMPDEST SWAP3 SWAP2 POP POP JUMP JUMPDEST PUSH0 DUP2 SLOAD SWAP1 POP PUSH2 0x3EAA DUP2 PUSH2 0x37D1 JUMP JUMPDEST SWAP1 POP SWAP2 SWAP1 POP JUMP JUMPDEST PUSH0 DUP2 SWAP1 POP DUP2 PUSH0 MSTORE PUSH1 0x20 PUSH0 KECCAK256 SWAP1 POP SWAP2 SWAP1 POP JUMP JUMPDEST PUSH0 PUSH1 0x20 PUSH1 0x1F DUP4 ADD DIV SWAP1 POP SWAP2 SWAP1 POP JUMP JUMPDEST PUSH0 DUP3 DUP3 SHL SWAP1 POP SWAP3 SWAP2 POP POP JUMP JUMPDEST PUSH0 PUSH1 0x8 DUP4 MUL PUSH2 0x3F0D PUSH32 0xFFFFFFFFFFFFFFFFFFFFFFFFFFFFFFFFFFFFFFFFFFFFFFFFFFFFFFFFFFFFFFFF DUP3 PUSH2 0x3ED2 JUMP JUMPDEST PUSH2 0x3F17 DUP7 DUP4 PUSH2 0x3ED2 JUMP JUMPDEST SWAP6 POP DUP1 NOT DUP5 AND SWAP4 POP DUP1 DUP7 AND DUP5 OR SWAP3 POP POP POP SWAP4 SWAP3 POP POP POP JUMP JUMPDEST PUSH0 PUSH2 0x3F49 PUSH2 0x3F44 PUSH2 0x3F3F DUP5 PUSH2 0x325B JUMP JUMPDEST PUSH2 0x3D32 JUMP JUMPDEST PUSH2 0x325B JUMP JUMPDEST SWAP1 POP SWAP2 SWAP1 POP JUMP JUMPDEST PUSH0 DUP2 SWAP1 POP SWAP2 SWAP1 POP JUMP JUMPDEST PUSH2 0x3F62 DUP4 PUSH2 0x3F2F JUMP JUMPDEST PUSH2 0x3F76 PUSH2 0x3F6E DUP3 PUSH2 0x3F50 JUMP JUMPDEST DUP5 DUP5 SLOAD PUSH2 0x3EDE JUMP JUMPDEST DUP3 SSTORE POP POP POP POP JUMP JUMPDEST PUSH0 SWAP1 JUMP JUMPDEST PUSH2 0x3F8A PUSH2 0x3F7E JUMP JUMPDEST PUSH2 0x3F95 DUP2 DUP5 DUP5 PUSH2 0x3F59 JUMP JUMPDEST POP POP POP JUMP JUMPDEST JUMPDEST DUP2 DUP2 LT ISZERO PUSH2 0x3FB8 JUMPI PUSH2 0x3FAD PUSH0 DUP3 PUSH2 0x3F82 JUMP JUMPDEST PUSH1 0x1 DUP2 ADD SWAP1 POP PUSH2 0x3F9B JUMP JUMPDEST POP POP JUMP JUMPDEST PUSH1 0x1F DUP3 GT ISZERO PUSH2 0x3FFD JUMPI PUSH2 0x3FCE DUP2 PUSH2 0x3EB1 JUMP JUMPDEST PUSH2 0x3FD7 DUP5 PUSH2 0x3EC3 JUMP JUMPDEST DUP2 ADD PUSH1 0x20 DUP6 LT ISZERO PUSH2 0x3FE6 JUMPI DUP2 SWAP1 POP JUMPDEST PUSH2 0x3FFA PUSH2 0x3FF2 DUP6 PUSH2 0x3EC3 JUMP JUMPDEST DUP4 ADD DUP3 PUSH2 0x3F9A JUMP JUMPDEST POP POP JUMPDEST POP POP POP JUMP JUMPDEST PUSH0 DUP3 DUP3 SHR SWAP1 POP SWAP3 SWAP2 POP POP JUMP JUMPDEST PUSH0 PUSH2 0x401D PUSH0 NOT DUP5 PUSH1 0x8 MUL PUSH2 0x4002 JUMP JUMPDEST NOT DUP1 DUP4 AND SWAP2 POP POP SWAP3 SWAP2 POP POP JUMP JUMPDEST PUSH0 PUSH2 0x4035 DUP4 DUP4 PUSH2 0x400E JUMP JUMPDEST SWAP2 POP DUP3 PUSH1 0x2 MUL DUP3 OR SWAP1 POP SWAP3 SWAP2 POP POP JUMP JUMPDEST DUP2 DUP2 SUB PUSH2 0x4053 JUMPI POP POP PUSH2 0x4128 JUMP JUMPDEST PUSH2 0x405C DUP3 PUSH2 0x3E9C JUMP JUMPDEST PUSH8 0xFFFFFFFFFFFFFFFF DUP2 GT ISZERO PUSH2 0x4075 JUMPI PUSH2 0x4074 PUSH2 0x3137 JUMP JUMPDEST JUMPDEST PUSH2 0x407F DUP3 SLOAD PUSH2 0x37D1 JUMP JUMPDEST PUSH2 0x408A DUP3 DUP3 DUP6 PUSH2 0x3FBC JUMP JUMPDEST PUSH0 PUSH1 0x1F DUP4 GT PUSH1 0x1 DUP2 EQ PUSH2 0x40B7 JUMPI PUSH0 DUP5 ISZERO PUSH2 0x40A5 JUMPI DUP3 DUP8 ADD SLOAD SWAP1 POP JUMPDEST PUSH2 0x40AF DUP6 DUP3 PUSH2 0x402A JUMP JUMPDEST DUP7 SSTORE POP PUSH2 0x4121 JUMP JUMPDEST PUSH1 0x1F NOT DUP5 AND PUSH2 0x40C5 DUP8 PUSH2 0x3EB1 JUMP JUMPDEST SWAP7 POP PUSH2 0x40D0 DUP7 PUSH2 0x3EB1 JUMP JUMPDEST PUSH0 JUMPDEST DUP3 DUP2 LT ISZERO PUSH2 0x40F7 JUMPI DUP5 DUP10 ADD SLOAD DUP3 SSTORE PUSH1 0x1 DUP3 ADD SWAP2 POP PUSH1 0x1 DUP6 ADD SWAP5 POP PUSH1 0x20 DUP2 ADD SWAP1 POP PUSH2 0x40D2 JUMP JUMPDEST DUP7 DUP4 LT ISZERO PUSH2 0x4114 JUMPI DUP5 DUP10 ADD SLOAD PUSH2 0x4110 PUSH1 0x1F DUP10 AND DUP3 PUSH2 0x400E JUMP JUMPDEST DUP4 SSTORE POP JUMPDEST PUSH1 0x1 PUSH1 0x2 DUP9 MUL ADD DUP9 SSTORE POP POP POP JUMPDEST POP POP POP POP POP POP JUMPDEST JUMP JUMPDEST PUSH32 0x4E487B7100000000000000000000000000000000000000000000000000000000 PUSH0 MSTORE PUSH1 0x31 PUSH1 0x4 MSTORE PUSH1 0x24 PUSH0 REVERT JUMPDEST PUSH32 0x63616E6E6F74206465706F73697420612076616C7565206F6620300000000000 PUSH0 DUP3 ADD MSTORE POP JUMP JUMPDEST PUSH0 PUSH2 0x418B PUSH1 0x1B DUP4 PUSH2 0x382E JUMP JUMPDEST SWAP2 POP PUSH2 0x4196 DUP3 PUSH2 0x4157 JUMP JUMPDEST PUSH1 0x20 DUP3 ADD SWAP1 POP SWAP2 SWAP1 POP JUMP JUMPDEST PUSH0 PUSH1 0x20 DUP3 ADD SWAP1 POP DUP2 DUP2 SUB PUSH0 DUP4 ADD MSTORE PUSH2 0x41B8 DUP2 PUSH2 0x417F JUMP JUMPDEST SWAP1 POP SWAP2 SWAP1 POP JUMP JUMPDEST PUSH32 0x4554480000000000000000000000000000000000000000000000000000000000 PUSH0 DUP3 ADD MSTORE POP JUMP JUMPDEST PUSH0 PUSH2 0x41F3 PUSH1 0x3 DUP4 PUSH2 0x38CC JUMP JUMPDEST SWAP2 POP PUSH2 0x41FE DUP3 PUSH2 0x41BF JUMP JUMPDEST PUSH1 0x3 DUP3 ADD SWAP1 POP SWAP2 SWAP1 POP JUMP JUMPDEST PUSH0 PUSH2 0x4213 DUP3 PUSH2 0x41E7 JUMP JUMPDEST SWAP2 POP DUP2 SWAP1 POP SWAP2 SWAP1 POP JUMP JUMPDEST PUSH0 PUSH1 0x60 DUP3 ADD SWAP1 POP PUSH2 0x4230 PUSH0 DUP4 ADD DUP7 PUSH2 0x3A4C JUMP JUMPDEST PUSH2 0x423D PUSH1 0x20 DUP4 ADD DUP6 PUSH2 0x3A4C JUMP JUMPDEST PUSH2 0x424A PUSH1 0x40 DUP4 ADD DUP5 PUSH2 0x332F JUMP JUMPDEST SWAP5 SWAP4 POP POP POP POP JUMP JUMPDEST PUSH32 0x63616E6E6F7420616464206475706C6963617465206F776E6572730000000000 PUSH0 DUP3 ADD MSTORE POP JUMP JUMPDEST PUSH0 PUSH2 0x4286 PUSH1 0x1B DUP4 PUSH2 0x382E JUMP JUMPDEST SWAP2 POP PUSH2 0x4291 DUP3 PUSH2 0x4252 JUMP JUMPDEST PUSH1 0x20 DUP3 ADD SWAP1 POP SWAP2 SWAP1 POP JUMP JUMPDEST PUSH0 PUSH1 0x20 DUP3 ADD SWAP1 POP DUP2 DUP2 SUB PUSH0 DUP4 ADD MSTORE PUSH2 0x42B3 DUP2 PUSH2 0x427A JUMP JUMPDEST SWAP1 POP SWAP2 SWAP1 POP JUMP JUMPDEST PUSH32 0x77616C6C6574206F776E6572206E6F7420646574656374656400000000000000 PUSH0 DUP3 ADD MSTORE POP JUMP JUMPDEST PUSH0 PUSH2 0x42EE PUSH1 0x19 DUP4 PUSH2 0x382E JUMP JUMPDEST SWAP2 POP PUSH2 0x42F9 DUP3 PUSH2 0x42BA JUMP JUMPDEST PUSH1 0x20 DUP3 ADD SWAP1 POP SWAP2 SWAP1 POP JUMP JUMPDEST PUSH0 PUSH1 0x20 DUP3 ADD SWAP1 POP DUP2 DUP2 SUB PUSH0 DUP4 ADD MSTORE PUSH2 0x431B DUP2 PUSH2 0x42E2 JUMP JUMPDEST SWAP1 POP SWAP2 SWAP1 POP JUMP JUMPDEST PUSH0 DUP2 SWAP1 POP SWAP3 SWAP2 POP POP JUMP JUMPDEST PUSH0 DUP2 SWAP1 POP DUP2 PUSH0 MSTORE PUSH1 0x20 PUSH0 KECCAK256 SWAP1 POP SWAP2 SWAP1 POP JUMP JUMPDEST PUSH0 DUP2 SLOAD PUSH2 0x434A DUP2 PUSH2 0x37D1 JUMP JUMPDEST PUSH2 0x4354 DUP2 DUP7 PUSH2 0x4322 JUMP JUMPDEST SWAP5 POP PUSH1 0x1 DUP3 AND PUSH0 DUP2 EQ PUSH2 0x436E JUMPI PUSH1 0x1 DUP2 EQ PUSH2 0x4383 JUMPI PUSH2 0x43B5 JUMP JUMPDEST PUSH1 0xFF NOT DUP4 AND DUP7 MSTORE DUP2 ISZERO ISZERO DUP3 MUL DUP7 ADD SWAP4 POP PUSH2 0x43B5 JUMP JUMPDEST PUSH2 0x438C DUP6 PUSH2 0x432C JUMP JUMPDEST PUSH0 JUMPDEST DUP4 DUP2 LT ISZERO PUSH2 0x43AD JUMPI DUP2 SLOAD DUP2 DUP10 ADD MSTORE PUSH1 0x1 DUP3 ADD SWAP2 POP PUSH1 0x20 DUP2 ADD SWAP1 POP PUSH2 0x438E JUMP JUMPDEST DUP4 DUP9 ADD SWAP6 POP POP POP JUMPDEST POP POP POP SWAP3 SWAP2 POP POP JUMP JUMPDEST PUSH0 PUSH2 0x43C9 DUP3 DUP5 PUSH2 0x433E JUMP JUMPDEST SWAP2 POP DUP2 SWAP1 POP SWAP3 SWAP2 POP POP JUMP JUMPDEST PUSH32 0x63616E6E6F7420616464206475706C696361746520746F6B656E730000000000 PUSH0 DUP3 ADD MSTORE POP JUMP JUMPDEST PUSH0 PUSH2 0x4408 PUSH1 0x1B DUP4 PUSH2 0x382E JUMP JUMPDEST SWAP2 POP PUSH2 0x4413 DUP3 PUSH2 0x43D4 JUMP JUMPDEST PUSH1 0x20 DUP3 ADD SWAP1 POP SWAP2 SWAP1 POP JUMP JUMPDEST PUSH0 PUSH1 0x20 DUP3 ADD SWAP1 POP DUP2 DUP2 SUB PUSH0 DUP4 ADD MSTORE PUSH2 0x4435 DUP2 PUSH2 0x43FC JUMP JUMPDEST SWAP1 POP SWAP2 SWAP1 POP JUMP JUMPDEST PUSH0 PUSH2 0x444E PUSH2 0x4449 DUP5 PUSH2 0x31AF JUMP JUMPDEST PUSH2 0x3195 JUMP JUMPDEST SWAP1 POP DUP3 DUP2 MSTORE PUSH1 0x20 DUP2 ADD DUP5 DUP5 DUP5 ADD GT ISZERO PUSH2 0x446A JUMPI PUSH2 0x4469 PUSH2 0x3133 JUMP JUMPDEST JUMPDEST PUSH2 0x4475 DUP5 DUP3 DUP6 PUSH2 0x2FFC JUMP JUMPDEST POP SWAP4 SWAP3 POP POP POP JUMP JUMPDEST PUSH0 DUP3 PUSH1 0x1F DUP4 ADD SLT PUSH2 0x4491 JUMPI PUSH2 0x4490 PUSH2 0x312F JUMP JUMPDEST JUMPDEST DUP2 MLOAD PUSH2 0x44A1 DUP5 DUP3 PUSH1 0x20 DUP7 ADD PUSH2 0x443C JUMP JUMPDEST SWAP2 POP POP SWAP3 SWAP2 POP POP JUMP JUMPDEST PUSH0 PUSH1 0x20 DUP3 DUP5 SUB SLT ISZERO PUSH2 0x44BF JUMPI PUSH2 0x44BE PUSH2 0x3127 JUMP JUMPDEST JUMPDEST PUSH0 DUP3 ADD MLOAD PUSH8 0xFFFFFFFFFFFFFFFF DUP2 GT ISZERO PUSH2 0x44DC JUMPI PUSH2 0x44DB PUSH2 0x312B JUMP JUMPDEST JUMPDEST PUSH2 0x44E8 DUP5 DUP3 DUP6 ADD PUSH2 0x447D JUMP JUMPDEST SWAP2 POP POP SWAP3 SWAP2 POP POP JUMP JUMPDEST PUSH32 0x746F6B656E206E6F7420617661696C61626C65206F6E20455243323000000000 PUSH0 DUP3 ADD MSTORE POP JUMP JUMPDEST PUSH0 PUSH2 0x4525 PUSH1 0x1C DUP4 PUSH2 0x382E JUMP JUMPDEST SWAP2 POP PUSH2 0x4530 DUP3 PUSH2 0x44F1 JUMP JUMPDEST PUSH1 0x20 DUP3 ADD SWAP1 POP SWAP2 SWAP1 POP JUMP JUMPDEST PUSH0 PUSH1 0x20 DUP3 ADD SWAP1 POP DUP2 DUP2 SUB PUSH0 DUP4 ADD MSTORE PUSH2 0x4552 DUP2 PUSH2 0x4519 JUMP JUMPDEST SWAP1 POP SWAP2 SWAP1 POP JUMP JUMPDEST PUSH2 0x4562 DUP3 PUSH2 0x2FE2 JUMP JUMPDEST PUSH8 0xFFFFFFFFFFFFFFFF DUP2 GT ISZERO PUSH2 0x457B JUMPI PUSH2 0x457A PUSH2 0x3137 JUMP JUMPDEST JUMPDEST PUSH2 0x4585 DUP3 SLOAD PUSH2 0x37D1 JUMP JUMPDEST PUSH2 0x4590 DUP3 DUP3 DUP6 PUSH2 0x3FBC JUMP JUMPDEST PUSH0 PUSH1 0x20 SWAP1 POP PUSH1 0x1F DUP4 GT PUSH1 0x1 DUP2 EQ PUSH2 0x45C1 JUMPI PUSH0 DUP5 ISZERO PUSH2 0x45AF JUMPI DUP3 DUP8 ADD MLOAD SWAP1 POP JUMPDEST PUSH2 0x45B9 DUP6 DUP3 PUSH2 0x402A JUMP JUMPDEST DUP7 SSTORE POP PUSH2 0x4620 JUMP JUMPDEST PUSH1 0x1F NOT DUP5 AND PUSH2 0x45CF DUP7 PUSH2 0x3EB1 JUMP JUMPDEST PUSH0 JUMPDEST DUP3 DUP2 LT ISZERO PUSH2 0x45F6 JUMPI DUP5 DUP10 ADD MLOAD DUP3 SSTORE PUSH1 0x1 DUP3 ADD SWAP2 POP PUSH1 0x20 DUP6 ADD SWAP5 POP PUSH1 0x20 DUP2 ADD SWAP1 POP PUSH2 0x45D1 JUMP JUMPDEST DUP7 DUP4 LT ISZERO PUSH2 0x4613 JUMPI DUP5 DUP10 ADD MLOAD PUSH2 0x460F PUSH1 0x1F DUP10 AND DUP3 PUSH2 0x400E JUMP JUMPDEST DUP4 SSTORE POP JUMPDEST PUSH1 0x1 PUSH1 0x2 DUP9 MUL ADD DUP9 SSTORE POP POP POP JUMPDEST POP POP POP POP POP POP JUMP JUMPDEST PUSH0 PUSH1 0x80 DUP3 ADD SWAP1 POP PUSH2 0x463B PUSH0 DUP4 ADD DUP8 PUSH2 0x3A4C JUMP JUMPDEST DUP2 DUP2 SUB PUSH1 0x20 DUP4 ADD MSTORE PUSH2 0x464D DUP2 DUP7 PUSH2 0x3AD7 JUMP JUMPDEST SWAP1 POP PUSH2 0x465C PUSH1 0x40 DUP4 ADD DUP6 PUSH2 0x3A4C JUMP JUMPDEST PUSH2 0x4669 PUSH1 0x60 DUP4 ADD DUP5 PUSH2 0x332F JUMP JUMPDEST SWAP6 SWAP5 POP POP POP POP POP JUMP JUMPDEST PUSH32 0x696E737566666963656E742066756E647320746F206372656174652061207472 PUSH0 DUP3 ADD MSTORE PUSH32 0x616E736665720000000000000000000000000000000000000000000000000000 PUSH1 0x20 DUP3 ADD MSTORE POP JUMP JUMPDEST PUSH0 PUSH2 0x46CC PUSH1 0x26 DUP4 PUSH2 0x382E JUMP JUMPDEST SWAP2 POP PUSH2 0x46D7 DUP3 PUSH2 0x4672 JUMP JUMPDEST PUSH1 0x40 DUP3 ADD SWAP1 POP SWAP2 SWAP1 POP JUMP JUMPDEST PUSH0 PUSH1 0x20 DUP3 ADD SWAP1 POP DUP2 DUP2 SUB PUSH0 DUP4 ADD MSTORE PUSH2 0x46F9 DUP2 PUSH2 0x46C0 JUMP JUMPDEST SWAP1 POP SWAP2 SWAP1 POP JUMP JUMPDEST PUSH32 0x63616E6E6F74207472616E736665722066756E64732077697468696E20746865 PUSH0 DUP3 ADD MSTORE PUSH32 0x2077616C6C657400000000000000000000000000000000000000000000000000 PUSH1 0x20 DUP3 ADD MSTORE POP JUMP JUMPDEST PUSH0 PUSH2 0x475A PUSH1 0x27 DUP4 PUSH2 0x382E JUMP JUMPDEST SWAP2 POP PUSH2 0x4765 DUP3 PUSH2 0x4700 JUMP JUMPDEST PUSH1 0x40 DUP3 ADD SWAP1 POP SWAP2 SWAP1 POP JUMP JUMPDEST PUSH0 PUSH1 0x20 DUP3 ADD SWAP1 POP DUP2 DUP2 SUB PUSH0 DUP4 ADD MSTORE PUSH2 0x4787 DUP2 PUSH2 0x474E JUMP JUMPDEST SWAP1 POP SWAP2 SWAP1 POP JUMP JUMPDEST PUSH0 DUP2 SWAP1 POP SWAP2 SWAP1 POP JUMP JUMPDEST PUSH0 PUSH2 0x47B1 PUSH2 0x47AC PUSH2 0x47A7 DUP5 PUSH2 0x478E JUMP JUMPDEST PUSH2 0x3D32 JUMP JUMPDEST PUSH2 0x325B JUMP JUMPDEST SWAP1 POP SWAP2 SWAP1 POP JUMP JUMPDEST PUSH2 0x47C1 DUP2 PUSH2 0x4797 JUMP JUMPDEST DUP3 MSTORE POP POP JUMP JUMPDEST PUSH0 PUSH1 0xE0 DUP3 ADD SWAP1 POP DUP2 DUP2 SUB PUSH0 DUP4 ADD MSTORE PUSH2 0x47DF DUP2 DUP11 PUSH2 0x3AD7 JUMP JUMPDEST SWAP1 POP PUSH2 0x47EE PUSH1 0x20 DUP4 ADD DUP10 PUSH2 0x3A4C JUMP JUMPDEST PUSH2 0x47FB PUSH1 0x40 DUP4 ADD DUP9 PUSH2 0x3D7E JUMP JUMPDEST PUSH2 0x4808 PUSH1 0x60 DUP4 ADD DUP8 PUSH2 0x332F JUMP JUMPDEST PUSH2 0x4815 PUSH1 0x80 DUP4 ADD DUP7 PUSH2 0x332F JUMP JUMPDEST PUSH2 0x4822 PUSH1 0xA0 DUP4 ADD DUP6 PUSH2 0x47B8 JUMP JUMPDEST PUSH2 0x482F PUSH1 0xC0 DUP4 ADD DUP5 PUSH2 0x332F JUMP JUMPDEST SWAP9 SWAP8 POP POP POP POP POP POP POP POP JUMP JUMPDEST PUSH0 PUSH1 0x40 DUP3 ADD SWAP1 POP PUSH2 0x484E PUSH0 DUP4 ADD DUP6 PUSH2 0x3D7E JUMP JUMPDEST PUSH2 0x485B PUSH1 0x20 DUP4 ADD DUP5 PUSH2 0x332F JUMP JUMPDEST SWAP4 SWAP3 POP POP POP JUMP INVALID LOG2 PUSH5 0x6970667358 0x22 SLT KECCAK256 0xDC DUP3 STATICCALL 0xBC 0xE5 0xA7 EXP JUMP 0xD4 EXTCODEHASH 0x4C ADDRESS ADDRESS SWAP1 0x27 0x21 0x5C LOG0 0xE8 BASEFEE GAS NOT 0x2C 0xAA 0x2A CREATE2 RETURNDATASIZE LOG3 0xFB SAR 0x1E PUSH25 0x64736F6C634300081600330000000000000000000000000000 "
		},
		"gasEstimates": {
			"creation": {
				"codeDepositCost": "3716800",
				"executionCost": "infinite",
				"totalCost": "infinite"
			},
			"external": {
				"addToken(string,address)": "infinite",
				"addWalletOwner(address)": "infinite",
				"approveTransferRequest(string,uint256)": "infinite",
				"cancelTransferRequest(string,uint256)": "infinite",
				"createTransferRequest(string,address,uint256)": "infinite",
				"deposit(string,uint256)": "infinite",
				"getApprovalLimit()": "2499",
				"getApprovals(uint256)": "2986",
				"getBalance(string)": "infinite",
				"getContractBalance()": "379",
				"getTokenList()": "infinite",
				"getTransferRequests()": "infinite",
				"getWalletOners()": "infinite",
				"removeWalletOwner(address)": "infinite",
				"withdraw(string,uint256)": "infinite"
			},
			"internal": {
				"transferFunds(string memory,uint256)": "infinite"
			}
		},
		"methodIdentifiers": {
			"addToken(string,address)": "b0b22c2c",
			"addWalletOwner(address)": "93dfbd9e",
			"approveTransferRequest(string,uint256)": "4e67d1d6",
			"cancelTransferRequest(string,uint256)": "80735a5a",
			"createTransferRequest(string,address,uint256)": "ce3b3e88",
			"deposit(string,uint256)": "8e27d719",
			"getApprovalLimit()": "7278a1fa",
			"getApprovals(uint256)": "a4e360c8",
			"getBalance(string)": "3a51d246",
			"getContractBalance()": "6f9fb98a",
			"getTokenList()": "273cbaa0",
			"getTransferRequests()": "a04ef145",
			"getWalletOners()": "ce993c77",
			"removeWalletOwner(address)": "aabdc71a",
			"withdraw(string,uint256)": "30b39a62"
		}
	},
	"abi": [
		{
			"inputs": [],
			"stateMutability": "nonpayable",
			"type": "constructor"
		},
		{
			"anonymous": false,
			"inputs": [
				{
					"indexed": false,
					"internalType": "string",
					"name": "ticker",
					"type": "string"
				},
				{
					"indexed": false,
					"internalType": "address",
					"name": "sender",
					"type": "address"
				},
				{
					"indexed": false,
					"internalType": "uint256",
					"name": "amount",
					"type": "uint256"
				},
				{
					"indexed": false,
					"internalType": "uint256",
					"name": "depositId",
					"type": "uint256"
				},
				{
					"indexed": false,
					"internalType": "uint256",
					"name": "timeOfTransaction",
					"type": "uint256"
				}
			],
			"name": "fundsDeposited",
			"type": "event"
		},
		{
			"anonymous": false,
			"inputs": [
				{
					"indexed": false,
					"internalType": "string",
					"name": "ticker",
					"type": "string"
				},
				{
					"indexed": false,
					"internalType": "address",
					"name": "sender",
					"type": "address"
				},
				{
					"indexed": false,
					"internalType": "address",
					"name": "receiver",
					"type": "address"
				},
				{
					"indexed": false,
					"internalType": "uint256",
					"name": "amount",
					"type": "uint256"
				},
				{
					"indexed": false,
					"internalType": "uint256",
					"name": "id",
					"type": "uint256"
				},
				{
					"indexed": false,
					"internalType": "uint256",
					"name": "approvals",
					"type": "uint256"
				},
				{
					"indexed": false,
					"internalType": "uint256",
					"name": "timeOfTransaction",
					"type": "uint256"
				}
			],
			"name": "fundsTransfered",
			"type": "event"
		},
		{
			"anonymous": false,
			"inputs": [
				{
					"indexed": false,
					"internalType": "string",
					"name": "ticker",
					"type": "string"
				},
				{
					"indexed": false,
					"internalType": "address",
					"name": "sender",
					"type": "address"
				},
				{
					"indexed": false,
					"internalType": "uint256",
					"name": "amount",
					"type": "uint256"
				},
				{
					"indexed": false,
					"internalType": "uint256",
					"name": "withdrawalId",
					"type": "uint256"
				},
				{
					"indexed": false,
					"internalType": "uint256",
					"name": "timeOfTransaction",
					"type": "uint256"
				}
			],
			"name": "fundsWithdrawed",
			"type": "event"
		},
		{
			"anonymous": false,
			"inputs": [
				{
					"indexed": false,
					"internalType": "address",
					"name": "addedBy",
					"type": "address"
				},
				{
					"indexed": false,
					"internalType": "string",
					"name": "ticker",
					"type": "string"
				},
				{
					"indexed": false,
					"internalType": "address",
					"name": "tokenAddress",
					"type": "address"
				},
				{
					"indexed": false,
					"internalType": "uint256",
					"name": "timeOfTransaction",
					"type": "uint256"
				}
			],
			"name": "tokenAdded",
			"type": "event"
		},
		{
			"anonymous": false,
			"inputs": [
				{
					"indexed": false,
					"internalType": "string",
					"name": "ticker",
					"type": "string"
				},
				{
					"indexed": false,
					"internalType": "address",
					"name": "sender",
					"type": "address"
				},
				{
					"indexed": false,
					"internalType": "address",
					"name": "receiver",
					"type": "address"
				},
				{
					"indexed": false,
					"internalType": "uint256",
					"name": "amount",
					"type": "uint256"
				},
				{
					"indexed": false,
					"internalType": "uint256",
					"name": "id",
					"type": "uint256"
				},
				{
					"indexed": false,
					"internalType": "uint256",
					"name": "approvals",
					"type": "uint256"
				},
				{
					"indexed": false,
					"internalType": "uint256",
					"name": "timeOfTransaction",
					"type": "uint256"
				}
			],
			"name": "transferApproved",
			"type": "event"
		},
		{
			"anonymous": false,
			"inputs": [
				{
					"indexed": false,
					"internalType": "string",
					"name": "ticker",
					"type": "string"
				},
				{
					"indexed": false,
					"internalType": "address",
					"name": "sender",
					"type": "address"
				},
				{
					"indexed": false,
					"internalType": "address",
					"name": "receiver",
					"type": "address"
				},
				{
					"indexed": false,
					"internalType": "uint256",
					"name": "amount",
					"type": "uint256"
				},
				{
					"indexed": false,
					"internalType": "uint256",
					"name": "id",
					"type": "uint256"
				},
				{
					"indexed": false,
					"internalType": "uint256",
					"name": "approvals",
					"type": "uint256"
				},
				{
					"indexed": false,
					"internalType": "uint256",
					"name": "timeOfTransaction",
					"type": "uint256"
				}
			],
			"name": "transferCancelled",
			"type": "event"
		},
		{
			"anonymous": false,
			"inputs": [
				{
					"indexed": false,
					"internalType": "string",
					"name": "ticker",
					"type": "string"
				},
				{
					"indexed": false,
					"internalType": "address",
					"name": "sender",
					"type": "address"
				},
				{
					"indexed": false,
					"internalType": "address",
					"name": "receiver",
					"type": "address"
				},
				{
					"indexed": false,
					"internalType": "uint256",
					"name": "amount",
					"type": "uint256"
				},
				{
					"indexed": false,
					"internalType": "uint256",
					"name": "id",
					"type": "uint256"
				},
				{
					"indexed": false,
					"internalType": "uint256",
					"name": "approvals",
					"type": "uint256"
				},
				{
					"indexed": false,
					"internalType": "uint256",
					"name": "timeOfTransaction",
					"type": "uint256"
				}
			],
			"name": "transferCreated",
			"type": "event"
		},
		{
			"anonymous": false,
			"inputs": [
				{
					"indexed": false,
					"internalType": "address",
					"name": "addedBy",
					"type": "address"
				},
				{
					"indexed": false,
					"internalType": "address",
					"name": "ownerAdded",
					"type": "address"
				},
				{
					"indexed": false,
					"internalType": "uint256",
					"name": "timeOfTransaction",
					"type": "uint256"
				}
			],
			"name": "walletOwnerAdded",
			"type": "event"
		},
		{
			"anonymous": false,
			"inputs": [
				{
					"indexed": false,
					"internalType": "address",
					"name": "removedBy",
					"type": "address"
				},
				{
					"indexed": false,
					"internalType": "address",
					"name": "ownerRemoved",
					"type": "address"
				},
				{
					"indexed": false,
					"internalType": "uint256",
					"name": "timeOfTransaction",
					"type": "uint256"
				}
			],
			"name": "walletOwnerRemoved",
			"type": "event"
		},
		{
			"inputs": [
				{
					"internalType": "string",
					"name": "ticker",
					"type": "string"
				},
				{
					"internalType": "address",
					"name": "_tokenAddress",
					"type": "address"
				}
			],
			"name": "addToken",
			"outputs": [],
			"stateMutability": "nonpayable",
			"type": "function"
		},
		{
			"inputs": [
				{
					"internalType": "address",
					"name": "owner",
					"type": "address"
				}
			],
			"name": "addWalletOwner",
			"outputs": [],
			"stateMutability": "nonpayable",
			"type": "function"
		},
		{
			"inputs": [
				{
					"internalType": "string",
					"name": "ticker",
					"type": "string"
				},
				{
					"internalType": "uint256",
					"name": "id",
					"type": "uint256"
				}
			],
			"name": "approveTransferRequest",
			"outputs": [],
			"stateMutability": "nonpayable",
			"type": "function"
		},
		{
			"inputs": [
				{
					"internalType": "string",
					"name": "ticker",
					"type": "string"
				},
				{
					"internalType": "uint256",
					"name": "id",
					"type": "uint256"
				}
			],
			"name": "cancelTransferRequest",
			"outputs": [],
			"stateMutability": "nonpayable",
			"type": "function"
		},
		{
			"inputs": [
				{
					"internalType": "string",
					"name": "ticker",
					"type": "string"
				},
				{
					"internalType": "address payable",
					"name": "receiver",
					"type": "address"
				},
				{
					"internalType": "uint256",
					"name": "amount",
					"type": "uint256"
				}
			],
			"name": "createTransferRequest",
			"outputs": [],
			"stateMutability": "nonpayable",
			"type": "function"
		},
		{
			"inputs": [
				{
					"internalType": "string",
					"name": "ticker",
					"type": "string"
				},
				{
					"internalType": "uint256",
					"name": "amount",
					"type": "uint256"
				}
			],
			"name": "deposit",
			"outputs": [],
			"stateMutability": "payable",
			"type": "function"
		},
		{
			"inputs": [],
			"name": "getApprovalLimit",
			"outputs": [
				{
					"internalType": "uint256",
					"name": "",
					"type": "uint256"
				}
			],
			"stateMutability": "view",
			"type": "function"
		},
		{
			"inputs": [
				{
					"internalType": "uint256",
					"name": "id",
					"type": "uint256"
				}
			],
			"name": "getApprovals",
			"outputs": [
				{
					"internalType": "bool",
					"name": "",
					"type": "bool"
				}
			],
			"stateMutability": "view",
			"type": "function"
		},
		{
			"inputs": [
				{
					"internalType": "string",
					"name": "ticker",
					"type": "string"
				}
			],
			"name": "getBalance",
			"outputs": [
				{
					"internalType": "uint256",
					"name": "",
					"type": "uint256"
				}
			],
			"stateMutability": "view",
			"type": "function"
		},
		{
			"inputs": [],
			"name": "getContractBalance",
			"outputs": [
				{
					"internalType": "uint256",
					"name": "",
					"type": "uint256"
				}
			],
			"stateMutability": "view",
			"type": "function"
		},
		{
			"inputs": [],
			"name": "getTokenList",
			"outputs": [
				{
					"internalType": "string[]",
					"name": "",
					"type": "string[]"
				}
			],
			"stateMutability": "view",
			"type": "function"
		},
		{
			"inputs": [],
			"name": "getTransferRequests",
			"outputs": [
				{
					"components": [
						{
							"internalType": "string",
							"name": "ticker",
							"type": "string"
						},
						{
							"internalType": "address",
							"name": "sender",
							"type": "address"
						},
						{
							"internalType": "address payable",
							"name": "receiver",
							"type": "address"
						},
						{
							"internalType": "uint256",
							"name": "amount",
							"type": "uint256"
						},
						{
							"internalType": "uint256",
							"name": "id",
							"type": "uint256"
						},
						{
							"internalType": "uint256",
							"name": "approvals",
							"type": "uint256"
						},
						{
							"internalType": "uint256",
							"name": "timeOfTransaction",
							"type": "uint256"
						}
					],
					"internalType": "struct MultiSigTA.Transfer[]",
					"name": "",
					"type": "tuple[]"
				}
			],
			"stateMutability": "view",
			"type": "function"
		},
		{
			"inputs": [],
			"name": "getWalletOners",
			"outputs": [
				{
					"internalType": "address[]",
					"name": "",
					"type": "address[]"
				}
			],
			"stateMutability": "view",
			"type": "function"
		},
		{
			"inputs": [
				{
					"internalType": "address",
					"name": "owner",
					"type": "address"
				}
			],
			"name": "removeWalletOwner",
			"outputs": [],
			"stateMutability": "nonpayable",
			"type": "function"
		},
		{
			"inputs": [
				{
					"internalType": "string",
					"name": "ticker",
					"type": "string"
				},
				{
					"internalType": "uint256",
					"name": "amount",
					"type": "uint256"
				}
			],
			"name": "withdraw",
			"outputs": [],
			"stateMutability": "nonpayable",
			"type": "function"
		}
	]
}