{
	"data": {
		"bytecode": {
			"linkReferences": {},
			"object": "608060405234801561000f575f80fd5b506135e18061001d5f395ff3fe608060405234801561000f575f80fd5b506004361061004a575f3560e01c8063178f0d1c1461004e578063269ae8b114610058578063628bf691146100b4578063bba4c191146100c7575b5f80fd5b6100566100f0565b005b6100566100663660046103e9565b6001600160a01b039182165f90815260026020908152604080832081518084019092529385168152835460018101855593835291209051910180546001600160a01b03191691909216179055565b6100566100c23660046103e9565b6101e6565b6100da6100d536600461041a565b610346565b6040516100e7919061043a565b60405180910390f35b5f6040516100fd906103c1565b604051809103905ff080158015610116573d5f803e3d5ffd5b506001805480820182557fb10e2d527612073b26eecdfd717e6a320cf44b4afac2b0732d9fcbe2b7fa0cf60180546001600160a01b03199081166001600160a01b03858116918217909355335f818152600260209081526040808320815180840183528681528154998a01825581855293839020935193909801805490961692909616919091179093558351908152918201524291810191909152919250907f1a2698dc5bd1bd6d650d32c89dfb3f17ab62efa16d3795786a690e48f9cdf9fe9060600160405180910390a15050565b6001600160a01b0382165f9081526002602052604081209080805b835481101561025357846001600160a01b031684828154811061022657610226610487565b5f918252602090912001546001600160a01b03160361024b5760019250809150610253565b600101610201565b506001821515146102aa5760405162461bcd60e51b815260206004820152601c60248201527f77616c6c6574206f776e657220746964616b2074657264657465637400000000604482015260640160405180910390fd5b825483906102ba9060019061049b565b815481106102ca576102ca610487565b905f5260205f20018382815481106102e4576102e4610487565b5f91825260209091209154910180546001600160a01b0319166001600160a01b03909216919091179055825483908061031f5761031f6104c0565b5f8281526020902081015f1990810180546001600160a01b03191690550190555050505050565b6001600160a01b0381165f908152600260209081526040808320805482518185028101850190935280835260609492939192909184015b828210156103b6575f84815260209081902060408051808401909152908401546001600160a01b0316815282526001909201910161037d565b505050509050919050565b6130d7806104d583390190565b80356001600160a01b03811681146103e4575f80fd5b919050565b5f80604083850312156103fa575f80fd5b610403836103ce565b9150610411602084016103ce565b90509250929050565b5f6020828403121561042a575f80fd5b610433826103ce565b9392505050565b602080825282518282018190525f9190848201906040850190845b8181101561047b578351516001600160a01b031683529284019291840191600101610455565b50909695505050505050565b634e487b7160e01b5f52603260045260245ffd5b818103818111156104ba57634e487b7160e01b5f52601160045260245ffd5b92915050565b634e487b7160e01b5f52603160045260245ffdfe60806040525f6004555f6005555f6006553480156200001c575f80fd5b505f8054336001600160a01b0319918216811783556002805460018181018355948290527f405787fa12a823e0f2b7631cc41b3ba8828b3321ca811111fa75cd3aa3bb5ace018054909316909117909155546200007a9190620000dd565b6003908155600780546001810182555f91909152604080518082019091529182526208aa8960eb1b60208301527fa66cc928b5edb82af9bd49922954155ab7b0942694bea4ce44661d9a8736c6880190620000d69082620001a1565b506200026d565b81810381811115620000fd57634e487b7160e01b5f52601160045260245ffd5b92915050565b634e487b7160e01b5f52604160045260245ffd5b600181811c908216806200012c57607f821691505b6020821081036200014b57634e487b7160e01b5f52602260045260245ffd5b50919050565b601f8211156200019c57805f5260205f20601f840160051c81016020851015620001785750805b601f840160051c820191505b8181101562000199575f815560010162000184565b50505b505050565b81516001600160401b03811115620001bd57620001bd62000103565b620001d581620001ce845462000117565b8462000151565b602080601f8311600181146200020b575f8415620001f35750858301515b5f19600386901b1c1916600185901b17855562000265565b5f85815260208120601f198616915b828110156200023b578886015182559484019460019091019084016200021a565b50858210156200025957878501515f19600388901b60f8161c191681555b505060018460011b0185555b505050505050565b612e5c806200027b5f395ff3fe6080604052600436106100e4575f3560e01c806380735a5a11610087578063a04ef14511610057578063a04ef14514610236578063a4e360c814610257578063b0b22c2c146102a0578063ce3b3e88146102bf575f80fd5b806380735a5a146101c45780638a94d416146101e35780638e27d719146102045780638f03144314610217575f80fd5b80634071e6d9116100c25780634071e6d9146101605780634e67d1d61461017f5780636f9fb98a1461019e5780637278a1fa146101b0575f80fd5b8063273cbaa0146100e857806330b39a62146101125780633a51d24614610133575b5f80fd5b3480156100f3575f80fd5b506100fc6102de565b604051610109919061253a565b60405180910390f35b34801561011d575f80fd5b5061013161012c36600461265a565b6103b2565b005b34801561013e575f80fd5b5061015261014d36600461269c565b61071e565b604051908152602001610109565b34801561016b575f80fd5b5061013161017a3660046126ea565b610750565b34801561018a575f80fd5b5061013161019936600461265a565b61098d565b3480156101a9575f80fd5b5047610152565b3480156101bb575f80fd5b50600354610152565b3480156101cf575f80fd5b506101316101de36600461265a565b610d37565b3480156101ee575f80fd5b506101f7611150565b6040516101099190612732565b61013161021236600461265a565b6111b0565b348015610222575f80fd5b506101316102313660046126ea565b611535565b348015610241575f80fd5b5061024a6116fa565b604051610109919061277e565b348015610262575f80fd5b50610290610271366004612833565b335f908152600960209081526040808320938352929052205460ff1690565b6040519015158152602001610109565b3480156102ab575f80fd5b506101316102ba36600461284a565b6118ae565b3480156102ca575f80fd5b506101316102d9366004612899565b611b6c565b60606007805480602002602001604051908101604052809291908181526020015f905b828210156103a9578382905f5260205f2001805461031e906128ef565b80601f016020809104026020016040519081016040528092919081815260200182805461034a906128ef565b80156103955780601f1061036c57610100808354040283529160200191610395565b820191905f5260205f20905b81548152906001019060200180831161037857829003601f168201915b505050505081526020019060010190610301565b50505050905090565b5f805b60025481101561040657336001600160a01b0316600282815481106103dc576103dc612927565b5f918252602090912001546001600160a01b0316036103fe5760019150610406565b6001016103b5565b506001811515146104325760405162461bcd60e51b81526004016104299061293b565b60405180910390fd5b335f9081526008602052604090819020905183919061045290869061298f565b90815260200160405180910390205410156104a55760405162461bcd60e51b8152602060048201526013602482015272062616c616e636520746964616b2063756b757606c1b6044820152606401610429565b335f908152600a602052604090205460ff16156105005760405162461bcd60e51b815260206004820152601960248201527870726f73657320736564616e67206265726c616e6773756e6760381b6044820152606401610429565b335f908152600a60209081526040808320805460ff19166001179055600890915290819020905183919061053590869061298f565b90815260200160405180910390205f82825461055191906129be565b909155505060408051808201909152600381526208aa8960eb1b6020918201528351908401207f55514145c7ef4e1948f87e0eb4d28d3e34763f4d4cdf3bc449800860a9d0a00c016105cd57604051339083156108fc029084905f818181858888f193505050501580156105c7573d5f803e3d5ffd5b506106af565b5f6001600160a01b0316600b846040516105e7919061298f565b908152604051908190036020019020600101546001600160a01b0316036106205760405162461bcd60e51b8152600401610429906129d7565b600b83604051610630919061298f565b9081526040519081900360200181206001015463a9059cbb60e01b8252336004830152602482018490526001600160a01b03169063a9059cbb906044016020604051808303815f875af1158015610689573d5f803e3d5ffd5b505050506040513d601f19601f820116820180604052508101906106ad9190612a05565b505b7f6a647eacc9e98792655e8dba08e3167440b93e02ef76e8e3330fa10a27b4ecbf833384600554426040516106e8959493929190612a2b565b60405180910390a1335f908152600a60205260408120805460ff19169055600580549161071483612a6a565b9190505550505050565b335f90815260086020526040808220905161073a90849061298f565b9081526020016040518091039020549050919050565b5f805b6002548110156107a457336001600160a01b03166002828154811061077a5761077a612927565b5f918252602090912001546001600160a01b03160361079c57600191506107a4565b600101610753565b506001811515146107c75760405162461bcd60e51b81526004016104299061293b565b5f80805b60025481101561081f57866001600160a01b0316600282815481106107f2576107f2612927565b5f918252602090912001546001600160a01b031603610817576001925080915061081f565b6001016107cb565b506001821515146108725760405162461bcd60e51b815260206004820152601c60248201527f77616c6c6574206f776e657220746964616b20746572646574656374000000006044820152606401610429565b60028054610882906001906129be565b8154811061089257610892612927565b5f91825260209091200154600280546001600160a01b0390921691839081106108bd576108bd612927565b905f5260205f20015f6101000a8154816001600160a01b0302191690836001600160a01b0316021790555060028054806108f9576108f9612a82565b5f8281526020902081015f1990810180546001600160a01b0319169055019055600254610928906001906129be565b600355604080513381526001600160a01b0388166020820152428183015290517fd1f329271e4a98b0181a7d91618a0a5de6f42a1aaf4c1362493d829eaf405a8a9181900360600190a161097b85611f3c565b6109858685611f5e565b505050505050565b5f805b6002548110156109e157336001600160a01b0316600282815481106109b7576109b7612927565b5f918252602090912001546001600160a01b0316036109d957600191506109e1565b600101610990565b50600181151514610a045760405162461bcd60e51b81526004016104299061293b565b5f805f5b600c54811015610a595784600c8281548110610a2657610a26612927565b905f5260205f2090600702016004015403610a445760019250610a59565b81610a4e81612a6a565b925050600101610a08565b5081610a775760405162461bcd60e51b815260040161042990612a96565b335f90815260096020908152604080832087845290915290205460ff1615610b075760405162461bcd60e51b815260206004820152603960248201527f746964616b20646170617420617070726f76652070616461207472616e73616b60448201527f7369207472616e73666572206b65647561206b616c696e7961000000000000006064820152608401610429565b336001600160a01b0316600c8281548110610b2457610b24612927565b5f9182526020909120600160079092020101546001600160a01b031603610ba25760405162461bcd60e51b815260206004820152602c60248201527f746964616b20646170617420617070726f76652070616461207472616e73616360448201526b74696f6e207072696261646960a01b6064820152608401610429565b335f9081526009602090815260408083208784529091529020805460ff19166001179055600c805482908110610bda57610bda612927565b5f91825260208220600560079092020101805491610bf783612a6a565b91905055507fead8052a59bd99f1b0115f4da8e862ebc15be06d11ad168b737b8e6dae0886c88533600c8481548110610c3257610c32612927565b905f5260205f2090600702016002015f9054906101000a90046001600160a01b0316600c8581548110610c6757610c67612927565b905f5260205f20906007020160030154600c8681548110610c8a57610c8a612927565b905f5260205f20906007020160040154600c8781548110610cad57610cad612927565b905f5260205f20906007020160050154600c8881548110610cd057610cd0612927565b905f5260205f20906007020160060154604051610cf39796959493929190612ade565b60405180910390a1600354600c8281548110610d1157610d11612927565b905f5260205f2090600702016005015403610d3057610d308582611fc8565b5050505050565b5f805b600254811015610d8b57336001600160a01b031660028281548110610d6157610d61612927565b5f918252602090912001546001600160a01b031603610d835760019150610d8b565b600101610d3a565b50600181151514610dae5760405162461bcd60e51b81526004016104299061293b565b5f805f5b600c54811015610e035784600c8281548110610dd057610dd0612927565b905f5260205f2090600702016004015403610dee5760019250610e03565b81610df881612a6a565b925050600101610db2565b50336001600160a01b0316600c8281548110610e2157610e21612927565b5f9182526020909120600160079092020101546001600160a01b031614610e5a5760405162461bcd60e51b815260040161042990612a96565b81610ea75760405162461bcd60e51b815260206004820152601f60248201527f7472616e73666572207265717565737420746964616b207465727365646961006044820152606401610429565b600c8181548110610eba57610eba612927565b905f5260205f2090600702016003015460085f336001600160a01b03166001600160a01b031681526020019081526020015f2086604051610efb919061298f565b90815260200160405180910390205f828254610f179190612b2a565b9091555050600c8054610f2c906001906129be565b81548110610f3c57610f3c612927565b905f5260205f209060070201600c8281548110610f5b57610f5b612927565b5f918252602090912060079091020180610f758382612b86565b5060018281015490820180546001600160a01b039283166001600160a01b0319918216179091556002808501549084018054919093169116179055600380830154908201556004808301549082015560058083015490820155600691820154910155600c80547f88ac4e01306872c0a5f289baf13af804eedb981db2018261cf8afed94bd9e19b9187913391908590811061101257611012612927565b905f5260205f2090600702016002015f9054906101000a90046001600160a01b0316600c858154811061104757611047612927565b905f5260205f20906007020160030154600c868154811061106a5761106a612927565b905f5260205f20906007020160040154600c878154811061108d5761108d612927565b905f5260205f20906007020160050154600c88815481106110b0576110b0612927565b905f5260205f209060070201600601546040516110d39796959493929190612ade565b60405180910390a1600c8054806110ec576110ec612a82565b5f828152602081205f199092019160078302019061110a828261249f565b506001810180546001600160a01b031990811690915560028201805490911690555f60038201819055600482018190556005820181905560069091015590555050505050565b606060028054806020026020016040519081016040528092919081815260200182805480156111a657602002820191905f5260205f20905b81546001600160a01b03168152600190910190602001808311611188575b5050505050905090565b5f805b60025481101561120457336001600160a01b0316600282815481106111da576111da612927565b5f918252602090912001546001600160a01b0316036111fc5760019150611204565b6001016111b3565b506001811515146112275760405162461bcd60e51b81526004016104299061293b565b335f90815260086020526040808220905161124390869061298f565b90815260200160405180910390205410156112a05760405162461bcd60e51b815260206004820152601b60248201527f746964616b206461706174206465706f7369742076616c7565203000000000006044820152606401610429565b335f908152600a602052604090205460ff16156112fb5760405162461bcd60e51b815260206004820152601960248201527870726f73657320736564616e67206265726c616e6773756e6760381b6044820152606401610429565b335f908152600a6020908152604091829020805460ff191660011790558151808301909252600382526208aa8960eb1b918101919091528351908401207f55514145c7ef4e1948f87e0eb4d28d3e34763f4d4cdf3bc449800860a9d0a00c016113a657335f908152600860205260409081902090516208aa8960eb1b815234919060030190815260200160405180910390205f82825461139b9190612b2a565b909155506114d09050565b5f6001600160a01b0316600b846040516113c0919061298f565b908152604051908190036020019020600101546001600160a01b0316036113f95760405162461bcd60e51b8152600401610429906129d7565b335f9081526008602052604090819020905183919061141990869061298f565b90815260200160405180910390205f8282546114359190612b2a565b9091555050604051600b9061144b90859061298f565b908152604051908190036020018120600101546323b872dd60e01b8252336004830152306024830152604482018490526001600160a01b0316906323b872dd906064016020604051808303815f875af11580156114aa573d5f803e3d5ffd5b505050506040513d601f19601f820116820180604052508101906114ce9190612a05565b505b7f41751252894a74bd975de630158c4e47bb25c36d9ce7ad90383d86d391d2be1283333460045442604051611509959493929190612a2b565b60405180910390a1335f908152600a60205260408120805460ff19169055600480549161071483612a6a565b5f805b60025481101561158957336001600160a01b03166002828154811061155f5761155f612927565b5f918252602090912001546001600160a01b0316036115815760019150611589565b600101611538565b506001811515146115ac5760405162461bcd60e51b81526004016104299061293b565b5f5b60025481101561163e57846001600160a01b0316600282815481106115d5576115d5612927565b5f918252602090912001546001600160a01b0316036116365760405162461bcd60e51b815260206004820152601b60248201527f63616e6e6f7420616464206475706c6963617465206f776e65727300000000006044820152606401610429565b6001016115ae565b5060028054600180820183555f8390527f405787fa12a823e0f2b7631cc41b3ba8828b3321ca811111fa75cd3aa3bb5ace90910180546001600160a01b0319166001600160a01b038816179055905461169791906129be565b600355604080513381526001600160a01b0386166020820152428183015290517f43abcff3409244ec1056224394af5f818e9a74866f0a11bfee2ad52f68ad6fb99181900360600190a16116ea83611f3c565b6116f48483612463565b50505050565b60605f805b60025481101561175057336001600160a01b03166002828154811061172657611726612927565b5f918252602090912001546001600160a01b0316036117485760019150611750565b6001016116ff565b506001811515146117735760405162461bcd60e51b81526004016104299061293b565b600c805480602002602001604051908101604052809291908181526020015f905b828210156118a3578382905f5260205f2090600702016040518060e00160405290815f820180546117c4906128ef565b80601f01602080910402602001604051908101604052809291908181526020018280546117f0906128ef565b801561183b5780601f106118125761010080835404028352916020019161183b565b820191905f5260205f20905b81548152906001019060200180831161181e57829003601f168201915b50505091835250506001828101546001600160a01b03908116602080850191909152600285015490911660408401526003840154606084015260048401546080840152600584015460a084015260069093015460c09092019190915291835292019101611794565b5050505091505b5090565b5f805b60025481101561190257336001600160a01b0316600282815481106118d8576118d8612927565b5f918252602090912001546001600160a01b0316036118fa5760019150611902565b6001016118b1565b506001811515146119255760405162461bcd60e51b81526004016104299061293b565b5f5b6007548110156119be5783805190602001206007828154811061194c5761194c612927565b905f5260205f20016040516119619190612c5b565b6040518091039020036119b65760405162461bcd60e51b815260206004820152601f60248201527f746964616b2064617061742061646420746f6b656e73206475706c696b6174006044820152606401610429565b600101611927565b508280519060200120826001600160a01b03166395d89b416040518163ffffffff1660e01b81526004015f60405180830381865afa158015611a02573d5f803e3d5ffd5b505050506040513d5f823e601f3d908101601f19168201604052611a299190810190612ccd565b8051906020012014611a7d5760405162461bcd60e51b815260206004820152601f60248201527f746f6b656e20746964616b2074657273656469612070616461204552433230006044820152606401610429565b6040518060400160405280848152602001836001600160a01b0316815250600b84604051611aab919061298f565b90815260405190819003602001902081518190611ac89082612d3f565b5060209190910151600191820180546001600160a01b0319166001600160a01b039092169190911790556007805491820181555f527fa66cc928b5edb82af9bd49922954155ab7b0942694bea4ce44661d9a8736c68801611b298482612d3f565b507fe6887a88bb2477605d9b68e33f64a263587018a6a232f3b234ba1b78c96b84f233848442604051611b5f9493929190612df3565b60405180910390a1505050565b5f805b600254811015611bc057336001600160a01b031660028281548110611b9657611b96612927565b5f918252602090912001546001600160a01b031603611bb85760019150611bc0565b600101611b6f565b50600181151514611be35760405162461bcd60e51b81526004016104299061293b565b60408051808201909152600381526208aa8960eb1b60209182015284519085012084907faaaebeba3810b1e6b70781f14b2d72c1cb89c0b2b320c43bb67ff79f562f5ff414611c7f575f6001600160a01b0316600b82604051611c46919061298f565b908152604051908190036020019020600101546001600160a01b031603611c7f5760405162461bcd60e51b8152600401610429906129d7565b335f90815260086020526040908190209051849190611c9f90889061298f565b9081526020016040518091039020541015611d0c5760405162461bcd60e51b815260206004820152602760248201527f66756e647320746964616b2063756b757020756e74756b2063726561746520746044820152663930b739b332b960c91b6064820152608401610429565b5f5b600254811015611db457846001600160a01b031660028281548110611d3557611d35612927565b5f918252602090912001546001600160a01b031603611dac5760405162461bcd60e51b815260206004820152602d60248201527f746964616b2062697361207472616e736665722066756e64732070616461207760448201526c616c6c6574207072696261646960981b6064820152608401610429565b600101611d0e565b50335f90815260086020526040908190209051849190611dd590889061298f565b90815260200160405180910390205f828254611df191906129be565b90915550506040805160e0810182528681523360208201526001600160a01b038616918101919091526060810184905260065460808201525f60a082018190524260c0830152600c80546001810182559152815160079091027fdf6966c971051c3d54ec59162606531493a51404a002842f56009d7e5cf4a8c701908190611e799082612d3f565b5060208201516001820180546001600160a01b039283166001600160a01b0319918216179091556040840151600284018054919093169116179055606082015160038201556080820151600482015560a0820151600582015560c0909101516006918201558054905f611eeb83612a6a565b91905055507f9cc5df05955d08828d561f92ad3f6b82c78a55cf7d3dedacffacc4f694faf9be853386866006545f42604051611f2d9796959493929190612ade565b60405180910390a15050505050565b600180546001600160a01b0319166001600160a01b0392909216919091179055565b60015460405163628bf69160e01b81526001600160a01b038481166004830152838116602483015290911690819063628bf691906044015b5f604051808303815f87803b158015611fad575f80fd5b505af1158015611fbf573d5f803e3d5ffd5b50505050505050565b600c8181548110611fdb57611fdb612927565b905f5260205f2090600702016003015460085f600c848154811061200157612001612927565b5f9182526020808320600260079093020191909101546001600160a01b031683528201929092526040908101909120905161203d90859061298f565b90815260200160405180910390205f8282546120599190612b2a565b909155505060408051808201909152600381526208aa8960eb1b6020918201528251908301207f55514145c7ef4e1948f87e0eb4d28d3e34763f4d4cdf3bc449800860a9d0a00c0161213757600c81815481106120b8576120b8612927565b905f5260205f2090600702016002015f9054906101000a90046001600160a01b03166001600160a01b03166108fc600c83815481106120f9576120f9612927565b905f5260205f2090600702016003015490811502906040515f60405180830381858888f19350505050158015612131573d5f803e3d5ffd5b50612237565b600b82604051612147919061298f565b90815260405190819003602001902060010154600c80546001600160a01b039092169163a9059cbb91908490811061218157612181612927565b905f5260205f2090600702016002015f9054906101000a90046001600160a01b0316600c84815481106121b6576121b6612927565b5f9182526020909120600360079092020101546040516001600160e01b031960e085901b1681526001600160a01b03909216600483015260248201526044016020604051808303815f875af1158015612211573d5f803e3d5ffd5b505050506040513d601f19601f820116820180604052508101906122359190612a05565b505b7fdeea4c72b502b4bd7dce3c793e57c46bb32f3b2f66613d54a765e7585f520a2c8233600c848154811061226d5761226d612927565b905f5260205f2090600702016002015f9054906101000a90046001600160a01b0316600c85815481106122a2576122a2612927565b905f5260205f20906007020160030154600c86815481106122c5576122c5612927565b905f5260205f20906007020160040154600c87815481106122e8576122e8612927565b905f5260205f20906007020160050154600c888154811061230b5761230b612927565b905f5260205f2090600702016006015460405161232e9796959493929190612ade565b60405180910390a1600c8054612346906001906129be565b8154811061235657612356612927565b905f5260205f209060070201600c828154811061237557612375612927565b5f91825260209091206007909102018061238f8382612b86565b5060018281015490820180546001600160a01b039283166001600160a01b0319918216179091556002808501549084018054919093169116179055600380830154908201556004808301549082015560058083015490820155600691820154910155600c80548061240257612402612a82565b5f828152602081205f1990920191600783020190612420828261249f565b506001810180546001600160a01b031990811690915560028201805490911690555f60038201819055600482018190556005820181905560069091015590555050565b60015460405163269ae8b160e01b81526001600160a01b038481166004830152838116602483015290911690819063269ae8b190604401611f96565b5080546124ab906128ef565b5f825580601f106124ba575050565b601f0160209004905f5260205f20908101906124d691906124d9565b50565b5b808211156118aa575f81556001016124da565b5f5b838110156125075781810151838201526020016124ef565b50505f910152565b5f81518084526125268160208601602086016124ed565b601f01601f19169290920160200192915050565b5f60208083016020845280855180835260408601915060408160051b8701019250602087015f5b8281101561258f57603f1988860301845261257d85835161250f565b94509285019290850190600101612561565b5092979650505050505050565b634e487b7160e01b5f52604160045260245ffd5b604051601f8201601f1916810167ffffffffffffffff811182821017156125d9576125d961259c565b604052919050565b5f67ffffffffffffffff8211156125fa576125fa61259c565b50601f01601f191660200190565b5f82601f830112612617575f80fd5b813561262a612625826125e1565b6125b0565b81815284602083860101111561263e575f80fd5b816020850160208301375f918101602001919091529392505050565b5f806040838503121561266b575f80fd5b823567ffffffffffffffff811115612681575f80fd5b61268d85828601612608565b95602094909401359450505050565b5f602082840312156126ac575f80fd5b813567ffffffffffffffff8111156126c2575f80fd5b6126ce84828501612608565b949350505050565b6001600160a01b03811681146124d6575f80fd5b5f805f606084860312156126fc575f80fd5b8335612707816126d6565b92506020840135612717816126d6565b91506040840135612727816126d6565b809150509250925092565b602080825282518282018190525f9190848201906040850190845b818110156127725783516001600160a01b03168352928401929184019160010161274d565b50909695505050505050565b5f60208083018184528085518083526040925060408601915060408160051b8701018488015f5b8381101561282557603f19898403018552815160e081518186526127cb8287018261250f565b838b01516001600160a01b03908116888d01528a850151168a880152606080850151908801526080808501519088015260a0808501519088015260c0938401519390960192909252505093860193908601906001016127a5565b509098975050505050505050565b5f60208284031215612843575f80fd5b5035919050565b5f806040838503121561285b575f80fd5b823567ffffffffffffffff811115612871575f80fd5b61287d85828601612608565b925050602083013561288e816126d6565b809150509250929050565b5f805f606084860312156128ab575f80fd5b833567ffffffffffffffff8111156128c1575f80fd5b6128cd86828701612608565b93505060208401356128de816126d6565b929592945050506040919091013590565b600181811c9082168061290357607f821691505b60208210810361292157634e487b7160e01b5f52602260045260245ffd5b50919050565b634e487b7160e01b5f52603260045260245ffd5b60208082526034908201527f68616e79612077616c6c6574206f776e6572732079616e672062697361206d656040820152736d616e6767696c2066756e6374696f6e20696e6960601b606082015260800190565b5f82516129a08184602087016124ed565b9190910192915050565b634e487b7160e01b5f52601160045260245ffd5b818103818111156129d1576129d16129aa565b92915050565b602080825260149082015273746f6b656e20746964616b20746572736564696160601b604082015260600190565b5f60208284031215612a15575f80fd5b81518015158114612a24575f80fd5b9392505050565b60a081525f612a3d60a083018861250f565b6001600160a01b039690961660208301525060408101939093526060830191909152608090910152919050565b5f60018201612a7b57612a7b6129aa565b5060010190565b634e487b7160e01b5f52603160045260245ffd5b60208082526028908201527f68616e7961207472616e736665722063726561746f722079616e6720646170616040820152671d0818d85b98d95b60c21b606082015260800190565b60e081525f612af060e083018a61250f565b6001600160a01b0398891660208401529690971660408201526060810194909452608084019290925260a083015260c09091015292915050565b808201808211156129d1576129d16129aa565b601f821115612b8157805f5260205f20601f840160051c81016020851015612b625750805b601f840160051c820191505b81811015610d30575f8155600101612b6e565b505050565b818103612b91575050565b612b9b82546128ef565b67ffffffffffffffff811115612bb357612bb361259c565b612bc781612bc184546128ef565b84612b3d565b5f601f821160018114612bf8575f8315612be15750848201545b5f19600385901b1c1916600184901b178455610d30565b5f8581526020808220868352908220601f198616925b83811015612c2e5782860154825560019586019590910190602001612c0e565b5085831015612c4b57818501545f19600388901b60f8161c191681555b5050505050600190811b01905550565b5f808354612c68816128ef565b60018281168015612c805760018114612c9557612cc1565b60ff1984168752821515830287019450612cc1565b875f526020805f205f5b85811015612cb85781548a820152908401908201612c9f565b50505082870194505b50929695505050505050565b5f60208284031215612cdd575f80fd5b815167ffffffffffffffff811115612cf3575f80fd5b8201601f81018413612d03575f80fd5b8051612d11612625826125e1565b818152856020838501011115612d25575f80fd5b612d368260208301602086016124ed565b95945050505050565b815167ffffffffffffffff811115612d5957612d5961259c565b612d6781612bc184546128ef565b602080601f831160018114612d9a575f8415612d835750858301515b5f19600386901b1c1916600185901b178555610985565b5f85815260208120601f198616915b82811015612dc857888601518255948401946001909101908401612da9565b5085821015612c4b5793909601515f1960f8600387901b161c19169092555050600190811b01905550565b5f60018060a01b03808716835260806020840152612e14608084018761250f565b9416604083015250606001529291505056fea2646970667358221220ee9bc6b89fea9fb52249ed04a2a55a529273bf8a11e7e98d8f0821aa0f27002e64736f6c63430008160033a2646970667358221220bb63d9b48e9f7fddcd9d125e316f2c4c93e0f2be3e6df1239a0862cc7fa742ca64736f6c63430008160033",
			"opcodes": "PUSH1 0x80 PUSH1 0x40 MSTORE CALLVALUE DUP1 ISZERO PUSH2 0xF JUMPI PUSH0 DUP1 REVERT JUMPDEST POP PUSH2 0x35E1 DUP1 PUSH2 0x1D PUSH0 CODECOPY PUSH0 RETURN INVALID PUSH1 0x80 PUSH1 0x40 MSTORE CALLVALUE DUP1 ISZERO PUSH2 0xF JUMPI PUSH0 DUP1 REVERT JUMPDEST POP PUSH1 0x4 CALLDATASIZE LT PUSH2 0x4A JUMPI PUSH0 CALLDATALOAD PUSH1 0xE0 SHR DUP1 PUSH4 0x178F0D1C EQ PUSH2 0x4E JUMPI DUP1 PUSH4 0x269AE8B1 EQ PUSH2 0x58 JUMPI DUP1 PUSH4 0x628BF691 EQ PUSH2 0xB4 JUMPI DUP1 PUSH4 0xBBA4C191 EQ PUSH2 0xC7 JUMPI JUMPDEST PUSH0 DUP1 REVERT JUMPDEST PUSH2 0x56 PUSH2 0xF0 JUMP JUMPDEST STOP JUMPDEST PUSH2 0x56 PUSH2 0x66 CALLDATASIZE PUSH1 0x4 PUSH2 0x3E9 JUMP JUMPDEST PUSH1 0x1 PUSH1 0x1 PUSH1 0xA0 SHL SUB SWAP2 DUP3 AND PUSH0 SWAP1 DUP2 MSTORE PUSH1 0x2 PUSH1 0x20 SWAP1 DUP2 MSTORE PUSH1 0x40 DUP1 DUP4 KECCAK256 DUP2 MLOAD DUP1 DUP5 ADD SWAP1 SWAP3 MSTORE SWAP4 DUP6 AND DUP2 MSTORE DUP4 SLOAD PUSH1 0x1 DUP2 ADD DUP6 SSTORE SWAP4 DUP4 MSTORE SWAP2 KECCAK256 SWAP1 MLOAD SWAP2 ADD DUP1 SLOAD PUSH1 0x1 PUSH1 0x1 PUSH1 0xA0 SHL SUB NOT AND SWAP2 SWAP1 SWAP3 AND OR SWAP1 SSTORE JUMP JUMPDEST PUSH2 0x56 PUSH2 0xC2 CALLDATASIZE PUSH1 0x4 PUSH2 0x3E9 JUMP JUMPDEST PUSH2 0x1E6 JUMP JUMPDEST PUSH2 0xDA PUSH2 0xD5 CALLDATASIZE PUSH1 0x4 PUSH2 0x41A JUMP JUMPDEST PUSH2 0x346 JUMP JUMPDEST PUSH1 0x40 MLOAD PUSH2 0xE7 SWAP2 SWAP1 PUSH2 0x43A JUMP JUMPDEST PUSH1 0x40 MLOAD DUP1 SWAP2 SUB SWAP1 RETURN JUMPDEST PUSH0 PUSH1 0x40 MLOAD PUSH2 0xFD SWAP1 PUSH2 0x3C1 JUMP JUMPDEST PUSH1 0x40 MLOAD DUP1 SWAP2 SUB SWAP1 PUSH0 CREATE DUP1 ISZERO DUP1 ISZERO PUSH2 0x116 JUMPI RETURNDATASIZE PUSH0 DUP1 RETURNDATACOPY RETURNDATASIZE PUSH0 REVERT JUMPDEST POP PUSH1 0x1 DUP1 SLOAD DUP1 DUP3 ADD DUP3 SSTORE PUSH32 0xB10E2D527612073B26EECDFD717E6A320CF44B4AFAC2B0732D9FCBE2B7FA0CF6 ADD DUP1 SLOAD PUSH1 0x1 PUSH1 0x1 PUSH1 0xA0 SHL SUB NOT SWAP1 DUP2 AND PUSH1 0x1 PUSH1 0x1 PUSH1 0xA0 SHL SUB DUP6 DUP2 AND SWAP2 DUP3 OR SWAP1 SWAP4 SSTORE CALLER PUSH0 DUP2 DUP2 MSTORE PUSH1 0x2 PUSH1 0x20 SWAP1 DUP2 MSTORE PUSH1 0x40 DUP1 DUP4 KECCAK256 DUP2 MLOAD DUP1 DUP5 ADD DUP4 MSTORE DUP7 DUP2 MSTORE DUP2 SLOAD SWAP10 DUP11 ADD DUP3 SSTORE DUP2 DUP6 MSTORE SWAP4 DUP4 SWAP1 KECCAK256 SWAP4 MLOAD SWAP4 SWAP1 SWAP9 ADD DUP1 SLOAD SWAP1 SWAP7 AND SWAP3 SWAP1 SWAP7 AND SWAP2 SWAP1 SWAP2 OR SWAP1 SWAP4 SSTORE DUP4 MLOAD SWAP1 DUP2 MSTORE SWAP2 DUP3 ADD MSTORE TIMESTAMP SWAP2 DUP2 ADD SWAP2 SWAP1 SWAP2 MSTORE SWAP2 SWAP3 POP SWAP1 PUSH32 0x1A2698DC5BD1BD6D650D32C89DFB3F17AB62EFA16D3795786A690E48F9CDF9FE SWAP1 PUSH1 0x60 ADD PUSH1 0x40 MLOAD DUP1 SWAP2 SUB SWAP1 LOG1 POP POP JUMP JUMPDEST PUSH1 0x1 PUSH1 0x1 PUSH1 0xA0 SHL SUB DUP3 AND PUSH0 SWAP1 DUP2 MSTORE PUSH1 0x2 PUSH1 0x20 MSTORE PUSH1 0x40 DUP2 KECCAK256 SWAP1 DUP1 DUP1 JUMPDEST DUP4 SLOAD DUP2 LT ISZERO PUSH2 0x253 JUMPI DUP5 PUSH1 0x1 PUSH1 0x1 PUSH1 0xA0 SHL SUB AND DUP5 DUP3 DUP2 SLOAD DUP2 LT PUSH2 0x226 JUMPI PUSH2 0x226 PUSH2 0x487 JUMP JUMPDEST PUSH0 SWAP2 DUP3 MSTORE PUSH1 0x20 SWAP1 SWAP2 KECCAK256 ADD SLOAD PUSH1 0x1 PUSH1 0x1 PUSH1 0xA0 SHL SUB AND SUB PUSH2 0x24B JUMPI PUSH1 0x1 SWAP3 POP DUP1 SWAP2 POP PUSH2 0x253 JUMP JUMPDEST PUSH1 0x1 ADD PUSH2 0x201 JUMP JUMPDEST POP PUSH1 0x1 DUP3 ISZERO ISZERO EQ PUSH2 0x2AA JUMPI PUSH1 0x40 MLOAD PUSH3 0x461BCD PUSH1 0xE5 SHL DUP2 MSTORE PUSH1 0x20 PUSH1 0x4 DUP3 ADD MSTORE PUSH1 0x1C PUSH1 0x24 DUP3 ADD MSTORE PUSH32 0x77616C6C6574206F776E657220746964616B2074657264657465637400000000 PUSH1 0x44 DUP3 ADD MSTORE PUSH1 0x64 ADD PUSH1 0x40 MLOAD DUP1 SWAP2 SUB SWAP1 REVERT JUMPDEST DUP3 SLOAD DUP4 SWAP1 PUSH2 0x2BA SWAP1 PUSH1 0x1 SWAP1 PUSH2 0x49B JUMP JUMPDEST DUP2 SLOAD DUP2 LT PUSH2 0x2CA JUMPI PUSH2 0x2CA PUSH2 0x487 JUMP JUMPDEST SWAP1 PUSH0 MSTORE PUSH1 0x20 PUSH0 KECCAK256 ADD DUP4 DUP3 DUP2 SLOAD DUP2 LT PUSH2 0x2E4 JUMPI PUSH2 0x2E4 PUSH2 0x487 JUMP JUMPDEST PUSH0 SWAP2 DUP3 MSTORE PUSH1 0x20 SWAP1 SWAP2 KECCAK256 SWAP2 SLOAD SWAP2 ADD DUP1 SLOAD PUSH1 0x1 PUSH1 0x1 PUSH1 0xA0 SHL SUB NOT AND PUSH1 0x1 PUSH1 0x1 PUSH1 0xA0 SHL SUB SWAP1 SWAP3 AND SWAP2 SWAP1 SWAP2 OR SWAP1 SSTORE DUP3 SLOAD DUP4 SWAP1 DUP1 PUSH2 0x31F JUMPI PUSH2 0x31F PUSH2 0x4C0 JUMP JUMPDEST PUSH0 DUP3 DUP2 MSTORE PUSH1 0x20 SWAP1 KECCAK256 DUP2 ADD PUSH0 NOT SWAP1 DUP2 ADD DUP1 SLOAD PUSH1 0x1 PUSH1 0x1 PUSH1 0xA0 SHL SUB NOT AND SWAP1 SSTORE ADD SWAP1 SSTORE POP POP POP POP POP JUMP JUMPDEST PUSH1 0x1 PUSH1 0x1 PUSH1 0xA0 SHL SUB DUP2 AND PUSH0 SWAP1 DUP2 MSTORE PUSH1 0x2 PUSH1 0x20 SWAP1 DUP2 MSTORE PUSH1 0x40 DUP1 DUP4 KECCAK256 DUP1 SLOAD DUP3 MLOAD DUP2 DUP6 MUL DUP2 ADD DUP6 ADD SWAP1 SWAP4 MSTORE DUP1 DUP4 MSTORE PUSH1 0x60 SWAP5 SWAP3 SWAP4 SWAP2 SWAP3 SWAP1 SWAP2 DUP5 ADD JUMPDEST DUP3 DUP3 LT ISZERO PUSH2 0x3B6 JUMPI PUSH0 DUP5 DUP2 MSTORE PUSH1 0x20 SWAP1 DUP2 SWAP1 KECCAK256 PUSH1 0x40 DUP1 MLOAD DUP1 DUP5 ADD SWAP1 SWAP2 MSTORE SWAP1 DUP5 ADD SLOAD PUSH1 0x1 PUSH1 0x1 PUSH1 0xA0 SHL SUB AND DUP2 MSTORE DUP3 MSTORE PUSH1 0x1 SWAP1 SWAP3 ADD SWAP2 ADD PUSH2 0x37D JUMP JUMPDEST POP POP POP POP SWAP1 POP SWAP2 SWAP1 POP JUMP JUMPDEST PUSH2 0x30D7 DUP1 PUSH2 0x4D5 DUP4 CODECOPY ADD SWAP1 JUMP JUMPDEST DUP1 CALLDATALOAD PUSH1 0x1 PUSH1 0x1 PUSH1 0xA0 SHL SUB DUP2 AND DUP2 EQ PUSH2 0x3E4 JUMPI PUSH0 DUP1 REVERT JUMPDEST SWAP2 SWAP1 POP JUMP JUMPDEST PUSH0 DUP1 PUSH1 0x40 DUP4 DUP6 SUB SLT ISZERO PUSH2 0x3FA JUMPI PUSH0 DUP1 REVERT JUMPDEST PUSH2 0x403 DUP4 PUSH2 0x3CE JUMP JUMPDEST SWAP2 POP PUSH2 0x411 PUSH1 0x20 DUP5 ADD PUSH2 0x3CE JUMP JUMPDEST SWAP1 POP SWAP3 POP SWAP3 SWAP1 POP JUMP JUMPDEST PUSH0 PUSH1 0x20 DUP3 DUP5 SUB SLT ISZERO PUSH2 0x42A JUMPI PUSH0 DUP1 REVERT JUMPDEST PUSH2 0x433 DUP3 PUSH2 0x3CE JUMP JUMPDEST SWAP4 SWAP3 POP POP POP JUMP JUMPDEST PUSH1 0x20 DUP1 DUP3 MSTORE DUP3 MLOAD DUP3 DUP3 ADD DUP2 SWAP1 MSTORE PUSH0 SWAP2 SWAP1 DUP5 DUP3 ADD SWAP1 PUSH1 0x40 DUP6 ADD SWAP1 DUP5 JUMPDEST DUP2 DUP2 LT ISZERO PUSH2 0x47B JUMPI DUP4 MLOAD MLOAD PUSH1 0x1 PUSH1 0x1 PUSH1 0xA0 SHL SUB AND DUP4 MSTORE SWAP3 DUP5 ADD SWAP3 SWAP2 DUP5 ADD SWAP2 PUSH1 0x1 ADD PUSH2 0x455 JUMP JUMPDEST POP SWAP1 SWAP7 SWAP6 POP POP POP POP POP POP JUMP JUMPDEST PUSH4 0x4E487B71 PUSH1 0xE0 SHL PUSH0 MSTORE PUSH1 0x32 PUSH1 0x4 MSTORE PUSH1 0x24 PUSH0 REVERT JUMPDEST DUP2 DUP2 SUB DUP2 DUP2 GT ISZERO PUSH2 0x4BA JUMPI PUSH4 0x4E487B71 PUSH1 0xE0 SHL PUSH0 MSTORE PUSH1 0x11 PUSH1 0x4 MSTORE PUSH1 0x24 PUSH0 REVERT JUMPDEST SWAP3 SWAP2 POP POP JUMP JUMPDEST PUSH4 0x4E487B71 PUSH1 0xE0 SHL PUSH0 MSTORE PUSH1 0x31 PUSH1 0x4 MSTORE PUSH1 0x24 PUSH0 REVERT INVALID PUSH1 0x80 PUSH1 0x40 MSTORE PUSH0 PUSH1 0x4 SSTORE PUSH0 PUSH1 0x5 SSTORE PUSH0 PUSH1 0x6 SSTORE CALLVALUE DUP1 ISZERO PUSH3 0x1C JUMPI PUSH0 DUP1 REVERT JUMPDEST POP PUSH0 DUP1 SLOAD CALLER PUSH1 0x1 PUSH1 0x1 PUSH1 0xA0 SHL SUB NOT SWAP2 DUP3 AND DUP2 OR DUP4 SSTORE PUSH1 0x2 DUP1 SLOAD PUSH1 0x1 DUP2 DUP2 ADD DUP4 SSTORE SWAP5 DUP3 SWAP1 MSTORE PUSH32 0x405787FA12A823E0F2B7631CC41B3BA8828B3321CA811111FA75CD3AA3BB5ACE ADD DUP1 SLOAD SWAP1 SWAP4 AND SWAP1 SWAP2 OR SWAP1 SWAP2 SSTORE SLOAD PUSH3 0x7A SWAP2 SWAP1 PUSH3 0xDD JUMP JUMPDEST PUSH1 0x3 SWAP1 DUP2 SSTORE PUSH1 0x7 DUP1 SLOAD PUSH1 0x1 DUP2 ADD DUP3 SSTORE PUSH0 SWAP2 SWAP1 SWAP2 MSTORE PUSH1 0x40 DUP1 MLOAD DUP1 DUP3 ADD SWAP1 SWAP2 MSTORE SWAP2 DUP3 MSTORE PUSH3 0x8AA89 PUSH1 0xEB SHL PUSH1 0x20 DUP4 ADD MSTORE PUSH32 0xA66CC928B5EDB82AF9BD49922954155AB7B0942694BEA4CE44661D9A8736C688 ADD SWAP1 PUSH3 0xD6 SWAP1 DUP3 PUSH3 0x1A1 JUMP JUMPDEST POP PUSH3 0x26D JUMP JUMPDEST DUP2 DUP2 SUB DUP2 DUP2 GT ISZERO PUSH3 0xFD JUMPI PUSH4 0x4E487B71 PUSH1 0xE0 SHL PUSH0 MSTORE PUSH1 0x11 PUSH1 0x4 MSTORE PUSH1 0x24 PUSH0 REVERT JUMPDEST SWAP3 SWAP2 POP POP JUMP JUMPDEST PUSH4 0x4E487B71 PUSH1 0xE0 SHL PUSH0 MSTORE PUSH1 0x41 PUSH1 0x4 MSTORE PUSH1 0x24 PUSH0 REVERT JUMPDEST PUSH1 0x1 DUP2 DUP2 SHR SWAP1 DUP3 AND DUP1 PUSH3 0x12C JUMPI PUSH1 0x7F DUP3 AND SWAP2 POP JUMPDEST PUSH1 0x20 DUP3 LT DUP2 SUB PUSH3 0x14B JUMPI PUSH4 0x4E487B71 PUSH1 0xE0 SHL PUSH0 MSTORE PUSH1 0x22 PUSH1 0x4 MSTORE PUSH1 0x24 PUSH0 REVERT JUMPDEST POP SWAP2 SWAP1 POP JUMP JUMPDEST PUSH1 0x1F DUP3 GT ISZERO PUSH3 0x19C JUMPI DUP1 PUSH0 MSTORE PUSH1 0x20 PUSH0 KECCAK256 PUSH1 0x1F DUP5 ADD PUSH1 0x5 SHR DUP2 ADD PUSH1 0x20 DUP6 LT ISZERO PUSH3 0x178 JUMPI POP DUP1 JUMPDEST PUSH1 0x1F DUP5 ADD PUSH1 0x5 SHR DUP3 ADD SWAP2 POP JUMPDEST DUP2 DUP2 LT ISZERO PUSH3 0x199 JUMPI PUSH0 DUP2 SSTORE PUSH1 0x1 ADD PUSH3 0x184 JUMP JUMPDEST POP POP JUMPDEST POP POP POP JUMP JUMPDEST DUP2 MLOAD PUSH1 0x1 PUSH1 0x1 PUSH1 0x40 SHL SUB DUP2 GT ISZERO PUSH3 0x1BD JUMPI PUSH3 0x1BD PUSH3 0x103 JUMP JUMPDEST PUSH3 0x1D5 DUP2 PUSH3 0x1CE DUP5 SLOAD PUSH3 0x117 JUMP JUMPDEST DUP5 PUSH3 0x151 JUMP JUMPDEST PUSH1 0x20 DUP1 PUSH1 0x1F DUP4 GT PUSH1 0x1 DUP2 EQ PUSH3 0x20B JUMPI PUSH0 DUP5 ISZERO PUSH3 0x1F3 JUMPI POP DUP6 DUP4 ADD MLOAD JUMPDEST PUSH0 NOT PUSH1 0x3 DUP7 SWAP1 SHL SHR NOT AND PUSH1 0x1 DUP6 SWAP1 SHL OR DUP6 SSTORE PUSH3 0x265 JUMP JUMPDEST PUSH0 DUP6 DUP2 MSTORE PUSH1 0x20 DUP2 KECCAK256 PUSH1 0x1F NOT DUP7 AND SWAP2 JUMPDEST DUP3 DUP2 LT ISZERO PUSH3 0x23B JUMPI DUP9 DUP7 ADD MLOAD DUP3 SSTORE SWAP5 DUP5 ADD SWAP5 PUSH1 0x1 SWAP1 SWAP2 ADD SWAP1 DUP5 ADD PUSH3 0x21A JUMP JUMPDEST POP DUP6 DUP3 LT ISZERO PUSH3 0x259 JUMPI DUP8 DUP6 ADD MLOAD PUSH0 NOT PUSH1 0x3 DUP9 SWAP1 SHL PUSH1 0xF8 AND SHR NOT AND DUP2 SSTORE JUMPDEST POP POP PUSH1 0x1 DUP5 PUSH1 0x1 SHL ADD DUP6 SSTORE JUMPDEST POP POP POP POP POP POP JUMP JUMPDEST PUSH2 0x2E5C DUP1 PUSH3 0x27B PUSH0 CODECOPY PUSH0 RETURN INVALID PUSH1 0x80 PUSH1 0x40 MSTORE PUSH1 0x4 CALLDATASIZE LT PUSH2 0xE4 JUMPI PUSH0 CALLDATALOAD PUSH1 0xE0 SHR DUP1 PUSH4 0x80735A5A GT PUSH2 0x87 JUMPI DUP1 PUSH4 0xA04EF145 GT PUSH2 0x57 JUMPI DUP1 PUSH4 0xA04EF145 EQ PUSH2 0x236 JUMPI DUP1 PUSH4 0xA4E360C8 EQ PUSH2 0x257 JUMPI DUP1 PUSH4 0xB0B22C2C EQ PUSH2 0x2A0 JUMPI DUP1 PUSH4 0xCE3B3E88 EQ PUSH2 0x2BF JUMPI PUSH0 DUP1 REVERT JUMPDEST DUP1 PUSH4 0x80735A5A EQ PUSH2 0x1C4 JUMPI DUP1 PUSH4 0x8A94D416 EQ PUSH2 0x1E3 JUMPI DUP1 PUSH4 0x8E27D719 EQ PUSH2 0x204 JUMPI DUP1 PUSH4 0x8F031443 EQ PUSH2 0x217 JUMPI PUSH0 DUP1 REVERT JUMPDEST DUP1 PUSH4 0x4071E6D9 GT PUSH2 0xC2 JUMPI DUP1 PUSH4 0x4071E6D9 EQ PUSH2 0x160 JUMPI DUP1 PUSH4 0x4E67D1D6 EQ PUSH2 0x17F JUMPI DUP1 PUSH4 0x6F9FB98A EQ PUSH2 0x19E JUMPI DUP1 PUSH4 0x7278A1FA EQ PUSH2 0x1B0 JUMPI PUSH0 DUP1 REVERT JUMPDEST DUP1 PUSH4 0x273CBAA0 EQ PUSH2 0xE8 JUMPI DUP1 PUSH4 0x30B39A62 EQ PUSH2 0x112 JUMPI DUP1 PUSH4 0x3A51D246 EQ PUSH2 0x133 JUMPI JUMPDEST PUSH0 DUP1 REVERT JUMPDEST CALLVALUE DUP1 ISZERO PUSH2 0xF3 JUMPI PUSH0 DUP1 REVERT JUMPDEST POP PUSH2 0xFC PUSH2 0x2DE JUMP JUMPDEST PUSH1 0x40 MLOAD PUSH2 0x109 SWAP2 SWAP1 PUSH2 0x253A JUMP JUMPDEST PUSH1 0x40 MLOAD DUP1 SWAP2 SUB SWAP1 RETURN JUMPDEST CALLVALUE DUP1 ISZERO PUSH2 0x11D JUMPI PUSH0 DUP1 REVERT JUMPDEST POP PUSH2 0x131 PUSH2 0x12C CALLDATASIZE PUSH1 0x4 PUSH2 0x265A JUMP JUMPDEST PUSH2 0x3B2 JUMP JUMPDEST STOP JUMPDEST CALLVALUE DUP1 ISZERO PUSH2 0x13E JUMPI PUSH0 DUP1 REVERT JUMPDEST POP PUSH2 0x152 PUSH2 0x14D CALLDATASIZE PUSH1 0x4 PUSH2 0x269C JUMP JUMPDEST PUSH2 0x71E JUMP JUMPDEST PUSH1 0x40 MLOAD SWAP1 DUP2 MSTORE PUSH1 0x20 ADD PUSH2 0x109 JUMP JUMPDEST CALLVALUE DUP1 ISZERO PUSH2 0x16B JUMPI PUSH0 DUP1 REVERT JUMPDEST POP PUSH2 0x131 PUSH2 0x17A CALLDATASIZE PUSH1 0x4 PUSH2 0x26EA JUMP JUMPDEST PUSH2 0x750 JUMP JUMPDEST CALLVALUE DUP1 ISZERO PUSH2 0x18A JUMPI PUSH0 DUP1 REVERT JUMPDEST POP PUSH2 0x131 PUSH2 0x199 CALLDATASIZE PUSH1 0x4 PUSH2 0x265A JUMP JUMPDEST PUSH2 0x98D JUMP JUMPDEST CALLVALUE DUP1 ISZERO PUSH2 0x1A9 JUMPI PUSH0 DUP1 REVERT JUMPDEST POP SELFBALANCE PUSH2 0x152 JUMP JUMPDEST CALLVALUE DUP1 ISZERO PUSH2 0x1BB JUMPI PUSH0 DUP1 REVERT JUMPDEST POP PUSH1 0x3 SLOAD PUSH2 0x152 JUMP JUMPDEST CALLVALUE DUP1 ISZERO PUSH2 0x1CF JUMPI PUSH0 DUP1 REVERT JUMPDEST POP PUSH2 0x131 PUSH2 0x1DE CALLDATASIZE PUSH1 0x4 PUSH2 0x265A JUMP JUMPDEST PUSH2 0xD37 JUMP JUMPDEST CALLVALUE DUP1 ISZERO PUSH2 0x1EE JUMPI PUSH0 DUP1 REVERT JUMPDEST POP PUSH2 0x1F7 PUSH2 0x1150 JUMP JUMPDEST PUSH1 0x40 MLOAD PUSH2 0x109 SWAP2 SWAP1 PUSH2 0x2732 JUMP JUMPDEST PUSH2 0x131 PUSH2 0x212 CALLDATASIZE PUSH1 0x4 PUSH2 0x265A JUMP JUMPDEST PUSH2 0x11B0 JUMP JUMPDEST CALLVALUE DUP1 ISZERO PUSH2 0x222 JUMPI PUSH0 DUP1 REVERT JUMPDEST POP PUSH2 0x131 PUSH2 0x231 CALLDATASIZE PUSH1 0x4 PUSH2 0x26EA JUMP JUMPDEST PUSH2 0x1535 JUMP JUMPDEST CALLVALUE DUP1 ISZERO PUSH2 0x241 JUMPI PUSH0 DUP1 REVERT JUMPDEST POP PUSH2 0x24A PUSH2 0x16FA JUMP JUMPDEST PUSH1 0x40 MLOAD PUSH2 0x109 SWAP2 SWAP1 PUSH2 0x277E JUMP JUMPDEST CALLVALUE DUP1 ISZERO PUSH2 0x262 JUMPI PUSH0 DUP1 REVERT JUMPDEST POP PUSH2 0x290 PUSH2 0x271 CALLDATASIZE PUSH1 0x4 PUSH2 0x2833 JUMP JUMPDEST CALLER PUSH0 SWAP1 DUP2 MSTORE PUSH1 0x9 PUSH1 0x20 SWAP1 DUP2 MSTORE PUSH1 0x40 DUP1 DUP4 KECCAK256 SWAP4 DUP4 MSTORE SWAP3 SWAP1 MSTORE KECCAK256 SLOAD PUSH1 0xFF AND SWAP1 JUMP JUMPDEST PUSH1 0x40 MLOAD SWAP1 ISZERO ISZERO DUP2 MSTORE PUSH1 0x20 ADD PUSH2 0x109 JUMP JUMPDEST CALLVALUE DUP1 ISZERO PUSH2 0x2AB JUMPI PUSH0 DUP1 REVERT JUMPDEST POP PUSH2 0x131 PUSH2 0x2BA CALLDATASIZE PUSH1 0x4 PUSH2 0x284A JUMP JUMPDEST PUSH2 0x18AE JUMP JUMPDEST CALLVALUE DUP1 ISZERO PUSH2 0x2CA JUMPI PUSH0 DUP1 REVERT JUMPDEST POP PUSH2 0x131 PUSH2 0x2D9 CALLDATASIZE PUSH1 0x4 PUSH2 0x2899 JUMP JUMPDEST PUSH2 0x1B6C JUMP JUMPDEST PUSH1 0x60 PUSH1 0x7 DUP1 SLOAD DUP1 PUSH1 0x20 MUL PUSH1 0x20 ADD PUSH1 0x40 MLOAD SWAP1 DUP2 ADD PUSH1 0x40 MSTORE DUP1 SWAP3 SWAP2 SWAP1 DUP2 DUP2 MSTORE PUSH1 0x20 ADD PUSH0 SWAP1 JUMPDEST DUP3 DUP3 LT ISZERO PUSH2 0x3A9 JUMPI DUP4 DUP3 SWAP1 PUSH0 MSTORE PUSH1 0x20 PUSH0 KECCAK256 ADD DUP1 SLOAD PUSH2 0x31E SWAP1 PUSH2 0x28EF JUMP JUMPDEST DUP1 PUSH1 0x1F ADD PUSH1 0x20 DUP1 SWAP2 DIV MUL PUSH1 0x20 ADD PUSH1 0x40 MLOAD SWAP1 DUP2 ADD PUSH1 0x40 MSTORE DUP1 SWAP3 SWAP2 SWAP1 DUP2 DUP2 MSTORE PUSH1 0x20 ADD DUP3 DUP1 SLOAD PUSH2 0x34A SWAP1 PUSH2 0x28EF JUMP JUMPDEST DUP1 ISZERO PUSH2 0x395 JUMPI DUP1 PUSH1 0x1F LT PUSH2 0x36C JUMPI PUSH2 0x100 DUP1 DUP4 SLOAD DIV MUL DUP4 MSTORE SWAP2 PUSH1 0x20 ADD SWAP2 PUSH2 0x395 JUMP JUMPDEST DUP3 ADD SWAP2 SWAP1 PUSH0 MSTORE PUSH1 0x20 PUSH0 KECCAK256 SWAP1 JUMPDEST DUP2 SLOAD DUP2 MSTORE SWAP1 PUSH1 0x1 ADD SWAP1 PUSH1 0x20 ADD DUP1 DUP4 GT PUSH2 0x378 JUMPI DUP3 SWAP1 SUB PUSH1 0x1F AND DUP3 ADD SWAP2 JUMPDEST POP POP POP POP POP DUP2 MSTORE PUSH1 0x20 ADD SWAP1 PUSH1 0x1 ADD SWAP1 PUSH2 0x301 JUMP JUMPDEST POP POP POP POP SWAP1 POP SWAP1 JUMP JUMPDEST PUSH0 DUP1 JUMPDEST PUSH1 0x2 SLOAD DUP2 LT ISZERO PUSH2 0x406 JUMPI CALLER PUSH1 0x1 PUSH1 0x1 PUSH1 0xA0 SHL SUB AND PUSH1 0x2 DUP3 DUP2 SLOAD DUP2 LT PUSH2 0x3DC JUMPI PUSH2 0x3DC PUSH2 0x2927 JUMP JUMPDEST PUSH0 SWAP2 DUP3 MSTORE PUSH1 0x20 SWAP1 SWAP2 KECCAK256 ADD SLOAD PUSH1 0x1 PUSH1 0x1 PUSH1 0xA0 SHL SUB AND SUB PUSH2 0x3FE JUMPI PUSH1 0x1 SWAP2 POP PUSH2 0x406 JUMP JUMPDEST PUSH1 0x1 ADD PUSH2 0x3B5 JUMP JUMPDEST POP PUSH1 0x1 DUP2 ISZERO ISZERO EQ PUSH2 0x432 JUMPI PUSH1 0x40 MLOAD PUSH3 0x461BCD PUSH1 0xE5 SHL DUP2 MSTORE PUSH1 0x4 ADD PUSH2 0x429 SWAP1 PUSH2 0x293B JUMP JUMPDEST PUSH1 0x40 MLOAD DUP1 SWAP2 SUB SWAP1 REVERT JUMPDEST CALLER PUSH0 SWAP1 DUP2 MSTORE PUSH1 0x8 PUSH1 0x20 MSTORE PUSH1 0x40 SWAP1 DUP2 SWAP1 KECCAK256 SWAP1 MLOAD DUP4 SWAP2 SWAP1 PUSH2 0x452 SWAP1 DUP7 SWAP1 PUSH2 0x298F JUMP JUMPDEST SWAP1 DUP2 MSTORE PUSH1 0x20 ADD PUSH1 0x40 MLOAD DUP1 SWAP2 SUB SWAP1 KECCAK256 SLOAD LT ISZERO PUSH2 0x4A5 JUMPI PUSH1 0x40 MLOAD PUSH3 0x461BCD PUSH1 0xE5 SHL DUP2 MSTORE PUSH1 0x20 PUSH1 0x4 DUP3 ADD MSTORE PUSH1 0x13 PUSH1 0x24 DUP3 ADD MSTORE PUSH19 0x62616C616E636520746964616B2063756B757 PUSH1 0x6C SHL PUSH1 0x44 DUP3 ADD MSTORE PUSH1 0x64 ADD PUSH2 0x429 JUMP JUMPDEST CALLER PUSH0 SWAP1 DUP2 MSTORE PUSH1 0xA PUSH1 0x20 MSTORE PUSH1 0x40 SWAP1 KECCAK256 SLOAD PUSH1 0xFF AND ISZERO PUSH2 0x500 JUMPI PUSH1 0x40 MLOAD PUSH3 0x461BCD PUSH1 0xE5 SHL DUP2 MSTORE PUSH1 0x20 PUSH1 0x4 DUP3 ADD MSTORE PUSH1 0x19 PUSH1 0x24 DUP3 ADD MSTORE PUSH25 0x70726F73657320736564616E67206265726C616E6773756E67 PUSH1 0x38 SHL PUSH1 0x44 DUP3 ADD MSTORE PUSH1 0x64 ADD PUSH2 0x429 JUMP JUMPDEST CALLER PUSH0 SWAP1 DUP2 MSTORE PUSH1 0xA PUSH1 0x20 SWAP1 DUP2 MSTORE PUSH1 0x40 DUP1 DUP4 KECCAK256 DUP1 SLOAD PUSH1 0xFF NOT AND PUSH1 0x1 OR SWAP1 SSTORE PUSH1 0x8 SWAP1 SWAP2 MSTORE SWAP1 DUP2 SWAP1 KECCAK256 SWAP1 MLOAD DUP4 SWAP2 SWAP1 PUSH2 0x535 SWAP1 DUP7 SWAP1 PUSH2 0x298F JUMP JUMPDEST SWAP1 DUP2 MSTORE PUSH1 0x20 ADD PUSH1 0x40 MLOAD DUP1 SWAP2 SUB SWAP1 KECCAK256 PUSH0 DUP3 DUP3 SLOAD PUSH2 0x551 SWAP2 SWAP1 PUSH2 0x29BE JUMP JUMPDEST SWAP1 SWAP2 SSTORE POP POP PUSH1 0x40 DUP1 MLOAD DUP1 DUP3 ADD SWAP1 SWAP2 MSTORE PUSH1 0x3 DUP2 MSTORE PUSH3 0x8AA89 PUSH1 0xEB SHL PUSH1 0x20 SWAP2 DUP3 ADD MSTORE DUP4 MLOAD SWAP1 DUP5 ADD KECCAK256 PUSH32 0x55514145C7EF4E1948F87E0EB4D28D3E34763F4D4CDF3BC449800860A9D0A00C ADD PUSH2 0x5CD JUMPI PUSH1 0x40 MLOAD CALLER SWAP1 DUP4 ISZERO PUSH2 0x8FC MUL SWAP1 DUP5 SWAP1 PUSH0 DUP2 DUP2 DUP2 DUP6 DUP9 DUP9 CALL SWAP4 POP POP POP POP ISZERO DUP1 ISZERO PUSH2 0x5C7 JUMPI RETURNDATASIZE PUSH0 DUP1 RETURNDATACOPY RETURNDATASIZE PUSH0 REVERT JUMPDEST POP PUSH2 0x6AF JUMP JUMPDEST PUSH0 PUSH1 0x1 PUSH1 0x1 PUSH1 0xA0 SHL SUB AND PUSH1 0xB DUP5 PUSH1 0x40 MLOAD PUSH2 0x5E7 SWAP2 SWAP1 PUSH2 0x298F JUMP JUMPDEST SWAP1 DUP2 MSTORE PUSH1 0x40 MLOAD SWAP1 DUP2 SWAP1 SUB PUSH1 0x20 ADD SWAP1 KECCAK256 PUSH1 0x1 ADD SLOAD PUSH1 0x1 PUSH1 0x1 PUSH1 0xA0 SHL SUB AND SUB PUSH2 0x620 JUMPI PUSH1 0x40 MLOAD PUSH3 0x461BCD PUSH1 0xE5 SHL DUP2 MSTORE PUSH1 0x4 ADD PUSH2 0x429 SWAP1 PUSH2 0x29D7 JUMP JUMPDEST PUSH1 0xB DUP4 PUSH1 0x40 MLOAD PUSH2 0x630 SWAP2 SWAP1 PUSH2 0x298F JUMP JUMPDEST SWAP1 DUP2 MSTORE PUSH1 0x40 MLOAD SWAP1 DUP2 SWAP1 SUB PUSH1 0x20 ADD DUP2 KECCAK256 PUSH1 0x1 ADD SLOAD PUSH4 0xA9059CBB PUSH1 0xE0 SHL DUP3 MSTORE CALLER PUSH1 0x4 DUP4 ADD MSTORE PUSH1 0x24 DUP3 ADD DUP5 SWAP1 MSTORE PUSH1 0x1 PUSH1 0x1 PUSH1 0xA0 SHL SUB AND SWAP1 PUSH4 0xA9059CBB SWAP1 PUSH1 0x44 ADD PUSH1 0x20 PUSH1 0x40 MLOAD DUP1 DUP4 SUB DUP2 PUSH0 DUP8 GAS CALL ISZERO DUP1 ISZERO PUSH2 0x689 JUMPI RETURNDATASIZE PUSH0 DUP1 RETURNDATACOPY RETURNDATASIZE PUSH0 REVERT JUMPDEST POP POP POP POP PUSH1 0x40 MLOAD RETURNDATASIZE PUSH1 0x1F NOT PUSH1 0x1F DUP3 ADD AND DUP3 ADD DUP1 PUSH1 0x40 MSTORE POP DUP2 ADD SWAP1 PUSH2 0x6AD SWAP2 SWAP1 PUSH2 0x2A05 JUMP JUMPDEST POP JUMPDEST PUSH32 0x6A647EACC9E98792655E8DBA08E3167440B93E02EF76E8E3330FA10A27B4ECBF DUP4 CALLER DUP5 PUSH1 0x5 SLOAD TIMESTAMP PUSH1 0x40 MLOAD PUSH2 0x6E8 SWAP6 SWAP5 SWAP4 SWAP3 SWAP2 SWAP1 PUSH2 0x2A2B JUMP JUMPDEST PUSH1 0x40 MLOAD DUP1 SWAP2 SUB SWAP1 LOG1 CALLER PUSH0 SWAP1 DUP2 MSTORE PUSH1 0xA PUSH1 0x20 MSTORE PUSH1 0x40 DUP2 KECCAK256 DUP1 SLOAD PUSH1 0xFF NOT AND SWAP1 SSTORE PUSH1 0x5 DUP1 SLOAD SWAP2 PUSH2 0x714 DUP4 PUSH2 0x2A6A JUMP JUMPDEST SWAP2 SWAP1 POP SSTORE POP POP POP POP JUMP JUMPDEST CALLER PUSH0 SWAP1 DUP2 MSTORE PUSH1 0x8 PUSH1 0x20 MSTORE PUSH1 0x40 DUP1 DUP3 KECCAK256 SWAP1 MLOAD PUSH2 0x73A SWAP1 DUP5 SWAP1 PUSH2 0x298F JUMP JUMPDEST SWAP1 DUP2 MSTORE PUSH1 0x20 ADD PUSH1 0x40 MLOAD DUP1 SWAP2 SUB SWAP1 KECCAK256 SLOAD SWAP1 POP SWAP2 SWAP1 POP JUMP JUMPDEST PUSH0 DUP1 JUMPDEST PUSH1 0x2 SLOAD DUP2 LT ISZERO PUSH2 0x7A4 JUMPI CALLER PUSH1 0x1 PUSH1 0x1 PUSH1 0xA0 SHL SUB AND PUSH1 0x2 DUP3 DUP2 SLOAD DUP2 LT PUSH2 0x77A JUMPI PUSH2 0x77A PUSH2 0x2927 JUMP JUMPDEST PUSH0 SWAP2 DUP3 MSTORE PUSH1 0x20 SWAP1 SWAP2 KECCAK256 ADD SLOAD PUSH1 0x1 PUSH1 0x1 PUSH1 0xA0 SHL SUB AND SUB PUSH2 0x79C JUMPI PUSH1 0x1 SWAP2 POP PUSH2 0x7A4 JUMP JUMPDEST PUSH1 0x1 ADD PUSH2 0x753 JUMP JUMPDEST POP PUSH1 0x1 DUP2 ISZERO ISZERO EQ PUSH2 0x7C7 JUMPI PUSH1 0x40 MLOAD PUSH3 0x461BCD PUSH1 0xE5 SHL DUP2 MSTORE PUSH1 0x4 ADD PUSH2 0x429 SWAP1 PUSH2 0x293B JUMP JUMPDEST PUSH0 DUP1 DUP1 JUMPDEST PUSH1 0x2 SLOAD DUP2 LT ISZERO PUSH2 0x81F JUMPI DUP7 PUSH1 0x1 PUSH1 0x1 PUSH1 0xA0 SHL SUB AND PUSH1 0x2 DUP3 DUP2 SLOAD DUP2 LT PUSH2 0x7F2 JUMPI PUSH2 0x7F2 PUSH2 0x2927 JUMP JUMPDEST PUSH0 SWAP2 DUP3 MSTORE PUSH1 0x20 SWAP1 SWAP2 KECCAK256 ADD SLOAD PUSH1 0x1 PUSH1 0x1 PUSH1 0xA0 SHL SUB AND SUB PUSH2 0x817 JUMPI PUSH1 0x1 SWAP3 POP DUP1 SWAP2 POP PUSH2 0x81F JUMP JUMPDEST PUSH1 0x1 ADD PUSH2 0x7CB JUMP JUMPDEST POP PUSH1 0x1 DUP3 ISZERO ISZERO EQ PUSH2 0x872 JUMPI PUSH1 0x40 MLOAD PUSH3 0x461BCD PUSH1 0xE5 SHL DUP2 MSTORE PUSH1 0x20 PUSH1 0x4 DUP3 ADD MSTORE PUSH1 0x1C PUSH1 0x24 DUP3 ADD MSTORE PUSH32 0x77616C6C6574206F776E657220746964616B2074657264657465637400000000 PUSH1 0x44 DUP3 ADD MSTORE PUSH1 0x64 ADD PUSH2 0x429 JUMP JUMPDEST PUSH1 0x2 DUP1 SLOAD PUSH2 0x882 SWAP1 PUSH1 0x1 SWAP1 PUSH2 0x29BE JUMP JUMPDEST DUP2 SLOAD DUP2 LT PUSH2 0x892 JUMPI PUSH2 0x892 PUSH2 0x2927 JUMP JUMPDEST PUSH0 SWAP2 DUP3 MSTORE PUSH1 0x20 SWAP1 SWAP2 KECCAK256 ADD SLOAD PUSH1 0x2 DUP1 SLOAD PUSH1 0x1 PUSH1 0x1 PUSH1 0xA0 SHL SUB SWAP1 SWAP3 AND SWAP2 DUP4 SWAP1 DUP2 LT PUSH2 0x8BD JUMPI PUSH2 0x8BD PUSH2 0x2927 JUMP JUMPDEST SWAP1 PUSH0 MSTORE PUSH1 0x20 PUSH0 KECCAK256 ADD PUSH0 PUSH2 0x100 EXP DUP2 SLOAD DUP2 PUSH1 0x1 PUSH1 0x1 PUSH1 0xA0 SHL SUB MUL NOT AND SWAP1 DUP4 PUSH1 0x1 PUSH1 0x1 PUSH1 0xA0 SHL SUB AND MUL OR SWAP1 SSTORE POP PUSH1 0x2 DUP1 SLOAD DUP1 PUSH2 0x8F9 JUMPI PUSH2 0x8F9 PUSH2 0x2A82 JUMP JUMPDEST PUSH0 DUP3 DUP2 MSTORE PUSH1 0x20 SWAP1 KECCAK256 DUP2 ADD PUSH0 NOT SWAP1 DUP2 ADD DUP1 SLOAD PUSH1 0x1 PUSH1 0x1 PUSH1 0xA0 SHL SUB NOT AND SWAP1 SSTORE ADD SWAP1 SSTORE PUSH1 0x2 SLOAD PUSH2 0x928 SWAP1 PUSH1 0x1 SWAP1 PUSH2 0x29BE JUMP JUMPDEST PUSH1 0x3 SSTORE PUSH1 0x40 DUP1 MLOAD CALLER DUP2 MSTORE PUSH1 0x1 PUSH1 0x1 PUSH1 0xA0 SHL SUB DUP9 AND PUSH1 0x20 DUP3 ADD MSTORE TIMESTAMP DUP2 DUP4 ADD MSTORE SWAP1 MLOAD PUSH32 0xD1F329271E4A98B0181A7D91618A0A5DE6F42A1AAF4C1362493D829EAF405A8A SWAP2 DUP2 SWAP1 SUB PUSH1 0x60 ADD SWAP1 LOG1 PUSH2 0x97B DUP6 PUSH2 0x1F3C JUMP JUMPDEST PUSH2 0x985 DUP7 DUP6 PUSH2 0x1F5E JUMP JUMPDEST POP POP POP POP POP POP JUMP JUMPDEST PUSH0 DUP1 JUMPDEST PUSH1 0x2 SLOAD DUP2 LT ISZERO PUSH2 0x9E1 JUMPI CALLER PUSH1 0x1 PUSH1 0x1 PUSH1 0xA0 SHL SUB AND PUSH1 0x2 DUP3 DUP2 SLOAD DUP2 LT PUSH2 0x9B7 JUMPI PUSH2 0x9B7 PUSH2 0x2927 JUMP JUMPDEST PUSH0 SWAP2 DUP3 MSTORE PUSH1 0x20 SWAP1 SWAP2 KECCAK256 ADD SLOAD PUSH1 0x1 PUSH1 0x1 PUSH1 0xA0 SHL SUB AND SUB PUSH2 0x9D9 JUMPI PUSH1 0x1 SWAP2 POP PUSH2 0x9E1 JUMP JUMPDEST PUSH1 0x1 ADD PUSH2 0x990 JUMP JUMPDEST POP PUSH1 0x1 DUP2 ISZERO ISZERO EQ PUSH2 0xA04 JUMPI PUSH1 0x40 MLOAD PUSH3 0x461BCD PUSH1 0xE5 SHL DUP2 MSTORE PUSH1 0x4 ADD PUSH2 0x429 SWAP1 PUSH2 0x293B JUMP JUMPDEST PUSH0 DUP1 PUSH0 JUMPDEST PUSH1 0xC SLOAD DUP2 LT ISZERO PUSH2 0xA59 JUMPI DUP5 PUSH1 0xC DUP3 DUP2 SLOAD DUP2 LT PUSH2 0xA26 JUMPI PUSH2 0xA26 PUSH2 0x2927 JUMP JUMPDEST SWAP1 PUSH0 MSTORE PUSH1 0x20 PUSH0 KECCAK256 SWAP1 PUSH1 0x7 MUL ADD PUSH1 0x4 ADD SLOAD SUB PUSH2 0xA44 JUMPI PUSH1 0x1 SWAP3 POP PUSH2 0xA59 JUMP JUMPDEST DUP2 PUSH2 0xA4E DUP2 PUSH2 0x2A6A JUMP JUMPDEST SWAP3 POP POP PUSH1 0x1 ADD PUSH2 0xA08 JUMP JUMPDEST POP DUP2 PUSH2 0xA77 JUMPI PUSH1 0x40 MLOAD PUSH3 0x461BCD PUSH1 0xE5 SHL DUP2 MSTORE PUSH1 0x4 ADD PUSH2 0x429 SWAP1 PUSH2 0x2A96 JUMP JUMPDEST CALLER PUSH0 SWAP1 DUP2 MSTORE PUSH1 0x9 PUSH1 0x20 SWAP1 DUP2 MSTORE PUSH1 0x40 DUP1 DUP4 KECCAK256 DUP8 DUP5 MSTORE SWAP1 SWAP2 MSTORE SWAP1 KECCAK256 SLOAD PUSH1 0xFF AND ISZERO PUSH2 0xB07 JUMPI PUSH1 0x40 MLOAD PUSH3 0x461BCD PUSH1 0xE5 SHL DUP2 MSTORE PUSH1 0x20 PUSH1 0x4 DUP3 ADD MSTORE PUSH1 0x39 PUSH1 0x24 DUP3 ADD MSTORE PUSH32 0x746964616B20646170617420617070726F76652070616461207472616E73616B PUSH1 0x44 DUP3 ADD MSTORE PUSH32 0x7369207472616E73666572206B65647561206B616C696E796100000000000000 PUSH1 0x64 DUP3 ADD MSTORE PUSH1 0x84 ADD PUSH2 0x429 JUMP JUMPDEST CALLER PUSH1 0x1 PUSH1 0x1 PUSH1 0xA0 SHL SUB AND PUSH1 0xC DUP3 DUP2 SLOAD DUP2 LT PUSH2 0xB24 JUMPI PUSH2 0xB24 PUSH2 0x2927 JUMP JUMPDEST PUSH0 SWAP2 DUP3 MSTORE PUSH1 0x20 SWAP1 SWAP2 KECCAK256 PUSH1 0x1 PUSH1 0x7 SWAP1 SWAP3 MUL ADD ADD SLOAD PUSH1 0x1 PUSH1 0x1 PUSH1 0xA0 SHL SUB AND SUB PUSH2 0xBA2 JUMPI PUSH1 0x40 MLOAD PUSH3 0x461BCD PUSH1 0xE5 SHL DUP2 MSTORE PUSH1 0x20 PUSH1 0x4 DUP3 ADD MSTORE PUSH1 0x2C PUSH1 0x24 DUP3 ADD MSTORE PUSH32 0x746964616B20646170617420617070726F76652070616461207472616E736163 PUSH1 0x44 DUP3 ADD MSTORE PUSH12 0x74696F6E2070726962616469 PUSH1 0xA0 SHL PUSH1 0x64 DUP3 ADD MSTORE PUSH1 0x84 ADD PUSH2 0x429 JUMP JUMPDEST CALLER PUSH0 SWAP1 DUP2 MSTORE PUSH1 0x9 PUSH1 0x20 SWAP1 DUP2 MSTORE PUSH1 0x40 DUP1 DUP4 KECCAK256 DUP8 DUP5 MSTORE SWAP1 SWAP2 MSTORE SWAP1 KECCAK256 DUP1 SLOAD PUSH1 0xFF NOT AND PUSH1 0x1 OR SWAP1 SSTORE PUSH1 0xC DUP1 SLOAD DUP3 SWAP1 DUP2 LT PUSH2 0xBDA JUMPI PUSH2 0xBDA PUSH2 0x2927 JUMP JUMPDEST PUSH0 SWAP2 DUP3 MSTORE PUSH1 0x20 DUP3 KECCAK256 PUSH1 0x5 PUSH1 0x7 SWAP1 SWAP3 MUL ADD ADD DUP1 SLOAD SWAP2 PUSH2 0xBF7 DUP4 PUSH2 0x2A6A JUMP JUMPDEST SWAP2 SWAP1 POP SSTORE POP PUSH32 0xEAD8052A59BD99F1B0115F4DA8E862EBC15BE06D11AD168B737B8E6DAE0886C8 DUP6 CALLER PUSH1 0xC DUP5 DUP2 SLOAD DUP2 LT PUSH2 0xC32 JUMPI PUSH2 0xC32 PUSH2 0x2927 JUMP JUMPDEST SWAP1 PUSH0 MSTORE PUSH1 0x20 PUSH0 KECCAK256 SWAP1 PUSH1 0x7 MUL ADD PUSH1 0x2 ADD PUSH0 SWAP1 SLOAD SWAP1 PUSH2 0x100 EXP SWAP1 DIV PUSH1 0x1 PUSH1 0x1 PUSH1 0xA0 SHL SUB AND PUSH1 0xC DUP6 DUP2 SLOAD DUP2 LT PUSH2 0xC67 JUMPI PUSH2 0xC67 PUSH2 0x2927 JUMP JUMPDEST SWAP1 PUSH0 MSTORE PUSH1 0x20 PUSH0 KECCAK256 SWAP1 PUSH1 0x7 MUL ADD PUSH1 0x3 ADD SLOAD PUSH1 0xC DUP7 DUP2 SLOAD DUP2 LT PUSH2 0xC8A JUMPI PUSH2 0xC8A PUSH2 0x2927 JUMP JUMPDEST SWAP1 PUSH0 MSTORE PUSH1 0x20 PUSH0 KECCAK256 SWAP1 PUSH1 0x7 MUL ADD PUSH1 0x4 ADD SLOAD PUSH1 0xC DUP8 DUP2 SLOAD DUP2 LT PUSH2 0xCAD JUMPI PUSH2 0xCAD PUSH2 0x2927 JUMP JUMPDEST SWAP1 PUSH0 MSTORE PUSH1 0x20 PUSH0 KECCAK256 SWAP1 PUSH1 0x7 MUL ADD PUSH1 0x5 ADD SLOAD PUSH1 0xC DUP9 DUP2 SLOAD DUP2 LT PUSH2 0xCD0 JUMPI PUSH2 0xCD0 PUSH2 0x2927 JUMP JUMPDEST SWAP1 PUSH0 MSTORE PUSH1 0x20 PUSH0 KECCAK256 SWAP1 PUSH1 0x7 MUL ADD PUSH1 0x6 ADD SLOAD PUSH1 0x40 MLOAD PUSH2 0xCF3 SWAP8 SWAP7 SWAP6 SWAP5 SWAP4 SWAP3 SWAP2 SWAP1 PUSH2 0x2ADE JUMP JUMPDEST PUSH1 0x40 MLOAD DUP1 SWAP2 SUB SWAP1 LOG1 PUSH1 0x3 SLOAD PUSH1 0xC DUP3 DUP2 SLOAD DUP2 LT PUSH2 0xD11 JUMPI PUSH2 0xD11 PUSH2 0x2927 JUMP JUMPDEST SWAP1 PUSH0 MSTORE PUSH1 0x20 PUSH0 KECCAK256 SWAP1 PUSH1 0x7 MUL ADD PUSH1 0x5 ADD SLOAD SUB PUSH2 0xD30 JUMPI PUSH2 0xD30 DUP6 DUP3 PUSH2 0x1FC8 JUMP JUMPDEST POP POP POP POP POP JUMP JUMPDEST PUSH0 DUP1 JUMPDEST PUSH1 0x2 SLOAD DUP2 LT ISZERO PUSH2 0xD8B JUMPI CALLER PUSH1 0x1 PUSH1 0x1 PUSH1 0xA0 SHL SUB AND PUSH1 0x2 DUP3 DUP2 SLOAD DUP2 LT PUSH2 0xD61 JUMPI PUSH2 0xD61 PUSH2 0x2927 JUMP JUMPDEST PUSH0 SWAP2 DUP3 MSTORE PUSH1 0x20 SWAP1 SWAP2 KECCAK256 ADD SLOAD PUSH1 0x1 PUSH1 0x1 PUSH1 0xA0 SHL SUB AND SUB PUSH2 0xD83 JUMPI PUSH1 0x1 SWAP2 POP PUSH2 0xD8B JUMP JUMPDEST PUSH1 0x1 ADD PUSH2 0xD3A JUMP JUMPDEST POP PUSH1 0x1 DUP2 ISZERO ISZERO EQ PUSH2 0xDAE JUMPI PUSH1 0x40 MLOAD PUSH3 0x461BCD PUSH1 0xE5 SHL DUP2 MSTORE PUSH1 0x4 ADD PUSH2 0x429 SWAP1 PUSH2 0x293B JUMP JUMPDEST PUSH0 DUP1 PUSH0 JUMPDEST PUSH1 0xC SLOAD DUP2 LT ISZERO PUSH2 0xE03 JUMPI DUP5 PUSH1 0xC DUP3 DUP2 SLOAD DUP2 LT PUSH2 0xDD0 JUMPI PUSH2 0xDD0 PUSH2 0x2927 JUMP JUMPDEST SWAP1 PUSH0 MSTORE PUSH1 0x20 PUSH0 KECCAK256 SWAP1 PUSH1 0x7 MUL ADD PUSH1 0x4 ADD SLOAD SUB PUSH2 0xDEE JUMPI PUSH1 0x1 SWAP3 POP PUSH2 0xE03 JUMP JUMPDEST DUP2 PUSH2 0xDF8 DUP2 PUSH2 0x2A6A JUMP JUMPDEST SWAP3 POP POP PUSH1 0x1 ADD PUSH2 0xDB2 JUMP JUMPDEST POP CALLER PUSH1 0x1 PUSH1 0x1 PUSH1 0xA0 SHL SUB AND PUSH1 0xC DUP3 DUP2 SLOAD DUP2 LT PUSH2 0xE21 JUMPI PUSH2 0xE21 PUSH2 0x2927 JUMP JUMPDEST PUSH0 SWAP2 DUP3 MSTORE PUSH1 0x20 SWAP1 SWAP2 KECCAK256 PUSH1 0x1 PUSH1 0x7 SWAP1 SWAP3 MUL ADD ADD SLOAD PUSH1 0x1 PUSH1 0x1 PUSH1 0xA0 SHL SUB AND EQ PUSH2 0xE5A JUMPI PUSH1 0x40 MLOAD PUSH3 0x461BCD PUSH1 0xE5 SHL DUP2 MSTORE PUSH1 0x4 ADD PUSH2 0x429 SWAP1 PUSH2 0x2A96 JUMP JUMPDEST DUP2 PUSH2 0xEA7 JUMPI PUSH1 0x40 MLOAD PUSH3 0x461BCD PUSH1 0xE5 SHL DUP2 MSTORE PUSH1 0x20 PUSH1 0x4 DUP3 ADD MSTORE PUSH1 0x1F PUSH1 0x24 DUP3 ADD MSTORE PUSH32 0x7472616E73666572207265717565737420746964616B20746572736564696100 PUSH1 0x44 DUP3 ADD MSTORE PUSH1 0x64 ADD PUSH2 0x429 JUMP JUMPDEST PUSH1 0xC DUP2 DUP2 SLOAD DUP2 LT PUSH2 0xEBA JUMPI PUSH2 0xEBA PUSH2 0x2927 JUMP JUMPDEST SWAP1 PUSH0 MSTORE PUSH1 0x20 PUSH0 KECCAK256 SWAP1 PUSH1 0x7 MUL ADD PUSH1 0x3 ADD SLOAD PUSH1 0x8 PUSH0 CALLER PUSH1 0x1 PUSH1 0x1 PUSH1 0xA0 SHL SUB AND PUSH1 0x1 PUSH1 0x1 PUSH1 0xA0 SHL SUB AND DUP2 MSTORE PUSH1 0x20 ADD SWAP1 DUP2 MSTORE PUSH1 0x20 ADD PUSH0 KECCAK256 DUP7 PUSH1 0x40 MLOAD PUSH2 0xEFB SWAP2 SWAP1 PUSH2 0x298F JUMP JUMPDEST SWAP1 DUP2 MSTORE PUSH1 0x20 ADD PUSH1 0x40 MLOAD DUP1 SWAP2 SUB SWAP1 KECCAK256 PUSH0 DUP3 DUP3 SLOAD PUSH2 0xF17 SWAP2 SWAP1 PUSH2 0x2B2A JUMP JUMPDEST SWAP1 SWAP2 SSTORE POP POP PUSH1 0xC DUP1 SLOAD PUSH2 0xF2C SWAP1 PUSH1 0x1 SWAP1 PUSH2 0x29BE JUMP JUMPDEST DUP2 SLOAD DUP2 LT PUSH2 0xF3C JUMPI PUSH2 0xF3C PUSH2 0x2927 JUMP JUMPDEST SWAP1 PUSH0 MSTORE PUSH1 0x20 PUSH0 KECCAK256 SWAP1 PUSH1 0x7 MUL ADD PUSH1 0xC DUP3 DUP2 SLOAD DUP2 LT PUSH2 0xF5B JUMPI PUSH2 0xF5B PUSH2 0x2927 JUMP JUMPDEST PUSH0 SWAP2 DUP3 MSTORE PUSH1 0x20 SWAP1 SWAP2 KECCAK256 PUSH1 0x7 SWAP1 SWAP2 MUL ADD DUP1 PUSH2 0xF75 DUP4 DUP3 PUSH2 0x2B86 JUMP JUMPDEST POP PUSH1 0x1 DUP3 DUP2 ADD SLOAD SWAP1 DUP3 ADD DUP1 SLOAD PUSH1 0x1 PUSH1 0x1 PUSH1 0xA0 SHL SUB SWAP3 DUP4 AND PUSH1 0x1 PUSH1 0x1 PUSH1 0xA0 SHL SUB NOT SWAP2 DUP3 AND OR SWAP1 SWAP2 SSTORE PUSH1 0x2 DUP1 DUP6 ADD SLOAD SWAP1 DUP5 ADD DUP1 SLOAD SWAP2 SWAP1 SWAP4 AND SWAP2 AND OR SWAP1 SSTORE PUSH1 0x3 DUP1 DUP4 ADD SLOAD SWAP1 DUP3 ADD SSTORE PUSH1 0x4 DUP1 DUP4 ADD SLOAD SWAP1 DUP3 ADD SSTORE PUSH1 0x5 DUP1 DUP4 ADD SLOAD SWAP1 DUP3 ADD SSTORE PUSH1 0x6 SWAP2 DUP3 ADD SLOAD SWAP2 ADD SSTORE PUSH1 0xC DUP1 SLOAD PUSH32 0x88AC4E01306872C0A5F289BAF13AF804EEDB981DB2018261CF8AFED94BD9E19B SWAP2 DUP8 SWAP2 CALLER SWAP2 SWAP1 DUP6 SWAP1 DUP2 LT PUSH2 0x1012 JUMPI PUSH2 0x1012 PUSH2 0x2927 JUMP JUMPDEST SWAP1 PUSH0 MSTORE PUSH1 0x20 PUSH0 KECCAK256 SWAP1 PUSH1 0x7 MUL ADD PUSH1 0x2 ADD PUSH0 SWAP1 SLOAD SWAP1 PUSH2 0x100 EXP SWAP1 DIV PUSH1 0x1 PUSH1 0x1 PUSH1 0xA0 SHL SUB AND PUSH1 0xC DUP6 DUP2 SLOAD DUP2 LT PUSH2 0x1047 JUMPI PUSH2 0x1047 PUSH2 0x2927 JUMP JUMPDEST SWAP1 PUSH0 MSTORE PUSH1 0x20 PUSH0 KECCAK256 SWAP1 PUSH1 0x7 MUL ADD PUSH1 0x3 ADD SLOAD PUSH1 0xC DUP7 DUP2 SLOAD DUP2 LT PUSH2 0x106A JUMPI PUSH2 0x106A PUSH2 0x2927 JUMP JUMPDEST SWAP1 PUSH0 MSTORE PUSH1 0x20 PUSH0 KECCAK256 SWAP1 PUSH1 0x7 MUL ADD PUSH1 0x4 ADD SLOAD PUSH1 0xC DUP8 DUP2 SLOAD DUP2 LT PUSH2 0x108D JUMPI PUSH2 0x108D PUSH2 0x2927 JUMP JUMPDEST SWAP1 PUSH0 MSTORE PUSH1 0x20 PUSH0 KECCAK256 SWAP1 PUSH1 0x7 MUL ADD PUSH1 0x5 ADD SLOAD PUSH1 0xC DUP9 DUP2 SLOAD DUP2 LT PUSH2 0x10B0 JUMPI PUSH2 0x10B0 PUSH2 0x2927 JUMP JUMPDEST SWAP1 PUSH0 MSTORE PUSH1 0x20 PUSH0 KECCAK256 SWAP1 PUSH1 0x7 MUL ADD PUSH1 0x6 ADD SLOAD PUSH1 0x40 MLOAD PUSH2 0x10D3 SWAP8 SWAP7 SWAP6 SWAP5 SWAP4 SWAP3 SWAP2 SWAP1 PUSH2 0x2ADE JUMP JUMPDEST PUSH1 0x40 MLOAD DUP1 SWAP2 SUB SWAP1 LOG1 PUSH1 0xC DUP1 SLOAD DUP1 PUSH2 0x10EC JUMPI PUSH2 0x10EC PUSH2 0x2A82 JUMP JUMPDEST PUSH0 DUP3 DUP2 MSTORE PUSH1 0x20 DUP2 KECCAK256 PUSH0 NOT SWAP1 SWAP3 ADD SWAP2 PUSH1 0x7 DUP4 MUL ADD SWAP1 PUSH2 0x110A DUP3 DUP3 PUSH2 0x249F JUMP JUMPDEST POP PUSH1 0x1 DUP2 ADD DUP1 SLOAD PUSH1 0x1 PUSH1 0x1 PUSH1 0xA0 SHL SUB NOT SWAP1 DUP2 AND SWAP1 SWAP2 SSTORE PUSH1 0x2 DUP3 ADD DUP1 SLOAD SWAP1 SWAP2 AND SWAP1 SSTORE PUSH0 PUSH1 0x3 DUP3 ADD DUP2 SWAP1 SSTORE PUSH1 0x4 DUP3 ADD DUP2 SWAP1 SSTORE PUSH1 0x5 DUP3 ADD DUP2 SWAP1 SSTORE PUSH1 0x6 SWAP1 SWAP2 ADD SSTORE SWAP1 SSTORE POP POP POP POP POP JUMP JUMPDEST PUSH1 0x60 PUSH1 0x2 DUP1 SLOAD DUP1 PUSH1 0x20 MUL PUSH1 0x20 ADD PUSH1 0x40 MLOAD SWAP1 DUP2 ADD PUSH1 0x40 MSTORE DUP1 SWAP3 SWAP2 SWAP1 DUP2 DUP2 MSTORE PUSH1 0x20 ADD DUP3 DUP1 SLOAD DUP1 ISZERO PUSH2 0x11A6 JUMPI PUSH1 0x20 MUL DUP3 ADD SWAP2 SWAP1 PUSH0 MSTORE PUSH1 0x20 PUSH0 KECCAK256 SWAP1 JUMPDEST DUP2 SLOAD PUSH1 0x1 PUSH1 0x1 PUSH1 0xA0 SHL SUB AND DUP2 MSTORE PUSH1 0x1 SWAP1 SWAP2 ADD SWAP1 PUSH1 0x20 ADD DUP1 DUP4 GT PUSH2 0x1188 JUMPI JUMPDEST POP POP POP POP POP SWAP1 POP SWAP1 JUMP JUMPDEST PUSH0 DUP1 JUMPDEST PUSH1 0x2 SLOAD DUP2 LT ISZERO PUSH2 0x1204 JUMPI CALLER PUSH1 0x1 PUSH1 0x1 PUSH1 0xA0 SHL SUB AND PUSH1 0x2 DUP3 DUP2 SLOAD DUP2 LT PUSH2 0x11DA JUMPI PUSH2 0x11DA PUSH2 0x2927 JUMP JUMPDEST PUSH0 SWAP2 DUP3 MSTORE PUSH1 0x20 SWAP1 SWAP2 KECCAK256 ADD SLOAD PUSH1 0x1 PUSH1 0x1 PUSH1 0xA0 SHL SUB AND SUB PUSH2 0x11FC JUMPI PUSH1 0x1 SWAP2 POP PUSH2 0x1204 JUMP JUMPDEST PUSH1 0x1 ADD PUSH2 0x11B3 JUMP JUMPDEST POP PUSH1 0x1 DUP2 ISZERO ISZERO EQ PUSH2 0x1227 JUMPI PUSH1 0x40 MLOAD PUSH3 0x461BCD PUSH1 0xE5 SHL DUP2 MSTORE PUSH1 0x4 ADD PUSH2 0x429 SWAP1 PUSH2 0x293B JUMP JUMPDEST CALLER PUSH0 SWAP1 DUP2 MSTORE PUSH1 0x8 PUSH1 0x20 MSTORE PUSH1 0x40 DUP1 DUP3 KECCAK256 SWAP1 MLOAD PUSH2 0x1243 SWAP1 DUP7 SWAP1 PUSH2 0x298F JUMP JUMPDEST SWAP1 DUP2 MSTORE PUSH1 0x20 ADD PUSH1 0x40 MLOAD DUP1 SWAP2 SUB SWAP1 KECCAK256 SLOAD LT ISZERO PUSH2 0x12A0 JUMPI PUSH1 0x40 MLOAD PUSH3 0x461BCD PUSH1 0xE5 SHL DUP2 MSTORE PUSH1 0x20 PUSH1 0x4 DUP3 ADD MSTORE PUSH1 0x1B PUSH1 0x24 DUP3 ADD MSTORE PUSH32 0x746964616B206461706174206465706F7369742076616C756520300000000000 PUSH1 0x44 DUP3 ADD MSTORE PUSH1 0x64 ADD PUSH2 0x429 JUMP JUMPDEST CALLER PUSH0 SWAP1 DUP2 MSTORE PUSH1 0xA PUSH1 0x20 MSTORE PUSH1 0x40 SWAP1 KECCAK256 SLOAD PUSH1 0xFF AND ISZERO PUSH2 0x12FB JUMPI PUSH1 0x40 MLOAD PUSH3 0x461BCD PUSH1 0xE5 SHL DUP2 MSTORE PUSH1 0x20 PUSH1 0x4 DUP3 ADD MSTORE PUSH1 0x19 PUSH1 0x24 DUP3 ADD MSTORE PUSH25 0x70726F73657320736564616E67206265726C616E6773756E67 PUSH1 0x38 SHL PUSH1 0x44 DUP3 ADD MSTORE PUSH1 0x64 ADD PUSH2 0x429 JUMP JUMPDEST CALLER PUSH0 SWAP1 DUP2 MSTORE PUSH1 0xA PUSH1 0x20 SWAP1 DUP2 MSTORE PUSH1 0x40 SWAP2 DUP3 SWAP1 KECCAK256 DUP1 SLOAD PUSH1 0xFF NOT AND PUSH1 0x1 OR SWAP1 SSTORE DUP2 MLOAD DUP1 DUP4 ADD SWAP1 SWAP3 MSTORE PUSH1 0x3 DUP3 MSTORE PUSH3 0x8AA89 PUSH1 0xEB SHL SWAP2 DUP2 ADD SWAP2 SWAP1 SWAP2 MSTORE DUP4 MLOAD SWAP1 DUP5 ADD KECCAK256 PUSH32 0x55514145C7EF4E1948F87E0EB4D28D3E34763F4D4CDF3BC449800860A9D0A00C ADD PUSH2 0x13A6 JUMPI CALLER PUSH0 SWAP1 DUP2 MSTORE PUSH1 0x8 PUSH1 0x20 MSTORE PUSH1 0x40 SWAP1 DUP2 SWAP1 KECCAK256 SWAP1 MLOAD PUSH3 0x8AA89 PUSH1 0xEB SHL DUP2 MSTORE CALLVALUE SWAP2 SWAP1 PUSH1 0x3 ADD SWAP1 DUP2 MSTORE PUSH1 0x20 ADD PUSH1 0x40 MLOAD DUP1 SWAP2 SUB SWAP1 KECCAK256 PUSH0 DUP3 DUP3 SLOAD PUSH2 0x139B SWAP2 SWAP1 PUSH2 0x2B2A JUMP JUMPDEST SWAP1 SWAP2 SSTORE POP PUSH2 0x14D0 SWAP1 POP JUMP JUMPDEST PUSH0 PUSH1 0x1 PUSH1 0x1 PUSH1 0xA0 SHL SUB AND PUSH1 0xB DUP5 PUSH1 0x40 MLOAD PUSH2 0x13C0 SWAP2 SWAP1 PUSH2 0x298F JUMP JUMPDEST SWAP1 DUP2 MSTORE PUSH1 0x40 MLOAD SWAP1 DUP2 SWAP1 SUB PUSH1 0x20 ADD SWAP1 KECCAK256 PUSH1 0x1 ADD SLOAD PUSH1 0x1 PUSH1 0x1 PUSH1 0xA0 SHL SUB AND SUB PUSH2 0x13F9 JUMPI PUSH1 0x40 MLOAD PUSH3 0x461BCD PUSH1 0xE5 SHL DUP2 MSTORE PUSH1 0x4 ADD PUSH2 0x429 SWAP1 PUSH2 0x29D7 JUMP JUMPDEST CALLER PUSH0 SWAP1 DUP2 MSTORE PUSH1 0x8 PUSH1 0x20 MSTORE PUSH1 0x40 SWAP1 DUP2 SWAP1 KECCAK256 SWAP1 MLOAD DUP4 SWAP2 SWAP1 PUSH2 0x1419 SWAP1 DUP7 SWAP1 PUSH2 0x298F JUMP JUMPDEST SWAP1 DUP2 MSTORE PUSH1 0x20 ADD PUSH1 0x40 MLOAD DUP1 SWAP2 SUB SWAP1 KECCAK256 PUSH0 DUP3 DUP3 SLOAD PUSH2 0x1435 SWAP2 SWAP1 PUSH2 0x2B2A JUMP JUMPDEST SWAP1 SWAP2 SSTORE POP POP PUSH1 0x40 MLOAD PUSH1 0xB SWAP1 PUSH2 0x144B SWAP1 DUP6 SWAP1 PUSH2 0x298F JUMP JUMPDEST SWAP1 DUP2 MSTORE PUSH1 0x40 MLOAD SWAP1 DUP2 SWAP1 SUB PUSH1 0x20 ADD DUP2 KECCAK256 PUSH1 0x1 ADD SLOAD PUSH4 0x23B872DD PUSH1 0xE0 SHL DUP3 MSTORE CALLER PUSH1 0x4 DUP4 ADD MSTORE ADDRESS PUSH1 0x24 DUP4 ADD MSTORE PUSH1 0x44 DUP3 ADD DUP5 SWAP1 MSTORE PUSH1 0x1 PUSH1 0x1 PUSH1 0xA0 SHL SUB AND SWAP1 PUSH4 0x23B872DD SWAP1 PUSH1 0x64 ADD PUSH1 0x20 PUSH1 0x40 MLOAD DUP1 DUP4 SUB DUP2 PUSH0 DUP8 GAS CALL ISZERO DUP1 ISZERO PUSH2 0x14AA JUMPI RETURNDATASIZE PUSH0 DUP1 RETURNDATACOPY RETURNDATASIZE PUSH0 REVERT JUMPDEST POP POP POP POP PUSH1 0x40 MLOAD RETURNDATASIZE PUSH1 0x1F NOT PUSH1 0x1F DUP3 ADD AND DUP3 ADD DUP1 PUSH1 0x40 MSTORE POP DUP2 ADD SWAP1 PUSH2 0x14CE SWAP2 SWAP1 PUSH2 0x2A05 JUMP JUMPDEST POP JUMPDEST PUSH32 0x41751252894A74BD975DE630158C4E47BB25C36D9CE7AD90383D86D391D2BE12 DUP4 CALLER CALLVALUE PUSH1 0x4 SLOAD TIMESTAMP PUSH1 0x40 MLOAD PUSH2 0x1509 SWAP6 SWAP5 SWAP4 SWAP3 SWAP2 SWAP1 PUSH2 0x2A2B JUMP JUMPDEST PUSH1 0x40 MLOAD DUP1 SWAP2 SUB SWAP1 LOG1 CALLER PUSH0 SWAP1 DUP2 MSTORE PUSH1 0xA PUSH1 0x20 MSTORE PUSH1 0x40 DUP2 KECCAK256 DUP1 SLOAD PUSH1 0xFF NOT AND SWAP1 SSTORE PUSH1 0x4 DUP1 SLOAD SWAP2 PUSH2 0x714 DUP4 PUSH2 0x2A6A JUMP JUMPDEST PUSH0 DUP1 JUMPDEST PUSH1 0x2 SLOAD DUP2 LT ISZERO PUSH2 0x1589 JUMPI CALLER PUSH1 0x1 PUSH1 0x1 PUSH1 0xA0 SHL SUB AND PUSH1 0x2 DUP3 DUP2 SLOAD DUP2 LT PUSH2 0x155F JUMPI PUSH2 0x155F PUSH2 0x2927 JUMP JUMPDEST PUSH0 SWAP2 DUP3 MSTORE PUSH1 0x20 SWAP1 SWAP2 KECCAK256 ADD SLOAD PUSH1 0x1 PUSH1 0x1 PUSH1 0xA0 SHL SUB AND SUB PUSH2 0x1581 JUMPI PUSH1 0x1 SWAP2 POP PUSH2 0x1589 JUMP JUMPDEST PUSH1 0x1 ADD PUSH2 0x1538 JUMP JUMPDEST POP PUSH1 0x1 DUP2 ISZERO ISZERO EQ PUSH2 0x15AC JUMPI PUSH1 0x40 MLOAD PUSH3 0x461BCD PUSH1 0xE5 SHL DUP2 MSTORE PUSH1 0x4 ADD PUSH2 0x429 SWAP1 PUSH2 0x293B JUMP JUMPDEST PUSH0 JUMPDEST PUSH1 0x2 SLOAD DUP2 LT ISZERO PUSH2 0x163E JUMPI DUP5 PUSH1 0x1 PUSH1 0x1 PUSH1 0xA0 SHL SUB AND PUSH1 0x2 DUP3 DUP2 SLOAD DUP2 LT PUSH2 0x15D5 JUMPI PUSH2 0x15D5 PUSH2 0x2927 JUMP JUMPDEST PUSH0 SWAP2 DUP3 MSTORE PUSH1 0x20 SWAP1 SWAP2 KECCAK256 ADD SLOAD PUSH1 0x1 PUSH1 0x1 PUSH1 0xA0 SHL SUB AND SUB PUSH2 0x1636 JUMPI PUSH1 0x40 MLOAD PUSH3 0x461BCD PUSH1 0xE5 SHL DUP2 MSTORE PUSH1 0x20 PUSH1 0x4 DUP3 ADD MSTORE PUSH1 0x1B PUSH1 0x24 DUP3 ADD MSTORE PUSH32 0x63616E6E6F7420616464206475706C6963617465206F776E6572730000000000 PUSH1 0x44 DUP3 ADD MSTORE PUSH1 0x64 ADD PUSH2 0x429 JUMP JUMPDEST PUSH1 0x1 ADD PUSH2 0x15AE JUMP JUMPDEST POP PUSH1 0x2 DUP1 SLOAD PUSH1 0x1 DUP1 DUP3 ADD DUP4 SSTORE PUSH0 DUP4 SWAP1 MSTORE PUSH32 0x405787FA12A823E0F2B7631CC41B3BA8828B3321CA811111FA75CD3AA3BB5ACE SWAP1 SWAP2 ADD DUP1 SLOAD PUSH1 0x1 PUSH1 0x1 PUSH1 0xA0 SHL SUB NOT AND PUSH1 0x1 PUSH1 0x1 PUSH1 0xA0 SHL SUB DUP9 AND OR SWAP1 SSTORE SWAP1 SLOAD PUSH2 0x1697 SWAP2 SWAP1 PUSH2 0x29BE JUMP JUMPDEST PUSH1 0x3 SSTORE PUSH1 0x40 DUP1 MLOAD CALLER DUP2 MSTORE PUSH1 0x1 PUSH1 0x1 PUSH1 0xA0 SHL SUB DUP7 AND PUSH1 0x20 DUP3 ADD MSTORE TIMESTAMP DUP2 DUP4 ADD MSTORE SWAP1 MLOAD PUSH32 0x43ABCFF3409244EC1056224394AF5F818E9A74866F0A11BFEE2AD52F68AD6FB9 SWAP2 DUP2 SWAP1 SUB PUSH1 0x60 ADD SWAP1 LOG1 PUSH2 0x16EA DUP4 PUSH2 0x1F3C JUMP JUMPDEST PUSH2 0x16F4 DUP5 DUP4 PUSH2 0x2463 JUMP JUMPDEST POP POP POP POP JUMP JUMPDEST PUSH1 0x60 PUSH0 DUP1 JUMPDEST PUSH1 0x2 SLOAD DUP2 LT ISZERO PUSH2 0x1750 JUMPI CALLER PUSH1 0x1 PUSH1 0x1 PUSH1 0xA0 SHL SUB AND PUSH1 0x2 DUP3 DUP2 SLOAD DUP2 LT PUSH2 0x1726 JUMPI PUSH2 0x1726 PUSH2 0x2927 JUMP JUMPDEST PUSH0 SWAP2 DUP3 MSTORE PUSH1 0x20 SWAP1 SWAP2 KECCAK256 ADD SLOAD PUSH1 0x1 PUSH1 0x1 PUSH1 0xA0 SHL SUB AND SUB PUSH2 0x1748 JUMPI PUSH1 0x1 SWAP2 POP PUSH2 0x1750 JUMP JUMPDEST PUSH1 0x1 ADD PUSH2 0x16FF JUMP JUMPDEST POP PUSH1 0x1 DUP2 ISZERO ISZERO EQ PUSH2 0x1773 JUMPI PUSH1 0x40 MLOAD PUSH3 0x461BCD PUSH1 0xE5 SHL DUP2 MSTORE PUSH1 0x4 ADD PUSH2 0x429 SWAP1 PUSH2 0x293B JUMP JUMPDEST PUSH1 0xC DUP1 SLOAD DUP1 PUSH1 0x20 MUL PUSH1 0x20 ADD PUSH1 0x40 MLOAD SWAP1 DUP2 ADD PUSH1 0x40 MSTORE DUP1 SWAP3 SWAP2 SWAP1 DUP2 DUP2 MSTORE PUSH1 0x20 ADD PUSH0 SWAP1 JUMPDEST DUP3 DUP3 LT ISZERO PUSH2 0x18A3 JUMPI DUP4 DUP3 SWAP1 PUSH0 MSTORE PUSH1 0x20 PUSH0 KECCAK256 SWAP1 PUSH1 0x7 MUL ADD PUSH1 0x40 MLOAD DUP1 PUSH1 0xE0 ADD PUSH1 0x40 MSTORE SWAP1 DUP2 PUSH0 DUP3 ADD DUP1 SLOAD PUSH2 0x17C4 SWAP1 PUSH2 0x28EF JUMP JUMPDEST DUP1 PUSH1 0x1F ADD PUSH1 0x20 DUP1 SWAP2 DIV MUL PUSH1 0x20 ADD PUSH1 0x40 MLOAD SWAP1 DUP2 ADD PUSH1 0x40 MSTORE DUP1 SWAP3 SWAP2 SWAP1 DUP2 DUP2 MSTORE PUSH1 0x20 ADD DUP3 DUP1 SLOAD PUSH2 0x17F0 SWAP1 PUSH2 0x28EF JUMP JUMPDEST DUP1 ISZERO PUSH2 0x183B JUMPI DUP1 PUSH1 0x1F LT PUSH2 0x1812 JUMPI PUSH2 0x100 DUP1 DUP4 SLOAD DIV MUL DUP4 MSTORE SWAP2 PUSH1 0x20 ADD SWAP2 PUSH2 0x183B JUMP JUMPDEST DUP3 ADD SWAP2 SWAP1 PUSH0 MSTORE PUSH1 0x20 PUSH0 KECCAK256 SWAP1 JUMPDEST DUP2 SLOAD DUP2 MSTORE SWAP1 PUSH1 0x1 ADD SWAP1 PUSH1 0x20 ADD DUP1 DUP4 GT PUSH2 0x181E JUMPI DUP3 SWAP1 SUB PUSH1 0x1F AND DUP3 ADD SWAP2 JUMPDEST POP POP POP SWAP2 DUP4 MSTORE POP POP PUSH1 0x1 DUP3 DUP2 ADD SLOAD PUSH1 0x1 PUSH1 0x1 PUSH1 0xA0 SHL SUB SWAP1 DUP2 AND PUSH1 0x20 DUP1 DUP6 ADD SWAP2 SWAP1 SWAP2 MSTORE PUSH1 0x2 DUP6 ADD SLOAD SWAP1 SWAP2 AND PUSH1 0x40 DUP5 ADD MSTORE PUSH1 0x3 DUP5 ADD SLOAD PUSH1 0x60 DUP5 ADD MSTORE PUSH1 0x4 DUP5 ADD SLOAD PUSH1 0x80 DUP5 ADD MSTORE PUSH1 0x5 DUP5 ADD SLOAD PUSH1 0xA0 DUP5 ADD MSTORE PUSH1 0x6 SWAP1 SWAP4 ADD SLOAD PUSH1 0xC0 SWAP1 SWAP3 ADD SWAP2 SWAP1 SWAP2 MSTORE SWAP2 DUP4 MSTORE SWAP3 ADD SWAP2 ADD PUSH2 0x1794 JUMP JUMPDEST POP POP POP POP SWAP2 POP JUMPDEST POP SWAP1 JUMP JUMPDEST PUSH0 DUP1 JUMPDEST PUSH1 0x2 SLOAD DUP2 LT ISZERO PUSH2 0x1902 JUMPI CALLER PUSH1 0x1 PUSH1 0x1 PUSH1 0xA0 SHL SUB AND PUSH1 0x2 DUP3 DUP2 SLOAD DUP2 LT PUSH2 0x18D8 JUMPI PUSH2 0x18D8 PUSH2 0x2927 JUMP JUMPDEST PUSH0 SWAP2 DUP3 MSTORE PUSH1 0x20 SWAP1 SWAP2 KECCAK256 ADD SLOAD PUSH1 0x1 PUSH1 0x1 PUSH1 0xA0 SHL SUB AND SUB PUSH2 0x18FA JUMPI PUSH1 0x1 SWAP2 POP PUSH2 0x1902 JUMP JUMPDEST PUSH1 0x1 ADD PUSH2 0x18B1 JUMP JUMPDEST POP PUSH1 0x1 DUP2 ISZERO ISZERO EQ PUSH2 0x1925 JUMPI PUSH1 0x40 MLOAD PUSH3 0x461BCD PUSH1 0xE5 SHL DUP2 MSTORE PUSH1 0x4 ADD PUSH2 0x429 SWAP1 PUSH2 0x293B JUMP JUMPDEST PUSH0 JUMPDEST PUSH1 0x7 SLOAD DUP2 LT ISZERO PUSH2 0x19BE JUMPI DUP4 DUP1 MLOAD SWAP1 PUSH1 0x20 ADD KECCAK256 PUSH1 0x7 DUP3 DUP2 SLOAD DUP2 LT PUSH2 0x194C JUMPI PUSH2 0x194C PUSH2 0x2927 JUMP JUMPDEST SWAP1 PUSH0 MSTORE PUSH1 0x20 PUSH0 KECCAK256 ADD PUSH1 0x40 MLOAD PUSH2 0x1961 SWAP2 SWAP1 PUSH2 0x2C5B JUMP JUMPDEST PUSH1 0x40 MLOAD DUP1 SWAP2 SUB SWAP1 KECCAK256 SUB PUSH2 0x19B6 JUMPI PUSH1 0x40 MLOAD PUSH3 0x461BCD PUSH1 0xE5 SHL DUP2 MSTORE PUSH1 0x20 PUSH1 0x4 DUP3 ADD MSTORE PUSH1 0x1F PUSH1 0x24 DUP3 ADD MSTORE PUSH32 0x746964616B2064617061742061646420746F6B656E73206475706C696B617400 PUSH1 0x44 DUP3 ADD MSTORE PUSH1 0x64 ADD PUSH2 0x429 JUMP JUMPDEST PUSH1 0x1 ADD PUSH2 0x1927 JUMP JUMPDEST POP DUP3 DUP1 MLOAD SWAP1 PUSH1 0x20 ADD KECCAK256 DUP3 PUSH1 0x1 PUSH1 0x1 PUSH1 0xA0 SHL SUB AND PUSH4 0x95D89B41 PUSH1 0x40 MLOAD DUP2 PUSH4 0xFFFFFFFF AND PUSH1 0xE0 SHL DUP2 MSTORE PUSH1 0x4 ADD PUSH0 PUSH1 0x40 MLOAD DUP1 DUP4 SUB DUP2 DUP7 GAS STATICCALL ISZERO DUP1 ISZERO PUSH2 0x1A02 JUMPI RETURNDATASIZE PUSH0 DUP1 RETURNDATACOPY RETURNDATASIZE PUSH0 REVERT JUMPDEST POP POP POP POP PUSH1 0x40 MLOAD RETURNDATASIZE PUSH0 DUP3 RETURNDATACOPY PUSH1 0x1F RETURNDATASIZE SWAP1 DUP2 ADD PUSH1 0x1F NOT AND DUP3 ADD PUSH1 0x40 MSTORE PUSH2 0x1A29 SWAP2 SWAP1 DUP2 ADD SWAP1 PUSH2 0x2CCD JUMP JUMPDEST DUP1 MLOAD SWAP1 PUSH1 0x20 ADD KECCAK256 EQ PUSH2 0x1A7D JUMPI PUSH1 0x40 MLOAD PUSH3 0x461BCD PUSH1 0xE5 SHL DUP2 MSTORE PUSH1 0x20 PUSH1 0x4 DUP3 ADD MSTORE PUSH1 0x1F PUSH1 0x24 DUP3 ADD MSTORE PUSH32 0x746F6B656E20746964616B207465727365646961207061646120455243323000 PUSH1 0x44 DUP3 ADD MSTORE PUSH1 0x64 ADD PUSH2 0x429 JUMP JUMPDEST PUSH1 0x40 MLOAD DUP1 PUSH1 0x40 ADD PUSH1 0x40 MSTORE DUP1 DUP5 DUP2 MSTORE PUSH1 0x20 ADD DUP4 PUSH1 0x1 PUSH1 0x1 PUSH1 0xA0 SHL SUB AND DUP2 MSTORE POP PUSH1 0xB DUP5 PUSH1 0x40 MLOAD PUSH2 0x1AAB SWAP2 SWAP1 PUSH2 0x298F JUMP JUMPDEST SWAP1 DUP2 MSTORE PUSH1 0x40 MLOAD SWAP1 DUP2 SWAP1 SUB PUSH1 0x20 ADD SWAP1 KECCAK256 DUP2 MLOAD DUP2 SWAP1 PUSH2 0x1AC8 SWAP1 DUP3 PUSH2 0x2D3F JUMP JUMPDEST POP PUSH1 0x20 SWAP2 SWAP1 SWAP2 ADD MLOAD PUSH1 0x1 SWAP2 DUP3 ADD DUP1 SLOAD PUSH1 0x1 PUSH1 0x1 PUSH1 0xA0 SHL SUB NOT AND PUSH1 0x1 PUSH1 0x1 PUSH1 0xA0 SHL SUB SWAP1 SWAP3 AND SWAP2 SWAP1 SWAP2 OR SWAP1 SSTORE PUSH1 0x7 DUP1 SLOAD SWAP2 DUP3 ADD DUP2 SSTORE PUSH0 MSTORE PUSH32 0xA66CC928B5EDB82AF9BD49922954155AB7B0942694BEA4CE44661D9A8736C688 ADD PUSH2 0x1B29 DUP5 DUP3 PUSH2 0x2D3F JUMP JUMPDEST POP PUSH32 0xE6887A88BB2477605D9B68E33F64A263587018A6A232F3B234BA1B78C96B84F2 CALLER DUP5 DUP5 TIMESTAMP PUSH1 0x40 MLOAD PUSH2 0x1B5F SWAP5 SWAP4 SWAP3 SWAP2 SWAP1 PUSH2 0x2DF3 JUMP JUMPDEST PUSH1 0x40 MLOAD DUP1 SWAP2 SUB SWAP1 LOG1 POP POP POP JUMP JUMPDEST PUSH0 DUP1 JUMPDEST PUSH1 0x2 SLOAD DUP2 LT ISZERO PUSH2 0x1BC0 JUMPI CALLER PUSH1 0x1 PUSH1 0x1 PUSH1 0xA0 SHL SUB AND PUSH1 0x2 DUP3 DUP2 SLOAD DUP2 LT PUSH2 0x1B96 JUMPI PUSH2 0x1B96 PUSH2 0x2927 JUMP JUMPDEST PUSH0 SWAP2 DUP3 MSTORE PUSH1 0x20 SWAP1 SWAP2 KECCAK256 ADD SLOAD PUSH1 0x1 PUSH1 0x1 PUSH1 0xA0 SHL SUB AND SUB PUSH2 0x1BB8 JUMPI PUSH1 0x1 SWAP2 POP PUSH2 0x1BC0 JUMP JUMPDEST PUSH1 0x1 ADD PUSH2 0x1B6F JUMP JUMPDEST POP PUSH1 0x1 DUP2 ISZERO ISZERO EQ PUSH2 0x1BE3 JUMPI PUSH1 0x40 MLOAD PUSH3 0x461BCD PUSH1 0xE5 SHL DUP2 MSTORE PUSH1 0x4 ADD PUSH2 0x429 SWAP1 PUSH2 0x293B JUMP JUMPDEST PUSH1 0x40 DUP1 MLOAD DUP1 DUP3 ADD SWAP1 SWAP2 MSTORE PUSH1 0x3 DUP2 MSTORE PUSH3 0x8AA89 PUSH1 0xEB SHL PUSH1 0x20 SWAP2 DUP3 ADD MSTORE DUP5 MLOAD SWAP1 DUP6 ADD KECCAK256 DUP5 SWAP1 PUSH32 0xAAAEBEBA3810B1E6B70781F14B2D72C1CB89C0B2B320C43BB67FF79F562F5FF4 EQ PUSH2 0x1C7F JUMPI PUSH0 PUSH1 0x1 PUSH1 0x1 PUSH1 0xA0 SHL SUB AND PUSH1 0xB DUP3 PUSH1 0x40 MLOAD PUSH2 0x1C46 SWAP2 SWAP1 PUSH2 0x298F JUMP JUMPDEST SWAP1 DUP2 MSTORE PUSH1 0x40 MLOAD SWAP1 DUP2 SWAP1 SUB PUSH1 0x20 ADD SWAP1 KECCAK256 PUSH1 0x1 ADD SLOAD PUSH1 0x1 PUSH1 0x1 PUSH1 0xA0 SHL SUB AND SUB PUSH2 0x1C7F JUMPI PUSH1 0x40 MLOAD PUSH3 0x461BCD PUSH1 0xE5 SHL DUP2 MSTORE PUSH1 0x4 ADD PUSH2 0x429 SWAP1 PUSH2 0x29D7 JUMP JUMPDEST CALLER PUSH0 SWAP1 DUP2 MSTORE PUSH1 0x8 PUSH1 0x20 MSTORE PUSH1 0x40 SWAP1 DUP2 SWAP1 KECCAK256 SWAP1 MLOAD DUP5 SWAP2 SWAP1 PUSH2 0x1C9F SWAP1 DUP9 SWAP1 PUSH2 0x298F JUMP JUMPDEST SWAP1 DUP2 MSTORE PUSH1 0x20 ADD PUSH1 0x40 MLOAD DUP1 SWAP2 SUB SWAP1 KECCAK256 SLOAD LT ISZERO PUSH2 0x1D0C JUMPI PUSH1 0x40 MLOAD PUSH3 0x461BCD PUSH1 0xE5 SHL DUP2 MSTORE PUSH1 0x20 PUSH1 0x4 DUP3 ADD MSTORE PUSH1 0x27 PUSH1 0x24 DUP3 ADD MSTORE PUSH32 0x66756E647320746964616B2063756B757020756E74756B206372656174652074 PUSH1 0x44 DUP3 ADD MSTORE PUSH7 0x3930B739B332B9 PUSH1 0xC9 SHL PUSH1 0x64 DUP3 ADD MSTORE PUSH1 0x84 ADD PUSH2 0x429 JUMP JUMPDEST PUSH0 JUMPDEST PUSH1 0x2 SLOAD DUP2 LT ISZERO PUSH2 0x1DB4 JUMPI DUP5 PUSH1 0x1 PUSH1 0x1 PUSH1 0xA0 SHL SUB AND PUSH1 0x2 DUP3 DUP2 SLOAD DUP2 LT PUSH2 0x1D35 JUMPI PUSH2 0x1D35 PUSH2 0x2927 JUMP JUMPDEST PUSH0 SWAP2 DUP3 MSTORE PUSH1 0x20 SWAP1 SWAP2 KECCAK256 ADD SLOAD PUSH1 0x1 PUSH1 0x1 PUSH1 0xA0 SHL SUB AND SUB PUSH2 0x1DAC JUMPI PUSH1 0x40 MLOAD PUSH3 0x461BCD PUSH1 0xE5 SHL DUP2 MSTORE PUSH1 0x20 PUSH1 0x4 DUP3 ADD MSTORE PUSH1 0x2D PUSH1 0x24 DUP3 ADD MSTORE PUSH32 0x746964616B2062697361207472616E736665722066756E647320706164612077 PUSH1 0x44 DUP3 ADD MSTORE PUSH13 0x616C6C65742070726962616469 PUSH1 0x98 SHL PUSH1 0x64 DUP3 ADD MSTORE PUSH1 0x84 ADD PUSH2 0x429 JUMP JUMPDEST PUSH1 0x1 ADD PUSH2 0x1D0E JUMP JUMPDEST POP CALLER PUSH0 SWAP1 DUP2 MSTORE PUSH1 0x8 PUSH1 0x20 MSTORE PUSH1 0x40 SWAP1 DUP2 SWAP1 KECCAK256 SWAP1 MLOAD DUP5 SWAP2 SWAP1 PUSH2 0x1DD5 SWAP1 DUP9 SWAP1 PUSH2 0x298F JUMP JUMPDEST SWAP1 DUP2 MSTORE PUSH1 0x20 ADD PUSH1 0x40 MLOAD DUP1 SWAP2 SUB SWAP1 KECCAK256 PUSH0 DUP3 DUP3 SLOAD PUSH2 0x1DF1 SWAP2 SWAP1 PUSH2 0x29BE JUMP JUMPDEST SWAP1 SWAP2 SSTORE POP POP PUSH1 0x40 DUP1 MLOAD PUSH1 0xE0 DUP2 ADD DUP3 MSTORE DUP7 DUP2 MSTORE CALLER PUSH1 0x20 DUP3 ADD MSTORE PUSH1 0x1 PUSH1 0x1 PUSH1 0xA0 SHL SUB DUP7 AND SWAP2 DUP2 ADD SWAP2 SWAP1 SWAP2 MSTORE PUSH1 0x60 DUP2 ADD DUP5 SWAP1 MSTORE PUSH1 0x6 SLOAD PUSH1 0x80 DUP3 ADD MSTORE PUSH0 PUSH1 0xA0 DUP3 ADD DUP2 SWAP1 MSTORE TIMESTAMP PUSH1 0xC0 DUP4 ADD MSTORE PUSH1 0xC DUP1 SLOAD PUSH1 0x1 DUP2 ADD DUP3 SSTORE SWAP2 MSTORE DUP2 MLOAD PUSH1 0x7 SWAP1 SWAP2 MUL PUSH32 0xDF6966C971051C3D54EC59162606531493A51404A002842F56009D7E5CF4A8C7 ADD SWAP1 DUP2 SWAP1 PUSH2 0x1E79 SWAP1 DUP3 PUSH2 0x2D3F JUMP JUMPDEST POP PUSH1 0x20 DUP3 ADD MLOAD PUSH1 0x1 DUP3 ADD DUP1 SLOAD PUSH1 0x1 PUSH1 0x1 PUSH1 0xA0 SHL SUB SWAP3 DUP4 AND PUSH1 0x1 PUSH1 0x1 PUSH1 0xA0 SHL SUB NOT SWAP2 DUP3 AND OR SWAP1 SWAP2 SSTORE PUSH1 0x40 DUP5 ADD MLOAD PUSH1 0x2 DUP5 ADD DUP1 SLOAD SWAP2 SWAP1 SWAP4 AND SWAP2 AND OR SWAP1 SSTORE PUSH1 0x60 DUP3 ADD MLOAD PUSH1 0x3 DUP3 ADD SSTORE PUSH1 0x80 DUP3 ADD MLOAD PUSH1 0x4 DUP3 ADD SSTORE PUSH1 0xA0 DUP3 ADD MLOAD PUSH1 0x5 DUP3 ADD SSTORE PUSH1 0xC0 SWAP1 SWAP2 ADD MLOAD PUSH1 0x6 SWAP2 DUP3 ADD SSTORE DUP1 SLOAD SWAP1 PUSH0 PUSH2 0x1EEB DUP4 PUSH2 0x2A6A JUMP JUMPDEST SWAP2 SWAP1 POP SSTORE POP PUSH32 0x9CC5DF05955D08828D561F92AD3F6B82C78A55CF7D3DEDACFFACC4F694FAF9BE DUP6 CALLER DUP7 DUP7 PUSH1 0x6 SLOAD PUSH0 TIMESTAMP PUSH1 0x40 MLOAD PUSH2 0x1F2D SWAP8 SWAP7 SWAP6 SWAP5 SWAP4 SWAP3 SWAP2 SWAP1 PUSH2 0x2ADE JUMP JUMPDEST PUSH1 0x40 MLOAD DUP1 SWAP2 SUB SWAP1 LOG1 POP POP POP POP POP JUMP JUMPDEST PUSH1 0x1 DUP1 SLOAD PUSH1 0x1 PUSH1 0x1 PUSH1 0xA0 SHL SUB NOT AND PUSH1 0x1 PUSH1 0x1 PUSH1 0xA0 SHL SUB SWAP3 SWAP1 SWAP3 AND SWAP2 SWAP1 SWAP2 OR SWAP1 SSTORE JUMP JUMPDEST PUSH1 0x1 SLOAD PUSH1 0x40 MLOAD PUSH4 0x628BF691 PUSH1 0xE0 SHL DUP2 MSTORE PUSH1 0x1 PUSH1 0x1 PUSH1 0xA0 SHL SUB DUP5 DUP2 AND PUSH1 0x4 DUP4 ADD MSTORE DUP4 DUP2 AND PUSH1 0x24 DUP4 ADD MSTORE SWAP1 SWAP2 AND SWAP1 DUP2 SWAP1 PUSH4 0x628BF691 SWAP1 PUSH1 0x44 ADD JUMPDEST PUSH0 PUSH1 0x40 MLOAD DUP1 DUP4 SUB DUP2 PUSH0 DUP8 DUP1 EXTCODESIZE ISZERO DUP1 ISZERO PUSH2 0x1FAD JUMPI PUSH0 DUP1 REVERT JUMPDEST POP GAS CALL ISZERO DUP1 ISZERO PUSH2 0x1FBF JUMPI RETURNDATASIZE PUSH0 DUP1 RETURNDATACOPY RETURNDATASIZE PUSH0 REVERT JUMPDEST POP POP POP POP POP POP POP JUMP JUMPDEST PUSH1 0xC DUP2 DUP2 SLOAD DUP2 LT PUSH2 0x1FDB JUMPI PUSH2 0x1FDB PUSH2 0x2927 JUMP JUMPDEST SWAP1 PUSH0 MSTORE PUSH1 0x20 PUSH0 KECCAK256 SWAP1 PUSH1 0x7 MUL ADD PUSH1 0x3 ADD SLOAD PUSH1 0x8 PUSH0 PUSH1 0xC DUP5 DUP2 SLOAD DUP2 LT PUSH2 0x2001 JUMPI PUSH2 0x2001 PUSH2 0x2927 JUMP JUMPDEST PUSH0 SWAP2 DUP3 MSTORE PUSH1 0x20 DUP1 DUP4 KECCAK256 PUSH1 0x2 PUSH1 0x7 SWAP1 SWAP4 MUL ADD SWAP2 SWAP1 SWAP2 ADD SLOAD PUSH1 0x1 PUSH1 0x1 PUSH1 0xA0 SHL SUB AND DUP4 MSTORE DUP3 ADD SWAP3 SWAP1 SWAP3 MSTORE PUSH1 0x40 SWAP1 DUP2 ADD SWAP1 SWAP2 KECCAK256 SWAP1 MLOAD PUSH2 0x203D SWAP1 DUP6 SWAP1 PUSH2 0x298F JUMP JUMPDEST SWAP1 DUP2 MSTORE PUSH1 0x20 ADD PUSH1 0x40 MLOAD DUP1 SWAP2 SUB SWAP1 KECCAK256 PUSH0 DUP3 DUP3 SLOAD PUSH2 0x2059 SWAP2 SWAP1 PUSH2 0x2B2A JUMP JUMPDEST SWAP1 SWAP2 SSTORE POP POP PUSH1 0x40 DUP1 MLOAD DUP1 DUP3 ADD SWAP1 SWAP2 MSTORE PUSH1 0x3 DUP2 MSTORE PUSH3 0x8AA89 PUSH1 0xEB SHL PUSH1 0x20 SWAP2 DUP3 ADD MSTORE DUP3 MLOAD SWAP1 DUP4 ADD KECCAK256 PUSH32 0x55514145C7EF4E1948F87E0EB4D28D3E34763F4D4CDF3BC449800860A9D0A00C ADD PUSH2 0x2137 JUMPI PUSH1 0xC DUP2 DUP2 SLOAD DUP2 LT PUSH2 0x20B8 JUMPI PUSH2 0x20B8 PUSH2 0x2927 JUMP JUMPDEST SWAP1 PUSH0 MSTORE PUSH1 0x20 PUSH0 KECCAK256 SWAP1 PUSH1 0x7 MUL ADD PUSH1 0x2 ADD PUSH0 SWAP1 SLOAD SWAP1 PUSH2 0x100 EXP SWAP1 DIV PUSH1 0x1 PUSH1 0x1 PUSH1 0xA0 SHL SUB AND PUSH1 0x1 PUSH1 0x1 PUSH1 0xA0 SHL SUB AND PUSH2 0x8FC PUSH1 0xC DUP4 DUP2 SLOAD DUP2 LT PUSH2 0x20F9 JUMPI PUSH2 0x20F9 PUSH2 0x2927 JUMP JUMPDEST SWAP1 PUSH0 MSTORE PUSH1 0x20 PUSH0 KECCAK256 SWAP1 PUSH1 0x7 MUL ADD PUSH1 0x3 ADD SLOAD SWAP1 DUP2 ISZERO MUL SWAP1 PUSH1 0x40 MLOAD PUSH0 PUSH1 0x40 MLOAD DUP1 DUP4 SUB DUP2 DUP6 DUP9 DUP9 CALL SWAP4 POP POP POP POP ISZERO DUP1 ISZERO PUSH2 0x2131 JUMPI RETURNDATASIZE PUSH0 DUP1 RETURNDATACOPY RETURNDATASIZE PUSH0 REVERT JUMPDEST POP PUSH2 0x2237 JUMP JUMPDEST PUSH1 0xB DUP3 PUSH1 0x40 MLOAD PUSH2 0x2147 SWAP2 SWAP1 PUSH2 0x298F JUMP JUMPDEST SWAP1 DUP2 MSTORE PUSH1 0x40 MLOAD SWAP1 DUP2 SWAP1 SUB PUSH1 0x20 ADD SWAP1 KECCAK256 PUSH1 0x1 ADD SLOAD PUSH1 0xC DUP1 SLOAD PUSH1 0x1 PUSH1 0x1 PUSH1 0xA0 SHL SUB SWAP1 SWAP3 AND SWAP2 PUSH4 0xA9059CBB SWAP2 SWAP1 DUP5 SWAP1 DUP2 LT PUSH2 0x2181 JUMPI PUSH2 0x2181 PUSH2 0x2927 JUMP JUMPDEST SWAP1 PUSH0 MSTORE PUSH1 0x20 PUSH0 KECCAK256 SWAP1 PUSH1 0x7 MUL ADD PUSH1 0x2 ADD PUSH0 SWAP1 SLOAD SWAP1 PUSH2 0x100 EXP SWAP1 DIV PUSH1 0x1 PUSH1 0x1 PUSH1 0xA0 SHL SUB AND PUSH1 0xC DUP5 DUP2 SLOAD DUP2 LT PUSH2 0x21B6 JUMPI PUSH2 0x21B6 PUSH2 0x2927 JUMP JUMPDEST PUSH0 SWAP2 DUP3 MSTORE PUSH1 0x20 SWAP1 SWAP2 KECCAK256 PUSH1 0x3 PUSH1 0x7 SWAP1 SWAP3 MUL ADD ADD SLOAD PUSH1 0x40 MLOAD PUSH1 0x1 PUSH1 0x1 PUSH1 0xE0 SHL SUB NOT PUSH1 0xE0 DUP6 SWAP1 SHL AND DUP2 MSTORE PUSH1 0x1 PUSH1 0x1 PUSH1 0xA0 SHL SUB SWAP1 SWAP3 AND PUSH1 0x4 DUP4 ADD MSTORE PUSH1 0x24 DUP3 ADD MSTORE PUSH1 0x44 ADD PUSH1 0x20 PUSH1 0x40 MLOAD DUP1 DUP4 SUB DUP2 PUSH0 DUP8 GAS CALL ISZERO DUP1 ISZERO PUSH2 0x2211 JUMPI RETURNDATASIZE PUSH0 DUP1 RETURNDATACOPY RETURNDATASIZE PUSH0 REVERT JUMPDEST POP POP POP POP PUSH1 0x40 MLOAD RETURNDATASIZE PUSH1 0x1F NOT PUSH1 0x1F DUP3 ADD AND DUP3 ADD DUP1 PUSH1 0x40 MSTORE POP DUP2 ADD SWAP1 PUSH2 0x2235 SWAP2 SWAP1 PUSH2 0x2A05 JUMP JUMPDEST POP JUMPDEST PUSH32 0xDEEA4C72B502B4BD7DCE3C793E57C46BB32F3B2F66613D54A765E7585F520A2C DUP3 CALLER PUSH1 0xC DUP5 DUP2 SLOAD DUP2 LT PUSH2 0x226D JUMPI PUSH2 0x226D PUSH2 0x2927 JUMP JUMPDEST SWAP1 PUSH0 MSTORE PUSH1 0x20 PUSH0 KECCAK256 SWAP1 PUSH1 0x7 MUL ADD PUSH1 0x2 ADD PUSH0 SWAP1 SLOAD SWAP1 PUSH2 0x100 EXP SWAP1 DIV PUSH1 0x1 PUSH1 0x1 PUSH1 0xA0 SHL SUB AND PUSH1 0xC DUP6 DUP2 SLOAD DUP2 LT PUSH2 0x22A2 JUMPI PUSH2 0x22A2 PUSH2 0x2927 JUMP JUMPDEST SWAP1 PUSH0 MSTORE PUSH1 0x20 PUSH0 KECCAK256 SWAP1 PUSH1 0x7 MUL ADD PUSH1 0x3 ADD SLOAD PUSH1 0xC DUP7 DUP2 SLOAD DUP2 LT PUSH2 0x22C5 JUMPI PUSH2 0x22C5 PUSH2 0x2927 JUMP JUMPDEST SWAP1 PUSH0 MSTORE PUSH1 0x20 PUSH0 KECCAK256 SWAP1 PUSH1 0x7 MUL ADD PUSH1 0x4 ADD SLOAD PUSH1 0xC DUP8 DUP2 SLOAD DUP2 LT PUSH2 0x22E8 JUMPI PUSH2 0x22E8 PUSH2 0x2927 JUMP JUMPDEST SWAP1 PUSH0 MSTORE PUSH1 0x20 PUSH0 KECCAK256 SWAP1 PUSH1 0x7 MUL ADD PUSH1 0x5 ADD SLOAD PUSH1 0xC DUP9 DUP2 SLOAD DUP2 LT PUSH2 0x230B JUMPI PUSH2 0x230B PUSH2 0x2927 JUMP JUMPDEST SWAP1 PUSH0 MSTORE PUSH1 0x20 PUSH0 KECCAK256 SWAP1 PUSH1 0x7 MUL ADD PUSH1 0x6 ADD SLOAD PUSH1 0x40 MLOAD PUSH2 0x232E SWAP8 SWAP7 SWAP6 SWAP5 SWAP4 SWAP3 SWAP2 SWAP1 PUSH2 0x2ADE JUMP JUMPDEST PUSH1 0x40 MLOAD DUP1 SWAP2 SUB SWAP1 LOG1 PUSH1 0xC DUP1 SLOAD PUSH2 0x2346 SWAP1 PUSH1 0x1 SWAP1 PUSH2 0x29BE JUMP JUMPDEST DUP2 SLOAD DUP2 LT PUSH2 0x2356 JUMPI PUSH2 0x2356 PUSH2 0x2927 JUMP JUMPDEST SWAP1 PUSH0 MSTORE PUSH1 0x20 PUSH0 KECCAK256 SWAP1 PUSH1 0x7 MUL ADD PUSH1 0xC DUP3 DUP2 SLOAD DUP2 LT PUSH2 0x2375 JUMPI PUSH2 0x2375 PUSH2 0x2927 JUMP JUMPDEST PUSH0 SWAP2 DUP3 MSTORE PUSH1 0x20 SWAP1 SWAP2 KECCAK256 PUSH1 0x7 SWAP1 SWAP2 MUL ADD DUP1 PUSH2 0x238F DUP4 DUP3 PUSH2 0x2B86 JUMP JUMPDEST POP PUSH1 0x1 DUP3 DUP2 ADD SLOAD SWAP1 DUP3 ADD DUP1 SLOAD PUSH1 0x1 PUSH1 0x1 PUSH1 0xA0 SHL SUB SWAP3 DUP4 AND PUSH1 0x1 PUSH1 0x1 PUSH1 0xA0 SHL SUB NOT SWAP2 DUP3 AND OR SWAP1 SWAP2 SSTORE PUSH1 0x2 DUP1 DUP6 ADD SLOAD SWAP1 DUP5 ADD DUP1 SLOAD SWAP2 SWAP1 SWAP4 AND SWAP2 AND OR SWAP1 SSTORE PUSH1 0x3 DUP1 DUP4 ADD SLOAD SWAP1 DUP3 ADD SSTORE PUSH1 0x4 DUP1 DUP4 ADD SLOAD SWAP1 DUP3 ADD SSTORE PUSH1 0x5 DUP1 DUP4 ADD SLOAD SWAP1 DUP3 ADD SSTORE PUSH1 0x6 SWAP2 DUP3 ADD SLOAD SWAP2 ADD SSTORE PUSH1 0xC DUP1 SLOAD DUP1 PUSH2 0x2402 JUMPI PUSH2 0x2402 PUSH2 0x2A82 JUMP JUMPDEST PUSH0 DUP3 DUP2 MSTORE PUSH1 0x20 DUP2 KECCAK256 PUSH0 NOT SWAP1 SWAP3 ADD SWAP2 PUSH1 0x7 DUP4 MUL ADD SWAP1 PUSH2 0x2420 DUP3 DUP3 PUSH2 0x249F JUMP JUMPDEST POP PUSH1 0x1 DUP2 ADD DUP1 SLOAD PUSH1 0x1 PUSH1 0x1 PUSH1 0xA0 SHL SUB NOT SWAP1 DUP2 AND SWAP1 SWAP2 SSTORE PUSH1 0x2 DUP3 ADD DUP1 SLOAD SWAP1 SWAP2 AND SWAP1 SSTORE PUSH0 PUSH1 0x3 DUP3 ADD DUP2 SWAP1 SSTORE PUSH1 0x4 DUP3 ADD DUP2 SWAP1 SSTORE PUSH1 0x5 DUP3 ADD DUP2 SWAP1 SSTORE PUSH1 0x6 SWAP1 SWAP2 ADD SSTORE SWAP1 SSTORE POP POP JUMP JUMPDEST PUSH1 0x1 SLOAD PUSH1 0x40 MLOAD PUSH4 0x269AE8B1 PUSH1 0xE0 SHL DUP2 MSTORE PUSH1 0x1 PUSH1 0x1 PUSH1 0xA0 SHL SUB DUP5 DUP2 AND PUSH1 0x4 DUP4 ADD MSTORE DUP4 DUP2 AND PUSH1 0x24 DUP4 ADD MSTORE SWAP1 SWAP2 AND SWAP1 DUP2 SWAP1 PUSH4 0x269AE8B1 SWAP1 PUSH1 0x44 ADD PUSH2 0x1F96 JUMP JUMPDEST POP DUP1 SLOAD PUSH2 0x24AB SWAP1 PUSH2 0x28EF JUMP JUMPDEST PUSH0 DUP3 SSTORE DUP1 PUSH1 0x1F LT PUSH2 0x24BA JUMPI POP POP JUMP JUMPDEST PUSH1 0x1F ADD PUSH1 0x20 SWAP1 DIV SWAP1 PUSH0 MSTORE PUSH1 0x20 PUSH0 KECCAK256 SWAP1 DUP2 ADD SWAP1 PUSH2 0x24D6 SWAP2 SWAP1 PUSH2 0x24D9 JUMP JUMPDEST POP JUMP JUMPDEST JUMPDEST DUP1 DUP3 GT ISZERO PUSH2 0x18AA JUMPI PUSH0 DUP2 SSTORE PUSH1 0x1 ADD PUSH2 0x24DA JUMP JUMPDEST PUSH0 JUMPDEST DUP4 DUP2 LT ISZERO PUSH2 0x2507 JUMPI DUP2 DUP2 ADD MLOAD DUP4 DUP3 ADD MSTORE PUSH1 0x20 ADD PUSH2 0x24EF JUMP JUMPDEST POP POP PUSH0 SWAP2 ADD MSTORE JUMP JUMPDEST PUSH0 DUP2 MLOAD DUP1 DUP5 MSTORE PUSH2 0x2526 DUP2 PUSH1 0x20 DUP7 ADD PUSH1 0x20 DUP7 ADD PUSH2 0x24ED JUMP JUMPDEST PUSH1 0x1F ADD PUSH1 0x1F NOT AND SWAP3 SWAP1 SWAP3 ADD PUSH1 0x20 ADD SWAP3 SWAP2 POP POP JUMP JUMPDEST PUSH0 PUSH1 0x20 DUP1 DUP4 ADD PUSH1 0x20 DUP5 MSTORE DUP1 DUP6 MLOAD DUP1 DUP4 MSTORE PUSH1 0x40 DUP7 ADD SWAP2 POP PUSH1 0x40 DUP2 PUSH1 0x5 SHL DUP8 ADD ADD SWAP3 POP PUSH1 0x20 DUP8 ADD PUSH0 JUMPDEST DUP3 DUP2 LT ISZERO PUSH2 0x258F JUMPI PUSH1 0x3F NOT DUP9 DUP7 SUB ADD DUP5 MSTORE PUSH2 0x257D DUP6 DUP4 MLOAD PUSH2 0x250F JUMP JUMPDEST SWAP5 POP SWAP3 DUP6 ADD SWAP3 SWAP1 DUP6 ADD SWAP1 PUSH1 0x1 ADD PUSH2 0x2561 JUMP JUMPDEST POP SWAP3 SWAP8 SWAP7 POP POP POP POP POP POP POP JUMP JUMPDEST PUSH4 0x4E487B71 PUSH1 0xE0 SHL PUSH0 MSTORE PUSH1 0x41 PUSH1 0x4 MSTORE PUSH1 0x24 PUSH0 REVERT JUMPDEST PUSH1 0x40 MLOAD PUSH1 0x1F DUP3 ADD PUSH1 0x1F NOT AND DUP2 ADD PUSH8 0xFFFFFFFFFFFFFFFF DUP2 GT DUP3 DUP3 LT OR ISZERO PUSH2 0x25D9 JUMPI PUSH2 0x25D9 PUSH2 0x259C JUMP JUMPDEST PUSH1 0x40 MSTORE SWAP2 SWAP1 POP JUMP JUMPDEST PUSH0 PUSH8 0xFFFFFFFFFFFFFFFF DUP3 GT ISZERO PUSH2 0x25FA JUMPI PUSH2 0x25FA PUSH2 0x259C JUMP JUMPDEST POP PUSH1 0x1F ADD PUSH1 0x1F NOT AND PUSH1 0x20 ADD SWAP1 JUMP JUMPDEST PUSH0 DUP3 PUSH1 0x1F DUP4 ADD SLT PUSH2 0x2617 JUMPI PUSH0 DUP1 REVERT JUMPDEST DUP2 CALLDATALOAD PUSH2 0x262A PUSH2 0x2625 DUP3 PUSH2 0x25E1 JUMP JUMPDEST PUSH2 0x25B0 JUMP JUMPDEST DUP2 DUP2 MSTORE DUP5 PUSH1 0x20 DUP4 DUP7 ADD ADD GT ISZERO PUSH2 0x263E JUMPI PUSH0 DUP1 REVERT JUMPDEST DUP2 PUSH1 0x20 DUP6 ADD PUSH1 0x20 DUP4 ADD CALLDATACOPY PUSH0 SWAP2 DUP2 ADD PUSH1 0x20 ADD SWAP2 SWAP1 SWAP2 MSTORE SWAP4 SWAP3 POP POP POP JUMP JUMPDEST PUSH0 DUP1 PUSH1 0x40 DUP4 DUP6 SUB SLT ISZERO PUSH2 0x266B JUMPI PUSH0 DUP1 REVERT JUMPDEST DUP3 CALLDATALOAD PUSH8 0xFFFFFFFFFFFFFFFF DUP2 GT ISZERO PUSH2 0x2681 JUMPI PUSH0 DUP1 REVERT JUMPDEST PUSH2 0x268D DUP6 DUP3 DUP7 ADD PUSH2 0x2608 JUMP JUMPDEST SWAP6 PUSH1 0x20 SWAP5 SWAP1 SWAP5 ADD CALLDATALOAD SWAP5 POP POP POP POP JUMP JUMPDEST PUSH0 PUSH1 0x20 DUP3 DUP5 SUB SLT ISZERO PUSH2 0x26AC JUMPI PUSH0 DUP1 REVERT JUMPDEST DUP2 CALLDATALOAD PUSH8 0xFFFFFFFFFFFFFFFF DUP2 GT ISZERO PUSH2 0x26C2 JUMPI PUSH0 DUP1 REVERT JUMPDEST PUSH2 0x26CE DUP5 DUP3 DUP6 ADD PUSH2 0x2608 JUMP JUMPDEST SWAP5 SWAP4 POP POP POP POP JUMP JUMPDEST PUSH1 0x1 PUSH1 0x1 PUSH1 0xA0 SHL SUB DUP2 AND DUP2 EQ PUSH2 0x24D6 JUMPI PUSH0 DUP1 REVERT JUMPDEST PUSH0 DUP1 PUSH0 PUSH1 0x60 DUP5 DUP7 SUB SLT ISZERO PUSH2 0x26FC JUMPI PUSH0 DUP1 REVERT JUMPDEST DUP4 CALLDATALOAD PUSH2 0x2707 DUP2 PUSH2 0x26D6 JUMP JUMPDEST SWAP3 POP PUSH1 0x20 DUP5 ADD CALLDATALOAD PUSH2 0x2717 DUP2 PUSH2 0x26D6 JUMP JUMPDEST SWAP2 POP PUSH1 0x40 DUP5 ADD CALLDATALOAD PUSH2 0x2727 DUP2 PUSH2 0x26D6 JUMP JUMPDEST DUP1 SWAP2 POP POP SWAP3 POP SWAP3 POP SWAP3 JUMP JUMPDEST PUSH1 0x20 DUP1 DUP3 MSTORE DUP3 MLOAD DUP3 DUP3 ADD DUP2 SWAP1 MSTORE PUSH0 SWAP2 SWAP1 DUP5 DUP3 ADD SWAP1 PUSH1 0x40 DUP6 ADD SWAP1 DUP5 JUMPDEST DUP2 DUP2 LT ISZERO PUSH2 0x2772 JUMPI DUP4 MLOAD PUSH1 0x1 PUSH1 0x1 PUSH1 0xA0 SHL SUB AND DUP4 MSTORE SWAP3 DUP5 ADD SWAP3 SWAP2 DUP5 ADD SWAP2 PUSH1 0x1 ADD PUSH2 0x274D JUMP JUMPDEST POP SWAP1 SWAP7 SWAP6 POP POP POP POP POP POP JUMP JUMPDEST PUSH0 PUSH1 0x20 DUP1 DUP4 ADD DUP2 DUP5 MSTORE DUP1 DUP6 MLOAD DUP1 DUP4 MSTORE PUSH1 0x40 SWAP3 POP PUSH1 0x40 DUP7 ADD SWAP2 POP PUSH1 0x40 DUP2 PUSH1 0x5 SHL DUP8 ADD ADD DUP5 DUP9 ADD PUSH0 JUMPDEST DUP4 DUP2 LT ISZERO PUSH2 0x2825 JUMPI PUSH1 0x3F NOT DUP10 DUP5 SUB ADD DUP6 MSTORE DUP2 MLOAD PUSH1 0xE0 DUP2 MLOAD DUP2 DUP7 MSTORE PUSH2 0x27CB DUP3 DUP8 ADD DUP3 PUSH2 0x250F JUMP JUMPDEST DUP4 DUP12 ADD MLOAD PUSH1 0x1 PUSH1 0x1 PUSH1 0xA0 SHL SUB SWAP1 DUP2 AND DUP9 DUP14 ADD MSTORE DUP11 DUP6 ADD MLOAD AND DUP11 DUP9 ADD MSTORE PUSH1 0x60 DUP1 DUP6 ADD MLOAD SWAP1 DUP9 ADD MSTORE PUSH1 0x80 DUP1 DUP6 ADD MLOAD SWAP1 DUP9 ADD MSTORE PUSH1 0xA0 DUP1 DUP6 ADD MLOAD SWAP1 DUP9 ADD MSTORE PUSH1 0xC0 SWAP4 DUP5 ADD MLOAD SWAP4 SWAP1 SWAP7 ADD SWAP3 SWAP1 SWAP3 MSTORE POP POP SWAP4 DUP7 ADD SWAP4 SWAP1 DUP7 ADD SWAP1 PUSH1 0x1 ADD PUSH2 0x27A5 JUMP JUMPDEST POP SWAP1 SWAP9 SWAP8 POP POP POP POP POP POP POP POP JUMP JUMPDEST PUSH0 PUSH1 0x20 DUP3 DUP5 SUB SLT ISZERO PUSH2 0x2843 JUMPI PUSH0 DUP1 REVERT JUMPDEST POP CALLDATALOAD SWAP2 SWAP1 POP JUMP JUMPDEST PUSH0 DUP1 PUSH1 0x40 DUP4 DUP6 SUB SLT ISZERO PUSH2 0x285B JUMPI PUSH0 DUP1 REVERT JUMPDEST DUP3 CALLDATALOAD PUSH8 0xFFFFFFFFFFFFFFFF DUP2 GT ISZERO PUSH2 0x2871 JUMPI PUSH0 DUP1 REVERT JUMPDEST PUSH2 0x287D DUP6 DUP3 DUP7 ADD PUSH2 0x2608 JUMP JUMPDEST SWAP3 POP POP PUSH1 0x20 DUP4 ADD CALLDATALOAD PUSH2 0x288E DUP2 PUSH2 0x26D6 JUMP JUMPDEST DUP1 SWAP2 POP POP SWAP3 POP SWAP3 SWAP1 POP JUMP JUMPDEST PUSH0 DUP1 PUSH0 PUSH1 0x60 DUP5 DUP7 SUB SLT ISZERO PUSH2 0x28AB JUMPI PUSH0 DUP1 REVERT JUMPDEST DUP4 CALLDATALOAD PUSH8 0xFFFFFFFFFFFFFFFF DUP2 GT ISZERO PUSH2 0x28C1 JUMPI PUSH0 DUP1 REVERT JUMPDEST PUSH2 0x28CD DUP7 DUP3 DUP8 ADD PUSH2 0x2608 JUMP JUMPDEST SWAP4 POP POP PUSH1 0x20 DUP5 ADD CALLDATALOAD PUSH2 0x28DE DUP2 PUSH2 0x26D6 JUMP JUMPDEST SWAP3 SWAP6 SWAP3 SWAP5 POP POP POP PUSH1 0x40 SWAP2 SWAP1 SWAP2 ADD CALLDATALOAD SWAP1 JUMP JUMPDEST PUSH1 0x1 DUP2 DUP2 SHR SWAP1 DUP3 AND DUP1 PUSH2 0x2903 JUMPI PUSH1 0x7F DUP3 AND SWAP2 POP JUMPDEST PUSH1 0x20 DUP3 LT DUP2 SUB PUSH2 0x2921 JUMPI PUSH4 0x4E487B71 PUSH1 0xE0 SHL PUSH0 MSTORE PUSH1 0x22 PUSH1 0x4 MSTORE PUSH1 0x24 PUSH0 REVERT JUMPDEST POP SWAP2 SWAP1 POP JUMP JUMPDEST PUSH4 0x4E487B71 PUSH1 0xE0 SHL PUSH0 MSTORE PUSH1 0x32 PUSH1 0x4 MSTORE PUSH1 0x24 PUSH0 REVERT JUMPDEST PUSH1 0x20 DUP1 DUP3 MSTORE PUSH1 0x34 SWAP1 DUP3 ADD MSTORE PUSH32 0x68616E79612077616C6C6574206F776E6572732079616E672062697361206D65 PUSH1 0x40 DUP3 ADD MSTORE PUSH20 0x6D616E6767696C2066756E6374696F6E20696E69 PUSH1 0x60 SHL PUSH1 0x60 DUP3 ADD MSTORE PUSH1 0x80 ADD SWAP1 JUMP JUMPDEST PUSH0 DUP3 MLOAD PUSH2 0x29A0 DUP2 DUP5 PUSH1 0x20 DUP8 ADD PUSH2 0x24ED JUMP JUMPDEST SWAP2 SWAP1 SWAP2 ADD SWAP3 SWAP2 POP POP JUMP JUMPDEST PUSH4 0x4E487B71 PUSH1 0xE0 SHL PUSH0 MSTORE PUSH1 0x11 PUSH1 0x4 MSTORE PUSH1 0x24 PUSH0 REVERT JUMPDEST DUP2 DUP2 SUB DUP2 DUP2 GT ISZERO PUSH2 0x29D1 JUMPI PUSH2 0x29D1 PUSH2 0x29AA JUMP JUMPDEST SWAP3 SWAP2 POP POP JUMP JUMPDEST PUSH1 0x20 DUP1 DUP3 MSTORE PUSH1 0x14 SWAP1 DUP3 ADD MSTORE PUSH20 0x746F6B656E20746964616B207465727365646961 PUSH1 0x60 SHL PUSH1 0x40 DUP3 ADD MSTORE PUSH1 0x60 ADD SWAP1 JUMP JUMPDEST PUSH0 PUSH1 0x20 DUP3 DUP5 SUB SLT ISZERO PUSH2 0x2A15 JUMPI PUSH0 DUP1 REVERT JUMPDEST DUP2 MLOAD DUP1 ISZERO ISZERO DUP2 EQ PUSH2 0x2A24 JUMPI PUSH0 DUP1 REVERT JUMPDEST SWAP4 SWAP3 POP POP POP JUMP JUMPDEST PUSH1 0xA0 DUP2 MSTORE PUSH0 PUSH2 0x2A3D PUSH1 0xA0 DUP4 ADD DUP9 PUSH2 0x250F JUMP JUMPDEST PUSH1 0x1 PUSH1 0x1 PUSH1 0xA0 SHL SUB SWAP7 SWAP1 SWAP7 AND PUSH1 0x20 DUP4 ADD MSTORE POP PUSH1 0x40 DUP2 ADD SWAP4 SWAP1 SWAP4 MSTORE PUSH1 0x60 DUP4 ADD SWAP2 SWAP1 SWAP2 MSTORE PUSH1 0x80 SWAP1 SWAP2 ADD MSTORE SWAP2 SWAP1 POP JUMP JUMPDEST PUSH0 PUSH1 0x1 DUP3 ADD PUSH2 0x2A7B JUMPI PUSH2 0x2A7B PUSH2 0x29AA JUMP JUMPDEST POP PUSH1 0x1 ADD SWAP1 JUMP JUMPDEST PUSH4 0x4E487B71 PUSH1 0xE0 SHL PUSH0 MSTORE PUSH1 0x31 PUSH1 0x4 MSTORE PUSH1 0x24 PUSH0 REVERT JUMPDEST PUSH1 0x20 DUP1 DUP3 MSTORE PUSH1 0x28 SWAP1 DUP3 ADD MSTORE PUSH32 0x68616E7961207472616E736665722063726561746F722079616E672064617061 PUSH1 0x40 DUP3 ADD MSTORE PUSH8 0x1D0818D85B98D95B PUSH1 0xC2 SHL PUSH1 0x60 DUP3 ADD MSTORE PUSH1 0x80 ADD SWAP1 JUMP JUMPDEST PUSH1 0xE0 DUP2 MSTORE PUSH0 PUSH2 0x2AF0 PUSH1 0xE0 DUP4 ADD DUP11 PUSH2 0x250F JUMP JUMPDEST PUSH1 0x1 PUSH1 0x1 PUSH1 0xA0 SHL SUB SWAP9 DUP10 AND PUSH1 0x20 DUP5 ADD MSTORE SWAP7 SWAP1 SWAP8 AND PUSH1 0x40 DUP3 ADD MSTORE PUSH1 0x60 DUP2 ADD SWAP5 SWAP1 SWAP5 MSTORE PUSH1 0x80 DUP5 ADD SWAP3 SWAP1 SWAP3 MSTORE PUSH1 0xA0 DUP4 ADD MSTORE PUSH1 0xC0 SWAP1 SWAP2 ADD MSTORE SWAP3 SWAP2 POP POP JUMP JUMPDEST DUP1 DUP3 ADD DUP1 DUP3 GT ISZERO PUSH2 0x29D1 JUMPI PUSH2 0x29D1 PUSH2 0x29AA JUMP JUMPDEST PUSH1 0x1F DUP3 GT ISZERO PUSH2 0x2B81 JUMPI DUP1 PUSH0 MSTORE PUSH1 0x20 PUSH0 KECCAK256 PUSH1 0x1F DUP5 ADD PUSH1 0x5 SHR DUP2 ADD PUSH1 0x20 DUP6 LT ISZERO PUSH2 0x2B62 JUMPI POP DUP1 JUMPDEST PUSH1 0x1F DUP5 ADD PUSH1 0x5 SHR DUP3 ADD SWAP2 POP JUMPDEST DUP2 DUP2 LT ISZERO PUSH2 0xD30 JUMPI PUSH0 DUP2 SSTORE PUSH1 0x1 ADD PUSH2 0x2B6E JUMP JUMPDEST POP POP POP JUMP JUMPDEST DUP2 DUP2 SUB PUSH2 0x2B91 JUMPI POP POP JUMP JUMPDEST PUSH2 0x2B9B DUP3 SLOAD PUSH2 0x28EF JUMP JUMPDEST PUSH8 0xFFFFFFFFFFFFFFFF DUP2 GT ISZERO PUSH2 0x2BB3 JUMPI PUSH2 0x2BB3 PUSH2 0x259C JUMP JUMPDEST PUSH2 0x2BC7 DUP2 PUSH2 0x2BC1 DUP5 SLOAD PUSH2 0x28EF JUMP JUMPDEST DUP5 PUSH2 0x2B3D JUMP JUMPDEST PUSH0 PUSH1 0x1F DUP3 GT PUSH1 0x1 DUP2 EQ PUSH2 0x2BF8 JUMPI PUSH0 DUP4 ISZERO PUSH2 0x2BE1 JUMPI POP DUP5 DUP3 ADD SLOAD JUMPDEST PUSH0 NOT PUSH1 0x3 DUP6 SWAP1 SHL SHR NOT AND PUSH1 0x1 DUP5 SWAP1 SHL OR DUP5 SSTORE PUSH2 0xD30 JUMP JUMPDEST PUSH0 DUP6 DUP2 MSTORE PUSH1 0x20 DUP1 DUP3 KECCAK256 DUP7 DUP4 MSTORE SWAP1 DUP3 KECCAK256 PUSH1 0x1F NOT DUP7 AND SWAP3 JUMPDEST DUP4 DUP2 LT ISZERO PUSH2 0x2C2E JUMPI DUP3 DUP7 ADD SLOAD DUP3 SSTORE PUSH1 0x1 SWAP6 DUP7 ADD SWAP6 SWAP1 SWAP2 ADD SWAP1 PUSH1 0x20 ADD PUSH2 0x2C0E JUMP JUMPDEST POP DUP6 DUP4 LT ISZERO PUSH2 0x2C4B JUMPI DUP2 DUP6 ADD SLOAD PUSH0 NOT PUSH1 0x3 DUP9 SWAP1 SHL PUSH1 0xF8 AND SHR NOT AND DUP2 SSTORE JUMPDEST POP POP POP POP POP PUSH1 0x1 SWAP1 DUP2 SHL ADD SWAP1 SSTORE POP JUMP JUMPDEST PUSH0 DUP1 DUP4 SLOAD PUSH2 0x2C68 DUP2 PUSH2 0x28EF JUMP JUMPDEST PUSH1 0x1 DUP3 DUP2 AND DUP1 ISZERO PUSH2 0x2C80 JUMPI PUSH1 0x1 DUP2 EQ PUSH2 0x2C95 JUMPI PUSH2 0x2CC1 JUMP JUMPDEST PUSH1 0xFF NOT DUP5 AND DUP8 MSTORE DUP3 ISZERO ISZERO DUP4 MUL DUP8 ADD SWAP5 POP PUSH2 0x2CC1 JUMP JUMPDEST DUP8 PUSH0 MSTORE PUSH1 0x20 DUP1 PUSH0 KECCAK256 PUSH0 JUMPDEST DUP6 DUP2 LT ISZERO PUSH2 0x2CB8 JUMPI DUP2 SLOAD DUP11 DUP3 ADD MSTORE SWAP1 DUP5 ADD SWAP1 DUP3 ADD PUSH2 0x2C9F JUMP JUMPDEST POP POP POP DUP3 DUP8 ADD SWAP5 POP JUMPDEST POP SWAP3 SWAP7 SWAP6 POP POP POP POP POP POP JUMP JUMPDEST PUSH0 PUSH1 0x20 DUP3 DUP5 SUB SLT ISZERO PUSH2 0x2CDD JUMPI PUSH0 DUP1 REVERT JUMPDEST DUP2 MLOAD PUSH8 0xFFFFFFFFFFFFFFFF DUP2 GT ISZERO PUSH2 0x2CF3 JUMPI PUSH0 DUP1 REVERT JUMPDEST DUP3 ADD PUSH1 0x1F DUP2 ADD DUP5 SGT PUSH2 0x2D03 JUMPI PUSH0 DUP1 REVERT JUMPDEST DUP1 MLOAD PUSH2 0x2D11 PUSH2 0x2625 DUP3 PUSH2 0x25E1 JUMP JUMPDEST DUP2 DUP2 MSTORE DUP6 PUSH1 0x20 DUP4 DUP6 ADD ADD GT ISZERO PUSH2 0x2D25 JUMPI PUSH0 DUP1 REVERT JUMPDEST PUSH2 0x2D36 DUP3 PUSH1 0x20 DUP4 ADD PUSH1 0x20 DUP7 ADD PUSH2 0x24ED JUMP JUMPDEST SWAP6 SWAP5 POP POP POP POP POP JUMP JUMPDEST DUP2 MLOAD PUSH8 0xFFFFFFFFFFFFFFFF DUP2 GT ISZERO PUSH2 0x2D59 JUMPI PUSH2 0x2D59 PUSH2 0x259C JUMP JUMPDEST PUSH2 0x2D67 DUP2 PUSH2 0x2BC1 DUP5 SLOAD PUSH2 0x28EF JUMP JUMPDEST PUSH1 0x20 DUP1 PUSH1 0x1F DUP4 GT PUSH1 0x1 DUP2 EQ PUSH2 0x2D9A JUMPI PUSH0 DUP5 ISZERO PUSH2 0x2D83 JUMPI POP DUP6 DUP4 ADD MLOAD JUMPDEST PUSH0 NOT PUSH1 0x3 DUP7 SWAP1 SHL SHR NOT AND PUSH1 0x1 DUP6 SWAP1 SHL OR DUP6 SSTORE PUSH2 0x985 JUMP JUMPDEST PUSH0 DUP6 DUP2 MSTORE PUSH1 0x20 DUP2 KECCAK256 PUSH1 0x1F NOT DUP7 AND SWAP2 JUMPDEST DUP3 DUP2 LT ISZERO PUSH2 0x2DC8 JUMPI DUP9 DUP7 ADD MLOAD DUP3 SSTORE SWAP5 DUP5 ADD SWAP5 PUSH1 0x1 SWAP1 SWAP2 ADD SWAP1 DUP5 ADD PUSH2 0x2DA9 JUMP JUMPDEST POP DUP6 DUP3 LT ISZERO PUSH2 0x2C4B JUMPI SWAP4 SWAP1 SWAP7 ADD MLOAD PUSH0 NOT PUSH1 0xF8 PUSH1 0x3 DUP8 SWAP1 SHL AND SHR NOT AND SWAP1 SWAP3 SSTORE POP POP PUSH1 0x1 SWAP1 DUP2 SHL ADD SWAP1 SSTORE POP JUMP JUMPDEST PUSH0 PUSH1 0x1 DUP1 PUSH1 0xA0 SHL SUB DUP1 DUP8 AND DUP4 MSTORE PUSH1 0x80 PUSH1 0x20 DUP5 ADD MSTORE PUSH2 0x2E14 PUSH1 0x80 DUP5 ADD DUP8 PUSH2 0x250F JUMP JUMPDEST SWAP5 AND PUSH1 0x40 DUP4 ADD MSTORE POP PUSH1 0x60 ADD MSTORE SWAP3 SWAP2 POP POP JUMP INVALID LOG2 PUSH5 0x6970667358 0x22 SLT KECCAK256 0xEE SWAP12 0xC6 0xB8 SWAP16 0xEA SWAP16 0xB5 0x22 0x49 0xED DIV LOG2 0xA5 GAS MSTORE SWAP3 PUSH20 0xBF8A11E7E98D8F0821AA0F27002E64736F6C6343 STOP ADDMOD AND STOP CALLER LOG2 PUSH5 0x6970667358 0x22 SLT KECCAK256 0xBB PUSH4 0xD9B48E9F PUSH32 0xDDCD9D125E316F2C4C93E0F2BE3E6DF1239A0862CC7FA742CA64736F6C634300 ADDMOD AND STOP CALLER "
		},
		"gasEstimates": {
			"creation": {
				"codeDepositCost": "2758600",
				"executionCost": "3005",
				"totalCost": "2761605"
			},
			"external": {
				"addNewWalletInstance(address,address)": "infinite",
				"createNewWallet()": "infinite",
				"getOwnerWallets(address)": "infinite",
				"removeNewWalletInstance(address,address)": "infinite"
			}
		},
		"methodIdentifiers": {
			"addNewWalletInstance(address,address)": "269ae8b1",
			"createNewWallet()": "178f0d1c",
			"getOwnerWallets(address)": "bba4c191",
			"removeNewWalletInstance(address,address)": "628bf691"
		}
	},
	"abi": [
		{
			"anonymous": false,
			"inputs": [
				{
					"indexed": false,
					"internalType": "address",
					"name": "createdBy",
					"type": "address"
				},
				{
					"indexed": false,
					"internalType": "address",
					"name": "newWalletContractAddress",
					"type": "address"
				},
				{
					"indexed": false,
					"internalType": "uint256",
					"name": "timeOfTransaction",
					"type": "uint256"
				}
			],
			"name": "walletCreated",
			"type": "event"
		},
		{
			"inputs": [
				{
					"internalType": "address",
					"name": "owner",
					"type": "address"
				},
				{
					"internalType": "address",
					"name": "walletAddress",
					"type": "address"
				}
			],
			"name": "addNewWalletInstance",
			"outputs": [],
			"stateMutability": "nonpayable",
			"type": "function"
		},
		{
			"inputs": [],
			"name": "createNewWallet",
			"outputs": [],
			"stateMutability": "nonpayable",
			"type": "function"
		},
		{
			"inputs": [
				{
					"internalType": "address",
					"name": "owner",
					"type": "address"
				}
			],
			"name": "getOwnerWallets",
			"outputs": [
				{
					"components": [
						{
							"internalType": "address",
							"name": "walletAdress",
							"type": "address"
						}
					],
					"internalType": "struct MultiSigFactory.UserWallets[]",
					"name": "",
					"type": "tuple[]"
				}
			],
			"stateMutability": "view",
			"type": "function"
		},
		{
			"inputs": [
				{
					"internalType": "address",
					"name": "_owner",
					"type": "address"
				},
				{
					"internalType": "address",
					"name": "_walletAddress",
					"type": "address"
				}
			],
			"name": "removeNewWalletInstance",
			"outputs": [],
			"stateMutability": "nonpayable",
			"type": "function"
		}
	]
}